{
	"TOKEN ZARFIX (XZI).sol": {
		"ZarfiXToken": {
			"abi": [
				{
					"inputs": [
						{
							"internalType": "uint256",
							"name": "_cap",
							"type": "uint256"
						}
					],
					"stateMutability": "payable",
					"type": "constructor"
				},
				{
					"inputs": [],
					"name": "AccessControlBadConfirmation",
					"type": "error"
				},
				{
					"inputs": [
						{
							"internalType": "address",
							"name": "account",
							"type": "address"
						},
						{
							"internalType": "bytes32",
							"name": "neededRole",
							"type": "bytes32"
						}
					],
					"name": "AccessControlUnauthorizedAccount",
					"type": "error"
				},
				{
					"inputs": [
						{
							"internalType": "address",
							"name": "target",
							"type": "address"
						}
					],
					"name": "AddressEmptyCode",
					"type": "error"
				},
				{
					"inputs": [
						{
							"internalType": "uint256",
							"name": "attempted",
							"type": "uint256"
						},
						{
							"internalType": "uint256",
							"name": "cap",
							"type": "uint256"
						}
					],
					"name": "CapExceeded",
					"type": "error"
				},
				{
					"inputs": [
						{
							"internalType": "address",
							"name": "implementation",
							"type": "address"
						}
					],
					"name": "ERC1967InvalidImplementation",
					"type": "error"
				},
				{
					"inputs": [],
					"name": "ERC1967NonPayable",
					"type": "error"
				},
				{
					"inputs": [
						{
							"internalType": "address",
							"name": "spender",
							"type": "address"
						},
						{
							"internalType": "uint256",
							"name": "allowance",
							"type": "uint256"
						},
						{
							"internalType": "uint256",
							"name": "needed",
							"type": "uint256"
						}
					],
					"name": "ERC20InsufficientAllowance",
					"type": "error"
				},
				{
					"inputs": [
						{
							"internalType": "address",
							"name": "sender",
							"type": "address"
						},
						{
							"internalType": "uint256",
							"name": "balance",
							"type": "uint256"
						},
						{
							"internalType": "uint256",
							"name": "needed",
							"type": "uint256"
						}
					],
					"name": "ERC20InsufficientBalance",
					"type": "error"
				},
				{
					"inputs": [
						{
							"internalType": "address",
							"name": "approver",
							"type": "address"
						}
					],
					"name": "ERC20InvalidApprover",
					"type": "error"
				},
				{
					"inputs": [
						{
							"internalType": "address",
							"name": "receiver",
							"type": "address"
						}
					],
					"name": "ERC20InvalidReceiver",
					"type": "error"
				},
				{
					"inputs": [
						{
							"internalType": "address",
							"name": "sender",
							"type": "address"
						}
					],
					"name": "ERC20InvalidSender",
					"type": "error"
				},
				{
					"inputs": [
						{
							"internalType": "address",
							"name": "spender",
							"type": "address"
						}
					],
					"name": "ERC20InvalidSpender",
					"type": "error"
				},
				{
					"inputs": [],
					"name": "EmptyArray",
					"type": "error"
				},
				{
					"inputs": [],
					"name": "EnforcedPause",
					"type": "error"
				},
				{
					"inputs": [],
					"name": "ExpectedPause",
					"type": "error"
				},
				{
					"inputs": [],
					"name": "FailedCall",
					"type": "error"
				},
				{
					"inputs": [],
					"name": "InsufficientBalance",
					"type": "error"
				},
				{
					"inputs": [
						{
							"internalType": "uint256",
							"name": "requested",
							"type": "uint256"
						}
					],
					"name": "InvalidBatchSize",
					"type": "error"
				},
				{
					"inputs": [],
					"name": "InvalidInitialization",
					"type": "error"
				},
				{
					"inputs": [],
					"name": "NotInitializing",
					"type": "error"
				},
				{
					"inputs": [],
					"name": "NotWhitelisted",
					"type": "error"
				},
				{
					"inputs": [],
					"name": "ReentrancyGuardReentrantCall",
					"type": "error"
				},
				{
					"inputs": [],
					"name": "UUPSUnauthorizedCallContext",
					"type": "error"
				},
				{
					"inputs": [
						{
							"internalType": "bytes32",
							"name": "slot",
							"type": "bytes32"
						}
					],
					"name": "UUPSUnsupportedProxiableUUID",
					"type": "error"
				},
				{
					"inputs": [],
					"name": "ZeroAddress",
					"type": "error"
				},
				{
					"inputs": [],
					"name": "ZeroAmount",
					"type": "error"
				},
				{
					"anonymous": false,
					"inputs": [
						{
							"indexed": true,
							"internalType": "address",
							"name": "previousAdmin",
							"type": "address"
						},
						{
							"indexed": true,
							"internalType": "address",
							"name": "newAdmin",
							"type": "address"
						}
					],
					"name": "AdminChanged",
					"type": "event"
				},
				{
					"anonymous": false,
					"inputs": [
						{
							"indexed": true,
							"internalType": "address",
							"name": "owner",
							"type": "address"
						},
						{
							"indexed": true,
							"internalType": "address",
							"name": "spender",
							"type": "address"
						},
						{
							"indexed": false,
							"internalType": "uint256",
							"name": "value",
							"type": "uint256"
						}
					],
					"name": "Approval",
					"type": "event"
				},
				{
					"anonymous": false,
					"inputs": [
						{
							"indexed": true,
							"internalType": "uint256",
							"name": "offset",
							"type": "uint256"
						},
						{
							"indexed": true,
							"internalType": "uint256",
							"name": "limit",
							"type": "uint256"
						}
					],
					"name": "BatchProcessed",
					"type": "event"
				},
				{
					"anonymous": false,
					"inputs": [
						{
							"indexed": true,
							"internalType": "address",
							"name": "admin",
							"type": "address"
						},
						{
							"indexed": false,
							"internalType": "string",
							"name": "name",
							"type": "string"
						},
						{
							"indexed": false,
							"internalType": "string",
							"name": "symbol",
							"type": "string"
						}
					],
					"name": "ContractInitialized",
					"type": "event"
				},
				{
					"anonymous": false,
					"inputs": [
						{
							"indexed": true,
							"internalType": "address",
							"name": "account",
							"type": "address"
						}
					],
					"name": "ContractPaused",
					"type": "event"
				},
				{
					"anonymous": false,
					"inputs": [
						{
							"indexed": true,
							"internalType": "address",
							"name": "account",
							"type": "address"
						}
					],
					"name": "ContractUnpaused",
					"type": "event"
				},
				{
					"anonymous": false,
					"inputs": [
						{
							"indexed": false,
							"internalType": "uint64",
							"name": "version",
							"type": "uint64"
						}
					],
					"name": "Initialized",
					"type": "event"
				},
				{
					"anonymous": false,
					"inputs": [
						{
							"indexed": false,
							"internalType": "address",
							"name": "account",
							"type": "address"
						}
					],
					"name": "Paused",
					"type": "event"
				},
				{
					"anonymous": false,
					"inputs": [
						{
							"indexed": true,
							"internalType": "bytes32",
							"name": "role",
							"type": "bytes32"
						},
						{
							"indexed": true,
							"internalType": "bytes32",
							"name": "previousAdminRole",
							"type": "bytes32"
						},
						{
							"indexed": true,
							"internalType": "bytes32",
							"name": "newAdminRole",
							"type": "bytes32"
						}
					],
					"name": "RoleAdminChanged",
					"type": "event"
				},
				{
					"anonymous": false,
					"inputs": [
						{
							"indexed": true,
							"internalType": "bytes32",
							"name": "role",
							"type": "bytes32"
						},
						{
							"indexed": true,
							"internalType": "address",
							"name": "account",
							"type": "address"
						},
						{
							"indexed": true,
							"internalType": "address",
							"name": "sender",
							"type": "address"
						}
					],
					"name": "RoleGranted",
					"type": "event"
				},
				{
					"anonymous": false,
					"inputs": [
						{
							"indexed": true,
							"internalType": "bytes32",
							"name": "role",
							"type": "bytes32"
						},
						{
							"indexed": true,
							"internalType": "address",
							"name": "account",
							"type": "address"
						},
						{
							"indexed": true,
							"internalType": "address",
							"name": "sender",
							"type": "address"
						}
					],
					"name": "RoleRevoked",
					"type": "event"
				},
				{
					"anonymous": false,
					"inputs": [
						{
							"indexed": true,
							"internalType": "address",
							"name": "from",
							"type": "address"
						},
						{
							"indexed": true,
							"internalType": "address",
							"name": "to",
							"type": "address"
						},
						{
							"indexed": false,
							"internalType": "uint256",
							"name": "amount",
							"type": "uint256"
						}
					],
					"name": "TokenTransfer",
					"type": "event"
				},
				{
					"anonymous": false,
					"inputs": [
						{
							"indexed": true,
							"internalType": "address",
							"name": "from",
							"type": "address"
						},
						{
							"indexed": true,
							"internalType": "uint256",
							"name": "amount",
							"type": "uint256"
						}
					],
					"name": "TokensBurned",
					"type": "event"
				},
				{
					"anonymous": false,
					"inputs": [
						{
							"indexed": true,
							"internalType": "address",
							"name": "to",
							"type": "address"
						},
						{
							"indexed": true,
							"internalType": "uint256",
							"name": "amount",
							"type": "uint256"
						}
					],
					"name": "TokensMinted",
					"type": "event"
				},
				{
					"anonymous": false,
					"inputs": [
						{
							"indexed": true,
							"internalType": "address",
							"name": "from",
							"type": "address"
						},
						{
							"indexed": true,
							"internalType": "address",
							"name": "to",
							"type": "address"
						},
						{
							"indexed": false,
							"internalType": "uint256",
							"name": "value",
							"type": "uint256"
						}
					],
					"name": "Transfer",
					"type": "event"
				},
				{
					"anonymous": false,
					"inputs": [
						{
							"indexed": false,
							"internalType": "address",
							"name": "account",
							"type": "address"
						}
					],
					"name": "Unpaused",
					"type": "event"
				},
				{
					"anonymous": false,
					"inputs": [
						{
							"indexed": true,
							"internalType": "address",
							"name": "implementation",
							"type": "address"
						}
					],
					"name": "Upgraded",
					"type": "event"
				},
				{
					"anonymous": false,
					"inputs": [
						{
							"indexed": true,
							"internalType": "address",
							"name": "account",
							"type": "address"
						},
						{
							"indexed": true,
							"internalType": "bool",
							"name": "status",
							"type": "bool"
						}
					],
					"name": "WhitelistUpdated",
					"type": "event"
				},
				{
					"inputs": [],
					"name": "CAP",
					"outputs": [
						{
							"internalType": "uint256",
							"name": "",
							"type": "uint256"
						}
					],
					"stateMutability": "view",
					"type": "function"
				},
				{
					"inputs": [],
					"name": "DEFAULT_ADMIN_ROLE",
					"outputs": [
						{
							"internalType": "bytes32",
							"name": "",
							"type": "bytes32"
						}
					],
					"stateMutability": "view",
					"type": "function"
				},
				{
					"inputs": [],
					"name": "UPGRADE_INTERFACE_VERSION",
					"outputs": [
						{
							"internalType": "string",
							"name": "",
							"type": "string"
						}
					],
					"stateMutability": "view",
					"type": "function"
				},
				{
					"inputs": [
						{
							"internalType": "address",
							"name": "_account",
							"type": "address"
						}
					],
					"name": "addToWhitelist",
					"outputs": [],
					"stateMutability": "nonpayable",
					"type": "function"
				},
				{
					"inputs": [
						{
							"internalType": "address",
							"name": "owner",
							"type": "address"
						},
						{
							"internalType": "address",
							"name": "spender",
							"type": "address"
						}
					],
					"name": "allowance",
					"outputs": [
						{
							"internalType": "uint256",
							"name": "",
							"type": "uint256"
						}
					],
					"stateMutability": "view",
					"type": "function"
				},
				{
					"inputs": [
						{
							"internalType": "address",
							"name": "spender",
							"type": "address"
						},
						{
							"internalType": "uint256",
							"name": "value",
							"type": "uint256"
						}
					],
					"name": "approve",
					"outputs": [
						{
							"internalType": "bool",
							"name": "",
							"type": "bool"
						}
					],
					"stateMutability": "nonpayable",
					"type": "function"
				},
				{
					"inputs": [
						{
							"internalType": "address",
							"name": "account",
							"type": "address"
						}
					],
					"name": "balanceOf",
					"outputs": [
						{
							"internalType": "uint256",
							"name": "",
							"type": "uint256"
						}
					],
					"stateMutability": "view",
					"type": "function"
				},
				{
					"inputs": [
						{
							"internalType": "address[]",
							"name": "_accounts",
							"type": "address[]"
						},
						{
							"internalType": "uint256",
							"name": "_offset",
							"type": "uint256"
						},
						{
							"internalType": "uint256",
							"name": "_limit",
							"type": "uint256"
						}
					],
					"name": "batchRemoveFromWhitelist",
					"outputs": [],
					"stateMutability": "nonpayable",
					"type": "function"
				},
				{
					"inputs": [
						{
							"internalType": "address",
							"name": "_from",
							"type": "address"
						},
						{
							"internalType": "uint256",
							"name": "_amount",
							"type": "uint256"
						}
					],
					"name": "burn",
					"outputs": [],
					"stateMutability": "nonpayable",
					"type": "function"
				},
				{
					"inputs": [],
					"name": "cap",
					"outputs": [
						{
							"internalType": "uint256",
							"name": "",
							"type": "uint256"
						}
					],
					"stateMutability": "view",
					"type": "function"
				},
				{
					"inputs": [],
					"name": "decimals",
					"outputs": [
						{
							"internalType": "uint8",
							"name": "",
							"type": "uint8"
						}
					],
					"stateMutability": "view",
					"type": "function"
				},
				{
					"inputs": [
						{
							"internalType": "bytes32",
							"name": "role",
							"type": "bytes32"
						}
					],
					"name": "getRoleAdmin",
					"outputs": [
						{
							"internalType": "bytes32",
							"name": "",
							"type": "bytes32"
						}
					],
					"stateMutability": "view",
					"type": "function"
				},
				{
					"inputs": [
						{
							"internalType": "bytes32",
							"name": "role",
							"type": "bytes32"
						},
						{
							"internalType": "address",
							"name": "account",
							"type": "address"
						}
					],
					"name": "grantRole",
					"outputs": [],
					"stateMutability": "nonpayable",
					"type": "function"
				},
				{
					"inputs": [
						{
							"internalType": "bytes32",
							"name": "role",
							"type": "bytes32"
						},
						{
							"internalType": "address",
							"name": "account",
							"type": "address"
						}
					],
					"name": "hasRole",
					"outputs": [
						{
							"internalType": "bool",
							"name": "",
							"type": "bool"
						}
					],
					"stateMutability": "view",
					"type": "function"
				},
				{
					"inputs": [
						{
							"internalType": "string",
							"name": "_name",
							"type": "string"
						},
						{
							"internalType": "string",
							"name": "_symbol",
							"type": "string"
						},
						{
							"internalType": "address",
							"name": "_admin",
							"type": "address"
						}
					],
					"name": "initialize",
					"outputs": [],
					"stateMutability": "nonpayable",
					"type": "function"
				},
				{
					"inputs": [
						{
							"internalType": "address",
							"name": "_account",
							"type": "address"
						}
					],
					"name": "isWhitelisted",
					"outputs": [
						{
							"internalType": "bool",
							"name": "",
							"type": "bool"
						}
					],
					"stateMutability": "view",
					"type": "function"
				},
				{
					"inputs": [],
					"name": "maxBatchSize",
					"outputs": [
						{
							"internalType": "uint256",
							"name": "",
							"type": "uint256"
						}
					],
					"stateMutability": "pure",
					"type": "function"
				},
				{
					"inputs": [
						{
							"internalType": "address",
							"name": "_to",
							"type": "address"
						},
						{
							"internalType": "uint256",
							"name": "_amount",
							"type": "uint256"
						}
					],
					"name": "mint",
					"outputs": [],
					"stateMutability": "nonpayable",
					"type": "function"
				},
				{
					"inputs": [],
					"name": "name",
					"outputs": [
						{
							"internalType": "string",
							"name": "",
							"type": "string"
						}
					],
					"stateMutability": "view",
					"type": "function"
				},
				{
					"inputs": [],
					"name": "pause",
					"outputs": [],
					"stateMutability": "nonpayable",
					"type": "function"
				},
				{
					"inputs": [],
					"name": "paused",
					"outputs": [
						{
							"internalType": "bool",
							"name": "",
							"type": "bool"
						}
					],
					"stateMutability": "view",
					"type": "function"
				},
				{
					"inputs": [
						{
							"internalType": "address[]",
							"name": "_accounts",
							"type": "address[]"
						},
						{
							"internalType": "uint256",
							"name": "_offset",
							"type": "uint256"
						},
						{
							"internalType": "uint256",
							"name": "_limit",
							"type": "uint256"
						}
					],
					"name": "processBatch",
					"outputs": [],
					"stateMutability": "nonpayable",
					"type": "function"
				},
				{
					"inputs": [],
					"name": "proxiableUUID",
					"outputs": [
						{
							"internalType": "bytes32",
							"name": "",
							"type": "bytes32"
						}
					],
					"stateMutability": "view",
					"type": "function"
				},
				{
					"inputs": [],
					"name": "remainingMintable",
					"outputs": [
						{
							"internalType": "uint256",
							"name": "",
							"type": "uint256"
						}
					],
					"stateMutability": "view",
					"type": "function"
				},
				{
					"inputs": [
						{
							"internalType": "address",
							"name": "_account",
							"type": "address"
						}
					],
					"name": "removeFromWhitelist",
					"outputs": [],
					"stateMutability": "nonpayable",
					"type": "function"
				},
				{
					"inputs": [
						{
							"internalType": "bytes32",
							"name": "role",
							"type": "bytes32"
						},
						{
							"internalType": "address",
							"name": "callerConfirmation",
							"type": "address"
						}
					],
					"name": "renounceRole",
					"outputs": [],
					"stateMutability": "nonpayable",
					"type": "function"
				},
				{
					"inputs": [
						{
							"internalType": "bytes32",
							"name": "role",
							"type": "bytes32"
						},
						{
							"internalType": "address",
							"name": "account",
							"type": "address"
						}
					],
					"name": "revokeRole",
					"outputs": [],
					"stateMutability": "nonpayable",
					"type": "function"
				},
				{
					"inputs": [
						{
							"internalType": "bytes4",
							"name": "interfaceId",
							"type": "bytes4"
						}
					],
					"name": "supportsInterface",
					"outputs": [
						{
							"internalType": "bool",
							"name": "",
							"type": "bool"
						}
					],
					"stateMutability": "view",
					"type": "function"
				},
				{
					"inputs": [],
					"name": "symbol",
					"outputs": [
						{
							"internalType": "string",
							"name": "",
							"type": "string"
						}
					],
					"stateMutability": "view",
					"type": "function"
				},
				{
					"inputs": [],
					"name": "totalSupply",
					"outputs": [
						{
							"internalType": "uint256",
							"name": "",
							"type": "uint256"
						}
					],
					"stateMutability": "view",
					"type": "function"
				},
				{
					"inputs": [
						{
							"internalType": "address",
							"name": "_to",
							"type": "address"
						},
						{
							"internalType": "uint256",
							"name": "_amount",
							"type": "uint256"
						}
					],
					"name": "transfer",
					"outputs": [
						{
							"internalType": "bool",
							"name": "",
							"type": "bool"
						}
					],
					"stateMutability": "nonpayable",
					"type": "function"
				},
				{
					"inputs": [
						{
							"internalType": "address",
							"name": "_from",
							"type": "address"
						},
						{
							"internalType": "address",
							"name": "_to",
							"type": "address"
						},
						{
							"internalType": "uint256",
							"name": "_amount",
							"type": "uint256"
						}
					],
					"name": "transferFrom",
					"outputs": [
						{
							"internalType": "bool",
							"name": "",
							"type": "bool"
						}
					],
					"stateMutability": "nonpayable",
					"type": "function"
				},
				{
					"inputs": [],
					"name": "unpause",
					"outputs": [],
					"stateMutability": "nonpayable",
					"type": "function"
				},
				{
					"inputs": [
						{
							"internalType": "address",
							"name": "newImplementation",
							"type": "address"
						},
						{
							"internalType": "bytes",
							"name": "data",
							"type": "bytes"
						}
					],
					"name": "upgradeToAndCall",
					"outputs": [],
					"stateMutability": "payable",
					"type": "function"
				}
			],
			"devdoc": {
				"author": "ZarfiX Security Team",
				"custom:security-contact": "security@zarfix.com",
				"custom:version": "1.0.1",
				"details": "UUPS upgradeable ERC-20 token implementing batch processing, gas optimizations, and comprehensive security measures",
				"errors": {
					"AccessControlBadConfirmation()": [
						{
							"details": "The caller of a function is not the expected one. NOTE: Don't confuse with {AccessControlUnauthorizedAccount}."
						}
					],
					"AccessControlUnauthorizedAccount(address,bytes32)": [
						{
							"details": "The `account` is missing a role."
						}
					],
					"AddressEmptyCode(address)": [
						{
							"details": "There's no code at `target` (it is not a contract)."
						}
					],
					"CapExceeded(uint256,uint256)": [
						{
							"params": {
								"attempted": "The amount attempted to mint",
								"cap": "The maximum allowed cap"
							}
						}
					],
					"ERC1967InvalidImplementation(address)": [
						{
							"details": "The `implementation` of the proxy is invalid."
						}
					],
					"ERC1967NonPayable()": [
						{
							"details": "An upgrade function sees `msg.value > 0` that may be lost."
						}
					],
					"ERC20InsufficientAllowance(address,uint256,uint256)": [
						{
							"details": "Indicates a failure with the `spender`s `allowance`. Used in transfers.",
							"params": {
								"allowance": "Amount of tokens a `spender` is allowed to operate with.",
								"needed": "Minimum amount required to perform a transfer.",
								"spender": "Address that may be allowed to operate on tokens without being their owner."
							}
						}
					],
					"ERC20InsufficientBalance(address,uint256,uint256)": [
						{
							"details": "Indicates an error related to the current `balance` of a `sender`. Used in transfers.",
							"params": {
								"balance": "Current balance for the interacting account.",
								"needed": "Minimum amount required to perform a transfer.",
								"sender": "Address whose tokens are being transferred."
							}
						}
					],
					"ERC20InvalidApprover(address)": [
						{
							"details": "Indicates a failure with the `approver` of a token to be approved. Used in approvals.",
							"params": {
								"approver": "Address initiating an approval operation."
							}
						}
					],
					"ERC20InvalidReceiver(address)": [
						{
							"details": "Indicates a failure with the token `receiver`. Used in transfers.",
							"params": {
								"receiver": "Address to which tokens are being transferred."
							}
						}
					],
					"ERC20InvalidSender(address)": [
						{
							"details": "Indicates a failure with the token `sender`. Used in transfers.",
							"params": {
								"sender": "Address whose tokens are being transferred."
							}
						}
					],
					"ERC20InvalidSpender(address)": [
						{
							"details": "Indicates a failure with the `spender` to be approved. Used in approvals.",
							"params": {
								"spender": "Address that may be allowed to operate on tokens without being their owner."
							}
						}
					],
					"EnforcedPause()": [
						{
							"details": "The operation failed because the contract is paused."
						}
					],
					"ExpectedPause()": [
						{
							"details": "The operation failed because the contract is not paused."
						}
					],
					"FailedCall()": [
						{
							"details": "A call to an address target failed. The target may have reverted."
						}
					],
					"InvalidBatchSize(uint256)": [
						{
							"params": {
								"requested": "The requested batch size"
							}
						}
					],
					"InvalidInitialization()": [
						{
							"details": "The contract is already initialized."
						}
					],
					"NotInitializing()": [
						{
							"details": "The contract is not initializing."
						}
					],
					"ReentrancyGuardReentrantCall()": [
						{
							"details": "Unauthorized reentrant call."
						}
					],
					"UUPSUnauthorizedCallContext()": [
						{
							"details": "The call is from an unauthorized context."
						}
					],
					"UUPSUnsupportedProxiableUUID(bytes32)": [
						{
							"details": "The storage `slot` is unsupported as a UUID."
						}
					]
				},
				"events": {
					"AdminChanged(address,address)": {
						"params": {
							"newAdmin": "The new admin address",
							"previousAdmin": "The previous admin address"
						}
					},
					"Approval(address,address,uint256)": {
						"details": "Emitted when the allowance of a `spender` for an `owner` is set by a call to {approve}. `value` is the new allowance."
					},
					"BatchProcessed(uint256,uint256)": {
						"params": {
							"limit": "The number of items processed in the batch",
							"offset": "The starting index of the batch"
						}
					},
					"ContractInitialized(address,string,string)": {
						"params": {
							"admin": "The initial admin address",
							"name": "The token name",
							"symbol": "The token symbol"
						}
					},
					"Initialized(uint64)": {
						"details": "Triggered when the contract has been initialized or reinitialized."
					},
					"Paused(address)": {
						"details": "Emitted when the pause is triggered by `account`."
					},
					"RoleAdminChanged(bytes32,bytes32,bytes32)": {
						"details": "Emitted when `newAdminRole` is set as ``role``'s admin role, replacing `previousAdminRole` `DEFAULT_ADMIN_ROLE` is the starting admin for all roles, despite {RoleAdminChanged} not being emitted to signal this."
					},
					"RoleGranted(bytes32,address,address)": {
						"details": "Emitted when `account` is granted `role`. `sender` is the account that originated the contract call. This account bears the admin role (for the granted role). Expected in cases where the role was granted using the internal {AccessControl-_grantRole}."
					},
					"RoleRevoked(bytes32,address,address)": {
						"details": "Emitted when `account` is revoked `role`. `sender` is the account that originated the contract call:   - if using `revokeRole`, it is the admin role bearer   - if using `renounceRole`, it is the role bearer (i.e. `account`)"
					},
					"TokenTransfer(address,address,uint256)": {
						"params": {
							"amount": "The amount transferred",
							"from": "The sender address",
							"to": "The recipient address"
						}
					},
					"TokensBurned(address,uint256)": {
						"params": {
							"amount": "The amount of tokens burned",
							"from": "The address from which tokens are burned"
						}
					},
					"TokensMinted(address,uint256)": {
						"params": {
							"amount": "The amount of tokens minted",
							"to": "The address receiving the minted tokens"
						}
					},
					"Transfer(address,address,uint256)": {
						"details": "Emitted when `value` tokens are moved from one account (`from`) to another (`to`). Note that `value` may be zero."
					},
					"Unpaused(address)": {
						"details": "Emitted when the pause is lifted by `account`."
					},
					"Upgraded(address)": {
						"details": "Emitted when the implementation is upgraded."
					},
					"WhitelistUpdated(address,bool)": {
						"params": {
							"account": "The address whose whitelist status changed",
							"status": "The new whitelist status (true = whitelisted, false = removed)"
						}
					}
				},
				"kind": "dev",
				"methods": {
					"addToWhitelist(address)": {
						"details": "Only callable by addresses with COMPLIANCE_ROLE",
						"params": {
							"_account": "The address to whitelist"
						}
					},
					"allowance(address,address)": {
						"details": "See {IERC20-allowance}."
					},
					"approve(address,uint256)": {
						"details": "See {IERC20-approve}. NOTE: If `value` is the maximum `uint256`, the allowance is not updated on `transferFrom`. This is semantically equivalent to an infinite approval. Requirements: - `spender` cannot be the zero address."
					},
					"balanceOf(address)": {
						"details": "See {IERC20-balanceOf}."
					},
					"batchRemoveFromWhitelist(address[],uint256,uint256)": {
						"details": "Implements bounded batch processing to avoid gas limit issues",
						"params": {
							"_accounts": "Array of addresses to remove from whitelist",
							"_limit": "Maximum number of addresses to process",
							"_offset": "Starting index for processing"
						}
					},
					"burn(address,uint256)": {
						"details": "Only callable by addresses with ISSUER_ROLE",
						"params": {
							"_amount": "The amount of tokens to burn",
							"_from": "The address from which to burn tokens"
						}
					},
					"cap()": {
						"returns": {
							"_0": "The maximum total supply that can ever exist"
						}
					},
					"constructor": {
						"params": {
							"_cap": "The maximum total supply that can ever be minted"
						}
					},
					"decimals()": {
						"details": "Returns the number of decimals used to get its user representation. For example, if `decimals` equals `2`, a balance of `505` tokens should be displayed to a user as `5.05` (`505 / 10 ** 2`). Tokens usually opt for a value of 18, imitating the relationship between Ether and Wei. This is the default value returned by this function, unless it's overridden. NOTE: This information is only used for _display_ purposes: it in no way affects any of the arithmetic of the contract, including {IERC20-balanceOf} and {IERC20-transfer}."
					},
					"getRoleAdmin(bytes32)": {
						"details": "Returns the admin role that controls `role`. See {grantRole} and {revokeRole}. To change a role's admin, use {_setRoleAdmin}."
					},
					"grantRole(bytes32,address)": {
						"details": "Grants `role` to `account`. If `account` had not been already granted `role`, emits a {RoleGranted} event. Requirements: - the caller must have ``role``'s admin role. May emit a {RoleGranted} event."
					},
					"hasRole(bytes32,address)": {
						"details": "Returns `true` if `account` has been granted `role`."
					},
					"initialize(string,string,address)": {
						"details": "This function can only be called once due to the initializer modifier",
						"params": {
							"_admin": "The address to receive all administrative roles",
							"_name": "The name of the token",
							"_symbol": "The symbol of the token"
						}
					},
					"isWhitelisted(address)": {
						"params": {
							"_account": "The address to check"
						},
						"returns": {
							"_0": "True if the address is whitelisted, false otherwise"
						}
					},
					"maxBatchSize()": {
						"returns": {
							"_0": "The maximum number of addresses that can be processed in one batch"
						}
					},
					"mint(address,uint256)": {
						"details": "Only callable by addresses with ISSUER_ROLE, respects total supply cap and whitelist",
						"params": {
							"_amount": "The amount of tokens to mint",
							"_to": "The address to receive the minted tokens"
						}
					},
					"name()": {
						"details": "Returns the name of the token."
					},
					"pause()": {
						"details": "Only callable by addresses with PAUSER_ROLE, emits Paused event automatically"
					},
					"paused()": {
						"details": "Returns true if the contract is paused, and false otherwise."
					},
					"processBatch(address[],uint256,uint256)": {
						"details": "Implements bounded batch processing to avoid gas limit issues",
						"params": {
							"_accounts": "Array of addresses to whitelist",
							"_limit": "Maximum number of addresses to process",
							"_offset": "Starting index for processing"
						}
					},
					"proxiableUUID()": {
						"details": "Implementation of the ERC-1822 {proxiableUUID} function. This returns the storage slot used by the implementation. It is used to validate the implementation's compatibility when performing an upgrade. IMPORTANT: A proxy pointing at a proxiable contract should not be considered proxiable itself, because this risks bricking a proxy that upgrades to it, by delegating to itself until out of gas. Thus it is critical that this function revert if invoked through a proxy. This is guaranteed by the `notDelegated` modifier."
					},
					"remainingMintable()": {
						"returns": {
							"_0": "The number of tokens that can still be minted"
						}
					},
					"removeFromWhitelist(address)": {
						"details": "Only callable by addresses with COMPLIANCE_ROLE",
						"params": {
							"_account": "The address to remove from whitelist"
						}
					},
					"renounceRole(bytes32,address)": {
						"details": "Revokes `role` from the calling account. Roles are often managed via {grantRole} and {revokeRole}: this function's purpose is to provide a mechanism for accounts to lose their privileges if they are compromised (such as when a trusted device is misplaced). If the calling account had been revoked `role`, emits a {RoleRevoked} event. Requirements: - the caller must be `callerConfirmation`. May emit a {RoleRevoked} event."
					},
					"revokeRole(bytes32,address)": {
						"details": "Revokes `role` from `account`. If `account` had been granted `role`, emits a {RoleRevoked} event. Requirements: - the caller must have ``role``'s admin role. May emit a {RoleRevoked} event."
					},
					"supportsInterface(bytes4)": {
						"details": "See {IERC165-supportsInterface}."
					},
					"symbol()": {
						"details": "Returns the symbol of the token, usually a shorter version of the name."
					},
					"totalSupply()": {
						"details": "Gas-optimized version using cached supply",
						"returns": {
							"_0": "The current total supply"
						}
					},
					"transfer(address,uint256)": {
						"details": "Overrides ERC20 transfer to add whitelist and pause checks",
						"params": {
							"_amount": "The amount to transfer",
							"_to": "The recipient address"
						},
						"returns": {
							"_0": "True if transfer succeeds"
						}
					},
					"transferFrom(address,address,uint256)": {
						"details": "Overrides ERC20 transferFrom to add whitelist and pause checks",
						"params": {
							"_amount": "The amount to transfer",
							"_from": "The sender address",
							"_to": "The recipient address"
						},
						"returns": {
							"_0": "True if transfer succeeds"
						}
					},
					"unpause()": {
						"details": "Only callable by addresses with PAUSER_ROLE, emits Unpaused event automatically"
					},
					"upgradeToAndCall(address,bytes)": {
						"custom:oz-upgrades-unsafe-allow-reachable": "delegatecall",
						"details": "Upgrade the implementation of the proxy to `newImplementation`, and subsequently execute the function call encoded in `data`. Calls {_authorizeUpgrade}. Emits an {Upgraded} event."
					}
				},
				"stateVariables": {
					"__gap": {
						"details": "Reserved storage space for future upgrades to maintain storage layout compatibility"
					}
				},
				"title": "ZarfiXToken",
				"version": 1
			},
			"evm": {
				"assembly": "    /* \"TOKEN ZARFIX (XZI).sol\":1094:21114  contract ZarfiXToken is ... */\n  0xc0\n  0x40\n  dup2\n  swap1\n  mstore\n    /* \"@openzeppelin/contracts-upgradeable/proxy/utils/UUPSUpgradeable.sol\":1171:1175  this */\n  address\n    /* \"@openzeppelin/contracts-upgradeable/proxy/utils/UUPSUpgradeable.sol\":1128:1176  address private immutable __self = address(this) */\n  0x80\n  mstore\n    /* \"TOKEN ZARFIX (XZI).sol\":6478:6709  constructor(uint256 _cap) payable {... */\n  bytecodeSize\n  codesize\n  dup2\n  swap1\n  sub\n  swap1\n  dup2\n  swap1\n    /* \"TOKEN ZARFIX (XZI).sol\":1094:21114  contract ZarfiXToken is ... */\n  dup4\n    /* \"TOKEN ZARFIX (XZI).sol\":6478:6709  constructor(uint256 _cap) payable {... */\n  codecopy\n  dup2\n  add\n  0x40\n  dup2\n  swap1\n  mstore\n  tag_1\n  swap2\n  tag_2\n  jump\t// in\ntag_1:\n    /* \"TOKEN ZARFIX (XZI).sol\":6530:6534  _cap */\n  dup1\n    /* \"TOKEN ZARFIX (XZI).sol\":6538:6539  0 */\n  0x00\n    /* \"TOKEN ZARFIX (XZI).sol\":6530:6539  _cap != 0 */\n  sub\n    /* \"TOKEN ZARFIX (XZI).sol\":6522:6562  require(_cap != 0, \"Invalid cap amount\") */\n  tag_5\n  jumpi\n  mload(0x40)\n  shl(0xe5, 0x461bcd)\n  dup2\n  mstore\n    /* \"#utility.yul\":405:407   */\n  0x20\n    /* \"TOKEN ZARFIX (XZI).sol\":6522:6562  require(_cap != 0, \"Invalid cap amount\") */\n  0x04\n  dup3\n  add\n    /* \"#utility.yul\":387:408   */\n  mstore\n    /* \"#utility.yul\":444:446   */\n  0x12\n    /* \"#utility.yul\":424:442   */\n  0x24\n  dup3\n  add\n    /* \"#utility.yul\":417:447   */\n  mstore\n  shl(0x72, 0x125b9d985b1a590818d85c08185b5bdd5b9d)\n    /* \"#utility.yul\":463:481   */\n  0x44\n  dup3\n  add\n    /* \"#utility.yul\":456:504   */\n  mstore\n    /* \"#utility.yul\":521:539   */\n  0x64\n  add\n    /* \"TOKEN ZARFIX (XZI).sol\":6522:6562  require(_cap != 0, \"Invalid cap amount\") */\n  mload(0x40)\n  dup1\n  swap2\n  sub\n  swap1\n  revert\ntag_5:\n    /* \"TOKEN ZARFIX (XZI).sol\":6572:6582  CAP = _cap */\n  0xa0\n  mstore\n    /* \"TOKEN ZARFIX (XZI).sol\":6701:6702  1 */\n  0x01\n    /* \"TOKEN ZARFIX (XZI).sol\":6684:6702  _currentSupply = 1 */\n  dup1\n  sstore\n    /* \"TOKEN ZARFIX (XZI).sol\":1094:21114  contract ZarfiXToken is ... */\n  jump(tag_9)\n    /* \"#utility.yul\":14:198   */\ntag_2:\n    /* \"#utility.yul\":84:90   */\n  0x00\n    /* \"#utility.yul\":137:139   */\n  0x20\n    /* \"#utility.yul\":125:134   */\n  dup3\n    /* \"#utility.yul\":116:123   */\n  dup5\n    /* \"#utility.yul\":112:135   */\n  sub\n    /* \"#utility.yul\":108:140   */\n  slt\n    /* \"#utility.yul\":105:157   */\n  iszero\n  tag_11\n  jumpi\n    /* \"#utility.yul\":153:154   */\n  0x00\n    /* \"#utility.yul\":150:151   */\n  0x00\n    /* \"#utility.yul\":143:155   */\n  revert\n    /* \"#utility.yul\":105:157   */\ntag_11:\n  pop\n    /* \"#utility.yul\":176:192   */\n  mload\n  swap2\n    /* \"#utility.yul\":14:198   */\n  swap1\n  pop\n  jump\t// out\n    /* \"#utility.yul\":203:545   */\ntag_9:\n    /* \"TOKEN ZARFIX (XZI).sol\":1094:21114  contract ZarfiXToken is ... */\n  mload(0x80)\n  mload(0xa0)\n  codecopy(0x00, dataOffset(sub_0), dataSize(sub_0))\n  0x00\n  assignImmutable(\"0x3d20d9702e2f5746efe4f161f9f2eec6795a257d6728ef74ed6f6785803bd046\")\n  0x00\n  assignImmutable(\"0x903cf98c709a9afd0d51d5fd348ba936789b2b73452753a58f859a0a579afd\")\n  return(0x00, dataSize(sub_0))\nstop\n\nsub_0: assembly {\n        /* \"TOKEN ZARFIX (XZI).sol\":1094:21114  contract ZarfiXToken is ... */\n      mstore(0x40, 0x80)\n      jumpi(tag_1, lt(calldatasize, 0x04))\n      shr(0xe0, calldataload(0x00))\n      dup1\n      0x52d1902d\n      gt\n      tag_36\n      jumpi\n      dup1\n      0xa217fddf\n      gt\n      tag_37\n      jumpi\n      dup1\n      0xd547741f\n      gt\n      tag_38\n      jumpi\n      dup1\n      0xd547741f\n      eq\n      tag_31\n      jumpi\n      dup1\n      0xdd62ed3e\n      eq\n      tag_32\n      jumpi\n      dup1\n      0xe43252d7\n      eq\n      tag_33\n      jumpi\n      dup1\n      0xec81b483\n      eq\n      tag_34\n      jumpi\n      dup1\n      0xf76e95e5\n      eq\n      tag_35\n      jumpi\n      revert(0x00, 0x00)\n    tag_38:\n      dup1\n      0xa217fddf\n      eq\n      tag_27\n      jumpi\n      dup1\n      0xa9059cbb\n      eq\n      tag_28\n      jumpi\n      dup1\n      0xad3cb1cc\n      eq\n      tag_29\n      jumpi\n      dup1\n      0xbfab3b9e\n      eq\n      tag_30\n      jumpi\n      revert(0x00, 0x00)\n    tag_37:\n      dup1\n      0x8ab1d681\n      gt\n      tag_39\n      jumpi\n      dup1\n      0x8ab1d681\n      eq\n      tag_23\n      jumpi\n      dup1\n      0x91d14854\n      eq\n      tag_24\n      jumpi\n      dup1\n      0x95d89b41\n      eq\n      tag_25\n      jumpi\n      dup1\n      0x9dc29fac\n      eq\n      tag_26\n      jumpi\n      revert(0x00, 0x00)\n    tag_39:\n      dup1\n      0x52d1902d\n      eq\n      tag_19\n      jumpi\n      dup1\n      0x5c975abb\n      eq\n      tag_20\n      jumpi\n      dup1\n      0x70a08231\n      eq\n      tag_21\n      jumpi\n      dup1\n      0x8456cb59\n      eq\n      tag_22\n      jumpi\n      revert(0x00, 0x00)\n    tag_36:\n      dup1\n      0x2913daa0\n      gt\n      tag_40\n      jumpi\n      dup1\n      0x36568abe\n      gt\n      tag_41\n      jumpi\n      dup1\n      0x36568abe\n      eq\n      tag_14\n      jumpi\n      dup1\n      0x3af32abf\n      eq\n      tag_15\n      jumpi\n      dup1\n      0x3f4ba83a\n      eq\n      tag_16\n      jumpi\n      dup1\n      0x40c10f19\n      eq\n      tag_17\n      jumpi\n      dup1\n      0x4f1ef286\n      eq\n      tag_18\n      jumpi\n      revert(0x00, 0x00)\n    tag_41:\n      dup1\n      0x2913daa0\n      eq\n      tag_10\n      jumpi\n      dup1\n      0x2f2ff15d\n      eq\n      tag_11\n      jumpi\n      dup1\n      0x313ce567\n      eq\n      tag_12\n      jumpi\n      dup1\n      0x355274ea\n      eq\n      tag_13\n      jumpi\n      revert(0x00, 0x00)\n    tag_40:\n      dup1\n      0x1663a066\n      gt\n      tag_42\n      jumpi\n      dup1\n      0x1663a066\n      eq\n      tag_6\n      jumpi\n      dup1\n      0x18160ddd\n      eq\n      tag_7\n      jumpi\n      dup1\n      0x23b872dd\n      eq\n      tag_8\n      jumpi\n      dup1\n      0x248a9ca3\n      eq\n      tag_9\n      jumpi\n      revert(0x00, 0x00)\n    tag_42:\n      dup1\n      0x01ffc9a7\n      eq\n      tag_2\n      jumpi\n      dup1\n      0x06fdde03\n      eq\n      tag_3\n      jumpi\n      dup1\n      0x077f224a\n      eq\n      tag_4\n      jumpi\n      dup1\n      0x095ea7b3\n      eq\n      tag_5\n      jumpi\n    tag_1:\n      revert(0x00, 0x00)\n        /* \"@openzeppelin/contracts-upgradeable/access/AccessControlUpgradeable.sol\":3443:3645  function supportsInterface(bytes4 interfaceId) public view virtual override returns (bool) {... */\n    tag_2:\n      callvalue\n      dup1\n      iszero\n      tag_43\n      jumpi\n      revert(0x00, 0x00)\n    tag_43:\n      pop\n      tag_44\n      tag_45\n      calldatasize\n      0x04\n      tag_46\n      jump\t// in\n    tag_45:\n      tag_47\n      jump\t// in\n    tag_44:\n      mload(0x40)\n        /* \"#utility.yul\":470:484   */\n      swap1\n      iszero\n        /* \"#utility.yul\":463:485   */\n      iszero\n        /* \"#utility.yul\":445:486   */\n      dup2\n      mstore\n        /* \"#utility.yul\":433:435   */\n      0x20\n        /* \"#utility.yul\":418:436   */\n      add\n        /* \"@openzeppelin/contracts-upgradeable/access/AccessControlUpgradeable.sol\":3443:3645  function supportsInterface(bytes4 interfaceId) public view virtual override returns (bool) {... */\n    tag_48:\n      mload(0x40)\n      dup1\n      swap2\n      sub\n      swap1\n      return\n        /* \"@openzeppelin/contracts-upgradeable/token/ERC20/ERC20Upgradeable.sol\":2697:2841  function name() public view virtual returns (string memory) {... */\n    tag_3:\n      callvalue\n      dup1\n      iszero\n      tag_50\n      jumpi\n      revert(0x00, 0x00)\n    tag_50:\n      pop\n      tag_51\n      tag_52\n      jump\t// in\n    tag_51:\n      mload(0x40)\n      tag_48\n      swap2\n      swap1\n      tag_54\n      jump\t// in\n        /* \"TOKEN ZARFIX (XZI).sol\":7241:8161  function initialize(... */\n    tag_4:\n      callvalue\n      dup1\n      iszero\n      tag_55\n      jumpi\n      revert(0x00, 0x00)\n    tag_55:\n      pop\n      tag_56\n      tag_57\n      calldatasize\n      0x04\n      tag_58\n      jump\t// in\n    tag_57:\n      tag_59\n      jump\t// in\n    tag_56:\n      stop\n        /* \"@openzeppelin/contracts-upgradeable/token/ERC20/ERC20Upgradeable.sol\":5191:5377  function approve(address spender, uint256 value) public virtual returns (bool) {... */\n    tag_5:\n      callvalue\n      dup1\n      iszero\n      tag_60\n      jumpi\n      revert(0x00, 0x00)\n    tag_60:\n      pop\n      tag_44\n      tag_62\n      calldatasize\n      0x04\n      tag_63\n      jump\t// in\n    tag_62:\n      tag_64\n      jump\t// in\n        /* \"TOKEN ZARFIX (XZI).sol\":16343:17513  function batchRemoveFromWhitelist(... */\n    tag_6:\n      callvalue\n      dup1\n      iszero\n      tag_66\n      jumpi\n      revert(0x00, 0x00)\n    tag_66:\n      pop\n      tag_56\n      tag_68\n      calldatasize\n      0x04\n      tag_69\n      jump\t// in\n    tag_68:\n      tag_70\n      jump\t// in\n        /* \"TOKEN ZARFIX (XZI).sol\":19556:19656  function totalSupply() public view override returns (uint256) {... */\n    tag_7:\n      callvalue\n      dup1\n      iszero\n      tag_71\n      jumpi\n      revert(0x00, 0x00)\n    tag_71:\n      pop\n        /* \"TOKEN ZARFIX (XZI).sol\":19635:19649  _currentSupply */\n      sload(0x01)\n        /* \"TOKEN ZARFIX (XZI).sol\":19556:19656  function totalSupply() public view override returns (uint256) {... */\n    tag_72:\n      mload(0x40)\n        /* \"#utility.yul\":3552:3577   */\n      swap1\n      dup2\n      mstore\n        /* \"#utility.yul\":3540:3542   */\n      0x20\n        /* \"#utility.yul\":3525:3543   */\n      add\n        /* \"TOKEN ZARFIX (XZI).sol\":19556:19656  function totalSupply() public view override returns (uint256) {... */\n      tag_48\n        /* \"#utility.yul\":3406:3583   */\n      jump\n        /* \"TOKEN ZARFIX (XZI).sol\":12250:13180  function transferFrom(address _from, address _to, uint256 _amount) ... */\n    tag_8:\n      callvalue\n      dup1\n      iszero\n      tag_76\n      jumpi\n      revert(0x00, 0x00)\n    tag_76:\n      pop\n      tag_44\n      tag_78\n      calldatasize\n      0x04\n      tag_79\n      jump\t// in\n    tag_78:\n      tag_80\n      jump\t// in\n        /* \"@openzeppelin/contracts-upgradeable/access/AccessControlUpgradeable.sol\":4759:4950  function getRoleAdmin(bytes32 role) public view virtual returns (bytes32) {... */\n    tag_9:\n      callvalue\n      dup1\n      iszero\n      tag_82\n      jumpi\n      revert(0x00, 0x00)\n    tag_82:\n      pop\n      tag_72\n      tag_84\n      calldatasize\n      0x04\n      tag_85\n      jump\t// in\n    tag_84:\n      tag_86\n      jump\t// in\n        /* \"TOKEN ZARFIX (XZI).sol\":20035:20125  function maxBatchSize() external pure returns (uint256) {... */\n    tag_10:\n      callvalue\n      dup1\n      iszero\n      tag_89\n      jumpi\n      revert(0x00, 0x00)\n    tag_89:\n      pop\n        /* \"TOKEN ZARFIX (XZI).sol\":2199:2202  100 */\n      0x64\n        /* \"TOKEN ZARFIX (XZI).sol\":20035:20125  function maxBatchSize() external pure returns (uint256) {... */\n      jump(tag_72)\n        /* \"@openzeppelin/contracts-upgradeable/access/AccessControlUpgradeable.sol\":5246:5382  function grantRole(bytes32 role, address account) public virtual onlyRole(getRoleAdmin(role)) {... */\n    tag_11:\n      callvalue\n      dup1\n      iszero\n      tag_93\n      jumpi\n      revert(0x00, 0x00)\n    tag_93:\n      pop\n      tag_56\n      tag_95\n      calldatasize\n      0x04\n      tag_96\n      jump\t// in\n    tag_95:\n      tag_97\n      jump\t// in\n        /* \"@openzeppelin/contracts-upgradeable/token/ERC20/ERC20Upgradeable.sol\":3735:3817  function decimals() public view virtual returns (uint8) {... */\n    tag_12:\n      callvalue\n      dup1\n      iszero\n      tag_98\n      jumpi\n      revert(0x00, 0x00)\n    tag_98:\n      pop\n      mload(0x40)\n        /* \"@openzeppelin/contracts-upgradeable/token/ERC20/ERC20Upgradeable.sol\":3808:3810  18 */\n      0x12\n        /* \"#utility.yul\":4827:4863   */\n      dup2\n      mstore\n        /* \"#utility.yul\":4815:4817   */\n      0x20\n        /* \"#utility.yul\":4800:4818   */\n      add\n        /* \"@openzeppelin/contracts-upgradeable/token/ERC20/ERC20Upgradeable.sol\":3735:3817  function decimals() public view virtual returns (uint8) {... */\n      tag_48\n        /* \"#utility.yul\":4685:4869   */\n      jump\n        /* \"TOKEN ZARFIX (XZI).sol\":19790:19864  function cap() external view returns (uint256) {... */\n    tag_13:\n      callvalue\n      dup1\n      iszero\n      tag_103\n      jumpi\n      revert(0x00, 0x00)\n    tag_103:\n      pop\n        /* \"TOKEN ZARFIX (XZI).sol\":19854:19857  CAP */\n      immutable(\"0x3d20d9702e2f5746efe4f161f9f2eec6795a257d6728ef74ed6f6785803bd046\")\n        /* \"TOKEN ZARFIX (XZI).sol\":19790:19864  function cap() external view returns (uint256) {... */\n      jump(tag_72)\n        /* \"@openzeppelin/contracts-upgradeable/access/AccessControlUpgradeable.sol\":6348:6593  function renounceRole(bytes32 role, address callerConfirmation) public virtual {... */\n    tag_14:\n      callvalue\n      dup1\n      iszero\n      tag_107\n      jumpi\n      revert(0x00, 0x00)\n    tag_107:\n      pop\n      tag_56\n      tag_109\n      calldatasize\n      0x04\n      tag_96\n      jump\t// in\n    tag_109:\n      tag_110\n      jump\t// in\n        /* \"TOKEN ZARFIX (XZI).sol\":18692:18917  function isWhitelisted(address _account) external view returns (bool) {... */\n    tag_15:\n      callvalue\n      dup1\n      iszero\n      tag_111\n      jumpi\n      revert(0x00, 0x00)\n    tag_111:\n      pop\n      tag_44\n      tag_113\n      calldatasize\n      0x04\n      tag_114\n      jump\t// in\n    tag_113:\n      tag_115\n      jump\t// in\n        /* \"TOKEN ZARFIX (XZI).sol\":18183:18306  function unpause() external onlyRole(_PAUSER_ROLE) {... */\n    tag_16:\n      callvalue\n      dup1\n      iszero\n      tag_117\n      jumpi\n      revert(0x00, 0x00)\n    tag_117:\n      pop\n      tag_56\n      tag_119\n      jump\t// in\n        /* \"TOKEN ZARFIX (XZI).sol\":8627:9570  function mint(address _to, uint256 _amount) ... */\n    tag_17:\n      callvalue\n      dup1\n      iszero\n      tag_120\n      jumpi\n      revert(0x00, 0x00)\n    tag_120:\n      pop\n      tag_56\n      tag_122\n      calldatasize\n      0x04\n      tag_63\n      jump\t// in\n    tag_122:\n      tag_123\n      jump\t// in\n        /* \"@openzeppelin/contracts-upgradeable/proxy/utils/UUPSUpgradeable.sol\":4161:4375  function upgradeToAndCall(address newImplementation, bytes memory data) public payable virtual onlyProxy {... */\n    tag_18:\n      tag_56\n      tag_125\n      calldatasize\n      0x04\n      tag_126\n      jump\t// in\n    tag_125:\n      tag_127\n      jump\t// in\n        /* \"@openzeppelin/contracts-upgradeable/proxy/utils/UUPSUpgradeable.sol\":3708:3842  function proxiableUUID() external view virtual notDelegated returns (bytes32) {... */\n    tag_19:\n      callvalue\n      dup1\n      iszero\n      tag_128\n      jumpi\n      revert(0x00, 0x00)\n    tag_128:\n      pop\n      tag_72\n      tag_130\n      jump\t// in\n        /* \"@openzeppelin/contracts-upgradeable/utils/PausableUpgradeable.sol\":2496:2641  function paused() public view virtual returns (bool) {... */\n    tag_20:\n      callvalue\n      dup1\n      iszero\n      tag_132\n      jumpi\n      revert(0x00, 0x00)\n    tag_132:\n      pop\n      mload(0x00)\n      codecopy(0x00, data_c0c65a3718f3702d917c44106b91645b509d2e2d0979b70495c3babce192339f, 0x20)\n      mload(0x00)\n      swap1\n      0x00\n      mstore\n        /* \"@openzeppelin/contracts-upgradeable/utils/PausableUpgradeable.sol\":2625:2634  $._paused */\n      sload\n      0xff\n      and\n        /* \"@openzeppelin/contracts-upgradeable/utils/PausableUpgradeable.sol\":2496:2641  function paused() public view virtual returns (bool) {... */\n      jump(tag_44)\n        /* \"@openzeppelin/contracts-upgradeable/token/ERC20/ERC20Upgradeable.sol\":4087:4258  function balanceOf(address account) public view virtual returns (uint256) {... */\n    tag_21:\n      callvalue\n      dup1\n      iszero\n      tag_136\n      jumpi\n      revert(0x00, 0x00)\n    tag_136:\n      pop\n      tag_72\n      tag_138\n      calldatasize\n      0x04\n      tag_114\n      jump\t// in\n    tag_138:\n      tag_139\n      jump\t// in\n        /* \"TOKEN ZARFIX (XZI).sol\":17881:17998  function pause() external onlyRole(_PAUSER_ROLE) {... */\n    tag_22:\n      callvalue\n      dup1\n      iszero\n      tag_141\n      jumpi\n      revert(0x00, 0x00)\n    tag_141:\n      pop\n      tag_56\n      tag_143\n      jump\t// in\n        /* \"TOKEN ZARFIX (XZI).sol\":14100:14470  function removeFromWhitelist(address _account) ... */\n    tag_23:\n      callvalue\n      dup1\n      iszero\n      tag_144\n      jumpi\n      revert(0x00, 0x00)\n    tag_144:\n      pop\n      tag_56\n      tag_146\n      calldatasize\n      0x04\n      tag_114\n      jump\t// in\n    tag_146:\n      tag_147\n      jump\t// in\n        /* \"@openzeppelin/contracts-upgradeable/access/AccessControlUpgradeable.sol\":3732:3939  function hasRole(bytes32 role, address account) public view virtual returns (bool) {... */\n    tag_24:\n      callvalue\n      dup1\n      iszero\n      tag_148\n      jumpi\n      revert(0x00, 0x00)\n    tag_148:\n      pop\n      tag_44\n      tag_150\n      calldatasize\n      0x04\n      tag_96\n      jump\t// in\n    tag_150:\n      tag_151\n      jump\t// in\n        /* \"@openzeppelin/contracts-upgradeable/token/ERC20/ERC20Upgradeable.sol\":2954:3102  function symbol() public view virtual returns (string memory) {... */\n    tag_25:\n      callvalue\n      dup1\n      iszero\n      tag_153\n      jumpi\n      revert(0x00, 0x00)\n    tag_153:\n      pop\n      tag_51\n      tag_155\n      jump\t// in\n        /* \"TOKEN ZARFIX (XZI).sol\":9810:10603  function burn(address _from, uint256 _amount) ... */\n    tag_26:\n      callvalue\n      dup1\n      iszero\n      tag_157\n      jumpi\n      revert(0x00, 0x00)\n    tag_157:\n      pop\n      tag_56\n      tag_159\n      calldatasize\n      0x04\n      tag_63\n      jump\t// in\n    tag_159:\n      tag_160\n      jump\t// in\n        /* \"@openzeppelin/contracts-upgradeable/access/AccessControlUpgradeable.sol\":2317:2366  bytes32 public constant DEFAULT_ADMIN_ROLE = 0x00 */\n    tag_27:\n      callvalue\n      dup1\n      iszero\n      tag_161\n      jumpi\n      revert(0x00, 0x00)\n    tag_161:\n      pop\n      tag_72\n        /* \"@openzeppelin/contracts-upgradeable/access/AccessControlUpgradeable.sol\":2362:2366  0x00 */\n      0x00\n        /* \"@openzeppelin/contracts-upgradeable/access/AccessControlUpgradeable.sol\":2317:2366  bytes32 public constant DEFAULT_ADMIN_ROLE = 0x00 */\n      dup2\n      jump\n        /* \"TOKEN ZARFIX (XZI).sol\":11089:11901  function transfer(address _to, uint256 _amount) ... */\n    tag_28:\n      callvalue\n      dup1\n      iszero\n      tag_165\n      jumpi\n      revert(0x00, 0x00)\n    tag_165:\n      pop\n      tag_44\n      tag_167\n      calldatasize\n      0x04\n      tag_63\n      jump\t// in\n    tag_167:\n      tag_168\n      jump\t// in\n        /* \"@openzeppelin/contracts-upgradeable/proxy/utils/UUPSUpgradeable.sol\":1819:1877  string public constant UPGRADE_INTERFACE_VERSION = \"5.0.0\" */\n    tag_29:\n      callvalue\n      dup1\n      iszero\n      tag_170\n      jumpi\n      revert(0x00, 0x00)\n    tag_170:\n      pop\n      tag_51\n      mload(0x40)\n      dup1\n      0x40\n      add\n      0x40\n      mstore\n      dup1\n      0x05\n      dup2\n      mstore\n      0x20\n      add\n      shl(0xdc, 0x0352e302e3)\n      dup2\n      mstore\n      pop\n      dup2\n      jump\n        /* \"TOKEN ZARFIX (XZI).sol\":14822:15980  function processBatch(... */\n    tag_30:\n      callvalue\n      dup1\n      iszero\n      tag_174\n      jumpi\n      revert(0x00, 0x00)\n    tag_174:\n      pop\n      tag_56\n      tag_176\n      calldatasize\n      0x04\n      tag_69\n      jump\t// in\n    tag_176:\n      tag_177\n      jump\t// in\n        /* \"@openzeppelin/contracts-upgradeable/access/AccessControlUpgradeable.sol\":5662:5800  function revokeRole(bytes32 role, address account) public virtual onlyRole(getRoleAdmin(role)) {... */\n    tag_31:\n      callvalue\n      dup1\n      iszero\n      tag_178\n      jumpi\n      revert(0x00, 0x00)\n    tag_178:\n      pop\n      tag_56\n      tag_180\n      calldatasize\n      0x04\n      tag_96\n      jump\t// in\n    tag_180:\n      tag_181\n      jump\t// in\n        /* \"@openzeppelin/contracts-upgradeable/token/ERC20/ERC20Upgradeable.sol\":4689:4884  function allowance(address owner, address spender) public view virtual returns (uint256) {... */\n    tag_32:\n      callvalue\n      dup1\n      iszero\n      tag_182\n      jumpi\n      revert(0x00, 0x00)\n    tag_182:\n      pop\n      tag_72\n      tag_184\n      calldatasize\n      0x04\n      tag_185\n      jump\t// in\n    tag_184:\n      tag_186\n      jump\t// in\n        /* \"TOKEN ZARFIX (XZI).sol\":13541:13905  function addToWhitelist(address _account) ... */\n    tag_33:\n      callvalue\n      dup1\n      iszero\n      tag_188\n      jumpi\n      revert(0x00, 0x00)\n    tag_188:\n      pop\n      tag_56\n      tag_190\n      calldatasize\n      0x04\n      tag_114\n      jump\t// in\n    tag_190:\n      tag_191\n      jump\t// in\n        /* \"TOKEN ZARFIX (XZI).sol\":2469:2497  uint256 public immutable CAP */\n    tag_34:\n      callvalue\n      dup1\n      iszero\n      tag_192\n      jumpi\n      revert(0x00, 0x00)\n    tag_192:\n      pop\n      tag_72\n      immutable(\"0x3d20d9702e2f5746efe4f161f9f2eec6795a257d6728ef74ed6f6785803bd046\")\n      dup2\n      jump\n        /* \"TOKEN ZARFIX (XZI).sol\":19086:19382  function remainingMintable() external view returns (uint256) {... */\n    tag_35:\n      callvalue\n      dup1\n      iszero\n      tag_196\n      jumpi\n      revert(0x00, 0x00)\n    tag_196:\n      pop\n      tag_72\n      tag_198\n      jump\t// in\n        /* \"@openzeppelin/contracts-upgradeable/access/AccessControlUpgradeable.sol\":3443:3645  function supportsInterface(bytes4 interfaceId) public view virtual override returns (bool) {... */\n    tag_47:\n        /* \"@openzeppelin/contracts-upgradeable/access/AccessControlUpgradeable.sol\":3528:3532  bool */\n      0x00\n      not(sub(shl(0xe0, 0x01), 0x01))\n        /* \"@openzeppelin/contracts-upgradeable/access/AccessControlUpgradeable.sol\":3551:3598  interfaceId == type(IAccessControl).interfaceId */\n      dup3\n      and\n      shl(0xe0, 0x7965db0b)\n      eq\n      dup1\n        /* \"@openzeppelin/contracts-upgradeable/access/AccessControlUpgradeable.sol\":3551:3638  interfaceId == type(IAccessControl).interfaceId || super.supportsInterface(interfaceId) */\n      tag_202\n      jumpi\n      pop\n      shl(0xe0, 0x01ffc9a7)\n      not(sub(shl(0xe0, 0x01), 0x01))\n        /* \"@openzeppelin/contracts-upgradeable/utils/introspection/ERC165Upgradeable.sol\":1134:1174  interfaceId == type(IERC165).interfaceId */\n      dup4\n      and\n      eq\n        /* \"@openzeppelin/contracts-upgradeable/access/AccessControlUpgradeable.sol\":3602:3638  super.supportsInterface(interfaceId) */\n    tag_202:\n        /* \"@openzeppelin/contracts-upgradeable/access/AccessControlUpgradeable.sol\":3544:3638  return interfaceId == type(IAccessControl).interfaceId || super.supportsInterface(interfaceId) */\n      swap3\n        /* \"@openzeppelin/contracts-upgradeable/access/AccessControlUpgradeable.sol\":3443:3645  function supportsInterface(bytes4 interfaceId) public view virtual override returns (bool) {... */\n      swap2\n      pop\n      pop\n      jump\t// out\n        /* \"@openzeppelin/contracts-upgradeable/token/ERC20/ERC20Upgradeable.sol\":2697:2841  function name() public view virtual returns (string memory) {... */\n    tag_52:\n        /* \"@openzeppelin/contracts-upgradeable/token/ERC20/ERC20Upgradeable.sol\":2827:2834  $._name */\n      0x52c63247e1f47db19d5ce0460030c497f067ca4cebf71ba98eeadabe20bace03\n        /* \"@openzeppelin/contracts-upgradeable/token/ERC20/ERC20Upgradeable.sol\":2820:2834  return $._name */\n      dup1\n      sload\n        /* \"@openzeppelin/contracts-upgradeable/token/ERC20/ERC20Upgradeable.sol\":2742:2755  string memory */\n      0x60\n      swap2\n      mload(0x00)\n      codecopy(0x00, data_3874827173e8df9f34323b12b251d1d3c53926ce129e30a0d69f1d47c277041b, 0x20)\n      mload(0x00)\n      swap1\n      0x00\n      mstore\n        /* \"@openzeppelin/contracts-upgradeable/token/ERC20/ERC20Upgradeable.sol\":2064:2084  ERC20StorageLocation */\n      swap2\n        /* \"@openzeppelin/contracts-upgradeable/token/ERC20/ERC20Upgradeable.sol\":2820:2834  return $._name */\n      tag_207\n      swap1\n      tag_208\n      jump\t// in\n    tag_207:\n      dup1\n      0x1f\n      add\n      0x20\n      dup1\n      swap2\n      div\n      mul\n      0x20\n      add\n      mload(0x40)\n      swap1\n      dup2\n      add\n      0x40\n      mstore\n      dup1\n      swap3\n      swap2\n      swap1\n      dup2\n      dup2\n      mstore\n      0x20\n      add\n      dup3\n      dup1\n      sload\n      tag_209\n      swap1\n      tag_208\n      jump\t// in\n    tag_209:\n      dup1\n      iszero\n      tag_210\n      jumpi\n      dup1\n      0x1f\n      lt\n      tag_211\n      jumpi\n      0x0100\n      dup1\n      dup4\n      sload\n      div\n      mul\n      dup4\n      mstore\n      swap2\n      0x20\n      add\n      swap2\n      jump(tag_210)\n    tag_211:\n      dup3\n      add\n      swap2\n      swap1\n      0x00\n      mstore\n      keccak256(0x00, 0x20)\n      swap1\n    tag_212:\n      dup2\n      sload\n      dup2\n      mstore\n      swap1\n      0x01\n      add\n      swap1\n      0x20\n      add\n      dup1\n      dup4\n      gt\n      tag_212\n      jumpi\n      dup3\n      swap1\n      sub\n      0x1f\n      and\n      dup3\n      add\n      swap2\n    tag_210:\n      pop\n      pop\n      pop\n      pop\n      pop\n      swap2\n      pop\n      pop\n        /* \"@openzeppelin/contracts-upgradeable/token/ERC20/ERC20Upgradeable.sol\":2697:2841  function name() public view virtual returns (string memory) {... */\n      swap1\n      jump\t// out\n        /* \"TOKEN ZARFIX (XZI).sol\":7241:8161  function initialize(... */\n    tag_59:\n        /* \"@openzeppelin/contracts-upgradeable/proxy/utils/Initializable.sol\":4158:4188  InitializableStorage storage $ */\n      0x00\n        /* \"@openzeppelin/contracts-upgradeable/proxy/utils/Initializable.sol\":4191:4217  _getInitializableStorage() */\n      tag_214\n        /* \"@openzeppelin/contracts-upgradeable/proxy/utils/Initializable.sol\":4191:4215  _getInitializableStorage */\n      tag_215\n        /* \"@openzeppelin/contracts-upgradeable/proxy/utils/Initializable.sol\":4191:4217  _getInitializableStorage() */\n      jump\t// in\n    tag_214:\n        /* \"@openzeppelin/contracts-upgradeable/proxy/utils/Initializable.sol\":4302:4317  $._initializing */\n      dup1\n      sload\n        /* \"@openzeppelin/contracts-upgradeable/proxy/utils/Initializable.sol\":4158:4217  InitializableStorage storage $ = _getInitializableStorage() */\n      swap1\n      swap2\n      pop\n        /* \"@openzeppelin/contracts-upgradeable/proxy/utils/Initializable.sol\":4302:4317  $._initializing */\n      0xff\n      shl(0x40, 0x01)\n      dup3\n      div\n      and\n        /* \"@openzeppelin/contracts-upgradeable/proxy/utils/Initializable.sol\":4301:4317  !$._initializing */\n      iszero\n      swap1\n        /* \"@openzeppelin/contracts-upgradeable/proxy/utils/Initializable.sol\":4348:4362  $._initialized */\n      0xffffffffffffffff\n      and\n        /* \"@openzeppelin/contracts-upgradeable/proxy/utils/Initializable.sol\":4279:4298  bool isTopLevelCall */\n      0x00\n        /* \"@openzeppelin/contracts-upgradeable/proxy/utils/Initializable.sol\":4724:4740  initialized == 0 */\n      dup2\n      iszero\n        /* \"@openzeppelin/contracts-upgradeable/proxy/utils/Initializable.sol\":4724:4758  initialized == 0 && isTopLevelCall */\n      dup1\n      iszero\n      tag_216\n      jumpi\n      pop\n        /* \"@openzeppelin/contracts-upgradeable/proxy/utils/Initializable.sol\":4744:4758  isTopLevelCall */\n      dup3\n        /* \"@openzeppelin/contracts-upgradeable/proxy/utils/Initializable.sol\":4724:4758  initialized == 0 && isTopLevelCall */\n    tag_216:\n        /* \"@openzeppelin/contracts-upgradeable/proxy/utils/Initializable.sol\":4704:4758  bool initialSetup = initialized == 0 && isTopLevelCall */\n      swap1\n      pop\n        /* \"@openzeppelin/contracts-upgradeable/proxy/utils/Initializable.sol\":4768:4785  bool construction */\n      0x00\n        /* \"@openzeppelin/contracts-upgradeable/proxy/utils/Initializable.sol\":4788:4799  initialized */\n      dup3\n        /* \"@openzeppelin/contracts-upgradeable/proxy/utils/Initializable.sol\":4788:4804  initialized == 1 */\n      0xffffffffffffffff\n      and\n        /* \"@openzeppelin/contracts-upgradeable/proxy/utils/Initializable.sol\":4803:4804  1 */\n      0x01\n        /* \"@openzeppelin/contracts-upgradeable/proxy/utils/Initializable.sol\":4788:4804  initialized == 1 */\n      eq\n        /* \"@openzeppelin/contracts-upgradeable/proxy/utils/Initializable.sol\":4788:4838  initialized == 1 && address(this).code.length == 0 */\n      dup1\n      iszero\n      tag_217\n      jumpi\n      pop\n        /* \"@openzeppelin/contracts-upgradeable/proxy/utils/Initializable.sol\":4816:4820  this */\n      address\n        /* \"@openzeppelin/contracts-upgradeable/proxy/utils/Initializable.sol\":4808:4833  address(this).code.length */\n      extcodesize\n        /* \"@openzeppelin/contracts-upgradeable/proxy/utils/Initializable.sol\":4808:4838  address(this).code.length == 0 */\n      iszero\n        /* \"@openzeppelin/contracts-upgradeable/proxy/utils/Initializable.sol\":4788:4838  initialized == 1 && address(this).code.length == 0 */\n    tag_217:\n        /* \"@openzeppelin/contracts-upgradeable/proxy/utils/Initializable.sol\":4768:4838  bool construction = initialized == 1 && address(this).code.length == 0 */\n      swap1\n      pop\n        /* \"@openzeppelin/contracts-upgradeable/proxy/utils/Initializable.sol\":4854:4866  initialSetup */\n      dup2\n        /* \"@openzeppelin/contracts-upgradeable/proxy/utils/Initializable.sol\":4853:4866  !initialSetup */\n      iszero\n        /* \"@openzeppelin/contracts-upgradeable/proxy/utils/Initializable.sol\":4853:4883  !initialSetup && !construction */\n      dup1\n      iszero\n      tag_218\n      jumpi\n      pop\n        /* \"@openzeppelin/contracts-upgradeable/proxy/utils/Initializable.sol\":4871:4883  construction */\n      dup1\n        /* \"@openzeppelin/contracts-upgradeable/proxy/utils/Initializable.sol\":4870:4883  !construction */\n      iszero\n        /* \"@openzeppelin/contracts-upgradeable/proxy/utils/Initializable.sol\":4853:4883  !initialSetup && !construction */\n    tag_218:\n        /* \"@openzeppelin/contracts-upgradeable/proxy/utils/Initializable.sol\":4849:4940  if (!initialSetup && !construction) {... */\n      iszero\n      tag_219\n      jumpi\n        /* \"@openzeppelin/contracts-upgradeable/proxy/utils/Initializable.sol\":4906:4929  InvalidInitialization() */\n      mload(0x40)\n      shl(0xe0, 0xf92ee8a9)\n      dup2\n      mstore\n      0x04\n      add\n      mload(0x40)\n      dup1\n      swap2\n      sub\n      swap1\n      revert\n        /* \"@openzeppelin/contracts-upgradeable/proxy/utils/Initializable.sol\":4849:4940  if (!initialSetup && !construction) {... */\n    tag_219:\n        /* \"@openzeppelin/contracts-upgradeable/proxy/utils/Initializable.sol\":4949:4967  $._initialized = 1 */\n      dup5\n      sload\n      not(0xffffffffffffffff)\n      and\n        /* \"@openzeppelin/contracts-upgradeable/proxy/utils/Initializable.sol\":4966:4967  1 */\n      0x01\n        /* \"@openzeppelin/contracts-upgradeable/proxy/utils/Initializable.sol\":4949:4967  $._initialized = 1 */\n      or\n      dup6\n      sstore\n        /* \"@openzeppelin/contracts-upgradeable/proxy/utils/Initializable.sol\":4977:5044  if (isTopLevelCall) {... */\n      dup4\n      iszero\n      tag_220\n      jumpi\n        /* \"@openzeppelin/contracts-upgradeable/proxy/utils/Initializable.sol\":5011:5033  $._initializing = true */\n      dup5\n      sload\n      not(shl(0x40, 0xff))\n      and\n      shl(0x40, 0x01)\n      or\n      dup6\n      sstore\n        /* \"@openzeppelin/contracts-upgradeable/proxy/utils/Initializable.sol\":4977:5044  if (isTopLevelCall) {... */\n    tag_220:\n      sub(shl(0xa0, 0x01), 0x01)\n        /* \"TOKEN ZARFIX (XZI).sol\":7437:7457  _admin != address(0) */\n      dup7\n      and\n        /* \"TOKEN ZARFIX (XZI).sol\":7429:7483  require(_admin != address(0), \"Invalid admin address\") */\n      tag_222\n      jumpi\n      mload(0x40)\n      shl(0xe5, 0x461bcd)\n      dup2\n      mstore\n        /* \"#utility.yul\":7072:7074   */\n      0x20\n        /* \"TOKEN ZARFIX (XZI).sol\":7429:7483  require(_admin != address(0), \"Invalid admin address\") */\n      0x04\n      dup3\n      add\n        /* \"#utility.yul\":7054:7075   */\n      mstore\n        /* \"#utility.yul\":7111:7113   */\n      0x15\n        /* \"#utility.yul\":7091:7109   */\n      0x24\n      dup3\n      add\n        /* \"#utility.yul\":7084:7114   */\n      mstore\n      shl(0x58, 0x496e76616c69642061646d696e2061646472657373)\n        /* \"#utility.yul\":7130:7148   */\n      0x44\n      dup3\n      add\n        /* \"#utility.yul\":7123:7174   */\n      mstore\n        /* \"#utility.yul\":7191:7209   */\n      0x64\n      add\n        /* \"TOKEN ZARFIX (XZI).sol\":7429:7483  require(_admin != address(0), \"Invalid admin address\") */\n    tag_223:\n      mload(0x40)\n      dup1\n      swap2\n      sub\n      swap1\n      revert\n    tag_222:\n        /* \"TOKEN ZARFIX (XZI).sol\":7494:7522  __ERC20_init(_name, _symbol) */\n      tag_225\n        /* \"TOKEN ZARFIX (XZI).sol\":7507:7512  _name */\n      dup11\n      dup11\n        /* \"TOKEN ZARFIX (XZI).sol\":7494:7522  __ERC20_init(_name, _symbol) */\n      dup1\n      dup1\n      0x1f\n      add\n      0x20\n      dup1\n      swap2\n      div\n      mul\n      0x20\n      add\n      mload(0x40)\n      swap1\n      dup2\n      add\n      0x40\n      mstore\n      dup1\n      swap4\n      swap3\n      swap2\n      swap1\n      dup2\n      dup2\n      mstore\n      0x20\n      add\n      dup4\n      dup4\n      dup1\n      dup3\n      dup5\n      calldatacopy\n      0x00\n      swap3\n      add\n      swap2\n      swap1\n      swap2\n      mstore\n      pop\n      pop\n      0x40\n      dup1\n      mload\n      0x20\n      0x1f\n      dup15\n      add\n      dup2\n      swap1\n      div\n      dup2\n      mul\n      dup3\n      add\n      dup2\n      add\n      swap1\n      swap3\n      mstore\n      dup13\n      dup2\n      mstore\n      swap3\n      pop\n        /* \"TOKEN ZARFIX (XZI).sol\":7514:7521  _symbol */\n      dup13\n      swap2\n      pop\n      dup12\n      swap1\n      dup2\n      swap1\n        /* \"TOKEN ZARFIX (XZI).sol\":7494:7522  __ERC20_init(_name, _symbol) */\n      dup5\n      add\n        /* \"TOKEN ZARFIX (XZI).sol\":7514:7521  _symbol */\n      dup4\n      dup3\n      dup1\n      dup3\n        /* \"TOKEN ZARFIX (XZI).sol\":7494:7522  __ERC20_init(_name, _symbol) */\n      dup5\n      calldatacopy\n      0x00\n      swap3\n      add\n      swap2\n      swap1\n      swap2\n      mstore\n      pop\n        /* \"TOKEN ZARFIX (XZI).sol\":7494:7506  __ERC20_init */\n      tag_226\n      swap3\n      pop\n      pop\n      pop\n        /* \"TOKEN ZARFIX (XZI).sol\":7494:7522  __ERC20_init(_name, _symbol) */\n      jump\t// in\n    tag_225:\n        /* \"TOKEN ZARFIX (XZI).sol\":7532:7554  __AccessControl_init() */\n      tag_227\n        /* \"TOKEN ZARFIX (XZI).sol\":7532:7552  __AccessControl_init */\n      tag_228\n        /* \"TOKEN ZARFIX (XZI).sol\":7532:7554  __AccessControl_init() */\n      jump\t// in\n    tag_227:\n        /* \"TOKEN ZARFIX (XZI).sol\":7564:7581  __Pausable_init() */\n      tag_229\n        /* \"TOKEN ZARFIX (XZI).sol\":7564:7579  __Pausable_init */\n      tag_228\n        /* \"TOKEN ZARFIX (XZI).sol\":7564:7581  __Pausable_init() */\n      jump\t// in\n    tag_229:\n        /* \"TOKEN ZARFIX (XZI).sol\":7591:7615  __ReentrancyGuard_init() */\n      tag_231\n        /* \"TOKEN ZARFIX (XZI).sol\":7591:7613  __ReentrancyGuard_init */\n      tag_232\n        /* \"TOKEN ZARFIX (XZI).sol\":7591:7615  __ReentrancyGuard_init() */\n      jump\t// in\n    tag_231:\n        /* \"TOKEN ZARFIX (XZI).sol\":7625:7649  __UUPSUpgradeable_init() */\n      tag_233\n        /* \"TOKEN ZARFIX (XZI).sol\":7625:7647  __UUPSUpgradeable_init */\n      tag_228\n        /* \"TOKEN ZARFIX (XZI).sol\":7625:7649  __UUPSUpgradeable_init() */\n      jump\t// in\n    tag_233:\n        /* \"TOKEN ZARFIX (XZI).sol\":7700:7738  _grantRole(DEFAULT_ADMIN_ROLE, _admin) */\n      tag_235\n        /* \"@openzeppelin/contracts-upgradeable/access/AccessControlUpgradeable.sol\":2362:2366  0x00 */\n      0x00\n        /* \"TOKEN ZARFIX (XZI).sol\":7731:7737  _admin */\n      dup8\n        /* \"TOKEN ZARFIX (XZI).sol\":7700:7710  _grantRole */\n      tag_236\n        /* \"TOKEN ZARFIX (XZI).sol\":7700:7738  _grantRole(DEFAULT_ADMIN_ROLE, _admin) */\n      jump\t// in\n    tag_235:\n      pop\n        /* \"TOKEN ZARFIX (XZI).sol\":7748:7780  _grantRole(_ISSUER_ROLE, _admin) */\n      tag_237\n        /* \"TOKEN ZARFIX (XZI).sol\":1567:1591  keccak256(\"ISSUER_ROLE\") */\n      0x114e74f6ea3bd819998f78687bfcb11b140da08e9b7d222fa9c1f1ba1f2aa122\n        /* \"TOKEN ZARFIX (XZI).sol\":7773:7779  _admin */\n      dup8\n        /* \"TOKEN ZARFIX (XZI).sol\":7748:7758  _grantRole */\n      tag_236\n        /* \"TOKEN ZARFIX (XZI).sol\":7748:7780  _grantRole(_ISSUER_ROLE, _admin) */\n      jump\t// in\n    tag_237:\n      pop\n        /* \"TOKEN ZARFIX (XZI).sol\":7790:7826  _grantRole(_COMPLIANCE_ROLE, _admin) */\n      tag_238\n      mload(0x00)\n      codecopy(0x00, data_7e678c77cfa084e62aed03ceadb9b37aa6c80340da2f54168df7a1e5e1fdb0a3, 0x20)\n      mload(0x00)\n      swap1\n      0x00\n      mstore\n        /* \"TOKEN ZARFIX (XZI).sol\":7819:7825  _admin */\n      dup8\n        /* \"TOKEN ZARFIX (XZI).sol\":7790:7800  _grantRole */\n      tag_236\n        /* \"TOKEN ZARFIX (XZI).sol\":7790:7826  _grantRole(_COMPLIANCE_ROLE, _admin) */\n      jump\t// in\n    tag_238:\n      pop\n        /* \"TOKEN ZARFIX (XZI).sol\":7836:7868  _grantRole(_PAUSER_ROLE, _admin) */\n      tag_239\n        /* \"TOKEN ZARFIX (XZI).sol\":1878:1902  keccak256(\"PAUSER_ROLE\") */\n      0x65d7a28e3265b37a6474929f336521b332c1681b933f6cb9f3376673440d862a\n        /* \"TOKEN ZARFIX (XZI).sol\":7861:7867  _admin */\n      dup8\n        /* \"TOKEN ZARFIX (XZI).sol\":7836:7846  _grantRole */\n      tag_236\n        /* \"TOKEN ZARFIX (XZI).sol\":7836:7868  _grantRole(_PAUSER_ROLE, _admin) */\n      jump\t// in\n    tag_239:\n      pop\n        /* \"TOKEN ZARFIX (XZI).sol\":7878:7912  _grantRole(_UPGRADER_ROLE, _admin) */\n      tag_240\n        /* \"TOKEN ZARFIX (XZI).sol\":2034:2060  keccak256(\"UPGRADER_ROLE\") */\n      0x189ab7a9244df0848122154315af71fe140f3db0fe014031783b0946b8c9d2e3\n        /* \"TOKEN ZARFIX (XZI).sol\":7905:7911  _admin */\n      dup8\n        /* \"TOKEN ZARFIX (XZI).sol\":7878:7888  _grantRole */\n      tag_236\n        /* \"TOKEN ZARFIX (XZI).sol\":7878:7912  _grantRole(_UPGRADER_ROLE, _admin) */\n      jump\t// in\n    tag_240:\n      pop\n      sub(shl(0xa0, 0x01), 0x01)\n        /* \"TOKEN ZARFIX (XZI).sol\":8017:8035  _whitelist[_admin] */\n      dup7\n      and\n        /* \"TOKEN ZARFIX (XZI).sol\":8017:8027  _whitelist */\n      0x00\n        /* \"TOKEN ZARFIX (XZI).sol\":8017:8035  _whitelist[_admin] */\n      dup2\n      dup2\n      mstore\n      0x20\n      dup2\n      swap1\n      mstore\n      0x40\n      dup1\n      dup3\n      keccak256\n        /* \"TOKEN ZARFIX (XZI).sol\":8017:8042  _whitelist[_admin] = true */\n      dup1\n      sload\n      not(0xff)\n      and\n        /* \"TOKEN ZARFIX (XZI).sol\":8038:8042  true */\n      0x01\n        /* \"TOKEN ZARFIX (XZI).sol\":8017:8042  _whitelist[_admin] = true */\n      swap1\n      dup2\n      or\n      swap1\n      swap2\n      sstore\n        /* \"TOKEN ZARFIX (XZI).sol\":8066:8096  WhitelistUpdated(_admin, true) */\n      swap1\n      mload\n        /* \"TOKEN ZARFIX (XZI).sol\":8038:8042  true */\n      swap1\n      swap3\n        /* \"TOKEN ZARFIX (XZI).sol\":8017:8035  _whitelist[_admin] */\n      swap2\n        /* \"TOKEN ZARFIX (XZI).sol\":8066:8096  WhitelistUpdated(_admin, true) */\n      0xf93f9a76c1bf3444d22400a00cb9fe990e6abe9dbb333fda48859cfee864543d\n      swap2\n      log3\n        /* \"TOKEN ZARFIX (XZI).sol\":8131:8137  _admin */\n      dup6\n      sub(shl(0xa0, 0x01), 0x01)\n        /* \"TOKEN ZARFIX (XZI).sol\":8111:8154  ContractInitialized(_admin, _name, _symbol) */\n      and\n      0x2583210d6110b6d11e7775956ed0bea544d92d3760073450942661b426486365\n        /* \"TOKEN ZARFIX (XZI).sol\":8139:8144  _name */\n      dup12\n      dup12\n        /* \"TOKEN ZARFIX (XZI).sol\":8146:8153  _symbol */\n      dup12\n      dup12\n        /* \"TOKEN ZARFIX (XZI).sol\":8111:8154  ContractInitialized(_admin, _name, _symbol) */\n      mload(0x40)\n      tag_241\n      swap5\n      swap4\n      swap3\n      swap2\n      swap1\n      tag_242\n      jump\t// in\n    tag_241:\n      mload(0x40)\n      dup1\n      swap2\n      sub\n      swap1\n      log2\n        /* \"@openzeppelin/contracts-upgradeable/proxy/utils/Initializable.sol\":5068:5082  isTopLevelCall */\n      dup4\n        /* \"@openzeppelin/contracts-upgradeable/proxy/utils/Initializable.sol\":5064:5165  if (isTopLevelCall) {... */\n      iszero\n      tag_243\n      jumpi\n        /* \"@openzeppelin/contracts-upgradeable/proxy/utils/Initializable.sol\":5098:5121  $._initializing = false */\n      dup5\n      sload\n      not(shl(0x40, 0xff))\n      and\n      dup6\n      sstore\n        /* \"@openzeppelin/contracts-upgradeable/proxy/utils/Initializable.sol\":5140:5154  Initialized(1) */\n      mload(0x40)\n      0x01\n        /* \"#utility.yul\":8087:8137   */\n      dup2\n      mstore\n        /* \"@openzeppelin/contracts-upgradeable/proxy/utils/Initializable.sol\":5140:5154  Initialized(1) */\n      0xc7f505b2f371ae2175ee4913f4499e1f2633a7b5936321eed1cdaeb6115181d2\n      swap1\n        /* \"#utility.yul\":8075:8077   */\n      0x20\n        /* \"#utility.yul\":8060:8078   */\n      add\n        /* \"@openzeppelin/contracts-upgradeable/proxy/utils/Initializable.sol\":5140:5154  Initialized(1) */\n      mload(0x40)\n      dup1\n      swap2\n      sub\n      swap1\n      log1\n        /* \"@openzeppelin/contracts-upgradeable/proxy/utils/Initializable.sol\":5064:5165  if (isTopLevelCall) {... */\n    tag_243:\n        /* \"@openzeppelin/contracts-upgradeable/proxy/utils/Initializable.sol\":4092:5171  {... */\n      pop\n      pop\n      pop\n      pop\n      pop\n        /* \"TOKEN ZARFIX (XZI).sol\":7241:8161  function initialize(... */\n      pop\n      pop\n      pop\n      pop\n      pop\n      jump\t// out\n        /* \"@openzeppelin/contracts-upgradeable/token/ERC20/ERC20Upgradeable.sol\":5191:5377  function approve(address spender, uint256 value) public virtual returns (bool) {... */\n    tag_64:\n        /* \"@openzeppelin/contracts-upgradeable/token/ERC20/ERC20Upgradeable.sol\":5264:5268  bool */\n      0x00\n        /* \"@openzeppelin/contracts-upgradeable/utils/ContextUpgradeable.sol\":966:976  msg.sender */\n      caller\n        /* \"@openzeppelin/contracts-upgradeable/token/ERC20/ERC20Upgradeable.sol\":5318:5349  _approve(owner, spender, value) */\n      tag_249\n        /* \"@openzeppelin/contracts-upgradeable/utils/ContextUpgradeable.sol\":966:976  msg.sender */\n      dup2\n        /* \"@openzeppelin/contracts-upgradeable/token/ERC20/ERC20Upgradeable.sol\":5334:5341  spender */\n      dup6\n        /* \"@openzeppelin/contracts-upgradeable/token/ERC20/ERC20Upgradeable.sol\":5343:5348  value */\n      dup6\n        /* \"@openzeppelin/contracts-upgradeable/token/ERC20/ERC20Upgradeable.sol\":5318:5326  _approve */\n      tag_250\n        /* \"@openzeppelin/contracts-upgradeable/token/ERC20/ERC20Upgradeable.sol\":5318:5349  _approve(owner, spender, value) */\n      jump\t// in\n    tag_249:\n      pop\n        /* \"@openzeppelin/contracts-upgradeable/token/ERC20/ERC20Upgradeable.sol\":5366:5370  true */\n      0x01\n      swap4\n        /* \"@openzeppelin/contracts-upgradeable/token/ERC20/ERC20Upgradeable.sol\":5191:5377  function approve(address spender, uint256 value) public virtual returns (bool) {... */\n      swap3\n      pop\n      pop\n      pop\n      jump\t// out\n        /* \"TOKEN ZARFIX (XZI).sol\":16343:17513  function batchRemoveFromWhitelist(... */\n    tag_70:\n      mload(0x00)\n      codecopy(0x00, data_7e678c77cfa084e62aed03ceadb9b37aa6c80340da2f54168df7a1e5e1fdb0a3, 0x20)\n      mload(0x00)\n      swap1\n      0x00\n      mstore\n        /* \"@openzeppelin/contracts-upgradeable/access/AccessControlUpgradeable.sol\":3191:3207  _checkRole(role) */\n      tag_252\n        /* \"@openzeppelin/contracts-upgradeable/access/AccessControlUpgradeable.sol\":3202:3206  role */\n      dup2\n        /* \"@openzeppelin/contracts-upgradeable/access/AccessControlUpgradeable.sol\":3191:3201  _checkRole */\n      tag_253\n        /* \"@openzeppelin/contracts-upgradeable/access/AccessControlUpgradeable.sol\":3191:3207  _checkRole(role) */\n      jump\t// in\n    tag_252:\n        /* \"TOKEN ZARFIX (XZI).sol\":16592:16601  _accounts */\n      dup4\n        /* \"TOKEN ZARFIX (XZI).sol\":16567:16589  uint256 accountsLength */\n      0x00\n        /* \"TOKEN ZARFIX (XZI).sol\":16626:16645  accountsLength != 0 */\n      dup2\n      swap1\n      sub\n        /* \"TOKEN ZARFIX (XZI).sol\":16618:16670  require(accountsLength != 0, \"Empty accounts array\") */\n      tag_255\n      jumpi\n      mload(0x40)\n      shl(0xe5, 0x461bcd)\n      dup2\n      mstore\n        /* \"#utility.yul\":8350:8352   */\n      0x20\n        /* \"TOKEN ZARFIX (XZI).sol\":16618:16670  require(accountsLength != 0, \"Empty accounts array\") */\n      0x04\n      dup3\n      add\n        /* \"#utility.yul\":8332:8353   */\n      mstore\n        /* \"#utility.yul\":8389:8391   */\n      0x14\n        /* \"#utility.yul\":8369:8387   */\n      0x24\n      dup3\n      add\n        /* \"#utility.yul\":8362:8392   */\n      mstore\n      shl(0x60, 0x456d707479206163636f756e7473206172726179)\n        /* \"#utility.yul\":8408:8426   */\n      0x44\n      dup3\n      add\n        /* \"#utility.yul\":8401:8451   */\n      mstore\n        /* \"#utility.yul\":8468:8486   */\n      0x64\n      add\n        /* \"TOKEN ZARFIX (XZI).sol\":16618:16670  require(accountsLength != 0, \"Empty accounts array\") */\n      tag_223\n        /* \"#utility.yul\":8148:8492   */\n      jump\n        /* \"TOKEN ZARFIX (XZI).sol\":16618:16670  require(accountsLength != 0, \"Empty accounts array\") */\n    tag_255:\n        /* \"TOKEN ZARFIX (XZI).sol\":16688:16694  _limit */\n      dup3\n        /* \"TOKEN ZARFIX (XZI).sol\":16698:16699  0 */\n      0x00\n        /* \"TOKEN ZARFIX (XZI).sol\":16688:16699  _limit != 0 */\n      sub\n        /* \"TOKEN ZARFIX (XZI).sol\":16680:16717  require(_limit != 0, \"Invalid limit\") */\n      tag_258\n      jumpi\n      mload(0x40)\n      shl(0xe5, 0x461bcd)\n      dup2\n      mstore\n        /* \"#utility.yul\":8699:8701   */\n      0x20\n        /* \"TOKEN ZARFIX (XZI).sol\":16680:16717  require(_limit != 0, \"Invalid limit\") */\n      0x04\n      dup3\n      add\n        /* \"#utility.yul\":8681:8702   */\n      mstore\n        /* \"#utility.yul\":8738:8740   */\n      0x0d\n        /* \"#utility.yul\":8718:8736   */\n      0x24\n      dup3\n      add\n        /* \"#utility.yul\":8711:8741   */\n      mstore\n      shl(0x9a, 0x125b9d985b1a59081b1a5b5a5d)\n        /* \"#utility.yul\":8757:8775   */\n      0x44\n      dup3\n      add\n        /* \"#utility.yul\":8750:8793   */\n      mstore\n        /* \"#utility.yul\":8810:8828   */\n      0x64\n      add\n        /* \"TOKEN ZARFIX (XZI).sol\":16680:16717  require(_limit != 0, \"Invalid limit\") */\n      tag_223\n        /* \"#utility.yul\":8497:8834   */\n      jump\n        /* \"TOKEN ZARFIX (XZI).sol\":16680:16717  require(_limit != 0, \"Invalid limit\") */\n    tag_258:\n        /* \"TOKEN ZARFIX (XZI).sol\":16814:16828  _MAX_BATCH + 1 */\n      tag_261\n        /* \"TOKEN ZARFIX (XZI).sol\":2199:2202  100 */\n      0x64\n        /* \"TOKEN ZARFIX (XZI).sol\":16827:16828  1 */\n      0x01\n        /* \"TOKEN ZARFIX (XZI).sol\":16814:16828  _MAX_BATCH + 1 */\n      tag_262\n      jump\t// in\n    tag_261:\n        /* \"TOKEN ZARFIX (XZI).sol\":16805:16811  _limit */\n      dup4\n        /* \"TOKEN ZARFIX (XZI).sol\":16805:16828  _limit < _MAX_BATCH + 1 */\n      lt\n        /* \"TOKEN ZARFIX (XZI).sol\":16797:16853  require(_limit < _MAX_BATCH + 1, \"Batch size too large\") */\n      tag_263\n      jumpi\n      mload(0x40)\n      shl(0xe5, 0x461bcd)\n      dup2\n      mstore\n        /* \"#utility.yul\":9303:9305   */\n      0x20\n        /* \"TOKEN ZARFIX (XZI).sol\":16797:16853  require(_limit < _MAX_BATCH + 1, \"Batch size too large\") */\n      0x04\n      dup3\n      add\n        /* \"#utility.yul\":9285:9306   */\n      mstore\n        /* \"#utility.yul\":9342:9344   */\n      0x14\n        /* \"#utility.yul\":9322:9340   */\n      0x24\n      dup3\n      add\n        /* \"#utility.yul\":9315:9345   */\n      mstore\n      shl(0x60, 0x42617463682073697a6520746f6f206c61726765)\n        /* \"#utility.yul\":9361:9379   */\n      0x44\n      dup3\n      add\n        /* \"#utility.yul\":9354:9404   */\n      mstore\n        /* \"#utility.yul\":9421:9439   */\n      0x64\n      add\n        /* \"TOKEN ZARFIX (XZI).sol\":16797:16853  require(_limit < _MAX_BATCH + 1, \"Batch size too large\") */\n      tag_223\n        /* \"#utility.yul\":9101:9445   */\n      jump\n        /* \"TOKEN ZARFIX (XZI).sol\":16797:16853  require(_limit < _MAX_BATCH + 1, \"Batch size too large\") */\n    tag_263:\n        /* \"TOKEN ZARFIX (XZI).sol\":16872:16883  uint256 end */\n      0x00\n        /* \"TOKEN ZARFIX (XZI).sol\":16886:16902  _offset + _limit */\n      tag_266\n        /* \"TOKEN ZARFIX (XZI).sol\":16896:16902  _limit */\n      dup5\n        /* \"TOKEN ZARFIX (XZI).sol\":16886:16893  _offset */\n      dup7\n        /* \"TOKEN ZARFIX (XZI).sol\":16886:16902  _offset + _limit */\n      tag_262\n      jump\t// in\n    tag_266:\n        /* \"TOKEN ZARFIX (XZI).sol\":16872:16902  uint256 end = _offset + _limit */\n      swap1\n      pop\n        /* \"TOKEN ZARFIX (XZI).sol\":16992:17010  accountsLength + 1 */\n      tag_267\n        /* \"TOKEN ZARFIX (XZI).sol\":16992:17006  accountsLength */\n      dup3\n        /* \"TOKEN ZARFIX (XZI).sol\":17009:17010  1 */\n      0x01\n        /* \"TOKEN ZARFIX (XZI).sol\":16992:17010  accountsLength + 1 */\n      tag_262\n      jump\t// in\n    tag_267:\n        /* \"TOKEN ZARFIX (XZI).sol\":16985:16988  end */\n      dup2\n        /* \"TOKEN ZARFIX (XZI).sol\":16985:17010  end >= accountsLength + 1 */\n      lt\n        /* \"TOKEN ZARFIX (XZI).sol\":16981:17057  if (end >= accountsLength + 1) {... */\n      tag_268\n      jumpi\n      pop\n        /* \"TOKEN ZARFIX (XZI).sol\":17032:17046  accountsLength */\n      dup1\n        /* \"TOKEN ZARFIX (XZI).sol\":16981:17057  if (end >= accountsLength + 1) {... */\n    tag_268:\n        /* \"TOKEN ZARFIX (XZI).sol\":17103:17110  _offset */\n      dup5\n        /* \"TOKEN ZARFIX (XZI).sol\":17086:17421  for (uint256 i = _offset; i < end;) {... */\n    tag_269:\n        /* \"TOKEN ZARFIX (XZI).sol\":17116:17119  end */\n      dup2\n        /* \"TOKEN ZARFIX (XZI).sol\":17112:17113  i */\n      dup2\n        /* \"TOKEN ZARFIX (XZI).sol\":17112:17119  i < end */\n      lt\n        /* \"TOKEN ZARFIX (XZI).sol\":17086:17421  for (uint256 i = _offset; i < end;) {... */\n      iszero\n      tag_270\n      jumpi\n        /* \"TOKEN ZARFIX (XZI).sol\":17136:17151  address account */\n      0x00\n        /* \"TOKEN ZARFIX (XZI).sol\":17154:17163  _accounts */\n      dup9\n      dup9\n        /* \"TOKEN ZARFIX (XZI).sol\":17164:17165  i */\n      dup4\n        /* \"TOKEN ZARFIX (XZI).sol\":17154:17166  _accounts[i] */\n      dup2\n      dup2\n      lt\n      tag_273\n      jumpi\n      tag_273\n      tag_274\n      jump\t// in\n    tag_273:\n      swap1\n      pop\n      0x20\n      mul\n      add\n      0x20\n      dup2\n      add\n      swap1\n      tag_275\n      swap2\n      swap1\n      tag_114\n      jump\t// in\n    tag_275:\n        /* \"TOKEN ZARFIX (XZI).sol\":17136:17166  address account = _accounts[i] */\n      swap1\n      pop\n      sub(shl(0xa0, 0x01), 0x01)\n        /* \"TOKEN ZARFIX (XZI).sol\":17235:17256  account != address(0) */\n      dup2\n      and\n        /* \"TOKEN ZARFIX (XZI).sol\":17227:17285  require(account != address(0), \"Invalid account in batch\") */\n      tag_276\n      jumpi\n      mload(0x40)\n      shl(0xe5, 0x461bcd)\n      dup2\n      mstore\n        /* \"#utility.yul\":9784:9786   */\n      0x20\n        /* \"TOKEN ZARFIX (XZI).sol\":17227:17285  require(account != address(0), \"Invalid account in batch\") */\n      0x04\n      dup3\n      add\n        /* \"#utility.yul\":9766:9787   */\n      mstore\n        /* \"#utility.yul\":9823:9825   */\n      0x18\n        /* \"#utility.yul\":9803:9821   */\n      0x24\n      dup3\n      add\n        /* \"#utility.yul\":9796:9826   */\n      mstore\n      shl(0x43, 0x092dcecc2d8d2c840c2c6c6deeadce840d2dc40c4c2e8c6d)\n        /* \"#utility.yul\":9842:9860   */\n      0x44\n      dup3\n      add\n        /* \"#utility.yul\":9835:9889   */\n      mstore\n        /* \"#utility.yul\":9906:9924   */\n      0x64\n      add\n        /* \"TOKEN ZARFIX (XZI).sol\":17227:17285  require(account != address(0), \"Invalid account in batch\") */\n      tag_223\n        /* \"#utility.yul\":9582:9930   */\n      jump\n        /* \"TOKEN ZARFIX (XZI).sol\":17227:17285  require(account != address(0), \"Invalid account in batch\") */\n    tag_276:\n      sub(shl(0xa0, 0x01), 0x01)\n        /* \"TOKEN ZARFIX (XZI).sol\":17319:17338  _whitelist[account] */\n      and\n        /* \"TOKEN ZARFIX (XZI).sol\":17319:17329  _whitelist */\n      0x00\n        /* \"TOKEN ZARFIX (XZI).sol\":17319:17338  _whitelist[account] */\n      swap1\n      dup2\n      mstore\n      0x20\n      dup2\n      swap1\n      mstore\n      0x40\n      swap1\n      keccak256\n        /* \"TOKEN ZARFIX (XZI).sol\":17312:17338  delete _whitelist[account] */\n      dup1\n      sload\n      not(0xff)\n      and\n      swap1\n      sstore\n      0x01\n        /* \"TOKEN ZARFIX (XZI).sol\":17393:17396  ++i */\n      add\n        /* \"TOKEN ZARFIX (XZI).sol\":17086:17421  for (uint256 i = _offset; i < end;) {... */\n      jump(tag_269)\n    tag_270:\n      pop\n        /* \"TOKEN ZARFIX (XZI).sol\":17492:17505  end - _offset */\n      tag_279\n        /* \"TOKEN ZARFIX (XZI).sol\":17498:17505  _offset */\n      dup6\n        /* \"TOKEN ZARFIX (XZI).sol\":17492:17495  end */\n      dup3\n        /* \"TOKEN ZARFIX (XZI).sol\":17492:17505  end - _offset */\n      tag_280\n      jump\t// in\n    tag_279:\n        /* \"TOKEN ZARFIX (XZI).sol\":17468:17506  BatchProcessed(_offset, end - _offset) */\n      mload(0x40)\n        /* \"TOKEN ZARFIX (XZI).sol\":17483:17490  _offset */\n      dup7\n      swap1\n        /* \"TOKEN ZARFIX (XZI).sol\":17468:17506  BatchProcessed(_offset, end - _offset) */\n      0x3838459cd794256a3c29bb3186da72029a8036c0f596fee1bd526f8eb9493d41\n      swap1\n      0x00\n      swap1\n      log3\n        /* \"TOKEN ZARFIX (XZI).sol\":16506:17513  {... */\n      pop\n      pop\n        /* \"TOKEN ZARFIX (XZI).sol\":16343:17513  function batchRemoveFromWhitelist(... */\n      pop\n      pop\n      pop\n      pop\n      pop\n      jump\t// out\n        /* \"TOKEN ZARFIX (XZI).sol\":12250:13180  function transferFrom(address _from, address _to, uint256 _amount) ... */\n    tag_80:\n        /* \"TOKEN ZARFIX (XZI).sol\":12392:12396  bool */\n      0x00\n        /* \"@openzeppelin/contracts-upgradeable/utils/PausableUpgradeable.sol\":1979:1998  _requireNotPaused() */\n      tag_283\n        /* \"@openzeppelin/contracts-upgradeable/utils/PausableUpgradeable.sol\":1979:1996  _requireNotPaused */\n      tag_284\n        /* \"@openzeppelin/contracts-upgradeable/utils/PausableUpgradeable.sol\":1979:1998  _requireNotPaused() */\n      jump\t// in\n    tag_283:\n      sub(shl(0xa0, 0x01), 0x01)\n        /* \"TOKEN ZARFIX (XZI).sol\":12464:12483  _from != address(0) */\n      dup5\n      and\n        /* \"TOKEN ZARFIX (XZI).sol\":12456:12510  require(_from != address(0), \"Invalid sender address\") */\n      tag_286\n      jumpi\n      mload(0x40)\n      shl(0xe5, 0x461bcd)\n      dup2\n      mstore\n        /* \"#utility.yul\":10270:10272   */\n      0x20\n        /* \"TOKEN ZARFIX (XZI).sol\":12456:12510  require(_from != address(0), \"Invalid sender address\") */\n      0x04\n      dup3\n      add\n        /* \"#utility.yul\":10252:10273   */\n      mstore\n        /* \"#utility.yul\":10309:10311   */\n      0x16\n        /* \"#utility.yul\":10289:10307   */\n      0x24\n      dup3\n      add\n        /* \"#utility.yul\":10282:10312   */\n      mstore\n      shl(0x50, 0x496e76616c69642073656e6465722061646472657373)\n        /* \"#utility.yul\":10328:10346   */\n      0x44\n      dup3\n      add\n        /* \"#utility.yul\":10321:10373   */\n      mstore\n        /* \"#utility.yul\":10390:10408   */\n      0x64\n      add\n        /* \"TOKEN ZARFIX (XZI).sol\":12456:12510  require(_from != address(0), \"Invalid sender address\") */\n      tag_223\n        /* \"#utility.yul\":10068:10414   */\n      jump\n        /* \"TOKEN ZARFIX (XZI).sol\":12456:12510  require(_from != address(0), \"Invalid sender address\") */\n    tag_286:\n      sub(shl(0xa0, 0x01), 0x01)\n        /* \"TOKEN ZARFIX (XZI).sol\":12528:12545  _to != address(0) */\n      dup4\n      and\n        /* \"TOKEN ZARFIX (XZI).sol\":12520:12575  require(_to != address(0), \"Invalid recipient address\") */\n      tag_289\n      jumpi\n      mload(0x40)\n      shl(0xe5, 0x461bcd)\n      dup2\n      mstore\n      0x04\n      add\n      tag_223\n      swap1\n      tag_291\n      jump\t// in\n    tag_289:\n        /* \"TOKEN ZARFIX (XZI).sol\":12593:12600  _amount */\n      dup2\n        /* \"TOKEN ZARFIX (XZI).sol\":12604:12605  0 */\n      0x00\n        /* \"TOKEN ZARFIX (XZI).sol\":12593:12605  _amount != 0 */\n      sub\n        /* \"TOKEN ZARFIX (XZI).sol\":12585:12633  require(_amount != 0, \"Invalid transfer amount\") */\n      tag_292\n      jumpi\n      mload(0x40)\n      shl(0xe5, 0x461bcd)\n      dup2\n      mstore\n        /* \"#utility.yul\":10975:10977   */\n      0x20\n        /* \"TOKEN ZARFIX (XZI).sol\":12585:12633  require(_amount != 0, \"Invalid transfer amount\") */\n      0x04\n      dup3\n      add\n        /* \"#utility.yul\":10957:10978   */\n      mstore\n        /* \"#utility.yul\":11014:11016   */\n      0x17\n        /* \"#utility.yul\":10994:11012   */\n      0x24\n      dup3\n      add\n        /* \"#utility.yul\":10987:11017   */\n      mstore\n      shl(0x4a, 0x125b9d985b1a59081d1c985b9cd9995c88185b5bdd5b9d)\n        /* \"#utility.yul\":11033:11051   */\n      0x44\n      dup3\n      add\n        /* \"#utility.yul\":11026:11079   */\n      mstore\n        /* \"#utility.yul\":11096:11114   */\n      0x64\n      add\n        /* \"TOKEN ZARFIX (XZI).sol\":12585:12633  require(_amount != 0, \"Invalid transfer amount\") */\n      tag_223\n        /* \"#utility.yul\":10773:11120   */\n      jump\n        /* \"TOKEN ZARFIX (XZI).sol\":12585:12633  require(_amount != 0, \"Invalid transfer amount\") */\n    tag_292:\n      sub(shl(0xa0, 0x01), 0x01)\n        /* \"TOKEN ZARFIX (XZI).sol\":12737:12754  _whitelist[_from] */\n      dup1\n      dup6\n      and\n        /* \"TOKEN ZARFIX (XZI).sol\":12714:12734  bool fromWhitelisted */\n      0x00\n        /* \"TOKEN ZARFIX (XZI).sol\":12737:12754  _whitelist[_from] */\n      swap1\n      dup2\n      mstore\n      0x20\n      dup2\n      swap1\n      mstore\n      0x40\n      dup1\n      dup3\n      keccak256\n      sload\n        /* \"TOKEN ZARFIX (XZI).sol\":12785:12800  _whitelist[_to] */\n      swap3\n      dup7\n      and\n      dup3\n      mstore\n      swap1\n      keccak256\n      sload\n        /* \"TOKEN ZARFIX (XZI).sol\":12737:12754  _whitelist[_from] */\n      0xff\n      swap2\n      dup3\n      and\n      swap2\n        /* \"TOKEN ZARFIX (XZI).sol\":12785:12800  _whitelist[_to] */\n      and\n        /* \"TOKEN ZARFIX (XZI).sol\":12737:12754  _whitelist[_from] */\n      dup2\n        /* \"TOKEN ZARFIX (XZI).sol\":12819:12869  require(fromWhitelisted, \"Sender not whitelisted\") */\n      tag_295\n      jumpi\n      mload(0x40)\n      shl(0xe5, 0x461bcd)\n      dup2\n      mstore\n        /* \"#utility.yul\":11327:11329   */\n      0x20\n        /* \"TOKEN ZARFIX (XZI).sol\":12819:12869  require(fromWhitelisted, \"Sender not whitelisted\") */\n      0x04\n      dup3\n      add\n        /* \"#utility.yul\":11309:11330   */\n      mstore\n        /* \"#utility.yul\":11366:11368   */\n      0x16\n        /* \"#utility.yul\":11346:11364   */\n      0x24\n      dup3\n      add\n        /* \"#utility.yul\":11339:11369   */\n      mstore\n      shl(0x52, 0x14d95b99195c881b9bdd081dda1a5d195b1a5cdd1959)\n        /* \"#utility.yul\":11385:11403   */\n      0x44\n      dup3\n      add\n        /* \"#utility.yul\":11378:11430   */\n      mstore\n        /* \"#utility.yul\":11447:11465   */\n      0x64\n      add\n        /* \"TOKEN ZARFIX (XZI).sol\":12819:12869  require(fromWhitelisted, \"Sender not whitelisted\") */\n      tag_223\n        /* \"#utility.yul\":11125:11471   */\n      jump\n        /* \"TOKEN ZARFIX (XZI).sol\":12819:12869  require(fromWhitelisted, \"Sender not whitelisted\") */\n    tag_295:\n        /* \"TOKEN ZARFIX (XZI).sol\":12887:12900  toWhitelisted */\n      dup1\n        /* \"TOKEN ZARFIX (XZI).sol\":12879:12930  require(toWhitelisted, \"Recipient not whitelisted\") */\n      tag_298\n      jumpi\n      mload(0x40)\n      shl(0xe5, 0x461bcd)\n      dup2\n      mstore\n      0x04\n      add\n      tag_223\n      swap1\n      tag_300\n      jump\t// in\n    tag_298:\n        /* \"@openzeppelin/contracts-upgradeable/utils/ContextUpgradeable.sol\":966:976  msg.sender */\n      caller\n        /* \"TOKEN ZARFIX (XZI).sol\":13023:13063  _spendAllowance(_from, spender, _amount) */\n      tag_302\n        /* \"TOKEN ZARFIX (XZI).sol\":13039:13044  _from */\n      dup8\n        /* \"@openzeppelin/contracts-upgradeable/utils/ContextUpgradeable.sol\":966:976  msg.sender */\n      dup3\n        /* \"TOKEN ZARFIX (XZI).sol\":13055:13062  _amount */\n      dup8\n        /* \"TOKEN ZARFIX (XZI).sol\":13023:13038  _spendAllowance */\n      tag_303\n        /* \"TOKEN ZARFIX (XZI).sol\":13023:13063  _spendAllowance(_from, spender, _amount) */\n      jump\t// in\n    tag_302:\n        /* \"TOKEN ZARFIX (XZI).sol\":13073:13103  _transfer(_from, _to, _amount) */\n      tag_304\n        /* \"TOKEN ZARFIX (XZI).sol\":13083:13088  _from */\n      dup8\n        /* \"TOKEN ZARFIX (XZI).sol\":13090:13093  _to */\n      dup8\n        /* \"TOKEN ZARFIX (XZI).sol\":13095:13102  _amount */\n      dup8\n        /* \"TOKEN ZARFIX (XZI).sol\":13073:13082  _transfer */\n      tag_305\n        /* \"TOKEN ZARFIX (XZI).sol\":13073:13103  _transfer(_from, _to, _amount) */\n      jump\t// in\n    tag_304:\n        /* \"TOKEN ZARFIX (XZI).sol\":13139:13142  _to */\n      dup6\n      sub(shl(0xa0, 0x01), 0x01)\n        /* \"TOKEN ZARFIX (XZI).sol\":13118:13152  TokenTransfer(_from, _to, _amount) */\n      and\n        /* \"TOKEN ZARFIX (XZI).sol\":13132:13137  _from */\n      dup8\n      sub(shl(0xa0, 0x01), 0x01)\n        /* \"TOKEN ZARFIX (XZI).sol\":13118:13152  TokenTransfer(_from, _to, _amount) */\n      and\n      0xd0ed88a3f042c6bbb1e3ea406079b5f2b4b198afccaa535d837f4c63abbc4de6\n        /* \"TOKEN ZARFIX (XZI).sol\":13144:13151  _amount */\n      dup8\n        /* \"TOKEN ZARFIX (XZI).sol\":13118:13152  TokenTransfer(_from, _to, _amount) */\n      mload(0x40)\n      tag_306\n      swap2\n        /* \"#utility.yul\":3552:3577   */\n      dup2\n      mstore\n        /* \"#utility.yul\":3540:3542   */\n      0x20\n        /* \"#utility.yul\":3525:3543   */\n      add\n      swap1\n        /* \"#utility.yul\":3406:3583   */\n      jump\n        /* \"TOKEN ZARFIX (XZI).sol\":13118:13152  TokenTransfer(_from, _to, _amount) */\n    tag_306:\n      mload(0x40)\n      dup1\n      swap2\n      sub\n      swap1\n      log3\n        /* \"TOKEN ZARFIX (XZI).sol\":13169:13173  true */\n      0x01\n        /* \"TOKEN ZARFIX (XZI).sol\":13162:13173  return true */\n      swap4\n      pop\n      pop\n      pop\n      pop\n        /* \"@openzeppelin/contracts-upgradeable/utils/PausableUpgradeable.sol\":2008:2009  _ */\n    tag_285:\n        /* \"TOKEN ZARFIX (XZI).sol\":12250:13180  function transferFrom(address _from, address _to, uint256 _amount) ... */\n      swap4\n      swap3\n      pop\n      pop\n      pop\n      jump\t// out\n        /* \"@openzeppelin/contracts-upgradeable/access/AccessControlUpgradeable.sol\":4759:4950  function getRoleAdmin(bytes32 role) public view virtual returns (bytes32) {... */\n    tag_86:\n        /* \"@openzeppelin/contracts-upgradeable/access/AccessControlUpgradeable.sol\":4824:4831  bytes32 */\n      0x00\n        /* \"@openzeppelin/contracts-upgradeable/access/AccessControlUpgradeable.sol\":4919:4933  $._roles[role] */\n      swap1\n      dup2\n      mstore\n      mload(0x00)\n      codecopy(0x00, data_b3da67d1b252aeab7c8063542d95e75f82a5307a82535949bc38f7cf7ba8897f, 0x20)\n      mload(0x00)\n      swap1\n      0x00\n      mstore\n      0x20\n      mstore\n      0x40\n      swap1\n      keccak256\n        /* \"@openzeppelin/contracts-upgradeable/access/AccessControlUpgradeable.sol\":4919:4943  $._roles[role].adminRole */\n      0x01\n      add\n      sload\n      swap1\n        /* \"@openzeppelin/contracts-upgradeable/access/AccessControlUpgradeable.sol\":4759:4950  function getRoleAdmin(bytes32 role) public view virtual returns (bytes32) {... */\n      jump\t// out\n        /* \"@openzeppelin/contracts-upgradeable/access/AccessControlUpgradeable.sol\":5246:5382  function grantRole(bytes32 role, address account) public virtual onlyRole(getRoleAdmin(role)) {... */\n    tag_97:\n        /* \"@openzeppelin/contracts-upgradeable/access/AccessControlUpgradeable.sol\":5320:5338  getRoleAdmin(role) */\n      tag_311\n        /* \"@openzeppelin/contracts-upgradeable/access/AccessControlUpgradeable.sol\":5333:5337  role */\n      dup3\n        /* \"@openzeppelin/contracts-upgradeable/access/AccessControlUpgradeable.sol\":5320:5332  getRoleAdmin */\n      tag_86\n        /* \"@openzeppelin/contracts-upgradeable/access/AccessControlUpgradeable.sol\":5320:5338  getRoleAdmin(role) */\n      jump\t// in\n    tag_311:\n        /* \"@openzeppelin/contracts-upgradeable/access/AccessControlUpgradeable.sol\":3191:3207  _checkRole(role) */\n      tag_313\n        /* \"@openzeppelin/contracts-upgradeable/access/AccessControlUpgradeable.sol\":3202:3206  role */\n      dup2\n        /* \"@openzeppelin/contracts-upgradeable/access/AccessControlUpgradeable.sol\":3191:3201  _checkRole */\n      tag_253\n        /* \"@openzeppelin/contracts-upgradeable/access/AccessControlUpgradeable.sol\":3191:3207  _checkRole(role) */\n      jump\t// in\n    tag_313:\n        /* \"@openzeppelin/contracts-upgradeable/access/AccessControlUpgradeable.sol\":5350:5375  _grantRole(role, account) */\n      tag_315\n        /* \"@openzeppelin/contracts-upgradeable/access/AccessControlUpgradeable.sol\":5361:5365  role */\n      dup4\n        /* \"@openzeppelin/contracts-upgradeable/access/AccessControlUpgradeable.sol\":5367:5374  account */\n      dup4\n        /* \"@openzeppelin/contracts-upgradeable/access/AccessControlUpgradeable.sol\":5350:5360  _grantRole */\n      tag_236\n        /* \"@openzeppelin/contracts-upgradeable/access/AccessControlUpgradeable.sol\":5350:5375  _grantRole(role, account) */\n      jump\t// in\n    tag_315:\n      pop\n        /* \"@openzeppelin/contracts-upgradeable/access/AccessControlUpgradeable.sol\":5246:5382  function grantRole(bytes32 role, address account) public virtual onlyRole(getRoleAdmin(role)) {... */\n      pop\n      pop\n      pop\n      jump\t// out\n        /* \"@openzeppelin/contracts-upgradeable/access/AccessControlUpgradeable.sol\":6348:6593  function renounceRole(bytes32 role, address callerConfirmation) public virtual {... */\n    tag_110:\n      sub(shl(0xa0, 0x01), 0x01)\n        /* \"@openzeppelin/contracts-upgradeable/access/AccessControlUpgradeable.sol\":6441:6475  callerConfirmation != _msgSender() */\n      dup2\n      and\n        /* \"@openzeppelin/contracts-upgradeable/utils/ContextUpgradeable.sol\":966:976  msg.sender */\n      caller\n        /* \"@openzeppelin/contracts-upgradeable/access/AccessControlUpgradeable.sol\":6441:6475  callerConfirmation != _msgSender() */\n      eq\n        /* \"@openzeppelin/contracts-upgradeable/access/AccessControlUpgradeable.sol\":6437:6539  if (callerConfirmation != _msgSender()) {... */\n      tag_320\n      jumpi\n        /* \"@openzeppelin/contracts-upgradeable/access/AccessControlUpgradeable.sol\":6498:6528  AccessControlBadConfirmation() */\n      mload(0x40)\n      shl(0xe1, 0x334bd919)\n      dup2\n      mstore\n      0x04\n      add\n      mload(0x40)\n      dup1\n      swap2\n      sub\n      swap1\n      revert\n        /* \"@openzeppelin/contracts-upgradeable/access/AccessControlUpgradeable.sol\":6437:6539  if (callerConfirmation != _msgSender()) {... */\n    tag_320:\n        /* \"@openzeppelin/contracts-upgradeable/access/AccessControlUpgradeable.sol\":6549:6586  _revokeRole(role, callerConfirmation) */\n      tag_321\n        /* \"@openzeppelin/contracts-upgradeable/access/AccessControlUpgradeable.sol\":6561:6565  role */\n      dup3\n        /* \"@openzeppelin/contracts-upgradeable/access/AccessControlUpgradeable.sol\":6567:6585  callerConfirmation */\n      dup3\n        /* \"@openzeppelin/contracts-upgradeable/access/AccessControlUpgradeable.sol\":6549:6560  _revokeRole */\n      tag_322\n        /* \"@openzeppelin/contracts-upgradeable/access/AccessControlUpgradeable.sol\":6549:6586  _revokeRole(role, callerConfirmation) */\n      jump\t// in\n    tag_321:\n      pop\n        /* \"@openzeppelin/contracts-upgradeable/access/AccessControlUpgradeable.sol\":6348:6593  function renounceRole(bytes32 role, address callerConfirmation) public virtual {... */\n      pop\n      pop\n      jump\t// out\n        /* \"TOKEN ZARFIX (XZI).sol\":18692:18917  function isWhitelisted(address _account) external view returns (bool) {... */\n    tag_115:\n        /* \"TOKEN ZARFIX (XZI).sol\":18756:18760  bool */\n      0x00\n      sub(shl(0xa0, 0x01), 0x01)\n        /* \"TOKEN ZARFIX (XZI).sol\":18823:18845  _account != address(0) */\n      dup3\n      and\n        /* \"TOKEN ZARFIX (XZI).sol\":18815:18873  require(_account != address(0), \"Invalid account address\") */\n      tag_324\n      jumpi\n      mload(0x40)\n      shl(0xe5, 0x461bcd)\n      dup2\n      mstore\n      0x04\n      add\n      tag_223\n      swap1\n      tag_326\n      jump\t// in\n    tag_324:\n      pop\n      sub(shl(0xa0, 0x01), 0x01)\n        /* \"TOKEN ZARFIX (XZI).sol\":18890:18910  _whitelist[_account] */\n      and\n        /* \"TOKEN ZARFIX (XZI).sol\":18890:18900  _whitelist */\n      0x00\n        /* \"TOKEN ZARFIX (XZI).sol\":18890:18910  _whitelist[_account] */\n      swap1\n      dup2\n      mstore\n      0x20\n      dup2\n      swap1\n      mstore\n      0x40\n      swap1\n      keccak256\n      sload\n      0xff\n      and\n      swap1\n        /* \"TOKEN ZARFIX (XZI).sol\":18692:18917  function isWhitelisted(address _account) external view returns (bool) {... */\n      jump\t// out\n        /* \"TOKEN ZARFIX (XZI).sol\":18183:18306  function unpause() external onlyRole(_PAUSER_ROLE) {... */\n    tag_119:\n        /* \"TOKEN ZARFIX (XZI).sol\":1878:1902  keccak256(\"PAUSER_ROLE\") */\n      0x65d7a28e3265b37a6474929f336521b332c1681b933f6cb9f3376673440d862a\n        /* \"@openzeppelin/contracts-upgradeable/access/AccessControlUpgradeable.sol\":3191:3207  _checkRole(role) */\n      tag_328\n        /* \"@openzeppelin/contracts-upgradeable/access/AccessControlUpgradeable.sol\":3202:3206  role */\n      dup2\n        /* \"@openzeppelin/contracts-upgradeable/access/AccessControlUpgradeable.sol\":3191:3201  _checkRole */\n      tag_253\n        /* \"@openzeppelin/contracts-upgradeable/access/AccessControlUpgradeable.sol\":3191:3207  _checkRole(role) */\n      jump\t// in\n    tag_328:\n        /* \"TOKEN ZARFIX (XZI).sol\":18244:18254  _unpause() */\n      tag_330\n        /* \"TOKEN ZARFIX (XZI).sol\":18244:18252  _unpause */\n      tag_331\n        /* \"TOKEN ZARFIX (XZI).sol\":18244:18254  _unpause() */\n      jump\t// in\n    tag_330:\n        /* \"TOKEN ZARFIX (XZI).sol\":18269:18299  ContractUnpaused(_msgSender()) */\n      mload(0x40)\n        /* \"@openzeppelin/contracts-upgradeable/utils/ContextUpgradeable.sol\":966:976  msg.sender */\n      caller\n      swap1\n        /* \"TOKEN ZARFIX (XZI).sol\":18269:18299  ContractUnpaused(_msgSender()) */\n      0x5b65b0c1363b3003db9bcc5e1fd8805a6d6bf5bf6dc9d3431ee4494cd7d11766\n      swap1\n      0x00\n      swap1\n      log2\n        /* \"TOKEN ZARFIX (XZI).sol\":18183:18306  function unpause() external onlyRole(_PAUSER_ROLE) {... */\n      pop\n      jump\t// out\n        /* \"TOKEN ZARFIX (XZI).sol\":8627:9570  function mint(address _to, uint256 _amount) ... */\n    tag_123:\n        /* \"@openzeppelin/contracts-upgradeable/utils/ReentrancyGuardUpgradeable.sol\":3395:3416  _nonReentrantBefore() */\n      tag_334\n        /* \"@openzeppelin/contracts-upgradeable/utils/ReentrancyGuardUpgradeable.sol\":3395:3414  _nonReentrantBefore */\n      tag_335\n        /* \"@openzeppelin/contracts-upgradeable/utils/ReentrancyGuardUpgradeable.sol\":3395:3416  _nonReentrantBefore() */\n      jump\t// in\n    tag_334:\n        /* \"TOKEN ZARFIX (XZI).sol\":1567:1591  keccak256(\"ISSUER_ROLE\") */\n      0x114e74f6ea3bd819998f78687bfcb11b140da08e9b7d222fa9c1f1ba1f2aa122\n        /* \"@openzeppelin/contracts-upgradeable/access/AccessControlUpgradeable.sol\":3191:3207  _checkRole(role) */\n      tag_337\n        /* \"@openzeppelin/contracts-upgradeable/access/AccessControlUpgradeable.sol\":3202:3206  role */\n      dup2\n        /* \"@openzeppelin/contracts-upgradeable/access/AccessControlUpgradeable.sol\":3191:3201  _checkRole */\n      tag_253\n        /* \"@openzeppelin/contracts-upgradeable/access/AccessControlUpgradeable.sol\":3191:3207  _checkRole(role) */\n      jump\t// in\n    tag_337:\n        /* \"@openzeppelin/contracts-upgradeable/utils/PausableUpgradeable.sol\":1979:1998  _requireNotPaused() */\n      tag_339\n        /* \"@openzeppelin/contracts-upgradeable/utils/PausableUpgradeable.sol\":1979:1996  _requireNotPaused */\n      tag_284\n        /* \"@openzeppelin/contracts-upgradeable/utils/PausableUpgradeable.sol\":1979:1998  _requireNotPaused() */\n      jump\t// in\n    tag_339:\n      sub(shl(0xa0, 0x01), 0x01)\n        /* \"TOKEN ZARFIX (XZI).sol\":8831:8848  _to != address(0) */\n      dup4\n      and\n        /* \"TOKEN ZARFIX (XZI).sol\":8823:8878  require(_to != address(0), \"Invalid recipient address\") */\n      tag_341\n      jumpi\n      mload(0x40)\n      shl(0xe5, 0x461bcd)\n      dup2\n      mstore\n      0x04\n      add\n      tag_223\n      swap1\n      tag_291\n      jump\t// in\n    tag_341:\n        /* \"TOKEN ZARFIX (XZI).sol\":8896:8903  _amount */\n      dup2\n        /* \"TOKEN ZARFIX (XZI).sol\":8907:8908  0 */\n      0x00\n        /* \"TOKEN ZARFIX (XZI).sol\":8896:8908  _amount != 0 */\n      sub\n        /* \"TOKEN ZARFIX (XZI).sol\":8888:8932  require(_amount != 0, \"Invalid mint amount\") */\n      tag_343\n      jumpi\n      mload(0x40)\n      shl(0xe5, 0x461bcd)\n      dup2\n      mstore\n        /* \"#utility.yul\":12384:12386   */\n      0x20\n        /* \"TOKEN ZARFIX (XZI).sol\":8888:8932  require(_amount != 0, \"Invalid mint amount\") */\n      0x04\n      dup3\n      add\n        /* \"#utility.yul\":12366:12387   */\n      mstore\n        /* \"#utility.yul\":12423:12425   */\n      0x13\n        /* \"#utility.yul\":12403:12421   */\n      0x24\n      dup3\n      add\n        /* \"#utility.yul\":12396:12426   */\n      mstore\n      shl(0x6a, 0x125b9d985b1a59081b5a5b9d08185b5bdd5b9d)\n        /* \"#utility.yul\":12442:12460   */\n      0x44\n      dup3\n      add\n        /* \"#utility.yul\":12435:12484   */\n      mstore\n        /* \"#utility.yul\":12501:12519   */\n      0x64\n      add\n        /* \"TOKEN ZARFIX (XZI).sol\":8888:8932  require(_amount != 0, \"Invalid mint amount\") */\n      tag_223\n        /* \"#utility.yul\":12182:12525   */\n      jump\n        /* \"TOKEN ZARFIX (XZI).sol\":8888:8932  require(_amount != 0, \"Invalid mint amount\") */\n    tag_343:\n      sub(shl(0xa0, 0x01), 0x01)\n        /* \"TOKEN ZARFIX (XZI).sol\":9033:9048  _whitelist[_to] */\n      dup4\n      and\n        /* \"TOKEN ZARFIX (XZI).sol\":9012:9030  bool toWhitelisted */\n      0x00\n        /* \"TOKEN ZARFIX (XZI).sol\":9033:9048  _whitelist[_to] */\n      swap1\n      dup2\n      mstore\n      0x20\n      dup2\n      swap1\n      mstore\n      0x40\n      swap1\n      keccak256\n      sload\n      0xff\n      and\n      dup1\n        /* \"TOKEN ZARFIX (XZI).sol\":9058:9109  require(toWhitelisted, \"Recipient not whitelisted\") */\n      tag_346\n      jumpi\n      mload(0x40)\n      shl(0xe5, 0x461bcd)\n      dup2\n      mstore\n      0x04\n      add\n      tag_223\n      swap1\n      tag_300\n      jump\t// in\n    tag_346:\n        /* \"TOKEN ZARFIX (XZI).sol\":9212:9226  _currentSupply */\n      sload(0x01)\n        /* \"TOKEN ZARFIX (XZI).sol\":9187:9209  uint256 currentSupply_ */\n      0x00\n        /* \"TOKEN ZARFIX (XZI).sol\":9256:9280  currentSupply_ + _amount */\n      tag_348\n        /* \"TOKEN ZARFIX (XZI).sol\":9273:9280  _amount */\n      dup6\n        /* \"TOKEN ZARFIX (XZI).sol\":9212:9226  _currentSupply */\n      dup4\n        /* \"TOKEN ZARFIX (XZI).sol\":9256:9280  currentSupply_ + _amount */\n      tag_262\n      jump\t// in\n    tag_348:\n        /* \"TOKEN ZARFIX (XZI).sol\":9236:9280  uint256 newSupply = currentSupply_ + _amount */\n      swap1\n      pop\n        /* \"TOKEN ZARFIX (XZI).sol\":9380:9387  CAP + 1 */\n      tag_349\n        /* \"TOKEN ZARFIX (XZI).sol\":9380:9383  CAP */\n      immutable(\"0x3d20d9702e2f5746efe4f161f9f2eec6795a257d6728ef74ed6f6785803bd046\")\n        /* \"TOKEN ZARFIX (XZI).sol\":9386:9387  1 */\n      0x01\n        /* \"TOKEN ZARFIX (XZI).sol\":9380:9387  CAP + 1 */\n      tag_262\n      jump\t// in\n    tag_349:\n        /* \"TOKEN ZARFIX (XZI).sol\":9368:9377  newSupply */\n      dup2\n        /* \"TOKEN ZARFIX (XZI).sol\":9368:9387  newSupply < CAP + 1 */\n      lt\n        /* \"TOKEN ZARFIX (XZI).sol\":9360:9404  require(newSupply < CAP + 1, \"Cap exceeded\") */\n      tag_350\n      jumpi\n      mload(0x40)\n      shl(0xe5, 0x461bcd)\n      dup2\n      mstore\n        /* \"#utility.yul\":12732:12734   */\n      0x20\n        /* \"TOKEN ZARFIX (XZI).sol\":9360:9404  require(newSupply < CAP + 1, \"Cap exceeded\") */\n      0x04\n      dup3\n      add\n        /* \"#utility.yul\":12714:12735   */\n      mstore\n        /* \"#utility.yul\":12771:12773   */\n      0x0c\n        /* \"#utility.yul\":12751:12769   */\n      0x24\n      dup3\n      add\n        /* \"#utility.yul\":12744:12774   */\n      mstore\n      shl(0xa2, 0x10d85c08195e18d959591959)\n        /* \"#utility.yul\":12790:12808   */\n      0x44\n      dup3\n      add\n        /* \"#utility.yul\":12783:12825   */\n      mstore\n        /* \"#utility.yul\":12842:12860   */\n      0x64\n      add\n        /* \"TOKEN ZARFIX (XZI).sol\":9360:9404  require(newSupply < CAP + 1, \"Cap exceeded\") */\n      tag_223\n        /* \"#utility.yul\":12530:12866   */\n      jump\n        /* \"TOKEN ZARFIX (XZI).sol\":9360:9404  require(newSupply < CAP + 1, \"Cap exceeded\") */\n    tag_350:\n        /* \"TOKEN ZARFIX (XZI).sol\":9434:9448  _currentSupply */\n      0x01\n        /* \"TOKEN ZARFIX (XZI).sol\":9434:9460  _currentSupply = newSupply */\n      dup2\n      swap1\n      sstore\n        /* \"TOKEN ZARFIX (XZI).sol\":9470:9489  _mint(_to, _amount) */\n      tag_353\n        /* \"TOKEN ZARFIX (XZI).sol\":9476:9479  _to */\n      dup7\n        /* \"TOKEN ZARFIX (XZI).sol\":9481:9488  _amount */\n      dup7\n        /* \"TOKEN ZARFIX (XZI).sol\":9470:9475  _mint */\n      tag_354\n        /* \"TOKEN ZARFIX (XZI).sol\":9470:9489  _mint(_to, _amount) */\n      jump\t// in\n    tag_353:\n        /* \"TOKEN ZARFIX (XZI).sol\":9537:9563  TokensMinted(_to, _amount) */\n      mload(0x40)\n        /* \"TOKEN ZARFIX (XZI).sol\":9555:9562  _amount */\n      dup6\n      swap1\n      sub(shl(0xa0, 0x01), 0x01)\n        /* \"TOKEN ZARFIX (XZI).sol\":9537:9563  TokensMinted(_to, _amount) */\n      dup9\n      and\n      swap1\n      0x3f2c9d57c068687834f0de942a9babb9e5acab57d516d3480a3c16ee165a4273\n      swap1\n      0x00\n      swap1\n      log3\n        /* \"TOKEN ZARFIX (XZI).sol\":8770:9570  {... */\n      pop\n      pop\n      pop\n        /* \"@openzeppelin/contracts-upgradeable/utils/ReentrancyGuardUpgradeable.sol\":3426:3427  _ */\n      pop\n        /* \"@openzeppelin/contracts-upgradeable/utils/ReentrancyGuardUpgradeable.sol\":3437:3457  _nonReentrantAfter() */\n      tag_355\n        /* \"@openzeppelin/contracts-upgradeable/utils/ReentrancyGuardUpgradeable.sol\":1949:1950  1 */\n      0x01\n      mload(0x00)\n      codecopy(0x00, data_c8669cf8eaf883002b9f48e28846a8d408c9b58ea6613bace374265e43c9bc43, 0x20)\n      mload(0x00)\n      swap1\n      0x00\n      mstore\n        /* \"@openzeppelin/contracts-upgradeable/utils/ReentrancyGuardUpgradeable.sol\":4113:4136  $._status = NOT_ENTERED */\n      sstore\n        /* \"@openzeppelin/contracts-upgradeable/utils/ReentrancyGuardUpgradeable.sol\":3860:4143  function _nonReentrantAfter() private {... */\n      jump\n        /* \"@openzeppelin/contracts-upgradeable/utils/ReentrancyGuardUpgradeable.sol\":3437:3457  _nonReentrantAfter() */\n    tag_355:\n        /* \"TOKEN ZARFIX (XZI).sol\":8627:9570  function mint(address _to, uint256 _amount) ... */\n      pop\n      pop\n      jump\t// out\n        /* \"@openzeppelin/contracts-upgradeable/proxy/utils/UUPSUpgradeable.sol\":4161:4375  function upgradeToAndCall(address newImplementation, bytes memory data) public payable virtual onlyProxy {... */\n    tag_127:\n        /* \"@openzeppelin/contracts-upgradeable/proxy/utils/UUPSUpgradeable.sol\":2655:2668  _checkProxy() */\n      tag_358\n        /* \"@openzeppelin/contracts-upgradeable/proxy/utils/UUPSUpgradeable.sol\":2655:2666  _checkProxy */\n      tag_359\n        /* \"@openzeppelin/contracts-upgradeable/proxy/utils/UUPSUpgradeable.sol\":2655:2668  _checkProxy() */\n      jump\t// in\n    tag_358:\n        /* \"@openzeppelin/contracts-upgradeable/proxy/utils/UUPSUpgradeable.sol\":4276:4312  _authorizeUpgrade(newImplementation) */\n      tag_361\n        /* \"@openzeppelin/contracts-upgradeable/proxy/utils/UUPSUpgradeable.sol\":4294:4311  newImplementation */\n      dup3\n        /* \"@openzeppelin/contracts-upgradeable/proxy/utils/UUPSUpgradeable.sol\":4276:4293  _authorizeUpgrade */\n      tag_362\n        /* \"@openzeppelin/contracts-upgradeable/proxy/utils/UUPSUpgradeable.sol\":4276:4312  _authorizeUpgrade(newImplementation) */\n      jump\t// in\n    tag_361:\n        /* \"@openzeppelin/contracts-upgradeable/proxy/utils/UUPSUpgradeable.sol\":4322:4368  _upgradeToAndCallUUPS(newImplementation, data) */\n      tag_355\n        /* \"@openzeppelin/contracts-upgradeable/proxy/utils/UUPSUpgradeable.sol\":4344:4361  newImplementation */\n      dup3\n        /* \"@openzeppelin/contracts-upgradeable/proxy/utils/UUPSUpgradeable.sol\":4363:4367  data */\n      dup3\n        /* \"@openzeppelin/contracts-upgradeable/proxy/utils/UUPSUpgradeable.sol\":4322:4343  _upgradeToAndCallUUPS */\n      tag_364\n        /* \"@openzeppelin/contracts-upgradeable/proxy/utils/UUPSUpgradeable.sol\":4322:4368  _upgradeToAndCallUUPS(newImplementation, data) */\n      jump\t// in\n        /* \"@openzeppelin/contracts-upgradeable/proxy/utils/UUPSUpgradeable.sol\":3708:3842  function proxiableUUID() external view virtual notDelegated returns (bytes32) {... */\n    tag_130:\n        /* \"@openzeppelin/contracts-upgradeable/proxy/utils/UUPSUpgradeable.sol\":3777:3784  bytes32 */\n      0x00\n        /* \"@openzeppelin/contracts-upgradeable/proxy/utils/UUPSUpgradeable.sol\":2926:2946  _checkNotDelegated() */\n      tag_366\n        /* \"@openzeppelin/contracts-upgradeable/proxy/utils/UUPSUpgradeable.sol\":2926:2944  _checkNotDelegated */\n      tag_367\n        /* \"@openzeppelin/contracts-upgradeable/proxy/utils/UUPSUpgradeable.sol\":2926:2946  _checkNotDelegated() */\n      jump\t// in\n    tag_366:\n      pop\n      mload(0x00)\n      codecopy(0x00, data_75b20eef8615de99c108b05f0dbda081c91897128caa336d75dffb97c4132b4d, 0x20)\n      mload(0x00)\n      swap1\n      0x00\n      mstore\n        /* \"@openzeppelin/contracts-upgradeable/proxy/utils/UUPSUpgradeable.sol\":3708:3842  function proxiableUUID() external view virtual notDelegated returns (bytes32) {... */\n      swap1\n      jump\t// out\n        /* \"@openzeppelin/contracts-upgradeable/token/ERC20/ERC20Upgradeable.sol\":4087:4258  function balanceOf(address account) public view virtual returns (uint256) {... */\n    tag_139:\n      sub(shl(0xa0, 0x01), 0x01)\n        /* \"@openzeppelin/contracts-upgradeable/token/ERC20/ERC20Upgradeable.sol\":4231:4251  $._balances[account] */\n      and\n        /* \"@openzeppelin/contracts-upgradeable/token/ERC20/ERC20Upgradeable.sol\":4152:4159  uint256 */\n      0x00\n        /* \"@openzeppelin/contracts-upgradeable/token/ERC20/ERC20Upgradeable.sol\":4231:4251  $._balances[account] */\n      swap1\n      dup2\n      mstore\n      mload(0x00)\n      codecopy(0x00, data_3874827173e8df9f34323b12b251d1d3c53926ce129e30a0d69f1d47c277041b, 0x20)\n      mload(0x00)\n      swap1\n      0x00\n      mstore\n      0x20\n      mstore\n      0x40\n      swap1\n      keccak256\n      sload\n      swap1\n        /* \"@openzeppelin/contracts-upgradeable/token/ERC20/ERC20Upgradeable.sol\":4087:4258  function balanceOf(address account) public view virtual returns (uint256) {... */\n      jump\t// out\n        /* \"TOKEN ZARFIX (XZI).sol\":17881:17998  function pause() external onlyRole(_PAUSER_ROLE) {... */\n    tag_143:\n        /* \"TOKEN ZARFIX (XZI).sol\":1878:1902  keccak256(\"PAUSER_ROLE\") */\n      0x65d7a28e3265b37a6474929f336521b332c1681b933f6cb9f3376673440d862a\n        /* \"@openzeppelin/contracts-upgradeable/access/AccessControlUpgradeable.sol\":3191:3207  _checkRole(role) */\n      tag_375\n        /* \"@openzeppelin/contracts-upgradeable/access/AccessControlUpgradeable.sol\":3202:3206  role */\n      dup2\n        /* \"@openzeppelin/contracts-upgradeable/access/AccessControlUpgradeable.sol\":3191:3201  _checkRole */\n      tag_253\n        /* \"@openzeppelin/contracts-upgradeable/access/AccessControlUpgradeable.sol\":3191:3207  _checkRole(role) */\n      jump\t// in\n    tag_375:\n        /* \"TOKEN ZARFIX (XZI).sol\":17940:17948  _pause() */\n      tag_377\n        /* \"TOKEN ZARFIX (XZI).sol\":17940:17946  _pause */\n      tag_378\n        /* \"TOKEN ZARFIX (XZI).sol\":17940:17948  _pause() */\n      jump\t// in\n    tag_377:\n        /* \"TOKEN ZARFIX (XZI).sol\":17963:17991  ContractPaused(_msgSender()) */\n      mload(0x40)\n        /* \"@openzeppelin/contracts-upgradeable/utils/ContextUpgradeable.sol\":966:976  msg.sender */\n      caller\n      swap1\n        /* \"TOKEN ZARFIX (XZI).sol\":17963:17991  ContractPaused(_msgSender()) */\n      0x81990fd9a5c552b8e3677917d8a03c07678f0d2cb68f88b634aca2022e9bd19f\n      swap1\n      0x00\n      swap1\n      log2\n        /* \"TOKEN ZARFIX (XZI).sol\":17881:17998  function pause() external onlyRole(_PAUSER_ROLE) {... */\n      pop\n      jump\t// out\n        /* \"TOKEN ZARFIX (XZI).sol\":14100:14470  function removeFromWhitelist(address _account) ... */\n    tag_147:\n      mload(0x00)\n      codecopy(0x00, data_7e678c77cfa084e62aed03ceadb9b37aa6c80340da2f54168df7a1e5e1fdb0a3, 0x20)\n      mload(0x00)\n      swap1\n      0x00\n      mstore\n        /* \"@openzeppelin/contracts-upgradeable/access/AccessControlUpgradeable.sol\":3191:3207  _checkRole(role) */\n      tag_381\n        /* \"@openzeppelin/contracts-upgradeable/access/AccessControlUpgradeable.sol\":3202:3206  role */\n      dup2\n        /* \"@openzeppelin/contracts-upgradeable/access/AccessControlUpgradeable.sol\":3191:3201  _checkRole */\n      tag_253\n        /* \"@openzeppelin/contracts-upgradeable/access/AccessControlUpgradeable.sol\":3191:3207  _checkRole(role) */\n      jump\t// in\n    tag_381:\n      sub(shl(0xa0, 0x01), 0x01)\n        /* \"TOKEN ZARFIX (XZI).sol\":14267:14289  _account != address(0) */\n      dup3\n      and\n        /* \"TOKEN ZARFIX (XZI).sol\":14259:14317  require(_account != address(0), \"Invalid account address\") */\n      tag_383\n      jumpi\n      mload(0x40)\n      shl(0xe5, 0x461bcd)\n      dup2\n      mstore\n      0x04\n      add\n      tag_223\n      swap1\n      tag_326\n      jump\t// in\n    tag_383:\n      sub(shl(0xa0, 0x01), 0x01)\n        /* \"TOKEN ZARFIX (XZI).sol\":14362:14382  _whitelist[_account] */\n      dup3\n      and\n        /* \"TOKEN ZARFIX (XZI).sol\":14362:14372  _whitelist */\n      0x00\n        /* \"TOKEN ZARFIX (XZI).sol\":14362:14382  _whitelist[_account] */\n      dup2\n      dup2\n      mstore\n      0x20\n      dup2\n      swap1\n      mstore\n      0x40\n      dup1\n      dup3\n      keccak256\n        /* \"TOKEN ZARFIX (XZI).sol\":14355:14382  delete _whitelist[_account] */\n      dup1\n      sload\n      not(0xff)\n      and\n      swap1\n      sstore\n        /* \"TOKEN ZARFIX (XZI).sol\":14430:14463  WhitelistUpdated(_account, false) */\n      mload\n        /* \"TOKEN ZARFIX (XZI).sol\":14362:14372  _whitelist */\n      swap1\n      swap2\n        /* \"TOKEN ZARFIX (XZI).sol\":14362:14382  _whitelist[_account] */\n      swap1\n        /* \"TOKEN ZARFIX (XZI).sol\":14430:14463  WhitelistUpdated(_account, false) */\n      0xf93f9a76c1bf3444d22400a00cb9fe990e6abe9dbb333fda48859cfee864543d\n      swap1\n        /* \"TOKEN ZARFIX (XZI).sol\":14362:14372  _whitelist */\n      dup4\n      swap1\n        /* \"TOKEN ZARFIX (XZI).sol\":14430:14463  WhitelistUpdated(_account, false) */\n      log3\n        /* \"TOKEN ZARFIX (XZI).sol\":14100:14470  function removeFromWhitelist(address _account) ... */\n      pop\n      pop\n      jump\t// out\n        /* \"@openzeppelin/contracts-upgradeable/access/AccessControlUpgradeable.sol\":3732:3939  function hasRole(bytes32 role, address account) public view virtual returns (bool) {... */\n    tag_151:\n        /* \"@openzeppelin/contracts-upgradeable/access/AccessControlUpgradeable.sol\":3809:3813  bool */\n      0x00\n        /* \"@openzeppelin/contracts-upgradeable/access/AccessControlUpgradeable.sol\":3901:3915  $._roles[role] */\n      swap2\n      dup3\n      mstore\n      mload(0x00)\n      codecopy(0x00, data_b3da67d1b252aeab7c8063542d95e75f82a5307a82535949bc38f7cf7ba8897f, 0x20)\n      mload(0x00)\n      swap1\n      0x00\n      mstore\n      0x20\n      swap1\n      dup2\n      mstore\n      0x40\n      dup1\n      dup5\n      keccak256\n      sub(shl(0xa0, 0x01), 0x01)\n        /* \"@openzeppelin/contracts-upgradeable/access/AccessControlUpgradeable.sol\":3901:3932  $._roles[role].hasRole[account] */\n      swap4\n      swap1\n      swap4\n      and\n      dup5\n      mstore\n      swap2\n      swap1\n      mstore\n      swap1\n      keccak256\n      sload\n      0xff\n      and\n      swap1\n        /* \"@openzeppelin/contracts-upgradeable/access/AccessControlUpgradeable.sol\":3732:3939  function hasRole(bytes32 role, address account) public view virtual returns (bool) {... */\n      jump\t// out\n        /* \"@openzeppelin/contracts-upgradeable/token/ERC20/ERC20Upgradeable.sol\":2954:3102  function symbol() public view virtual returns (string memory) {... */\n    tag_155:\n        /* \"@openzeppelin/contracts-upgradeable/token/ERC20/ERC20Upgradeable.sol\":3086:3095  $._symbol */\n      0x52c63247e1f47db19d5ce0460030c497f067ca4cebf71ba98eeadabe20bace04\n        /* \"@openzeppelin/contracts-upgradeable/token/ERC20/ERC20Upgradeable.sol\":3079:3095  return $._symbol */\n      dup1\n      sload\n        /* \"@openzeppelin/contracts-upgradeable/token/ERC20/ERC20Upgradeable.sol\":3001:3014  string memory */\n      0x60\n      swap2\n      mload(0x00)\n      codecopy(0x00, data_3874827173e8df9f34323b12b251d1d3c53926ce129e30a0d69f1d47c277041b, 0x20)\n      mload(0x00)\n      swap1\n      0x00\n      mstore\n        /* \"@openzeppelin/contracts-upgradeable/token/ERC20/ERC20Upgradeable.sol\":2064:2084  ERC20StorageLocation */\n      swap2\n        /* \"@openzeppelin/contracts-upgradeable/token/ERC20/ERC20Upgradeable.sol\":3079:3095  return $._symbol */\n      tag_207\n      swap1\n      tag_208\n      jump\t// in\n        /* \"TOKEN ZARFIX (XZI).sol\":9810:10603  function burn(address _from, uint256 _amount) ... */\n    tag_160:\n        /* \"@openzeppelin/contracts-upgradeable/utils/ReentrancyGuardUpgradeable.sol\":3395:3416  _nonReentrantBefore() */\n      tag_395\n        /* \"@openzeppelin/contracts-upgradeable/utils/ReentrancyGuardUpgradeable.sol\":3395:3414  _nonReentrantBefore */\n      tag_335\n        /* \"@openzeppelin/contracts-upgradeable/utils/ReentrancyGuardUpgradeable.sol\":3395:3416  _nonReentrantBefore() */\n      jump\t// in\n    tag_395:\n        /* \"TOKEN ZARFIX (XZI).sol\":1567:1591  keccak256(\"ISSUER_ROLE\") */\n      0x114e74f6ea3bd819998f78687bfcb11b140da08e9b7d222fa9c1f1ba1f2aa122\n        /* \"@openzeppelin/contracts-upgradeable/access/AccessControlUpgradeable.sol\":3191:3207  _checkRole(role) */\n      tag_397\n        /* \"@openzeppelin/contracts-upgradeable/access/AccessControlUpgradeable.sol\":3202:3206  role */\n      dup2\n        /* \"@openzeppelin/contracts-upgradeable/access/AccessControlUpgradeable.sol\":3191:3201  _checkRole */\n      tag_253\n        /* \"@openzeppelin/contracts-upgradeable/access/AccessControlUpgradeable.sol\":3191:3207  _checkRole(role) */\n      jump\t// in\n    tag_397:\n        /* \"@openzeppelin/contracts-upgradeable/utils/PausableUpgradeable.sol\":1979:1998  _requireNotPaused() */\n      tag_399\n        /* \"@openzeppelin/contracts-upgradeable/utils/PausableUpgradeable.sol\":1979:1996  _requireNotPaused */\n      tag_284\n        /* \"@openzeppelin/contracts-upgradeable/utils/PausableUpgradeable.sol\":1979:1998  _requireNotPaused() */\n      jump\t// in\n    tag_399:\n      sub(shl(0xa0, 0x01), 0x01)\n        /* \"TOKEN ZARFIX (XZI).sol\":10016:10035  _from != address(0) */\n      dup4\n      and\n        /* \"TOKEN ZARFIX (XZI).sol\":10008:10060  require(_from != address(0), \"Invalid burn address\") */\n      tag_401\n      jumpi\n      mload(0x40)\n      shl(0xe5, 0x461bcd)\n      dup2\n      mstore\n        /* \"#utility.yul\":13073:13075   */\n      0x20\n        /* \"TOKEN ZARFIX (XZI).sol\":10008:10060  require(_from != address(0), \"Invalid burn address\") */\n      0x04\n      dup3\n      add\n        /* \"#utility.yul\":13055:13076   */\n      mstore\n        /* \"#utility.yul\":13112:13114   */\n      0x14\n        /* \"#utility.yul\":13092:13110   */\n      0x24\n      dup3\n      add\n        /* \"#utility.yul\":13085:13115   */\n      mstore\n      shl(0x60, 0x496e76616c6964206275726e2061646472657373)\n        /* \"#utility.yul\":13131:13149   */\n      0x44\n      dup3\n      add\n        /* \"#utility.yul\":13124:13174   */\n      mstore\n        /* \"#utility.yul\":13191:13209   */\n      0x64\n      add\n        /* \"TOKEN ZARFIX (XZI).sol\":10008:10060  require(_from != address(0), \"Invalid burn address\") */\n      tag_223\n        /* \"#utility.yul\":12871:13215   */\n      jump\n        /* \"TOKEN ZARFIX (XZI).sol\":10008:10060  require(_from != address(0), \"Invalid burn address\") */\n    tag_401:\n        /* \"TOKEN ZARFIX (XZI).sol\":10078:10085  _amount */\n      dup2\n        /* \"TOKEN ZARFIX (XZI).sol\":10089:10090  0 */\n      0x00\n        /* \"TOKEN ZARFIX (XZI).sol\":10078:10090  _amount != 0 */\n      sub\n        /* \"TOKEN ZARFIX (XZI).sol\":10070:10114  require(_amount != 0, \"Invalid burn amount\") */\n      tag_404\n      jumpi\n      mload(0x40)\n      shl(0xe5, 0x461bcd)\n      dup2\n      mstore\n        /* \"#utility.yul\":13422:13424   */\n      0x20\n        /* \"TOKEN ZARFIX (XZI).sol\":10070:10114  require(_amount != 0, \"Invalid burn amount\") */\n      0x04\n      dup3\n      add\n        /* \"#utility.yul\":13404:13425   */\n      mstore\n        /* \"#utility.yul\":13461:13463   */\n      0x13\n        /* \"#utility.yul\":13441:13459   */\n      0x24\n      dup3\n      add\n        /* \"#utility.yul\":13434:13464   */\n      mstore\n      shl(0x6a, 0x125b9d985b1a5908189d5c9b88185b5bdd5b9d)\n        /* \"#utility.yul\":13480:13498   */\n      0x44\n      dup3\n      add\n        /* \"#utility.yul\":13473:13522   */\n      mstore\n        /* \"#utility.yul\":13539:13557   */\n      0x64\n      add\n        /* \"TOKEN ZARFIX (XZI).sol\":10070:10114  require(_amount != 0, \"Invalid burn amount\") */\n      tag_223\n        /* \"#utility.yul\":13220:13563   */\n      jump\n        /* \"TOKEN ZARFIX (XZI).sol\":10070:10114  require(_amount != 0, \"Invalid burn amount\") */\n    tag_404:\n        /* \"TOKEN ZARFIX (XZI).sol\":10133:10148  uint256 balance */\n      0x00\n        /* \"TOKEN ZARFIX (XZI).sol\":10151:10167  balanceOf(_from) */\n      tag_407\n        /* \"TOKEN ZARFIX (XZI).sol\":10161:10166  _from */\n      dup5\n        /* \"TOKEN ZARFIX (XZI).sol\":10151:10160  balanceOf */\n      tag_139\n        /* \"TOKEN ZARFIX (XZI).sol\":10151:10167  balanceOf(_from) */\n      jump\t// in\n    tag_407:\n        /* \"TOKEN ZARFIX (XZI).sol\":10133:10167  uint256 balance = balanceOf(_from) */\n      swap1\n      pop\n        /* \"TOKEN ZARFIX (XZI).sol\":10265:10276  _amount - 1 */\n      tag_408\n        /* \"TOKEN ZARFIX (XZI).sol\":10275:10276  1 */\n      0x01\n        /* \"TOKEN ZARFIX (XZI).sol\":10265:10272  _amount */\n      dup5\n        /* \"TOKEN ZARFIX (XZI).sol\":10265:10276  _amount - 1 */\n      tag_280\n      jump\t// in\n    tag_408:\n        /* \"TOKEN ZARFIX (XZI).sol\":10255:10262  balance */\n      dup2\n        /* \"TOKEN ZARFIX (XZI).sol\":10255:10276  balance > _amount - 1 */\n      gt\n        /* \"TOKEN ZARFIX (XZI).sol\":10247:10301  require(balance > _amount - 1, \"Insufficient balance\") */\n      tag_409\n      jumpi\n      mload(0x40)\n      shl(0xe5, 0x461bcd)\n      dup2\n      mstore\n        /* \"#utility.yul\":13770:13772   */\n      0x20\n        /* \"TOKEN ZARFIX (XZI).sol\":10247:10301  require(balance > _amount - 1, \"Insufficient balance\") */\n      0x04\n      dup3\n      add\n        /* \"#utility.yul\":13752:13773   */\n      mstore\n        /* \"#utility.yul\":13809:13811   */\n      0x14\n        /* \"#utility.yul\":13789:13807   */\n      0x24\n      dup3\n      add\n        /* \"#utility.yul\":13782:13812   */\n      mstore\n      shl(0x60, 0x496e73756666696369656e742062616c616e6365)\n        /* \"#utility.yul\":13828:13846   */\n      0x44\n      dup3\n      add\n        /* \"#utility.yul\":13821:13871   */\n      mstore\n        /* \"#utility.yul\":13888:13906   */\n      0x64\n      add\n        /* \"TOKEN ZARFIX (XZI).sol\":10247:10301  require(balance > _amount - 1, \"Insufficient balance\") */\n      tag_223\n        /* \"#utility.yul\":13568:13912   */\n      jump\n        /* \"TOKEN ZARFIX (XZI).sol\":10247:10301  require(balance > _amount - 1, \"Insufficient balance\") */\n    tag_409:\n        /* \"TOKEN ZARFIX (XZI).sol\":10396:10410  _currentSupply */\n      sload(0x01)\n        /* \"TOKEN ZARFIX (XZI).sol\":10465:10489  currentSupply_ - _amount */\n      tag_412\n        /* \"TOKEN ZARFIX (XZI).sol\":10482:10489  _amount */\n      dup5\n        /* \"TOKEN ZARFIX (XZI).sol\":10396:10410  _currentSupply */\n      dup3\n        /* \"TOKEN ZARFIX (XZI).sol\":10465:10489  currentSupply_ - _amount */\n      tag_280\n      jump\t// in\n    tag_412:\n        /* \"TOKEN ZARFIX (XZI).sol\":10448:10462  _currentSupply */\n      0x01\n        /* \"TOKEN ZARFIX (XZI).sol\":10448:10489  _currentSupply = currentSupply_ - _amount */\n      sstore\n        /* \"TOKEN ZARFIX (XZI).sol\":10499:10520  _burn(_from, _amount) */\n      tag_413\n        /* \"TOKEN ZARFIX (XZI).sol\":10505:10510  _from */\n      dup6\n        /* \"TOKEN ZARFIX (XZI).sol\":10512:10519  _amount */\n      dup6\n        /* \"TOKEN ZARFIX (XZI).sol\":10499:10504  _burn */\n      tag_414\n        /* \"TOKEN ZARFIX (XZI).sol\":10499:10520  _burn(_from, _amount) */\n      jump\t// in\n    tag_413:\n        /* \"TOKEN ZARFIX (XZI).sol\":10568:10596  TokensBurned(_from, _amount) */\n      mload(0x40)\n        /* \"TOKEN ZARFIX (XZI).sol\":10588:10595  _amount */\n      dup5\n      swap1\n      sub(shl(0xa0, 0x01), 0x01)\n        /* \"TOKEN ZARFIX (XZI).sol\":10568:10596  TokensBurned(_from, _amount) */\n      dup8\n      and\n      swap1\n      0xfd38818f5291bf0bb3a2a48aadc06ba8757865d1dabd804585338aab3009dcb6\n      swap1\n      0x00\n      swap1\n      log3\n        /* \"TOKEN ZARFIX (XZI).sol\":9955:10603  {... */\n      pop\n      pop\n        /* \"@openzeppelin/contracts-upgradeable/utils/ReentrancyGuardUpgradeable.sol\":3426:3427  _ */\n      pop\n        /* \"@openzeppelin/contracts-upgradeable/utils/ReentrancyGuardUpgradeable.sol\":3437:3457  _nonReentrantAfter() */\n      tag_355\n        /* \"@openzeppelin/contracts-upgradeable/utils/ReentrancyGuardUpgradeable.sol\":1949:1950  1 */\n      0x01\n      mload(0x00)\n      codecopy(0x00, data_c8669cf8eaf883002b9f48e28846a8d408c9b58ea6613bace374265e43c9bc43, 0x20)\n      mload(0x00)\n      swap1\n      0x00\n      mstore\n        /* \"@openzeppelin/contracts-upgradeable/utils/ReentrancyGuardUpgradeable.sol\":4113:4136  $._status = NOT_ENTERED */\n      sstore\n        /* \"@openzeppelin/contracts-upgradeable/utils/ReentrancyGuardUpgradeable.sol\":3860:4143  function _nonReentrantAfter() private {... */\n      jump\n        /* \"TOKEN ZARFIX (XZI).sol\":11089:11901  function transfer(address _to, uint256 _amount) ... */\n    tag_168:\n        /* \"TOKEN ZARFIX (XZI).sol\":11212:11216  bool */\n      0x00\n        /* \"@openzeppelin/contracts-upgradeable/utils/PausableUpgradeable.sol\":1979:1998  _requireNotPaused() */\n      tag_417\n        /* \"@openzeppelin/contracts-upgradeable/utils/PausableUpgradeable.sol\":1979:1996  _requireNotPaused */\n      tag_284\n        /* \"@openzeppelin/contracts-upgradeable/utils/PausableUpgradeable.sol\":1979:1998  _requireNotPaused() */\n      jump\t// in\n    tag_417:\n      sub(shl(0xa0, 0x01), 0x01)\n        /* \"TOKEN ZARFIX (XZI).sol\":11284:11301  _to != address(0) */\n      dup4\n      and\n        /* \"TOKEN ZARFIX (XZI).sol\":11276:11331  require(_to != address(0), \"Invalid recipient address\") */\n      tag_419\n      jumpi\n      mload(0x40)\n      shl(0xe5, 0x461bcd)\n      dup2\n      mstore\n      0x04\n      add\n      tag_223\n      swap1\n      tag_291\n      jump\t// in\n    tag_419:\n        /* \"TOKEN ZARFIX (XZI).sol\":11349:11356  _amount */\n      dup2\n        /* \"TOKEN ZARFIX (XZI).sol\":11360:11361  0 */\n      0x00\n        /* \"TOKEN ZARFIX (XZI).sol\":11349:11361  _amount != 0 */\n      sub\n        /* \"TOKEN ZARFIX (XZI).sol\":11341:11389  require(_amount != 0, \"Invalid transfer amount\") */\n      tag_421\n      jumpi\n      mload(0x40)\n      shl(0xe5, 0x461bcd)\n      dup2\n      mstore\n        /* \"#utility.yul\":10975:10977   */\n      0x20\n        /* \"TOKEN ZARFIX (XZI).sol\":11341:11389  require(_amount != 0, \"Invalid transfer amount\") */\n      0x04\n      dup3\n      add\n        /* \"#utility.yul\":10957:10978   */\n      mstore\n        /* \"#utility.yul\":11014:11016   */\n      0x17\n        /* \"#utility.yul\":10994:11012   */\n      0x24\n      dup3\n      add\n        /* \"#utility.yul\":10987:11017   */\n      mstore\n      shl(0x4a, 0x125b9d985b1a59081d1c985b9cd9995c88185b5bdd5b9d)\n        /* \"#utility.yul\":11033:11051   */\n      0x44\n      dup3\n      add\n        /* \"#utility.yul\":11026:11079   */\n      mstore\n        /* \"#utility.yul\":11096:11114   */\n      0x64\n      add\n        /* \"TOKEN ZARFIX (XZI).sol\":11341:11389  require(_amount != 0, \"Invalid transfer amount\") */\n      tag_223\n        /* \"#utility.yul\":10773:11120   */\n      jump\n        /* \"TOKEN ZARFIX (XZI).sol\":11341:11389  require(_amount != 0, \"Invalid transfer amount\") */\n    tag_421:\n        /* \"@openzeppelin/contracts-upgradeable/utils/ContextUpgradeable.sol\":966:976  msg.sender */\n      caller\n        /* \"TOKEN ZARFIX (XZI).sol\":11408:11422  address sender */\n      0x00\n        /* \"TOKEN ZARFIX (XZI).sol\":11543:11561  _whitelist[sender] */\n      dup2\n      dup2\n      mstore\n      0x20\n      dup2\n      swap1\n      mstore\n      0x40\n      dup1\n      dup3\n      keccak256\n      sload\n      sub(shl(0xa0, 0x01), 0x01)\n        /* \"TOKEN ZARFIX (XZI).sol\":11592:11607  _whitelist[_to] */\n      dup8\n      and\n      dup4\n      mstore\n      swap2\n      keccak256\n      sload\n        /* \"TOKEN ZARFIX (XZI).sol\":11543:11561  _whitelist[sender] */\n      0xff\n      swap2\n      dup3\n      and\n      swap2\n        /* \"TOKEN ZARFIX (XZI).sol\":11592:11607  _whitelist[_to] */\n      and\n        /* \"TOKEN ZARFIX (XZI).sol\":11543:11561  _whitelist[sender] */\n      dup2\n        /* \"TOKEN ZARFIX (XZI).sol\":11626:11678  require(senderWhitelisted, \"Sender not whitelisted\") */\n      tag_424\n      jumpi\n      mload(0x40)\n      shl(0xe5, 0x461bcd)\n      dup2\n      mstore\n        /* \"#utility.yul\":11327:11329   */\n      0x20\n        /* \"TOKEN ZARFIX (XZI).sol\":11626:11678  require(senderWhitelisted, \"Sender not whitelisted\") */\n      0x04\n      dup3\n      add\n        /* \"#utility.yul\":11309:11330   */\n      mstore\n        /* \"#utility.yul\":11366:11368   */\n      0x16\n        /* \"#utility.yul\":11346:11364   */\n      0x24\n      dup3\n      add\n        /* \"#utility.yul\":11339:11369   */\n      mstore\n      shl(0x52, 0x14d95b99195c881b9bdd081dda1a5d195b1a5cdd1959)\n        /* \"#utility.yul\":11385:11403   */\n      0x44\n      dup3\n      add\n        /* \"#utility.yul\":11378:11430   */\n      mstore\n        /* \"#utility.yul\":11447:11465   */\n      0x64\n      add\n        /* \"TOKEN ZARFIX (XZI).sol\":11626:11678  require(senderWhitelisted, \"Sender not whitelisted\") */\n      tag_223\n        /* \"#utility.yul\":11125:11471   */\n      jump\n        /* \"TOKEN ZARFIX (XZI).sol\":11626:11678  require(senderWhitelisted, \"Sender not whitelisted\") */\n    tag_424:\n        /* \"TOKEN ZARFIX (XZI).sol\":11696:11709  toWhitelisted */\n      dup1\n        /* \"TOKEN ZARFIX (XZI).sol\":11688:11739  require(toWhitelisted, \"Recipient not whitelisted\") */\n      tag_426\n      jumpi\n      mload(0x40)\n      shl(0xe5, 0x461bcd)\n      dup2\n      mstore\n      0x04\n      add\n      tag_223\n      swap1\n      tag_300\n      jump\t// in\n    tag_426:\n        /* \"TOKEN ZARFIX (XZI).sol\":11792:11823  _transfer(sender, _to, _amount) */\n      tag_428\n        /* \"TOKEN ZARFIX (XZI).sol\":11802:11808  sender */\n      dup4\n        /* \"TOKEN ZARFIX (XZI).sol\":11810:11813  _to */\n      dup8\n        /* \"TOKEN ZARFIX (XZI).sol\":11815:11822  _amount */\n      dup8\n        /* \"TOKEN ZARFIX (XZI).sol\":11792:11801  _transfer */\n      tag_305\n        /* \"TOKEN ZARFIX (XZI).sol\":11792:11823  _transfer(sender, _to, _amount) */\n      jump\t// in\n    tag_428:\n        /* \"TOKEN ZARFIX (XZI).sol\":11860:11863  _to */\n      dup6\n      sub(shl(0xa0, 0x01), 0x01)\n        /* \"TOKEN ZARFIX (XZI).sol\":11838:11873  TokenTransfer(sender, _to, _amount) */\n      and\n        /* \"TOKEN ZARFIX (XZI).sol\":11852:11858  sender */\n      dup4\n      sub(shl(0xa0, 0x01), 0x01)\n        /* \"TOKEN ZARFIX (XZI).sol\":11838:11873  TokenTransfer(sender, _to, _amount) */\n      and\n      0xd0ed88a3f042c6bbb1e3ea406079b5f2b4b198afccaa535d837f4c63abbc4de6\n        /* \"TOKEN ZARFIX (XZI).sol\":11865:11872  _amount */\n      dup8\n        /* \"TOKEN ZARFIX (XZI).sol\":11838:11873  TokenTransfer(sender, _to, _amount) */\n      mload(0x40)\n      tag_429\n      swap2\n        /* \"#utility.yul\":3552:3577   */\n      dup2\n      mstore\n        /* \"#utility.yul\":3540:3542   */\n      0x20\n        /* \"#utility.yul\":3525:3543   */\n      add\n      swap1\n        /* \"#utility.yul\":3406:3583   */\n      jump\n        /* \"TOKEN ZARFIX (XZI).sol\":11838:11873  TokenTransfer(sender, _to, _amount) */\n    tag_429:\n      mload(0x40)\n      dup1\n      swap2\n      sub\n      swap1\n      log3\n      pop\n        /* \"TOKEN ZARFIX (XZI).sol\":11890:11894  true */\n      0x01\n      swap6\n        /* \"TOKEN ZARFIX (XZI).sol\":11089:11901  function transfer(address _to, uint256 _amount) ... */\n      swap5\n      pop\n      pop\n      pop\n      pop\n      pop\n      jump\t// out\n        /* \"TOKEN ZARFIX (XZI).sol\":14822:15980  function processBatch(... */\n    tag_177:\n      mload(0x00)\n      codecopy(0x00, data_7e678c77cfa084e62aed03ceadb9b37aa6c80340da2f54168df7a1e5e1fdb0a3, 0x20)\n      mload(0x00)\n      swap1\n      0x00\n      mstore\n        /* \"@openzeppelin/contracts-upgradeable/access/AccessControlUpgradeable.sol\":3191:3207  _checkRole(role) */\n      tag_431\n        /* \"@openzeppelin/contracts-upgradeable/access/AccessControlUpgradeable.sol\":3202:3206  role */\n      dup2\n        /* \"@openzeppelin/contracts-upgradeable/access/AccessControlUpgradeable.sol\":3191:3201  _checkRole */\n      tag_253\n        /* \"@openzeppelin/contracts-upgradeable/access/AccessControlUpgradeable.sol\":3191:3207  _checkRole(role) */\n      jump\t// in\n    tag_431:\n        /* \"TOKEN ZARFIX (XZI).sol\":15059:15068  _accounts */\n      dup4\n        /* \"TOKEN ZARFIX (XZI).sol\":15034:15056  uint256 accountsLength */\n      0x00\n        /* \"TOKEN ZARFIX (XZI).sol\":15093:15112  accountsLength != 0 */\n      dup2\n      swap1\n      sub\n        /* \"TOKEN ZARFIX (XZI).sol\":15085:15137  require(accountsLength != 0, \"Empty accounts array\") */\n      tag_433\n      jumpi\n      mload(0x40)\n      shl(0xe5, 0x461bcd)\n      dup2\n      mstore\n        /* \"#utility.yul\":8350:8352   */\n      0x20\n        /* \"TOKEN ZARFIX (XZI).sol\":15085:15137  require(accountsLength != 0, \"Empty accounts array\") */\n      0x04\n      dup3\n      add\n        /* \"#utility.yul\":8332:8353   */\n      mstore\n        /* \"#utility.yul\":8389:8391   */\n      0x14\n        /* \"#utility.yul\":8369:8387   */\n      0x24\n      dup3\n      add\n        /* \"#utility.yul\":8362:8392   */\n      mstore\n      shl(0x60, 0x456d707479206163636f756e7473206172726179)\n        /* \"#utility.yul\":8408:8426   */\n      0x44\n      dup3\n      add\n        /* \"#utility.yul\":8401:8451   */\n      mstore\n        /* \"#utility.yul\":8468:8486   */\n      0x64\n      add\n        /* \"TOKEN ZARFIX (XZI).sol\":15085:15137  require(accountsLength != 0, \"Empty accounts array\") */\n      tag_223\n        /* \"#utility.yul\":8148:8492   */\n      jump\n        /* \"TOKEN ZARFIX (XZI).sol\":15085:15137  require(accountsLength != 0, \"Empty accounts array\") */\n    tag_433:\n        /* \"TOKEN ZARFIX (XZI).sol\":15155:15161  _limit */\n      dup3\n        /* \"TOKEN ZARFIX (XZI).sol\":15165:15166  0 */\n      0x00\n        /* \"TOKEN ZARFIX (XZI).sol\":15155:15166  _limit != 0 */\n      sub\n        /* \"TOKEN ZARFIX (XZI).sol\":15147:15184  require(_limit != 0, \"Invalid limit\") */\n      tag_435\n      jumpi\n      mload(0x40)\n      shl(0xe5, 0x461bcd)\n      dup2\n      mstore\n        /* \"#utility.yul\":8699:8701   */\n      0x20\n        /* \"TOKEN ZARFIX (XZI).sol\":15147:15184  require(_limit != 0, \"Invalid limit\") */\n      0x04\n      dup3\n      add\n        /* \"#utility.yul\":8681:8702   */\n      mstore\n        /* \"#utility.yul\":8738:8740   */\n      0x0d\n        /* \"#utility.yul\":8718:8736   */\n      0x24\n      dup3\n      add\n        /* \"#utility.yul\":8711:8741   */\n      mstore\n      shl(0x9a, 0x125b9d985b1a59081b1a5b5a5d)\n        /* \"#utility.yul\":8757:8775   */\n      0x44\n      dup3\n      add\n        /* \"#utility.yul\":8750:8793   */\n      mstore\n        /* \"#utility.yul\":8810:8828   */\n      0x64\n      add\n        /* \"TOKEN ZARFIX (XZI).sol\":15147:15184  require(_limit != 0, \"Invalid limit\") */\n      tag_223\n        /* \"#utility.yul\":8497:8834   */\n      jump\n        /* \"TOKEN ZARFIX (XZI).sol\":15147:15184  require(_limit != 0, \"Invalid limit\") */\n    tag_435:\n        /* \"TOKEN ZARFIX (XZI).sol\":15281:15295  _MAX_BATCH + 1 */\n      tag_437\n        /* \"TOKEN ZARFIX (XZI).sol\":2199:2202  100 */\n      0x64\n        /* \"TOKEN ZARFIX (XZI).sol\":15294:15295  1 */\n      0x01\n        /* \"TOKEN ZARFIX (XZI).sol\":15281:15295  _MAX_BATCH + 1 */\n      tag_262\n      jump\t// in\n    tag_437:\n        /* \"TOKEN ZARFIX (XZI).sol\":15272:15278  _limit */\n      dup4\n        /* \"TOKEN ZARFIX (XZI).sol\":15272:15295  _limit < _MAX_BATCH + 1 */\n      lt\n        /* \"TOKEN ZARFIX (XZI).sol\":15264:15320  require(_limit < _MAX_BATCH + 1, \"Batch size too large\") */\n      tag_438\n      jumpi\n      mload(0x40)\n      shl(0xe5, 0x461bcd)\n      dup2\n      mstore\n        /* \"#utility.yul\":9303:9305   */\n      0x20\n        /* \"TOKEN ZARFIX (XZI).sol\":15264:15320  require(_limit < _MAX_BATCH + 1, \"Batch size too large\") */\n      0x04\n      dup3\n      add\n        /* \"#utility.yul\":9285:9306   */\n      mstore\n        /* \"#utility.yul\":9342:9344   */\n      0x14\n        /* \"#utility.yul\":9322:9340   */\n      0x24\n      dup3\n      add\n        /* \"#utility.yul\":9315:9345   */\n      mstore\n      shl(0x60, 0x42617463682073697a6520746f6f206c61726765)\n        /* \"#utility.yul\":9361:9379   */\n      0x44\n      dup3\n      add\n        /* \"#utility.yul\":9354:9404   */\n      mstore\n        /* \"#utility.yul\":9421:9439   */\n      0x64\n      add\n        /* \"TOKEN ZARFIX (XZI).sol\":15264:15320  require(_limit < _MAX_BATCH + 1, \"Batch size too large\") */\n      tag_223\n        /* \"#utility.yul\":9101:9445   */\n      jump\n        /* \"TOKEN ZARFIX (XZI).sol\":15264:15320  require(_limit < _MAX_BATCH + 1, \"Batch size too large\") */\n    tag_438:\n        /* \"TOKEN ZARFIX (XZI).sol\":15339:15350  uint256 end */\n      0x00\n        /* \"TOKEN ZARFIX (XZI).sol\":15353:15369  _offset + _limit */\n      tag_440\n        /* \"TOKEN ZARFIX (XZI).sol\":15363:15369  _limit */\n      dup5\n        /* \"TOKEN ZARFIX (XZI).sol\":15353:15360  _offset */\n      dup7\n        /* \"TOKEN ZARFIX (XZI).sol\":15353:15369  _offset + _limit */\n      tag_262\n      jump\t// in\n    tag_440:\n        /* \"TOKEN ZARFIX (XZI).sol\":15339:15369  uint256 end = _offset + _limit */\n      swap1\n      pop\n        /* \"TOKEN ZARFIX (XZI).sol\":15459:15477  accountsLength + 1 */\n      tag_441\n        /* \"TOKEN ZARFIX (XZI).sol\":15459:15473  accountsLength */\n      dup3\n        /* \"TOKEN ZARFIX (XZI).sol\":15476:15477  1 */\n      0x01\n        /* \"TOKEN ZARFIX (XZI).sol\":15459:15477  accountsLength + 1 */\n      tag_262\n      jump\t// in\n    tag_441:\n        /* \"TOKEN ZARFIX (XZI).sol\":15452:15455  end */\n      dup2\n        /* \"TOKEN ZARFIX (XZI).sol\":15452:15477  end >= accountsLength + 1 */\n      lt\n        /* \"TOKEN ZARFIX (XZI).sol\":15448:15524  if (end >= accountsLength + 1) {... */\n      tag_442\n      jumpi\n      pop\n        /* \"TOKEN ZARFIX (XZI).sol\":15499:15513  accountsLength */\n      dup1\n        /* \"TOKEN ZARFIX (XZI).sol\":15448:15524  if (end >= accountsLength + 1) {... */\n    tag_442:\n        /* \"TOKEN ZARFIX (XZI).sol\":15570:15577  _offset */\n      dup5\n        /* \"TOKEN ZARFIX (XZI).sol\":15553:15888  for (uint256 i = _offset; i < end;) {... */\n    tag_443:\n        /* \"TOKEN ZARFIX (XZI).sol\":15583:15586  end */\n      dup2\n        /* \"TOKEN ZARFIX (XZI).sol\":15579:15580  i */\n      dup2\n        /* \"TOKEN ZARFIX (XZI).sol\":15579:15586  i < end */\n      lt\n        /* \"TOKEN ZARFIX (XZI).sol\":15553:15888  for (uint256 i = _offset; i < end;) {... */\n      iszero\n      tag_270\n      jumpi\n        /* \"TOKEN ZARFIX (XZI).sol\":15603:15618  address account */\n      0x00\n        /* \"TOKEN ZARFIX (XZI).sol\":15621:15630  _accounts */\n      dup9\n      dup9\n        /* \"TOKEN ZARFIX (XZI).sol\":15631:15632  i */\n      dup4\n        /* \"TOKEN ZARFIX (XZI).sol\":15621:15633  _accounts[i] */\n      dup2\n      dup2\n      lt\n      tag_447\n      jumpi\n      tag_447\n      tag_274\n      jump\t// in\n    tag_447:\n      swap1\n      pop\n      0x20\n      mul\n      add\n      0x20\n      dup2\n      add\n      swap1\n      tag_448\n      swap2\n      swap1\n      tag_114\n      jump\t// in\n    tag_448:\n        /* \"TOKEN ZARFIX (XZI).sol\":15603:15633  address account = _accounts[i] */\n      swap1\n      pop\n      sub(shl(0xa0, 0x01), 0x01)\n        /* \"TOKEN ZARFIX (XZI).sol\":15702:15723  account != address(0) */\n      dup2\n      and\n        /* \"TOKEN ZARFIX (XZI).sol\":15694:15752  require(account != address(0), \"Invalid account in batch\") */\n      tag_449\n      jumpi\n      mload(0x40)\n      shl(0xe5, 0x461bcd)\n      dup2\n      mstore\n        /* \"#utility.yul\":9784:9786   */\n      0x20\n        /* \"TOKEN ZARFIX (XZI).sol\":15694:15752  require(account != address(0), \"Invalid account in batch\") */\n      0x04\n      dup3\n      add\n        /* \"#utility.yul\":9766:9787   */\n      mstore\n        /* \"#utility.yul\":9823:9825   */\n      0x18\n        /* \"#utility.yul\":9803:9821   */\n      0x24\n      dup3\n      add\n        /* \"#utility.yul\":9796:9826   */\n      mstore\n      shl(0x43, 0x092dcecc2d8d2c840c2c6c6deeadce840d2dc40c4c2e8c6d)\n        /* \"#utility.yul\":9842:9860   */\n      0x44\n      dup3\n      add\n        /* \"#utility.yul\":9835:9889   */\n      mstore\n        /* \"#utility.yul\":9906:9924   */\n      0x64\n      add\n        /* \"TOKEN ZARFIX (XZI).sol\":15694:15752  require(account != address(0), \"Invalid account in batch\") */\n      tag_223\n        /* \"#utility.yul\":9582:9930   */\n      jump\n        /* \"TOKEN ZARFIX (XZI).sol\":15694:15752  require(account != address(0), \"Invalid account in batch\") */\n    tag_449:\n      sub(shl(0xa0, 0x01), 0x01)\n        /* \"TOKEN ZARFIX (XZI).sol\":15779:15798  _whitelist[account] */\n      and\n        /* \"TOKEN ZARFIX (XZI).sol\":15779:15789  _whitelist */\n      0x00\n        /* \"TOKEN ZARFIX (XZI).sol\":15779:15798  _whitelist[account] */\n      swap1\n      dup2\n      mstore\n      0x20\n      dup2\n      swap1\n      mstore\n      0x40\n      swap1\n      keccak256\n        /* \"TOKEN ZARFIX (XZI).sol\":15779:15805  _whitelist[account] = true */\n      dup1\n      sload\n      not(0xff)\n      and\n        /* \"TOKEN ZARFIX (XZI).sol\":15801:15805  true */\n      0x01\n        /* \"TOKEN ZARFIX (XZI).sol\":15779:15805  _whitelist[account] = true */\n      swap1\n      dup2\n      or\n      swap1\n      swap2\n      sstore\n        /* \"TOKEN ZARFIX (XZI).sol\":15860:15863  ++i */\n      add\n        /* \"TOKEN ZARFIX (XZI).sol\":15553:15888  for (uint256 i = _offset; i < end;) {... */\n      jump(tag_443)\n        /* \"@openzeppelin/contracts-upgradeable/access/AccessControlUpgradeable.sol\":5662:5800  function revokeRole(bytes32 role, address account) public virtual onlyRole(getRoleAdmin(role)) {... */\n    tag_181:\n        /* \"@openzeppelin/contracts-upgradeable/access/AccessControlUpgradeable.sol\":5737:5755  getRoleAdmin(role) */\n      tag_452\n        /* \"@openzeppelin/contracts-upgradeable/access/AccessControlUpgradeable.sol\":5750:5754  role */\n      dup3\n        /* \"@openzeppelin/contracts-upgradeable/access/AccessControlUpgradeable.sol\":5737:5749  getRoleAdmin */\n      tag_86\n        /* \"@openzeppelin/contracts-upgradeable/access/AccessControlUpgradeable.sol\":5737:5755  getRoleAdmin(role) */\n      jump\t// in\n    tag_452:\n        /* \"@openzeppelin/contracts-upgradeable/access/AccessControlUpgradeable.sol\":3191:3207  _checkRole(role) */\n      tag_454\n        /* \"@openzeppelin/contracts-upgradeable/access/AccessControlUpgradeable.sol\":3202:3206  role */\n      dup2\n        /* \"@openzeppelin/contracts-upgradeable/access/AccessControlUpgradeable.sol\":3191:3201  _checkRole */\n      tag_253\n        /* \"@openzeppelin/contracts-upgradeable/access/AccessControlUpgradeable.sol\":3191:3207  _checkRole(role) */\n      jump\t// in\n    tag_454:\n        /* \"@openzeppelin/contracts-upgradeable/access/AccessControlUpgradeable.sol\":5767:5793  _revokeRole(role, account) */\n      tag_315\n        /* \"@openzeppelin/contracts-upgradeable/access/AccessControlUpgradeable.sol\":5779:5783  role */\n      dup4\n        /* \"@openzeppelin/contracts-upgradeable/access/AccessControlUpgradeable.sol\":5785:5792  account */\n      dup4\n        /* \"@openzeppelin/contracts-upgradeable/access/AccessControlUpgradeable.sol\":5767:5778  _revokeRole */\n      tag_322\n        /* \"@openzeppelin/contracts-upgradeable/access/AccessControlUpgradeable.sol\":5767:5793  _revokeRole(role, account) */\n      jump\t// in\n        /* \"@openzeppelin/contracts-upgradeable/token/ERC20/ERC20Upgradeable.sol\":4689:4884  function allowance(address owner, address spender) public view virtual returns (uint256) {... */\n    tag_186:\n      sub(shl(0xa0, 0x01), 0x01)\n        /* \"@openzeppelin/contracts-upgradeable/token/ERC20/ERC20Upgradeable.sol\":4848:4868  $._allowances[owner] */\n      swap2\n      dup3\n      and\n        /* \"@openzeppelin/contracts-upgradeable/token/ERC20/ERC20Upgradeable.sol\":4769:4776  uint256 */\n      0x00\n        /* \"@openzeppelin/contracts-upgradeable/token/ERC20/ERC20Upgradeable.sol\":4848:4868  $._allowances[owner] */\n      swap1\n      dup2\n      mstore\n        /* \"@openzeppelin/contracts-upgradeable/token/ERC20/ERC20Upgradeable.sol\":4848:4861  $._allowances */\n      0x52c63247e1f47db19d5ce0460030c497f067ca4cebf71ba98eeadabe20bace01\n        /* \"@openzeppelin/contracts-upgradeable/token/ERC20/ERC20Upgradeable.sol\":4848:4868  $._allowances[owner] */\n      0x20\n      swap1\n      dup2\n      mstore\n      0x40\n      dup1\n      dup4\n      keccak256\n        /* \"@openzeppelin/contracts-upgradeable/token/ERC20/ERC20Upgradeable.sol\":4848:4877  $._allowances[owner][spender] */\n      swap4\n      swap1\n      swap5\n      and\n      dup3\n      mstore\n      swap2\n      swap1\n      swap2\n      mstore\n      keccak256\n      sload\n      swap1\n        /* \"@openzeppelin/contracts-upgradeable/token/ERC20/ERC20Upgradeable.sol\":4689:4884  function allowance(address owner, address spender) public view virtual returns (uint256) {... */\n      jump\t// out\n        /* \"TOKEN ZARFIX (XZI).sol\":13541:13905  function addToWhitelist(address _account) ... */\n    tag_191:\n      mload(0x00)\n      codecopy(0x00, data_7e678c77cfa084e62aed03ceadb9b37aa6c80340da2f54168df7a1e5e1fdb0a3, 0x20)\n      mload(0x00)\n      swap1\n      0x00\n      mstore\n        /* \"@openzeppelin/contracts-upgradeable/access/AccessControlUpgradeable.sol\":3191:3207  _checkRole(role) */\n      tag_460\n        /* \"@openzeppelin/contracts-upgradeable/access/AccessControlUpgradeable.sol\":3202:3206  role */\n      dup2\n        /* \"@openzeppelin/contracts-upgradeable/access/AccessControlUpgradeable.sol\":3191:3201  _checkRole */\n      tag_253\n        /* \"@openzeppelin/contracts-upgradeable/access/AccessControlUpgradeable.sol\":3191:3207  _checkRole(role) */\n      jump\t// in\n    tag_460:\n      sub(shl(0xa0, 0x01), 0x01)\n        /* \"TOKEN ZARFIX (XZI).sol\":13703:13725  _account != address(0) */\n      dup3\n      and\n        /* \"TOKEN ZARFIX (XZI).sol\":13695:13753  require(_account != address(0), \"Invalid account address\") */\n      tag_462\n      jumpi\n      mload(0x40)\n      shl(0xe5, 0x461bcd)\n      dup2\n      mstore\n      0x04\n      add\n      tag_223\n      swap1\n      tag_326\n      jump\t// in\n    tag_462:\n      sub(shl(0xa0, 0x01), 0x01)\n        /* \"TOKEN ZARFIX (XZI).sol\":13791:13811  _whitelist[_account] */\n      dup3\n      and\n        /* \"TOKEN ZARFIX (XZI).sol\":13791:13801  _whitelist */\n      0x00\n        /* \"TOKEN ZARFIX (XZI).sol\":13791:13811  _whitelist[_account] */\n      dup2\n      dup2\n      mstore\n      0x20\n      dup2\n      swap1\n      mstore\n      0x40\n      dup1\n      dup3\n      keccak256\n        /* \"TOKEN ZARFIX (XZI).sol\":13791:13818  _whitelist[_account] = true */\n      dup1\n      sload\n      not(0xff)\n      and\n        /* \"TOKEN ZARFIX (XZI).sol\":13814:13818  true */\n      0x01\n        /* \"TOKEN ZARFIX (XZI).sol\":13791:13818  _whitelist[_account] = true */\n      swap1\n      dup2\n      or\n      swap1\n      swap2\n      sstore\n        /* \"TOKEN ZARFIX (XZI).sol\":13866:13898  WhitelistUpdated(_account, true) */\n      swap1\n      mload\n        /* \"TOKEN ZARFIX (XZI).sol\":13814:13818  true */\n      swap1\n      swap3\n        /* \"TOKEN ZARFIX (XZI).sol\":13791:13811  _whitelist[_account] */\n      swap2\n        /* \"TOKEN ZARFIX (XZI).sol\":13866:13898  WhitelistUpdated(_account, true) */\n      0xf93f9a76c1bf3444d22400a00cb9fe990e6abe9dbb333fda48859cfee864543d\n      swap2\n      log3\n        /* \"TOKEN ZARFIX (XZI).sol\":13541:13905  function addToWhitelist(address _account) ... */\n      pop\n      pop\n      jump\t// out\n        /* \"TOKEN ZARFIX (XZI).sol\":19086:19382  function remainingMintable() external view returns (uint256) {... */\n    tag_198:\n        /* \"TOKEN ZARFIX (XZI).sol\":19241:19255  _currentSupply */\n      sload(0x01)\n        /* \"TOKEN ZARFIX (XZI).sol\":19138:19145  uint256 */\n      0x00\n      swap1\n        /* \"TOKEN ZARFIX (XZI).sol\":19328:19331  CAP */\n      immutable(\"0x3d20d9702e2f5746efe4f161f9f2eec6795a257d6728ef74ed6f6785803bd046\")\n        /* \"TOKEN ZARFIX (XZI).sol\":19328:19348  CAP > currentSupply_ */\n      dup2\n      lt\n        /* \"TOKEN ZARFIX (XZI).sol\":19328:19375  CAP > currentSupply_ ? CAP - currentSupply_ : 0 */\n      tag_465\n      jumpi\n        /* \"TOKEN ZARFIX (XZI).sol\":19374:19375  0 */\n      0x00\n        /* \"TOKEN ZARFIX (XZI).sol\":19328:19375  CAP > currentSupply_ ? CAP - currentSupply_ : 0 */\n      jump(tag_467)\n    tag_465:\n        /* \"TOKEN ZARFIX (XZI).sol\":19351:19371  CAP - currentSupply_ */\n      tag_467\n        /* \"TOKEN ZARFIX (XZI).sol\":19357:19371  currentSupply_ */\n      dup2\n        /* \"TOKEN ZARFIX (XZI).sol\":19351:19354  CAP */\n      immutable(\"0x3d20d9702e2f5746efe4f161f9f2eec6795a257d6728ef74ed6f6785803bd046\")\n        /* \"TOKEN ZARFIX (XZI).sol\":19351:19371  CAP - currentSupply_ */\n      tag_280\n      jump\t// in\n    tag_467:\n        /* \"TOKEN ZARFIX (XZI).sol\":19321:19375  return CAP > currentSupply_ ? CAP - currentSupply_ : 0 */\n      swap2\n      pop\n      pop\n        /* \"TOKEN ZARFIX (XZI).sol\":19086:19382  function remainingMintable() external view returns (uint256) {... */\n      swap1\n      jump\t// out\n        /* \"@openzeppelin/contracts-upgradeable/proxy/utils/Initializable.sol\":9071:9276  function _getInitializableStorage() private pure returns (InitializableStorage storage $) {... */\n    tag_215:\n        /* \"@openzeppelin/contracts-upgradeable/proxy/utils/Initializable.sol\":9129:9159  InitializableStorage storage $ */\n      0x00\n      dup1\n        /* \"@openzeppelin/contracts-upgradeable/proxy/utils/Initializable.sol\":3147:3213  0xf0c57e16840df040f15088dc2f81fe391c3923bec73e23a9662efc9c229c6a00 */\n      0xf0c57e16840df040f15088dc2f81fe391c3923bec73e23a9662efc9c229c6a00\n        /* \"@openzeppelin/contracts-upgradeable/proxy/utils/Initializable.sol\":9186:9213  _initializableStorageSlot() */\n      tag_202\n        /* \"@openzeppelin/contracts-upgradeable/proxy/utils/Initializable.sol\":8819:8941  function _initializableStorageSlot() internal pure virtual returns (bytes32) {... */\n      jump\n        /* \"@openzeppelin/contracts-upgradeable/token/ERC20/ERC20Upgradeable.sol\":2263:2410  function __ERC20_init(string memory name_, string memory symbol_) internal onlyInitializing {... */\n    tag_226:\n        /* \"@openzeppelin/contracts-upgradeable/proxy/utils/Initializable.sol\":6929:6949  _checkInitializing() */\n      tag_474\n        /* \"@openzeppelin/contracts-upgradeable/proxy/utils/Initializable.sol\":6929:6947  _checkInitializing */\n      tag_475\n        /* \"@openzeppelin/contracts-upgradeable/proxy/utils/Initializable.sol\":6929:6949  _checkInitializing() */\n      jump\t// in\n    tag_474:\n        /* \"@openzeppelin/contracts-upgradeable/token/ERC20/ERC20Upgradeable.sol\":2365:2403  __ERC20_init_unchained(name_, symbol_) */\n      tag_355\n        /* \"@openzeppelin/contracts-upgradeable/token/ERC20/ERC20Upgradeable.sol\":2388:2393  name_ */\n      dup3\n        /* \"@openzeppelin/contracts-upgradeable/token/ERC20/ERC20Upgradeable.sol\":2395:2402  symbol_ */\n      dup3\n        /* \"@openzeppelin/contracts-upgradeable/token/ERC20/ERC20Upgradeable.sol\":2365:2387  __ERC20_init_unchained */\n      tag_478\n        /* \"@openzeppelin/contracts-upgradeable/token/ERC20/ERC20Upgradeable.sol\":2365:2403  __ERC20_init_unchained(name_, symbol_) */\n      jump\t// in\n        /* \"@openzeppelin/contracts-upgradeable/access/AccessControlUpgradeable.sol\":3231:3296  function __AccessControl_init() internal onlyInitializing {... */\n    tag_228:\n        /* \"@openzeppelin/contracts-upgradeable/proxy/utils/Initializable.sol\":6929:6949  _checkInitializing() */\n      tag_480\n        /* \"@openzeppelin/contracts-upgradeable/proxy/utils/Initializable.sol\":6929:6947  _checkInitializing */\n      tag_475\n        /* \"@openzeppelin/contracts-upgradeable/proxy/utils/Initializable.sol\":6929:6949  _checkInitializing() */\n      jump\t// in\n    tag_480:\n        /* \"@openzeppelin/contracts-upgradeable/access/AccessControlUpgradeable.sol\":3231:3296  function __AccessControl_init() internal onlyInitializing {... */\n      jump\t// out\n        /* \"@openzeppelin/contracts-upgradeable/utils/ReentrancyGuardUpgradeable.sol\":2684:2795  function __ReentrancyGuard_init() internal onlyInitializing {... */\n    tag_232:\n        /* \"@openzeppelin/contracts-upgradeable/proxy/utils/Initializable.sol\":6929:6949  _checkInitializing() */\n      tag_486\n        /* \"@openzeppelin/contracts-upgradeable/proxy/utils/Initializable.sol\":6929:6947  _checkInitializing */\n      tag_475\n        /* \"@openzeppelin/contracts-upgradeable/proxy/utils/Initializable.sol\":6929:6949  _checkInitializing() */\n      jump\t// in\n    tag_486:\n        /* \"@openzeppelin/contracts-upgradeable/utils/ReentrancyGuardUpgradeable.sol\":2754:2788  __ReentrancyGuard_init_unchained() */\n      tag_480\n        /* \"@openzeppelin/contracts-upgradeable/utils/ReentrancyGuardUpgradeable.sol\":2754:2786  __ReentrancyGuard_init_unchained */\n      tag_489\n        /* \"@openzeppelin/contracts-upgradeable/utils/ReentrancyGuardUpgradeable.sol\":2754:2788  __ReentrancyGuard_init_unchained() */\n      jump\t// in\n        /* \"@openzeppelin/contracts-upgradeable/access/AccessControlUpgradeable.sol\":7270:7657  function _grantRole(bytes32 role, address account) internal virtual returns (bool) {... */\n    tag_236:\n        /* \"@openzeppelin/contracts-upgradeable/access/AccessControlUpgradeable.sol\":7347:7351  bool */\n      0x00\n      mload(0x00)\n      codecopy(0x00, data_b3da67d1b252aeab7c8063542d95e75f82a5307a82535949bc38f7cf7ba8897f, 0x20)\n      mload(0x00)\n      swap1\n      0x00\n      mstore\n        /* \"@openzeppelin/contracts-upgradeable/access/AccessControlUpgradeable.sol\":7437:7459  hasRole(role, account) */\n      tag_495\n        /* \"@openzeppelin/contracts-upgradeable/access/AccessControlUpgradeable.sol\":7445:7449  role */\n      dup5\n        /* \"@openzeppelin/contracts-upgradeable/access/AccessControlUpgradeable.sol\":7451:7458  account */\n      dup5\n        /* \"@openzeppelin/contracts-upgradeable/access/AccessControlUpgradeable.sol\":7437:7444  hasRole */\n      tag_151\n        /* \"@openzeppelin/contracts-upgradeable/access/AccessControlUpgradeable.sol\":7437:7459  hasRole(role, account) */\n      jump\t// in\n    tag_495:\n        /* \"@openzeppelin/contracts-upgradeable/access/AccessControlUpgradeable.sol\":7432:7651  if (!hasRole(role, account)) {... */\n      tag_496\n      jumpi\n        /* \"@openzeppelin/contracts-upgradeable/access/AccessControlUpgradeable.sol\":7475:7483  $._roles */\n      0x00\n        /* \"@openzeppelin/contracts-upgradeable/access/AccessControlUpgradeable.sol\":7475:7489  $._roles[role] */\n      dup5\n      dup2\n      mstore\n      0x20\n      dup3\n      dup2\n      mstore\n      0x40\n      dup1\n      dup4\n      keccak256\n      sub(shl(0xa0, 0x01), 0x01)\n        /* \"@openzeppelin/contracts-upgradeable/access/AccessControlUpgradeable.sol\":7475:7506  $._roles[role].hasRole[account] */\n      dup8\n      and\n      dup5\n      mstore\n      swap1\n      swap2\n      mstore\n      swap1\n      keccak256\n        /* \"@openzeppelin/contracts-upgradeable/access/AccessControlUpgradeable.sol\":7475:7513  $._roles[role].hasRole[account] = true */\n      dup1\n      sload\n      not(0xff)\n      and\n        /* \"@openzeppelin/contracts-upgradeable/access/AccessControlUpgradeable.sol\":7509:7513  true */\n      0x01\n        /* \"@openzeppelin/contracts-upgradeable/access/AccessControlUpgradeable.sol\":7475:7513  $._roles[role].hasRole[account] = true */\n      or\n      swap1\n      sstore\n        /* \"@openzeppelin/contracts-upgradeable/access/AccessControlUpgradeable.sol\":7559:7571  _msgSender() */\n      tag_497\n        /* \"@openzeppelin/contracts-upgradeable/utils/ContextUpgradeable.sol\":966:976  msg.sender */\n      caller\n      swap1\n        /* \"@openzeppelin/contracts-upgradeable/utils/ContextUpgradeable.sol\":887:983  function _msgSender() internal view virtual returns (address) {... */\n      jump\n        /* \"@openzeppelin/contracts-upgradeable/access/AccessControlUpgradeable.sol\":7559:7571  _msgSender() */\n    tag_497:\n      sub(shl(0xa0, 0x01), 0x01)\n        /* \"@openzeppelin/contracts-upgradeable/access/AccessControlUpgradeable.sol\":7532:7572  RoleGranted(role, account, _msgSender()) */\n      and\n        /* \"@openzeppelin/contracts-upgradeable/access/AccessControlUpgradeable.sol\":7550:7557  account */\n      dup4\n      sub(shl(0xa0, 0x01), 0x01)\n        /* \"@openzeppelin/contracts-upgradeable/access/AccessControlUpgradeable.sol\":7532:7572  RoleGranted(role, account, _msgSender()) */\n      and\n        /* \"@openzeppelin/contracts-upgradeable/access/AccessControlUpgradeable.sol\":7544:7548  role */\n      dup6\n        /* \"@openzeppelin/contracts-upgradeable/access/AccessControlUpgradeable.sol\":7532:7572  RoleGranted(role, account, _msgSender()) */\n      0x2f8788117e7eff1d82e926ec794901d17c78024a50270940304540a733656f0d\n      mload(0x40)\n      mload(0x40)\n      dup1\n      swap2\n      sub\n      swap1\n      log4\n        /* \"@openzeppelin/contracts-upgradeable/access/AccessControlUpgradeable.sol\":7593:7597  true */\n      0x01\n        /* \"@openzeppelin/contracts-upgradeable/access/AccessControlUpgradeable.sol\":7586:7597  return true */\n      swap2\n      pop\n      pop\n      jump(tag_202)\n        /* \"@openzeppelin/contracts-upgradeable/access/AccessControlUpgradeable.sol\":7432:7651  if (!hasRole(role, account)) {... */\n    tag_496:\n        /* \"@openzeppelin/contracts-upgradeable/access/AccessControlUpgradeable.sol\":7635:7640  false */\n      0x00\n        /* \"@openzeppelin/contracts-upgradeable/access/AccessControlUpgradeable.sol\":7628:7640  return false */\n      swap2\n      pop\n      pop\n      jump(tag_202)\n        /* \"@openzeppelin/contracts-upgradeable/token/ERC20/ERC20Upgradeable.sol\":9982:10110  function _approve(address owner, address spender, uint256 value) internal {... */\n    tag_250:\n        /* \"@openzeppelin/contracts-upgradeable/token/ERC20/ERC20Upgradeable.sol\":10066:10103  _approve(owner, spender, value, true) */\n      tag_321\n        /* \"@openzeppelin/contracts-upgradeable/token/ERC20/ERC20Upgradeable.sol\":10075:10080  owner */\n      dup4\n        /* \"@openzeppelin/contracts-upgradeable/token/ERC20/ERC20Upgradeable.sol\":10082:10089  spender */\n      dup4\n        /* \"@openzeppelin/contracts-upgradeable/token/ERC20/ERC20Upgradeable.sol\":10091:10096  value */\n      dup4\n        /* \"@openzeppelin/contracts-upgradeable/token/ERC20/ERC20Upgradeable.sol\":10098:10102  true */\n      0x01\n        /* \"@openzeppelin/contracts-upgradeable/token/ERC20/ERC20Upgradeable.sol\":10066:10074  _approve */\n      tag_502\n        /* \"@openzeppelin/contracts-upgradeable/token/ERC20/ERC20Upgradeable.sol\":10066:10103  _approve(owner, spender, value, true) */\n      jump\t// in\n        /* \"@openzeppelin/contracts-upgradeable/access/AccessControlUpgradeable.sol\":4148:4251  function _checkRole(bytes32 role) internal view virtual {... */\n    tag_253:\n        /* \"@openzeppelin/contracts-upgradeable/access/AccessControlUpgradeable.sol\":4214:4244  _checkRole(role, _msgSender()) */\n      tag_504\n        /* \"@openzeppelin/contracts-upgradeable/access/AccessControlUpgradeable.sol\":4225:4229  role */\n      dup2\n        /* \"@openzeppelin/contracts-upgradeable/utils/ContextUpgradeable.sol\":966:976  msg.sender */\n      caller\n        /* \"@openzeppelin/contracts-upgradeable/access/AccessControlUpgradeable.sol\":4214:4224  _checkRole */\n      tag_506\n        /* \"@openzeppelin/contracts-upgradeable/access/AccessControlUpgradeable.sol\":4214:4244  _checkRole(role, _msgSender()) */\n      jump\t// in\n    tag_504:\n        /* \"@openzeppelin/contracts-upgradeable/access/AccessControlUpgradeable.sol\":4148:4251  function _checkRole(bytes32 role) internal view virtual {... */\n      pop\n      jump\t// out\n        /* \"@openzeppelin/contracts-upgradeable/utils/PausableUpgradeable.sol\":2709:2837  function _requireNotPaused() internal view virtual {... */\n    tag_284:\n      mload(0x00)\n      codecopy(0x00, data_c0c65a3718f3702d917c44106b91645b509d2e2d0979b70495c3babce192339f, 0x20)\n      mload(0x00)\n      swap1\n      0x00\n      mstore\n        /* \"@openzeppelin/contracts-upgradeable/utils/PausableUpgradeable.sol\":2625:2634  $._paused */\n      sload\n      0xff\n      and\n        /* \"@openzeppelin/contracts-upgradeable/utils/PausableUpgradeable.sol\":2770:2831  if (paused()) {... */\n      iszero\n      tag_480\n      jumpi\n        /* \"@openzeppelin/contracts-upgradeable/utils/PausableUpgradeable.sol\":2805:2820  EnforcedPause() */\n      mload(0x40)\n      shl(0xe0, 0xd93c0665)\n      dup2\n      mstore\n      0x04\n      add\n      mload(0x40)\n      dup1\n      swap2\n      sub\n      swap1\n      revert\n        /* \"@openzeppelin/contracts-upgradeable/token/ERC20/ERC20Upgradeable.sol\":11726:12202  function _spendAllowance(address owner, address spender, uint256 value) internal virtual {... */\n    tag_303:\n        /* \"@openzeppelin/contracts-upgradeable/token/ERC20/ERC20Upgradeable.sol\":11825:11849  uint256 currentAllowance */\n      0x00\n        /* \"@openzeppelin/contracts-upgradeable/token/ERC20/ERC20Upgradeable.sol\":11852:11877  allowance(owner, spender) */\n      tag_511\n        /* \"@openzeppelin/contracts-upgradeable/token/ERC20/ERC20Upgradeable.sol\":11862:11867  owner */\n      dup5\n        /* \"@openzeppelin/contracts-upgradeable/token/ERC20/ERC20Upgradeable.sol\":11869:11876  spender */\n      dup5\n        /* \"@openzeppelin/contracts-upgradeable/token/ERC20/ERC20Upgradeable.sol\":11852:11861  allowance */\n      tag_186\n        /* \"@openzeppelin/contracts-upgradeable/token/ERC20/ERC20Upgradeable.sol\":11852:11877  allowance(owner, spender) */\n      jump\t// in\n    tag_511:\n        /* \"@openzeppelin/contracts-upgradeable/token/ERC20/ERC20Upgradeable.sol\":11825:11877  uint256 currentAllowance = allowance(owner, spender) */\n      swap1\n      pop\n      not(0x00)\n        /* \"@openzeppelin/contracts-upgradeable/token/ERC20/ERC20Upgradeable.sol\":11891:11907  currentAllowance */\n      dup2\n        /* \"@openzeppelin/contracts-upgradeable/token/ERC20/ERC20Upgradeable.sol\":11891:11927  currentAllowance < type(uint256).max */\n      lt\n        /* \"@openzeppelin/contracts-upgradeable/token/ERC20/ERC20Upgradeable.sol\":11887:12196  if (currentAllowance < type(uint256).max) {... */\n      iszero\n      tag_315\n      jumpi\n        /* \"@openzeppelin/contracts-upgradeable/token/ERC20/ERC20Upgradeable.sol\":11966:11971  value */\n      dup2\n        /* \"@openzeppelin/contracts-upgradeable/token/ERC20/ERC20Upgradeable.sol\":11947:11963  currentAllowance */\n      dup2\n        /* \"@openzeppelin/contracts-upgradeable/token/ERC20/ERC20Upgradeable.sol\":11947:11971  currentAllowance < value */\n      lt\n        /* \"@openzeppelin/contracts-upgradeable/token/ERC20/ERC20Upgradeable.sol\":11943:12073  if (currentAllowance < value) {... */\n      iszero\n      tag_513\n      jumpi\n        /* \"@openzeppelin/contracts-upgradeable/token/ERC20/ERC20Upgradeable.sol\":11998:12058  ERC20InsufficientAllowance(spender, currentAllowance, value) */\n      mload(0x40)\n      shl(0xe1, 0x7dc7a0d9)\n      dup2\n      mstore\n      sub(shl(0xa0, 0x01), 0x01)\n        /* \"#utility.yul\":14137:14169   */\n      dup5\n      and\n        /* \"@openzeppelin/contracts-upgradeable/token/ERC20/ERC20Upgradeable.sol\":11998:12058  ERC20InsufficientAllowance(spender, currentAllowance, value) */\n      0x04\n      dup3\n      add\n        /* \"#utility.yul\":14119:14170   */\n      mstore\n        /* \"#utility.yul\":14186:14204   */\n      0x24\n      dup2\n      add\n        /* \"#utility.yul\":14179:14213   */\n      dup3\n      swap1\n      mstore\n        /* \"#utility.yul\":14229:14247   */\n      0x44\n      dup2\n      add\n        /* \"#utility.yul\":14222:14256   */\n      dup4\n      swap1\n      mstore\n        /* \"#utility.yul\":14092:14110   */\n      0x64\n      add\n        /* \"@openzeppelin/contracts-upgradeable/token/ERC20/ERC20Upgradeable.sol\":11998:12058  ERC20InsufficientAllowance(spender, currentAllowance, value) */\n      tag_223\n        /* \"#utility.yul\":13917:14262   */\n      jump\n        /* \"@openzeppelin/contracts-upgradeable/token/ERC20/ERC20Upgradeable.sol\":11943:12073  if (currentAllowance < value) {... */\n    tag_513:\n        /* \"@openzeppelin/contracts-upgradeable/token/ERC20/ERC20Upgradeable.sol\":12114:12171  _approve(owner, spender, currentAllowance - value, false) */\n      tag_315\n        /* \"@openzeppelin/contracts-upgradeable/token/ERC20/ERC20Upgradeable.sol\":12123:12128  owner */\n      dup5\n        /* \"@openzeppelin/contracts-upgradeable/token/ERC20/ERC20Upgradeable.sol\":12130:12137  spender */\n      dup5\n        /* \"@openzeppelin/contracts-upgradeable/token/ERC20/ERC20Upgradeable.sol\":12158:12163  value */\n      dup5\n        /* \"@openzeppelin/contracts-upgradeable/token/ERC20/ERC20Upgradeable.sol\":12139:12155  currentAllowance */\n      dup5\n        /* \"@openzeppelin/contracts-upgradeable/token/ERC20/ERC20Upgradeable.sol\":12139:12163  currentAllowance - value */\n      sub\n        /* \"@openzeppelin/contracts-upgradeable/token/ERC20/ERC20Upgradeable.sol\":12165:12170  false */\n      0x00\n        /* \"@openzeppelin/contracts-upgradeable/token/ERC20/ERC20Upgradeable.sol\":12114:12122  _approve */\n      tag_502\n        /* \"@openzeppelin/contracts-upgradeable/token/ERC20/ERC20Upgradeable.sol\":12114:12171  _approve(owner, spender, currentAllowance - value, false) */\n      jump\t// in\n        /* \"@openzeppelin/contracts-upgradeable/token/ERC20/ERC20Upgradeable.sol\":6586:6886  function _transfer(address from, address to, uint256 value) internal {... */\n    tag_305:\n      sub(shl(0xa0, 0x01), 0x01)\n        /* \"@openzeppelin/contracts-upgradeable/token/ERC20/ERC20Upgradeable.sol\":6669:6687  from == address(0) */\n      dup4\n      and\n        /* \"@openzeppelin/contracts-upgradeable/token/ERC20/ERC20Upgradeable.sol\":6665:6751  if (from == address(0)) {... */\n      tag_518\n      jumpi\n        /* \"@openzeppelin/contracts-upgradeable/token/ERC20/ERC20Upgradeable.sol\":6710:6740  ERC20InvalidSender(address(0)) */\n      mload(0x40)\n      shl(0xe1, 0x4b637e8f)\n      dup2\n      mstore\n        /* \"@openzeppelin/contracts-upgradeable/token/ERC20/ERC20Upgradeable.sol\":6737:6738  0 */\n      0x00\n        /* \"@openzeppelin/contracts-upgradeable/token/ERC20/ERC20Upgradeable.sol\":6710:6740  ERC20InvalidSender(address(0)) */\n      0x04\n      dup3\n      add\n        /* \"#utility.yul\":14413:14464   */\n      mstore\n        /* \"#utility.yul\":14386:14404   */\n      0x24\n      add\n        /* \"@openzeppelin/contracts-upgradeable/token/ERC20/ERC20Upgradeable.sol\":6710:6740  ERC20InvalidSender(address(0)) */\n      tag_223\n        /* \"#utility.yul\":14267:14470   */\n      jump\n        /* \"@openzeppelin/contracts-upgradeable/token/ERC20/ERC20Upgradeable.sol\":6665:6751  if (from == address(0)) {... */\n    tag_518:\n      sub(shl(0xa0, 0x01), 0x01)\n        /* \"@openzeppelin/contracts-upgradeable/token/ERC20/ERC20Upgradeable.sol\":6764:6780  to == address(0) */\n      dup3\n      and\n        /* \"@openzeppelin/contracts-upgradeable/token/ERC20/ERC20Upgradeable.sol\":6760:6846  if (to == address(0)) {... */\n      tag_521\n      jumpi\n        /* \"@openzeppelin/contracts-upgradeable/token/ERC20/ERC20Upgradeable.sol\":6803:6835  ERC20InvalidReceiver(address(0)) */\n      mload(0x40)\n      shl(0xe0, 0xec442f05)\n      dup2\n      mstore\n        /* \"@openzeppelin/contracts-upgradeable/token/ERC20/ERC20Upgradeable.sol\":6832:6833  0 */\n      0x00\n        /* \"@openzeppelin/contracts-upgradeable/token/ERC20/ERC20Upgradeable.sol\":6803:6835  ERC20InvalidReceiver(address(0)) */\n      0x04\n      dup3\n      add\n        /* \"#utility.yul\":14413:14464   */\n      mstore\n        /* \"#utility.yul\":14386:14404   */\n      0x24\n      add\n        /* \"@openzeppelin/contracts-upgradeable/token/ERC20/ERC20Upgradeable.sol\":6803:6835  ERC20InvalidReceiver(address(0)) */\n      tag_223\n        /* \"#utility.yul\":14267:14470   */\n      jump\n        /* \"@openzeppelin/contracts-upgradeable/token/ERC20/ERC20Upgradeable.sol\":6760:6846  if (to == address(0)) {... */\n    tag_521:\n        /* \"@openzeppelin/contracts-upgradeable/token/ERC20/ERC20Upgradeable.sol\":6855:6879  _update(from, to, value) */\n      tag_321\n        /* \"@openzeppelin/contracts-upgradeable/token/ERC20/ERC20Upgradeable.sol\":6863:6867  from */\n      dup4\n        /* \"@openzeppelin/contracts-upgradeable/token/ERC20/ERC20Upgradeable.sol\":6869:6871  to */\n      dup4\n        /* \"@openzeppelin/contracts-upgradeable/token/ERC20/ERC20Upgradeable.sol\":6873:6878  value */\n      dup4\n        /* \"@openzeppelin/contracts-upgradeable/token/ERC20/ERC20Upgradeable.sol\":6855:6862  _update */\n      tag_524\n        /* \"@openzeppelin/contracts-upgradeable/token/ERC20/ERC20Upgradeable.sol\":6855:6879  _update(from, to, value) */\n      jump\t// in\n        /* \"@openzeppelin/contracts-upgradeable/access/AccessControlUpgradeable.sol\":7894:8282  function _revokeRole(bytes32 role, address account) internal virtual returns (bool) {... */\n    tag_322:\n        /* \"@openzeppelin/contracts-upgradeable/access/AccessControlUpgradeable.sol\":7972:7976  bool */\n      0x00\n      mload(0x00)\n      codecopy(0x00, data_b3da67d1b252aeab7c8063542d95e75f82a5307a82535949bc38f7cf7ba8897f, 0x20)\n      mload(0x00)\n      swap1\n      0x00\n      mstore\n        /* \"@openzeppelin/contracts-upgradeable/access/AccessControlUpgradeable.sol\":8061:8083  hasRole(role, account) */\n      tag_528\n        /* \"@openzeppelin/contracts-upgradeable/access/AccessControlUpgradeable.sol\":8069:8073  role */\n      dup5\n        /* \"@openzeppelin/contracts-upgradeable/access/AccessControlUpgradeable.sol\":8075:8082  account */\n      dup5\n        /* \"@openzeppelin/contracts-upgradeable/access/AccessControlUpgradeable.sol\":8061:8068  hasRole */\n      tag_151\n        /* \"@openzeppelin/contracts-upgradeable/access/AccessControlUpgradeable.sol\":8061:8083  hasRole(role, account) */\n      jump\t// in\n    tag_528:\n        /* \"@openzeppelin/contracts-upgradeable/access/AccessControlUpgradeable.sol\":8057:8276  if (hasRole(role, account)) {... */\n      iszero\n      tag_496\n      jumpi\n        /* \"@openzeppelin/contracts-upgradeable/access/AccessControlUpgradeable.sol\":8133:8138  false */\n      0x00\n        /* \"@openzeppelin/contracts-upgradeable/access/AccessControlUpgradeable.sol\":8099:8113  $._roles[role] */\n      dup5\n      dup2\n      mstore\n      0x20\n      dup3\n      dup2\n      mstore\n      0x40\n      dup1\n      dup4\n      keccak256\n      sub(shl(0xa0, 0x01), 0x01)\n        /* \"@openzeppelin/contracts-upgradeable/access/AccessControlUpgradeable.sol\":8099:8130  $._roles[role].hasRole[account] */\n      dup8\n      and\n      dup1\n      dup6\n      mstore\n      swap3\n      mstore\n      dup1\n      dup4\n      keccak256\n        /* \"@openzeppelin/contracts-upgradeable/access/AccessControlUpgradeable.sol\":8099:8138  $._roles[role].hasRole[account] = false */\n      dup1\n      sload\n      not(0xff)\n      and\n      swap1\n      sstore\n        /* \"@openzeppelin/contracts-upgradeable/access/AccessControlUpgradeable.sol\":8157:8197  RoleRevoked(role, account, _msgSender()) */\n      mload\n        /* \"@openzeppelin/contracts-upgradeable/utils/ContextUpgradeable.sol\":966:976  msg.sender */\n      caller\n      swap3\n        /* \"@openzeppelin/contracts-upgradeable/access/AccessControlUpgradeable.sol\":8099:8113  $._roles[role] */\n      dup8\n      swap2\n        /* \"@openzeppelin/contracts-upgradeable/access/AccessControlUpgradeable.sol\":8157:8197  RoleRevoked(role, account, _msgSender()) */\n      0xf6391f5c32d9c69d2a47ea670b442974b53935d1edc7fd64eb21e047a839171b\n      swap2\n        /* \"@openzeppelin/contracts-upgradeable/access/AccessControlUpgradeable.sol\":8133:8138  false */\n      swap1\n        /* \"@openzeppelin/contracts-upgradeable/access/AccessControlUpgradeable.sol\":8157:8197  RoleRevoked(role, account, _msgSender()) */\n      log4\n        /* \"@openzeppelin/contracts-upgradeable/access/AccessControlUpgradeable.sol\":8218:8222  true */\n      0x01\n        /* \"@openzeppelin/contracts-upgradeable/access/AccessControlUpgradeable.sol\":8211:8222  return true */\n      swap2\n      pop\n      pop\n      jump(tag_202)\n        /* \"@openzeppelin/contracts-upgradeable/utils/PausableUpgradeable.sol\":3478:3656  function _unpause() internal virtual whenPaused {... */\n    tag_331:\n        /* \"@openzeppelin/contracts-upgradeable/utils/PausableUpgradeable.sol\":2226:2242  _requirePaused() */\n      tag_533\n        /* \"@openzeppelin/contracts-upgradeable/utils/PausableUpgradeable.sol\":2226:2240  _requirePaused */\n      tag_534\n        /* \"@openzeppelin/contracts-upgradeable/utils/PausableUpgradeable.sol\":2226:2242  _requirePaused() */\n      jump\t// in\n    tag_533:\n      mload(0x00)\n      codecopy(0x00, data_c0c65a3718f3702d917c44106b91645b509d2e2d0979b70495c3babce192339f, 0x20)\n      mload(0x00)\n      swap1\n      0x00\n      mstore\n        /* \"@openzeppelin/contracts-upgradeable/utils/PausableUpgradeable.sol\":3595:3612  $._paused = false */\n      dup1\n      sload\n      not(0xff)\n      and\n      dup2\n      sstore\n        /* \"@openzeppelin/contracts-upgradeable/utils/PausableUpgradeable.sol\":3627:3649  Unpaused(_msgSender()) */\n      0x5db9ee0a495bf2e6ff9c91a7834c1ba4fdd244a5e8aa4e537bd38aeae4b073aa\n        /* \"@openzeppelin/contracts-upgradeable/utils/ContextUpgradeable.sol\":966:976  msg.sender */\n      caller\n        /* \"@openzeppelin/contracts-upgradeable/utils/PausableUpgradeable.sol\":3636:3648  _msgSender() */\n    tag_537:\n        /* \"@openzeppelin/contracts-upgradeable/utils/PausableUpgradeable.sol\":3627:3649  Unpaused(_msgSender()) */\n      mload(0x40)\n      sub(shl(0xa0, 0x01), 0x01)\n        /* \"#utility.yul\":14431:14463   */\n      swap1\n      swap2\n      and\n        /* \"#utility.yul\":14413:14464   */\n      dup2\n      mstore\n        /* \"#utility.yul\":14401:14403   */\n      0x20\n        /* \"#utility.yul\":14386:14404   */\n      add\n        /* \"@openzeppelin/contracts-upgradeable/utils/PausableUpgradeable.sol\":3627:3649  Unpaused(_msgSender()) */\n      mload(0x40)\n      dup1\n      swap2\n      sub\n      swap1\n      log1\n        /* \"@openzeppelin/contracts-upgradeable/utils/PausableUpgradeable.sol\":3526:3656  {... */\n      pop\n        /* \"@openzeppelin/contracts-upgradeable/utils/PausableUpgradeable.sol\":3478:3656  function _unpause() internal virtual whenPaused {... */\n      jump\t// out\n        /* \"@openzeppelin/contracts-upgradeable/utils/ReentrancyGuardUpgradeable.sol\":3470:3854  function _nonReentrantBefore() private {... */\n    tag_335:\n      mload(0x00)\n      codecopy(0x00, data_c8669cf8eaf883002b9f48e28846a8d408c9b58ea6613bace374265e43c9bc43, 0x20)\n      mload(0x00)\n      swap1\n      0x00\n      mstore\n        /* \"@openzeppelin/contracts-upgradeable/utils/ReentrancyGuardUpgradeable.sol\":3670:3679  $._status */\n      dup1\n      sload\n      not(0x01)\n        /* \"@openzeppelin/contracts-upgradeable/utils/ReentrancyGuardUpgradeable.sol\":3670:3690  $._status == ENTERED */\n      add\n        /* \"@openzeppelin/contracts-upgradeable/utils/ReentrancyGuardUpgradeable.sol\":3666:3754  if ($._status == ENTERED) {... */\n      tag_542\n      jumpi\n        /* \"@openzeppelin/contracts-upgradeable/utils/ReentrancyGuardUpgradeable.sol\":3713:3743  ReentrancyGuardReentrantCall() */\n      mload(0x40)\n      shl(0xe0, 0x3ee5aeb5)\n      dup2\n      mstore\n      0x04\n      add\n      mload(0x40)\n      dup1\n      swap2\n      sub\n      swap1\n      revert\n        /* \"@openzeppelin/contracts-upgradeable/utils/ReentrancyGuardUpgradeable.sol\":3666:3754  if ($._status == ENTERED) {... */\n    tag_542:\n        /* \"@openzeppelin/contracts-upgradeable/utils/ReentrancyGuardUpgradeable.sol\":1991:1992  2 */\n      0x02\n        /* \"@openzeppelin/contracts-upgradeable/utils/ReentrancyGuardUpgradeable.sol\":3828:3847  $._status = ENTERED */\n      swap1\n      sstore\n        /* \"@openzeppelin/contracts-upgradeable/utils/ReentrancyGuardUpgradeable.sol\":3470:3854  function _nonReentrantBefore() private {... */\n      jump\t// out\n        /* \"@openzeppelin/contracts-upgradeable/token/ERC20/ERC20Upgradeable.sol\":8714:8922  function _mint(address account, uint256 value) internal {... */\n    tag_354:\n      sub(shl(0xa0, 0x01), 0x01)\n        /* \"@openzeppelin/contracts-upgradeable/token/ERC20/ERC20Upgradeable.sol\":8784:8805  account == address(0) */\n      dup3\n      and\n        /* \"@openzeppelin/contracts-upgradeable/token/ERC20/ERC20Upgradeable.sol\":8780:8871  if (account == address(0)) {... */\n      tag_544\n      jumpi\n        /* \"@openzeppelin/contracts-upgradeable/token/ERC20/ERC20Upgradeable.sol\":8828:8860  ERC20InvalidReceiver(address(0)) */\n      mload(0x40)\n      shl(0xe0, 0xec442f05)\n      dup2\n      mstore\n        /* \"@openzeppelin/contracts-upgradeable/token/ERC20/ERC20Upgradeable.sol\":8857:8858  0 */\n      0x00\n        /* \"@openzeppelin/contracts-upgradeable/token/ERC20/ERC20Upgradeable.sol\":8828:8860  ERC20InvalidReceiver(address(0)) */\n      0x04\n      dup3\n      add\n        /* \"#utility.yul\":14413:14464   */\n      mstore\n        /* \"#utility.yul\":14386:14404   */\n      0x24\n      add\n        /* \"@openzeppelin/contracts-upgradeable/token/ERC20/ERC20Upgradeable.sol\":8828:8860  ERC20InvalidReceiver(address(0)) */\n      tag_223\n        /* \"#utility.yul\":14267:14470   */\n      jump\n        /* \"@openzeppelin/contracts-upgradeable/token/ERC20/ERC20Upgradeable.sol\":8780:8871  if (account == address(0)) {... */\n    tag_544:\n        /* \"@openzeppelin/contracts-upgradeable/token/ERC20/ERC20Upgradeable.sol\":8880:8915  _update(address(0), account, value) */\n      tag_355\n        /* \"@openzeppelin/contracts-upgradeable/token/ERC20/ERC20Upgradeable.sol\":8896:8897  0 */\n      0x00\n        /* \"@openzeppelin/contracts-upgradeable/token/ERC20/ERC20Upgradeable.sol\":8900:8907  account */\n      dup4\n        /* \"@openzeppelin/contracts-upgradeable/token/ERC20/ERC20Upgradeable.sol\":8909:8914  value */\n      dup4\n        /* \"@openzeppelin/contracts-upgradeable/token/ERC20/ERC20Upgradeable.sol\":8880:8887  _update */\n      tag_524\n        /* \"@openzeppelin/contracts-upgradeable/token/ERC20/ERC20Upgradeable.sol\":8880:8915  _update(address(0), account, value) */\n      jump\t// in\n        /* \"@openzeppelin/contracts-upgradeable/utils/ReentrancyGuardUpgradeable.sol\":3860:4143  function _nonReentrantAfter() private {... */\n    tag_356:\n        /* \"@openzeppelin/contracts-upgradeable/utils/ReentrancyGuardUpgradeable.sol\":1949:1950  1 */\n      0x01\n      mload(0x00)\n      codecopy(0x00, data_c8669cf8eaf883002b9f48e28846a8d408c9b58ea6613bace374265e43c9bc43, 0x20)\n      mload(0x00)\n      swap1\n      0x00\n      mstore\n        /* \"@openzeppelin/contracts-upgradeable/utils/ReentrancyGuardUpgradeable.sol\":4113:4136  $._status = NOT_ENTERED */\n      sstore\n        /* \"@openzeppelin/contracts-upgradeable/utils/ReentrancyGuardUpgradeable.sol\":3860:4143  function _nonReentrantAfter() private {... */\n      jump\t// out\n        /* \"@openzeppelin/contracts-upgradeable/proxy/utils/UUPSUpgradeable.sol\":4578:4890  function _checkProxy() internal view virtual {... */\n    tag_359:\n        /* \"@openzeppelin/contracts-upgradeable/proxy/utils/UUPSUpgradeable.sol\":4658:4662  this */\n      address\n      sub(shl(0xa0, 0x01), 0x01)\n        /* \"@openzeppelin/contracts-upgradeable/proxy/utils/UUPSUpgradeable.sol\":4667:4673  __self */\n      immutable(\"0x903cf98c709a9afd0d51d5fd348ba936789b2b73452753a58f859a0a579afd\")\n        /* \"@openzeppelin/contracts-upgradeable/proxy/utils/UUPSUpgradeable.sol\":4650:4673  address(this) == __self */\n      and\n      eq\n      dup1\n        /* \"@openzeppelin/contracts-upgradeable/proxy/utils/UUPSUpgradeable.sol\":4650:4770  address(this) == __self || // Must be called through delegatecall... */\n      tag_550\n      jumpi\n      pop\n        /* \"@openzeppelin/contracts-upgradeable/proxy/utils/UUPSUpgradeable.sol\":4764:4770  __self */\n      immutable(\"0x903cf98c709a9afd0d51d5fd348ba936789b2b73452753a58f859a0a579afd\")\n      sub(shl(0xa0, 0x01), 0x01)\n        /* \"@openzeppelin/contracts-upgradeable/proxy/utils/UUPSUpgradeable.sol\":4728:4770  ERC1967Utils.getImplementation() != __self */\n      and\n        /* \"@openzeppelin/contracts-upgradeable/proxy/utils/UUPSUpgradeable.sol\":4728:4760  ERC1967Utils.getImplementation() */\n      tag_551\n      mload(0x00)\n      codecopy(0x00, data_75b20eef8615de99c108b05f0dbda081c91897128caa336d75dffb97c4132b4d, 0x20)\n      mload(0x00)\n      swap1\n      0x00\n      mstore\n        /* \"@openzeppelin/contracts/proxy/ERC1967/ERC1967Utils.sol\":1519:1572  StorageSlot.getAddressSlot(IMPLEMENTATION_SLOT).value */\n      sload\n      sub(shl(0xa0, 0x01), 0x01)\n      and\n      swap1\n        /* \"@openzeppelin/contracts/proxy/ERC1967/ERC1967Utils.sol\":1441:1579  function getImplementation() internal view returns (address) {... */\n      jump\n        /* \"@openzeppelin/contracts-upgradeable/proxy/utils/UUPSUpgradeable.sol\":4728:4760  ERC1967Utils.getImplementation() */\n    tag_551:\n      sub(shl(0xa0, 0x01), 0x01)\n        /* \"@openzeppelin/contracts-upgradeable/proxy/utils/UUPSUpgradeable.sol\":4728:4770  ERC1967Utils.getImplementation() != __self */\n      and\n      eq\n      iszero\n        /* \"@openzeppelin/contracts-upgradeable/proxy/utils/UUPSUpgradeable.sol\":4650:4770  address(this) == __self || // Must be called through delegatecall... */\n    tag_550:\n        /* \"@openzeppelin/contracts-upgradeable/proxy/utils/UUPSUpgradeable.sol\":4633:4884  if (... */\n      iszero\n      tag_480\n      jumpi\n        /* \"@openzeppelin/contracts-upgradeable/proxy/utils/UUPSUpgradeable.sol\":4844:4873  UUPSUnauthorizedCallContext() */\n      mload(0x40)\n      shl(0xe1, 0x703e46dd)\n      dup2\n      mstore\n      0x04\n      add\n      mload(0x40)\n      dup1\n      swap2\n      sub\n      swap1\n      revert\n        /* \"TOKEN ZARFIX (XZI).sol\":20526:20805  function _authorizeUpgrade(address _newImplementation) ... */\n    tag_362:\n        /* \"TOKEN ZARFIX (XZI).sol\":2034:2060  keccak256(\"UPGRADER_ROLE\") */\n      0x189ab7a9244df0848122154315af71fe140f3db0fe014031783b0946b8c9d2e3\n        /* \"@openzeppelin/contracts-upgradeable/access/AccessControlUpgradeable.sol\":3191:3207  _checkRole(role) */\n      tag_555\n        /* \"@openzeppelin/contracts-upgradeable/access/AccessControlUpgradeable.sol\":3202:3206  role */\n      dup2\n        /* \"@openzeppelin/contracts-upgradeable/access/AccessControlUpgradeable.sol\":3191:3201  _checkRole */\n      tag_253\n        /* \"@openzeppelin/contracts-upgradeable/access/AccessControlUpgradeable.sol\":3191:3207  _checkRole(role) */\n      jump\t// in\n    tag_555:\n      sub(shl(0xa0, 0x01), 0x01)\n        /* \"TOKEN ZARFIX (XZI).sol\":20731:20763  _newImplementation != address(0) */\n      dup3\n      and\n        /* \"TOKEN ZARFIX (XZI).sol\":20723:20798  require(_newImplementation != address(0), \"Invalid implementation address\") */\n      tag_355\n      jumpi\n      mload(0x40)\n      shl(0xe5, 0x461bcd)\n      dup2\n      mstore\n        /* \"#utility.yul\":14677:14679   */\n      0x20\n        /* \"TOKEN ZARFIX (XZI).sol\":20723:20798  require(_newImplementation != address(0), \"Invalid implementation address\") */\n      0x04\n      dup3\n      add\n        /* \"#utility.yul\":14659:14680   */\n      mstore\n        /* \"#utility.yul\":14716:14718   */\n      0x1e\n        /* \"#utility.yul\":14696:14714   */\n      0x24\n      dup3\n      add\n        /* \"#utility.yul\":14689:14719   */\n      mstore\n        /* \"#utility.yul\":14755:14787   */\n      0x496e76616c696420696d706c656d656e746174696f6e20616464726573730000\n        /* \"#utility.yul\":14735:14753   */\n      0x44\n      dup3\n      add\n        /* \"#utility.yul\":14728:14788   */\n      mstore\n        /* \"#utility.yul\":14805:14823   */\n      0x64\n      add\n        /* \"TOKEN ZARFIX (XZI).sol\":20723:20798  require(_newImplementation != address(0), \"Invalid implementation address\") */\n      tag_223\n        /* \"#utility.yul\":14475:14829   */\n      jump\n        /* \"@openzeppelin/contracts-upgradeable/proxy/utils/UUPSUpgradeable.sol\":6032:6570  function _upgradeToAndCallUUPS(address newImplementation, bytes memory data) private {... */\n    tag_364:\n        /* \"@openzeppelin/contracts-upgradeable/proxy/utils/UUPSUpgradeable.sol\":6149:6166  newImplementation */\n      dup2\n      sub(shl(0xa0, 0x01), 0x01)\n        /* \"@openzeppelin/contracts-upgradeable/proxy/utils/UUPSUpgradeable.sol\":6131:6181  IERC1822Proxiable(newImplementation).proxiableUUID */\n      and\n      0x52d1902d\n        /* \"@openzeppelin/contracts-upgradeable/proxy/utils/UUPSUpgradeable.sol\":6131:6183  IERC1822Proxiable(newImplementation).proxiableUUID() */\n      mload(0x40)\n      dup2\n      0xffffffff\n      and\n      0xe0\n      shl\n      dup2\n      mstore\n      0x04\n      add\n      0x20\n      mload(0x40)\n      dup1\n      dup4\n      sub\n      dup2\n      dup7\n      gas\n      staticcall\n      swap3\n      pop\n      pop\n      pop\n      dup1\n      iszero\n      tag_561\n      jumpi\n      pop\n      0x40\n      dup1\n      mload\n      0x1f\n      returndatasize\n      swap1\n      dup2\n      add\n      not(0x1f)\n      and\n      dup3\n      add\n      swap1\n      swap3\n      mstore\n      tag_562\n      swap2\n      dup2\n      add\n      swap1\n      tag_563\n      jump\t// in\n    tag_562:\n      0x01\n    tag_561:\n        /* \"@openzeppelin/contracts-upgradeable/proxy/utils/UUPSUpgradeable.sol\":6127:6564  try IERC1822Proxiable(newImplementation).proxiableUUID() returns (bytes32 slot) {... */\n      tag_564\n      jumpi\n        /* \"@openzeppelin/contracts-upgradeable/proxy/utils/UUPSUpgradeable.sol\":6493:6553  ERC1967Utils.ERC1967InvalidImplementation(newImplementation) */\n      mload(0x40)\n      shl(0xe0, 0x4c9c8ce3)\n      dup2\n      mstore\n      sub(shl(0xa0, 0x01), 0x01)\n        /* \"#utility.yul\":14431:14463   */\n      dup4\n      and\n        /* \"@openzeppelin/contracts-upgradeable/proxy/utils/UUPSUpgradeable.sol\":6493:6553  ERC1967Utils.ERC1967InvalidImplementation(newImplementation) */\n      0x04\n      dup3\n      add\n        /* \"#utility.yul\":14413:14464   */\n      mstore\n        /* \"#utility.yul\":14386:14404   */\n      0x24\n      add\n        /* \"@openzeppelin/contracts-upgradeable/proxy/utils/UUPSUpgradeable.sol\":6493:6553  ERC1967Utils.ERC1967InvalidImplementation(newImplementation) */\n      tag_223\n        /* \"#utility.yul\":14267:14470   */\n      jump\n        /* \"@openzeppelin/contracts-upgradeable/proxy/utils/UUPSUpgradeable.sol\":6127:6564  try IERC1822Proxiable(newImplementation).proxiableUUID() returns (bytes32 slot) {... */\n    tag_564:\n      mload(0x00)\n      codecopy(0x00, data_75b20eef8615de99c108b05f0dbda081c91897128caa336d75dffb97c4132b4d, 0x20)\n      mload(0x00)\n      swap1\n      0x00\n      mstore\n        /* \"@openzeppelin/contracts-upgradeable/proxy/utils/UUPSUpgradeable.sol\":6225:6265  slot != ERC1967Utils.IMPLEMENTATION_SLOT */\n      dup2\n      eq\n        /* \"@openzeppelin/contracts-upgradeable/proxy/utils/UUPSUpgradeable.sol\":6221:6341  if (slot != ERC1967Utils.IMPLEMENTATION_SLOT) {... */\n      tag_570\n      jumpi\n        /* \"@openzeppelin/contracts-upgradeable/proxy/utils/UUPSUpgradeable.sol\":6292:6326  UUPSUnsupportedProxiableUUID(slot) */\n      mload(0x40)\n      shl(0xe2, 0x2a875269)\n      dup2\n      mstore\n      0x04\n      dup2\n      add\n        /* \"#utility.yul\":3552:3577   */\n      dup3\n      swap1\n      mstore\n        /* \"#utility.yul\":3525:3543   */\n      0x24\n      add\n        /* \"@openzeppelin/contracts-upgradeable/proxy/utils/UUPSUpgradeable.sol\":6292:6326  UUPSUnsupportedProxiableUUID(slot) */\n      tag_223\n        /* \"#utility.yul\":3406:3583   */\n      jump\n        /* \"@openzeppelin/contracts-upgradeable/proxy/utils/UUPSUpgradeable.sol\":6221:6341  if (slot != ERC1967Utils.IMPLEMENTATION_SLOT) {... */\n    tag_570:\n        /* \"@openzeppelin/contracts-upgradeable/proxy/utils/UUPSUpgradeable.sol\":6354:6408  ERC1967Utils.upgradeToAndCall(newImplementation, data) */\n      tag_321\n        /* \"@openzeppelin/contracts-upgradeable/proxy/utils/UUPSUpgradeable.sol\":6384:6401  newImplementation */\n      dup4\n        /* \"@openzeppelin/contracts-upgradeable/proxy/utils/UUPSUpgradeable.sol\":6403:6407  data */\n      dup4\n        /* \"@openzeppelin/contracts-upgradeable/proxy/utils/UUPSUpgradeable.sol\":6354:6383  ERC1967Utils.upgradeToAndCall */\n      tag_573\n        /* \"@openzeppelin/contracts-upgradeable/proxy/utils/UUPSUpgradeable.sol\":6354:6408  ERC1967Utils.upgradeToAndCall(newImplementation, data) */\n      jump\t// in\n        /* \"@openzeppelin/contracts-upgradeable/proxy/utils/UUPSUpgradeable.sol\":5007:5220  function _checkNotDelegated() internal view virtual {... */\n    tag_367:\n        /* \"@openzeppelin/contracts-upgradeable/proxy/utils/UUPSUpgradeable.sol\":5081:5085  this */\n      address\n      sub(shl(0xa0, 0x01), 0x01)\n        /* \"@openzeppelin/contracts-upgradeable/proxy/utils/UUPSUpgradeable.sol\":5090:5096  __self */\n      immutable(\"0x903cf98c709a9afd0d51d5fd348ba936789b2b73452753a58f859a0a579afd\")\n        /* \"@openzeppelin/contracts-upgradeable/proxy/utils/UUPSUpgradeable.sol\":5073:5096  address(this) != __self */\n      and\n      eq\n        /* \"@openzeppelin/contracts-upgradeable/proxy/utils/UUPSUpgradeable.sol\":5069:5214  if (address(this) != __self) {... */\n      tag_480\n      jumpi\n        /* \"@openzeppelin/contracts-upgradeable/proxy/utils/UUPSUpgradeable.sol\":5174:5203  UUPSUnauthorizedCallContext() */\n      mload(0x40)\n      shl(0xe1, 0x703e46dd)\n      dup2\n      mstore\n      0x04\n      add\n      mload(0x40)\n      dup1\n      swap2\n      sub\n      swap1\n      revert\n        /* \"@openzeppelin/contracts-upgradeable/utils/PausableUpgradeable.sol\":3170:3346  function _pause() internal virtual whenNotPaused {... */\n    tag_378:\n        /* \"@openzeppelin/contracts-upgradeable/utils/PausableUpgradeable.sol\":1979:1998  _requireNotPaused() */\n      tag_578\n        /* \"@openzeppelin/contracts-upgradeable/utils/PausableUpgradeable.sol\":1979:1996  _requireNotPaused */\n      tag_284\n        /* \"@openzeppelin/contracts-upgradeable/utils/PausableUpgradeable.sol\":1979:1998  _requireNotPaused() */\n      jump\t// in\n    tag_578:\n      mload(0x00)\n      codecopy(0x00, data_c0c65a3718f3702d917c44106b91645b509d2e2d0979b70495c3babce192339f, 0x20)\n      mload(0x00)\n      swap1\n      0x00\n      mstore\n        /* \"@openzeppelin/contracts-upgradeable/utils/PausableUpgradeable.sol\":3288:3304  $._paused = true */\n      dup1\n      sload\n      not(0xff)\n      and\n        /* \"@openzeppelin/contracts-upgradeable/utils/PausableUpgradeable.sol\":3300:3304  true */\n      0x01\n        /* \"@openzeppelin/contracts-upgradeable/utils/PausableUpgradeable.sol\":3288:3304  $._paused = true */\n      or\n      dup2\n      sstore\n        /* \"@openzeppelin/contracts-upgradeable/utils/PausableUpgradeable.sol\":3319:3339  Paused(_msgSender()) */\n      0x62e78cea01bee320cd4e420270b5ea74000d11b0c9f74754ebdbfc544b05a258\n        /* \"@openzeppelin/contracts-upgradeable/utils/ContextUpgradeable.sol\":966:976  msg.sender */\n      caller\n        /* \"@openzeppelin/contracts-upgradeable/utils/PausableUpgradeable.sol\":3326:3338  _msgSender() */\n      tag_537\n        /* \"@openzeppelin/contracts-upgradeable/utils/ContextUpgradeable.sol\":887:983  function _msgSender() internal view virtual returns (address) {... */\n      jump\n        /* \"@openzeppelin/contracts-upgradeable/token/ERC20/ERC20Upgradeable.sol\":9240:9446  function _burn(address account, uint256 value) internal {... */\n    tag_414:\n      sub(shl(0xa0, 0x01), 0x01)\n        /* \"@openzeppelin/contracts-upgradeable/token/ERC20/ERC20Upgradeable.sol\":9310:9331  account == address(0) */\n      dup3\n      and\n        /* \"@openzeppelin/contracts-upgradeable/token/ERC20/ERC20Upgradeable.sol\":9306:9395  if (account == address(0)) {... */\n      tag_584\n      jumpi\n        /* \"@openzeppelin/contracts-upgradeable/token/ERC20/ERC20Upgradeable.sol\":9354:9384  ERC20InvalidSender(address(0)) */\n      mload(0x40)\n      shl(0xe1, 0x4b637e8f)\n      dup2\n      mstore\n        /* \"@openzeppelin/contracts-upgradeable/token/ERC20/ERC20Upgradeable.sol\":9381:9382  0 */\n      0x00\n        /* \"@openzeppelin/contracts-upgradeable/token/ERC20/ERC20Upgradeable.sol\":9354:9384  ERC20InvalidSender(address(0)) */\n      0x04\n      dup3\n      add\n        /* \"#utility.yul\":14413:14464   */\n      mstore\n        /* \"#utility.yul\":14386:14404   */\n      0x24\n      add\n        /* \"@openzeppelin/contracts-upgradeable/token/ERC20/ERC20Upgradeable.sol\":9354:9384  ERC20InvalidSender(address(0)) */\n      tag_223\n        /* \"#utility.yul\":14267:14470   */\n      jump\n        /* \"@openzeppelin/contracts-upgradeable/token/ERC20/ERC20Upgradeable.sol\":9306:9395  if (account == address(0)) {... */\n    tag_584:\n        /* \"@openzeppelin/contracts-upgradeable/token/ERC20/ERC20Upgradeable.sol\":9404:9439  _update(account, address(0), value) */\n      tag_355\n        /* \"@openzeppelin/contracts-upgradeable/token/ERC20/ERC20Upgradeable.sol\":9412:9419  account */\n      dup3\n        /* \"@openzeppelin/contracts-upgradeable/token/ERC20/ERC20Upgradeable.sol\":9429:9430  0 */\n      0x00\n        /* \"@openzeppelin/contracts-upgradeable/token/ERC20/ERC20Upgradeable.sol\":9433:9438  value */\n      dup4\n        /* \"@openzeppelin/contracts-upgradeable/token/ERC20/ERC20Upgradeable.sol\":9404:9411  _update */\n      tag_524\n        /* \"@openzeppelin/contracts-upgradeable/token/ERC20/ERC20Upgradeable.sol\":9404:9439  _update(account, address(0), value) */\n      jump\t// in\n        /* \"@openzeppelin/contracts-upgradeable/proxy/utils/Initializable.sol\":7082:7223  function _checkInitializing() internal view virtual {... */\n    tag_475:\n        /* \"@openzeppelin/contracts-upgradeable/proxy/utils/Initializable.sol\":7149:7166  _isInitializing() */\n      tag_589\n        /* \"@openzeppelin/contracts-upgradeable/proxy/utils/Initializable.sol\":7149:7164  _isInitializing */\n      tag_590\n        /* \"@openzeppelin/contracts-upgradeable/proxy/utils/Initializable.sol\":7149:7166  _isInitializing() */\n      jump\t// in\n    tag_589:\n        /* \"@openzeppelin/contracts-upgradeable/proxy/utils/Initializable.sol\":7144:7217  if (!_isInitializing()) {... */\n      tag_480\n      jumpi\n        /* \"@openzeppelin/contracts-upgradeable/proxy/utils/Initializable.sol\":7189:7206  NotInitializing() */\n      mload(0x40)\n      shl(0xe3, 0x1afcd79f)\n      dup2\n      mstore\n      0x04\n      add\n      mload(0x40)\n      dup1\n      swap2\n      sub\n      swap1\n      revert\n        /* \"@openzeppelin/contracts-upgradeable/token/ERC20/ERC20Upgradeable.sol\":2416:2632  function __ERC20_init_unchained(string memory name_, string memory symbol_) internal onlyInitializing {... */\n    tag_478:\n        /* \"@openzeppelin/contracts-upgradeable/proxy/utils/Initializable.sol\":6929:6949  _checkInitializing() */\n      tag_593\n        /* \"@openzeppelin/contracts-upgradeable/proxy/utils/Initializable.sol\":6929:6947  _checkInitializing */\n      tag_475\n        /* \"@openzeppelin/contracts-upgradeable/proxy/utils/Initializable.sol\":6929:6949  _checkInitializing() */\n      jump\t// in\n    tag_593:\n      mload(0x00)\n      codecopy(0x00, data_3874827173e8df9f34323b12b251d1d3c53926ce129e30a0d69f1d47c277041b, 0x20)\n      mload(0x00)\n      swap1\n      0x00\n      mstore\n        /* \"@openzeppelin/contracts-upgradeable/token/ERC20/ERC20Upgradeable.sol\":2581:2588  $._name */\n      0x52c63247e1f47db19d5ce0460030c497f067ca4cebf71ba98eeadabe20bace03\n        /* \"@openzeppelin/contracts-upgradeable/token/ERC20/ERC20Upgradeable.sol\":2581:2596  $._name = name_ */\n      tag_596\n        /* \"@openzeppelin/contracts-upgradeable/token/ERC20/ERC20Upgradeable.sol\":2591:2596  name_ */\n      dup5\n        /* \"@openzeppelin/contracts-upgradeable/token/ERC20/ERC20Upgradeable.sol\":2581:2588  $._name */\n      dup3\n        /* \"@openzeppelin/contracts-upgradeable/token/ERC20/ERC20Upgradeable.sol\":2581:2596  $._name = name_ */\n      tag_597\n      jump\t// in\n    tag_596:\n      pop\n        /* \"@openzeppelin/contracts-upgradeable/token/ERC20/ERC20Upgradeable.sol\":2606:2615  $._symbol */\n      0x04\n      dup2\n      add\n        /* \"@openzeppelin/contracts-upgradeable/token/ERC20/ERC20Upgradeable.sol\":2606:2625  $._symbol = symbol_ */\n      tag_315\n        /* \"@openzeppelin/contracts-upgradeable/token/ERC20/ERC20Upgradeable.sol\":2618:2625  symbol_ */\n      dup4\n        /* \"@openzeppelin/contracts-upgradeable/token/ERC20/ERC20Upgradeable.sol\":2606:2615  $._symbol */\n      dup3\n        /* \"@openzeppelin/contracts-upgradeable/token/ERC20/ERC20Upgradeable.sol\":2606:2625  $._symbol = symbol_ */\n      tag_597\n      jump\t// in\n        /* \"@openzeppelin/contracts-upgradeable/utils/ReentrancyGuardUpgradeable.sol\":2801:2984  function __ReentrancyGuard_init_unchained() internal onlyInitializing {... */\n    tag_489:\n        /* \"@openzeppelin/contracts-upgradeable/proxy/utils/Initializable.sol\":6929:6949  _checkInitializing() */\n      tag_356\n        /* \"@openzeppelin/contracts-upgradeable/proxy/utils/Initializable.sol\":6929:6947  _checkInitializing */\n      tag_475\n        /* \"@openzeppelin/contracts-upgradeable/proxy/utils/Initializable.sol\":6929:6949  _checkInitializing() */\n      jump\t// in\n        /* \"@openzeppelin/contracts-upgradeable/token/ERC20/ERC20Upgradeable.sol\":10957:11444  function _approve(address owner, address spender, uint256 value, bool emitEvent) internal virtual {... */\n    tag_502:\n      mload(0x00)\n      codecopy(0x00, data_3874827173e8df9f34323b12b251d1d3c53926ce129e30a0d69f1d47c277041b, 0x20)\n      mload(0x00)\n      swap1\n      0x00\n      mstore\n      sub(shl(0xa0, 0x01), 0x01)\n        /* \"@openzeppelin/contracts-upgradeable/token/ERC20/ERC20Upgradeable.sol\":11122:11141  owner == address(0) */\n      dup6\n      and\n        /* \"@openzeppelin/contracts-upgradeable/token/ERC20/ERC20Upgradeable.sol\":11118:11207  if (owner == address(0)) {... */\n      tag_605\n      jumpi\n        /* \"@openzeppelin/contracts-upgradeable/token/ERC20/ERC20Upgradeable.sol\":11164:11196  ERC20InvalidApprover(address(0)) */\n      mload(0x40)\n      shl(0xe0, 0xe602df05)\n      dup2\n      mstore\n        /* \"@openzeppelin/contracts-upgradeable/token/ERC20/ERC20Upgradeable.sol\":11193:11194  0 */\n      0x00\n        /* \"@openzeppelin/contracts-upgradeable/token/ERC20/ERC20Upgradeable.sol\":11164:11196  ERC20InvalidApprover(address(0)) */\n      0x04\n      dup3\n      add\n        /* \"#utility.yul\":14413:14464   */\n      mstore\n        /* \"#utility.yul\":14386:14404   */\n      0x24\n      add\n        /* \"@openzeppelin/contracts-upgradeable/token/ERC20/ERC20Upgradeable.sol\":11164:11196  ERC20InvalidApprover(address(0)) */\n      tag_223\n        /* \"#utility.yul\":14267:14470   */\n      jump\n        /* \"@openzeppelin/contracts-upgradeable/token/ERC20/ERC20Upgradeable.sol\":11118:11207  if (owner == address(0)) {... */\n    tag_605:\n      sub(shl(0xa0, 0x01), 0x01)\n        /* \"@openzeppelin/contracts-upgradeable/token/ERC20/ERC20Upgradeable.sol\":11220:11241  spender == address(0) */\n      dup5\n      and\n        /* \"@openzeppelin/contracts-upgradeable/token/ERC20/ERC20Upgradeable.sol\":11216:11306  if (spender == address(0)) {... */\n      tag_607\n      jumpi\n        /* \"@openzeppelin/contracts-upgradeable/token/ERC20/ERC20Upgradeable.sol\":11264:11295  ERC20InvalidSpender(address(0)) */\n      mload(0x40)\n      shl(0xe1, 0x4a1406b1)\n      dup2\n      mstore\n        /* \"@openzeppelin/contracts-upgradeable/token/ERC20/ERC20Upgradeable.sol\":11292:11293  0 */\n      0x00\n        /* \"@openzeppelin/contracts-upgradeable/token/ERC20/ERC20Upgradeable.sol\":11264:11295  ERC20InvalidSpender(address(0)) */\n      0x04\n      dup3\n      add\n        /* \"#utility.yul\":14413:14464   */\n      mstore\n        /* \"#utility.yul\":14386:14404   */\n      0x24\n      add\n        /* \"@openzeppelin/contracts-upgradeable/token/ERC20/ERC20Upgradeable.sol\":11264:11295  ERC20InvalidSpender(address(0)) */\n      tag_223\n        /* \"#utility.yul\":14267:14470   */\n      jump\n        /* \"@openzeppelin/contracts-upgradeable/token/ERC20/ERC20Upgradeable.sol\":11216:11306  if (spender == address(0)) {... */\n    tag_607:\n      sub(shl(0xa0, 0x01), 0x01)\n        /* \"@openzeppelin/contracts-upgradeable/token/ERC20/ERC20Upgradeable.sol\":11315:11335  $._allowances[owner] */\n      dup1\n      dup7\n      and\n      0x00\n      swap1\n      dup2\n      mstore\n        /* \"@openzeppelin/contracts-upgradeable/token/ERC20/ERC20Upgradeable.sol\":11315:11328  $._allowances */\n      0x01\n      dup4\n      add\n        /* \"@openzeppelin/contracts-upgradeable/token/ERC20/ERC20Upgradeable.sol\":11315:11335  $._allowances[owner] */\n      0x20\n      swap1\n      dup2\n      mstore\n      0x40\n      dup1\n      dup4\n      keccak256\n        /* \"@openzeppelin/contracts-upgradeable/token/ERC20/ERC20Upgradeable.sol\":11315:11344  $._allowances[owner][spender] */\n      swap4\n      dup9\n      and\n      dup4\n      mstore\n      swap3\n      swap1\n      mstore\n      keccak256\n        /* \"@openzeppelin/contracts-upgradeable/token/ERC20/ERC20Upgradeable.sol\":11315:11352  $._allowances[owner][spender] = value */\n      dup4\n      swap1\n      sstore\n        /* \"@openzeppelin/contracts-upgradeable/token/ERC20/ERC20Upgradeable.sol\":11362:11438  if (emitEvent) {... */\n      dup2\n      iszero\n      tag_609\n      jumpi\n        /* \"@openzeppelin/contracts-upgradeable/token/ERC20/ERC20Upgradeable.sol\":11412:11419  spender */\n      dup4\n      sub(shl(0xa0, 0x01), 0x01)\n        /* \"@openzeppelin/contracts-upgradeable/token/ERC20/ERC20Upgradeable.sol\":11396:11427  Approval(owner, spender, value) */\n      and\n        /* \"@openzeppelin/contracts-upgradeable/token/ERC20/ERC20Upgradeable.sol\":11405:11410  owner */\n      dup6\n      sub(shl(0xa0, 0x01), 0x01)\n        /* \"@openzeppelin/contracts-upgradeable/token/ERC20/ERC20Upgradeable.sol\":11396:11427  Approval(owner, spender, value) */\n      and\n      0x8c5be1e5ebec7d5bd14f71427d1e84f3dd0314c0f7b2291e5b200ac8c7c3b925\n        /* \"@openzeppelin/contracts-upgradeable/token/ERC20/ERC20Upgradeable.sol\":11421:11426  value */\n      dup6\n        /* \"@openzeppelin/contracts-upgradeable/token/ERC20/ERC20Upgradeable.sol\":11396:11427  Approval(owner, spender, value) */\n      mload(0x40)\n      tag_610\n      swap2\n        /* \"#utility.yul\":3552:3577   */\n      dup2\n      mstore\n        /* \"#utility.yul\":3540:3542   */\n      0x20\n        /* \"#utility.yul\":3525:3543   */\n      add\n      swap1\n        /* \"#utility.yul\":3406:3583   */\n      jump\n        /* \"@openzeppelin/contracts-upgradeable/token/ERC20/ERC20Upgradeable.sol\":11396:11427  Approval(owner, spender, value) */\n    tag_610:\n      mload(0x40)\n      dup1\n      swap2\n      sub\n      swap1\n      log3\n        /* \"@openzeppelin/contracts-upgradeable/token/ERC20/ERC20Upgradeable.sol\":11362:11438  if (emitEvent) {... */\n    tag_609:\n        /* \"@openzeppelin/contracts-upgradeable/token/ERC20/ERC20Upgradeable.sol\":11055:11444  {... */\n      pop\n        /* \"@openzeppelin/contracts-upgradeable/token/ERC20/ERC20Upgradeable.sol\":10957:11444  function _approve(address owner, address spender, uint256 value, bool emitEvent) internal virtual {... */\n      pop\n      pop\n      pop\n      pop\n      jump\t// out\n        /* \"@openzeppelin/contracts-upgradeable/access/AccessControlUpgradeable.sol\":4381:4578  function _checkRole(bytes32 role, address account) internal view virtual {... */\n    tag_506:\n        /* \"@openzeppelin/contracts-upgradeable/access/AccessControlUpgradeable.sol\":4469:4491  hasRole(role, account) */\n      tag_612\n        /* \"@openzeppelin/contracts-upgradeable/access/AccessControlUpgradeable.sol\":4477:4481  role */\n      dup3\n        /* \"@openzeppelin/contracts-upgradeable/access/AccessControlUpgradeable.sol\":4483:4490  account */\n      dup3\n        /* \"@openzeppelin/contracts-upgradeable/access/AccessControlUpgradeable.sol\":4469:4476  hasRole */\n      tag_151\n        /* \"@openzeppelin/contracts-upgradeable/access/AccessControlUpgradeable.sol\":4469:4491  hasRole(role, account) */\n      jump\t// in\n    tag_612:\n        /* \"@openzeppelin/contracts-upgradeable/access/AccessControlUpgradeable.sol\":4464:4572  if (!hasRole(role, account)) {... */\n      tag_355\n      jumpi\n        /* \"@openzeppelin/contracts-upgradeable/access/AccessControlUpgradeable.sol\":4514:4561  AccessControlUnauthorizedAccount(account, role) */\n      mload(0x40)\n      shl(0xe0, 0xe2517d3f)\n      dup2\n      mstore\n      sub(shl(0xa0, 0x01), 0x01)\n        /* \"#utility.yul\":17339:17371   */\n      dup3\n      and\n        /* \"@openzeppelin/contracts-upgradeable/access/AccessControlUpgradeable.sol\":4514:4561  AccessControlUnauthorizedAccount(account, role) */\n      0x04\n      dup3\n      add\n        /* \"#utility.yul\":17321:17372   */\n      mstore\n        /* \"#utility.yul\":17388:17406   */\n      0x24\n      dup2\n      add\n        /* \"#utility.yul\":17381:17415   */\n      dup4\n      swap1\n      mstore\n        /* \"#utility.yul\":17294:17312   */\n      0x44\n      add\n        /* \"@openzeppelin/contracts-upgradeable/access/AccessControlUpgradeable.sol\":4514:4561  AccessControlUnauthorizedAccount(account, role) */\n      tag_223\n        /* \"#utility.yul\":17147:17421   */\n      jump\n        /* \"@openzeppelin/contracts-upgradeable/token/ERC20/ERC20Upgradeable.sol\":7201:8371  function _update(address from, address to, uint256 value) internal virtual {... */\n    tag_524:\n      mload(0x00)\n      codecopy(0x00, data_3874827173e8df9f34323b12b251d1d3c53926ce129e30a0d69f1d47c277041b, 0x20)\n      mload(0x00)\n      swap1\n      0x00\n      mstore\n      sub(shl(0xa0, 0x01), 0x01)\n        /* \"@openzeppelin/contracts-upgradeable/token/ERC20/ERC20Upgradeable.sol\":7343:7361  from == address(0) */\n      dup5\n      and\n        /* \"@openzeppelin/contracts-upgradeable/token/ERC20/ERC20Upgradeable.sol\":7339:7885  if (from == address(0)) {... */\n      tag_618\n      jumpi\n        /* \"@openzeppelin/contracts-upgradeable/token/ERC20/ERC20Upgradeable.sol\":7497:7502  value */\n      dup2\n        /* \"@openzeppelin/contracts-upgradeable/token/ERC20/ERC20Upgradeable.sol\":7479:7480  $ */\n      dup2\n        /* \"@openzeppelin/contracts-upgradeable/token/ERC20/ERC20Upgradeable.sol\":7479:7493  $._totalSupply */\n      0x02\n      add\n      0x00\n        /* \"@openzeppelin/contracts-upgradeable/token/ERC20/ERC20Upgradeable.sol\":7479:7502  $._totalSupply += value */\n      dup3\n      dup3\n      sload\n      tag_619\n      swap2\n      swap1\n      tag_262\n      jump\t// in\n    tag_619:\n      swap1\n      swap2\n      sstore\n      pop\n        /* \"@openzeppelin/contracts-upgradeable/token/ERC20/ERC20Upgradeable.sol\":7339:7885  if (from == address(0)) {... */\n      tag_620\n      swap1\n      pop\n      jump\n    tag_618:\n      sub(shl(0xa0, 0x01), 0x01)\n        /* \"@openzeppelin/contracts-upgradeable/token/ERC20/ERC20Upgradeable.sol\":7555:7572  $._balances[from] */\n      dup5\n      and\n        /* \"@openzeppelin/contracts-upgradeable/token/ERC20/ERC20Upgradeable.sol\":7533:7552  uint256 fromBalance */\n      0x00\n        /* \"@openzeppelin/contracts-upgradeable/token/ERC20/ERC20Upgradeable.sol\":7555:7572  $._balances[from] */\n      swap1\n      dup2\n      mstore\n      0x20\n      dup3\n      swap1\n      mstore\n      0x40\n      swap1\n      keccak256\n      sload\n        /* \"@openzeppelin/contracts-upgradeable/token/ERC20/ERC20Upgradeable.sol\":7590:7609  fromBalance < value */\n      dup3\n      dup2\n      lt\n        /* \"@openzeppelin/contracts-upgradeable/token/ERC20/ERC20Upgradeable.sol\":7586:7701  if (fromBalance < value) {... */\n      iszero\n      tag_621\n      jumpi\n        /* \"@openzeppelin/contracts-upgradeable/token/ERC20/ERC20Upgradeable.sol\":7636:7686  ERC20InsufficientBalance(from, fromBalance, value) */\n      mload(0x40)\n      shl(0xe2, 0x391434e3)\n      dup2\n      mstore\n      sub(shl(0xa0, 0x01), 0x01)\n        /* \"#utility.yul\":14137:14169   */\n      dup7\n      and\n        /* \"@openzeppelin/contracts-upgradeable/token/ERC20/ERC20Upgradeable.sol\":7636:7686  ERC20InsufficientBalance(from, fromBalance, value) */\n      0x04\n      dup3\n      add\n        /* \"#utility.yul\":14119:14170   */\n      mstore\n        /* \"#utility.yul\":14186:14204   */\n      0x24\n      dup2\n      add\n        /* \"#utility.yul\":14179:14213   */\n      dup3\n      swap1\n      mstore\n        /* \"#utility.yul\":14229:14247   */\n      0x44\n      dup2\n      add\n        /* \"#utility.yul\":14222:14256   */\n      dup5\n      swap1\n      mstore\n        /* \"#utility.yul\":14092:14110   */\n      0x64\n      add\n        /* \"@openzeppelin/contracts-upgradeable/token/ERC20/ERC20Upgradeable.sol\":7636:7686  ERC20InsufficientBalance(from, fromBalance, value) */\n      tag_223\n        /* \"#utility.yul\":13917:14262   */\n      jump\n        /* \"@openzeppelin/contracts-upgradeable/token/ERC20/ERC20Upgradeable.sol\":7586:7701  if (fromBalance < value) {... */\n    tag_621:\n      sub(shl(0xa0, 0x01), 0x01)\n        /* \"@openzeppelin/contracts-upgradeable/token/ERC20/ERC20Upgradeable.sol\":7821:7838  $._balances[from] */\n      dup6\n      and\n        /* \"@openzeppelin/contracts-upgradeable/token/ERC20/ERC20Upgradeable.sol\":7821:7832  $._balances */\n      0x00\n        /* \"@openzeppelin/contracts-upgradeable/token/ERC20/ERC20Upgradeable.sol\":7821:7838  $._balances[from] */\n      swap1\n      dup2\n      mstore\n      0x20\n      dup4\n      swap1\n      mstore\n      0x40\n      swap1\n      keccak256\n        /* \"@openzeppelin/contracts-upgradeable/token/ERC20/ERC20Upgradeable.sol\":7841:7860  fromBalance - value */\n      swap1\n      dup4\n      swap1\n      sub\n        /* \"@openzeppelin/contracts-upgradeable/token/ERC20/ERC20Upgradeable.sol\":7821:7860  $._balances[from] = fromBalance - value */\n      swap1\n      sstore\n        /* \"@openzeppelin/contracts-upgradeable/token/ERC20/ERC20Upgradeable.sol\":7339:7885  if (from == address(0)) {... */\n    tag_620:\n      sub(shl(0xa0, 0x01), 0x01)\n        /* \"@openzeppelin/contracts-upgradeable/token/ERC20/ERC20Upgradeable.sol\":7899:7915  to == address(0) */\n      dup4\n      and\n        /* \"@openzeppelin/contracts-upgradeable/token/ERC20/ERC20Upgradeable.sol\":7895:8324  if (to == address(0)) {... */\n      tag_623\n      jumpi\n        /* \"@openzeppelin/contracts-upgradeable/token/ERC20/ERC20Upgradeable.sol\":8062:8076  $._totalSupply */\n      0x02\n      dup2\n      add\n        /* \"@openzeppelin/contracts-upgradeable/token/ERC20/ERC20Upgradeable.sol\":8062:8085  $._totalSupply -= value */\n      dup1\n      sload\n      dup4\n      swap1\n      sub\n      swap1\n      sstore\n        /* \"@openzeppelin/contracts-upgradeable/token/ERC20/ERC20Upgradeable.sol\":7895:8324  if (to == address(0)) {... */\n      jump(tag_624)\n    tag_623:\n      sub(shl(0xa0, 0x01), 0x01)\n        /* \"@openzeppelin/contracts-upgradeable/token/ERC20/ERC20Upgradeable.sol\":8275:8290  $._balances[to] */\n      dup4\n      and\n        /* \"@openzeppelin/contracts-upgradeable/token/ERC20/ERC20Upgradeable.sol\":8275:8286  $._balances */\n      0x00\n        /* \"@openzeppelin/contracts-upgradeable/token/ERC20/ERC20Upgradeable.sol\":8275:8290  $._balances[to] */\n      swap1\n      dup2\n      mstore\n      0x20\n      dup3\n      swap1\n      mstore\n      0x40\n      swap1\n      keccak256\n        /* \"@openzeppelin/contracts-upgradeable/token/ERC20/ERC20Upgradeable.sol\":8275:8299  $._balances[to] += value */\n      dup1\n      sload\n      dup4\n      add\n      swap1\n      sstore\n        /* \"@openzeppelin/contracts-upgradeable/token/ERC20/ERC20Upgradeable.sol\":7895:8324  if (to == address(0)) {... */\n    tag_624:\n        /* \"@openzeppelin/contracts-upgradeable/token/ERC20/ERC20Upgradeable.sol\":8354:8356  to */\n      dup3\n      sub(shl(0xa0, 0x01), 0x01)\n        /* \"@openzeppelin/contracts-upgradeable/token/ERC20/ERC20Upgradeable.sol\":8339:8364  Transfer(from, to, value) */\n      and\n        /* \"@openzeppelin/contracts-upgradeable/token/ERC20/ERC20Upgradeable.sol\":8348:8352  from */\n      dup5\n      sub(shl(0xa0, 0x01), 0x01)\n        /* \"@openzeppelin/contracts-upgradeable/token/ERC20/ERC20Upgradeable.sol\":8339:8364  Transfer(from, to, value) */\n      and\n      0xddf252ad1be2c89b69c2b068fc378daa952ba7f163c4a11628f55a4df523b3ef\n        /* \"@openzeppelin/contracts-upgradeable/token/ERC20/ERC20Upgradeable.sol\":8358:8363  value */\n      dup5\n        /* \"@openzeppelin/contracts-upgradeable/token/ERC20/ERC20Upgradeable.sol\":8339:8364  Transfer(from, to, value) */\n      mload(0x40)\n      tag_625\n      swap2\n        /* \"#utility.yul\":3552:3577   */\n      dup2\n      mstore\n        /* \"#utility.yul\":3540:3542   */\n      0x20\n        /* \"#utility.yul\":3525:3543   */\n      add\n      swap1\n        /* \"#utility.yul\":3406:3583   */\n      jump\n        /* \"@openzeppelin/contracts-upgradeable/token/ERC20/ERC20Upgradeable.sol\":8339:8364  Transfer(from, to, value) */\n    tag_625:\n      mload(0x40)\n      dup1\n      swap2\n      sub\n      swap1\n      log3\n        /* \"@openzeppelin/contracts-upgradeable/token/ERC20/ERC20Upgradeable.sol\":7276:8371  {... */\n      pop\n        /* \"@openzeppelin/contracts-upgradeable/token/ERC20/ERC20Upgradeable.sol\":7201:8371  function _update(address from, address to, uint256 value) internal virtual {... */\n      pop\n      pop\n      pop\n      jump\t// out\n        /* \"@openzeppelin/contracts-upgradeable/utils/PausableUpgradeable.sol\":2909:3035  function _requirePaused() internal view virtual {... */\n    tag_534:\n      mload(0x00)\n      codecopy(0x00, data_c0c65a3718f3702d917c44106b91645b509d2e2d0979b70495c3babce192339f, 0x20)\n      mload(0x00)\n      swap1\n      0x00\n      mstore\n        /* \"@openzeppelin/contracts-upgradeable/utils/PausableUpgradeable.sol\":2625:2634  $._paused */\n      sload\n      0xff\n      and\n        /* \"@openzeppelin/contracts-upgradeable/utils/PausableUpgradeable.sol\":2967:3029  if (!paused()) {... */\n      tag_480\n      jumpi\n        /* \"@openzeppelin/contracts-upgradeable/utils/PausableUpgradeable.sol\":3003:3018  ExpectedPause() */\n      mload(0x40)\n      shl(0xe0, 0x8dfc202b)\n      dup2\n      mstore\n      0x04\n      add\n      mload(0x40)\n      dup1\n      swap2\n      sub\n      swap1\n      revert\n        /* \"@openzeppelin/contracts/proxy/ERC1967/ERC1967Utils.sol\":2264:2608  function upgradeToAndCall(address newImplementation, bytes memory data) internal {... */\n    tag_573:\n        /* \"@openzeppelin/contracts/proxy/ERC1967/ERC1967Utils.sol\":2355:2392  _setImplementation(newImplementation) */\n      tag_634\n        /* \"@openzeppelin/contracts/proxy/ERC1967/ERC1967Utils.sol\":2374:2391  newImplementation */\n      dup3\n        /* \"@openzeppelin/contracts/proxy/ERC1967/ERC1967Utils.sol\":2355:2373  _setImplementation */\n      tag_635\n        /* \"@openzeppelin/contracts/proxy/ERC1967/ERC1967Utils.sol\":2355:2392  _setImplementation(newImplementation) */\n      jump\t// in\n    tag_634:\n        /* \"@openzeppelin/contracts/proxy/ERC1967/ERC1967Utils.sol\":2407:2443  IERC1967.Upgraded(newImplementation) */\n      mload(0x40)\n      sub(shl(0xa0, 0x01), 0x01)\n      dup4\n      and\n      swap1\n      0xbc7cd75a20ee27fd9adebab32041f755214dbc6bffa90cc0225b39da2e5c2d3b\n      swap1\n      0x00\n      swap1\n      log2\n        /* \"@openzeppelin/contracts/proxy/ERC1967/ERC1967Utils.sol\":2458:2469  data.length */\n      dup1\n      mload\n        /* \"@openzeppelin/contracts/proxy/ERC1967/ERC1967Utils.sol\":2458:2473  data.length > 0 */\n      iszero\n        /* \"@openzeppelin/contracts/proxy/ERC1967/ERC1967Utils.sol\":2454:2602  if (data.length > 0) {... */\n      tag_636\n      jumpi\n        /* \"@openzeppelin/contracts/proxy/ERC1967/ERC1967Utils.sol\":2489:2542  Address.functionDelegateCall(newImplementation, data) */\n      tag_321\n        /* \"@openzeppelin/contracts/proxy/ERC1967/ERC1967Utils.sol\":2518:2535  newImplementation */\n      dup3\n        /* \"@openzeppelin/contracts/proxy/ERC1967/ERC1967Utils.sol\":2537:2541  data */\n      dup3\n        /* \"@openzeppelin/contracts/proxy/ERC1967/ERC1967Utils.sol\":2489:2517  Address.functionDelegateCall */\n      tag_638\n        /* \"@openzeppelin/contracts/proxy/ERC1967/ERC1967Utils.sol\":2489:2542  Address.functionDelegateCall(newImplementation, data) */\n      jump\t// in\n        /* \"@openzeppelin/contracts/proxy/ERC1967/ERC1967Utils.sol\":2454:2602  if (data.length > 0) {... */\n    tag_636:\n        /* \"@openzeppelin/contracts/proxy/ERC1967/ERC1967Utils.sol\":2573:2591  _checkNonPayable() */\n      tag_355\n        /* \"@openzeppelin/contracts/proxy/ERC1967/ERC1967Utils.sol\":2573:2589  _checkNonPayable */\n      tag_641\n        /* \"@openzeppelin/contracts/proxy/ERC1967/ERC1967Utils.sol\":2573:2591  _checkNonPayable() */\n      jump\t// in\n        /* \"@openzeppelin/contracts-upgradeable/proxy/utils/Initializable.sol\":8485:8605  function _isInitializing() internal view returns (bool) {... */\n    tag_590:\n        /* \"@openzeppelin/contracts-upgradeable/proxy/utils/Initializable.sol\":8535:8539  bool */\n      0x00\n        /* \"@openzeppelin/contracts-upgradeable/proxy/utils/Initializable.sol\":8558:8584  _getInitializableStorage() */\n      tag_643\n        /* \"@openzeppelin/contracts-upgradeable/proxy/utils/Initializable.sol\":8558:8582  _getInitializableStorage */\n      tag_215\n        /* \"@openzeppelin/contracts-upgradeable/proxy/utils/Initializable.sol\":8558:8584  _getInitializableStorage() */\n      jump\t// in\n    tag_643:\n        /* \"@openzeppelin/contracts-upgradeable/proxy/utils/Initializable.sol\":8558:8598  _getInitializableStorage()._initializing */\n      sload\n      shl(0x40, 0x01)\n      swap1\n      div\n      0xff\n      and\n      swap2\n      swap1\n      pop\n        /* \"@openzeppelin/contracts-upgradeable/proxy/utils/Initializable.sol\":8485:8605  function _isInitializing() internal view returns (bool) {... */\n      jump\t// out\n        /* \"@openzeppelin/contracts/proxy/ERC1967/ERC1967Utils.sol\":1671:1952  function _setImplementation(address newImplementation) private {... */\n    tag_635:\n        /* \"@openzeppelin/contracts/proxy/ERC1967/ERC1967Utils.sol\":1748:1765  newImplementation */\n      dup1\n      sub(shl(0xa0, 0x01), 0x01)\n        /* \"@openzeppelin/contracts/proxy/ERC1967/ERC1967Utils.sol\":1748:1777  newImplementation.code.length */\n      and\n      extcodesize\n        /* \"@openzeppelin/contracts/proxy/ERC1967/ERC1967Utils.sol\":1781:1782  0 */\n      0x00\n        /* \"@openzeppelin/contracts/proxy/ERC1967/ERC1967Utils.sol\":1748:1782  newImplementation.code.length == 0 */\n      sub\n        /* \"@openzeppelin/contracts/proxy/ERC1967/ERC1967Utils.sol\":1744:1863  if (newImplementation.code.length == 0) {... */\n      tag_646\n      jumpi\n        /* \"@openzeppelin/contracts/proxy/ERC1967/ERC1967Utils.sol\":1805:1852  ERC1967InvalidImplementation(newImplementation) */\n      mload(0x40)\n      shl(0xe0, 0x4c9c8ce3)\n      dup2\n      mstore\n      sub(shl(0xa0, 0x01), 0x01)\n        /* \"#utility.yul\":14431:14463   */\n      dup3\n      and\n        /* \"@openzeppelin/contracts/proxy/ERC1967/ERC1967Utils.sol\":1805:1852  ERC1967InvalidImplementation(newImplementation) */\n      0x04\n      dup3\n      add\n        /* \"#utility.yul\":14413:14464   */\n      mstore\n        /* \"#utility.yul\":14386:14404   */\n      0x24\n      add\n        /* \"@openzeppelin/contracts/proxy/ERC1967/ERC1967Utils.sol\":1805:1852  ERC1967InvalidImplementation(newImplementation) */\n      tag_223\n        /* \"#utility.yul\":14267:14470   */\n      jump\n        /* \"@openzeppelin/contracts/proxy/ERC1967/ERC1967Utils.sol\":1744:1863  if (newImplementation.code.length == 0) {... */\n    tag_646:\n      mload(0x00)\n      codecopy(0x00, data_75b20eef8615de99c108b05f0dbda081c91897128caa336d75dffb97c4132b4d, 0x20)\n      mload(0x00)\n      swap1\n      0x00\n      mstore\n        /* \"@openzeppelin/contracts/proxy/ERC1967/ERC1967Utils.sol\":1872:1945  StorageSlot.getAddressSlot(IMPLEMENTATION_SLOT).value = newImplementation */\n      dup1\n      sload\n      not(sub(shl(0xa0, 0x01), 0x01))\n      and\n      sub(shl(0xa0, 0x01), 0x01)\n      swap3\n      swap1\n      swap3\n      and\n      swap2\n      swap1\n      swap2\n      or\n      swap1\n      sstore\n        /* \"@openzeppelin/contracts/proxy/ERC1967/ERC1967Utils.sol\":1671:1952  function _setImplementation(address newImplementation) private {... */\n      jump\t// out\n        /* \"@openzeppelin/contracts/utils/Address.sol\":3916:4169  function functionDelegateCall(address target, bytes memory data) internal returns (bytes memory) {... */\n    tag_638:\n        /* \"@openzeppelin/contracts/utils/Address.sol\":3999:4011  bytes memory */\n      0x60\n        /* \"@openzeppelin/contracts/utils/Address.sol\":4024:4036  bool success */\n      0x00\n        /* \"@openzeppelin/contracts/utils/Address.sol\":4038:4061  bytes memory returndata */\n      0x00\n        /* \"@openzeppelin/contracts/utils/Address.sol\":4065:4071  target */\n      dup5\n      sub(shl(0xa0, 0x01), 0x01)\n        /* \"@openzeppelin/contracts/utils/Address.sol\":4065:4084  target.delegatecall */\n      and\n        /* \"@openzeppelin/contracts/utils/Address.sol\":4085:4089  data */\n      dup5\n        /* \"@openzeppelin/contracts/utils/Address.sol\":4065:4090  target.delegatecall(data) */\n      mload(0x40)\n      tag_650\n      swap2\n      swap1\n      tag_651\n      jump\t// in\n    tag_650:\n      0x00\n      mload(0x40)\n      dup1\n      dup4\n      sub\n      dup2\n      dup6\n      gas\n      delegatecall\n      swap2\n      pop\n      pop\n      returndatasize\n      dup1\n      0x00\n      dup2\n      eq\n      tag_654\n      jumpi\n      mload(0x40)\n      swap2\n      pop\n      and(add(returndatasize, 0x3f), not(0x1f))\n      dup3\n      add\n      0x40\n      mstore\n      returndatasize\n      dup3\n      mstore\n      returndatasize\n      0x00\n      0x20\n      dup5\n      add\n      returndatacopy\n      jump(tag_653)\n    tag_654:\n      0x60\n      swap2\n      pop\n    tag_653:\n      pop\n        /* \"@openzeppelin/contracts/utils/Address.sol\":4023:4090  (bool success, bytes memory returndata) = target.delegatecall(data) */\n      swap2\n      pop\n      swap2\n      pop\n        /* \"@openzeppelin/contracts/utils/Address.sol\":4107:4162  verifyCallResultFromTarget(target, success, returndata) */\n      tag_655\n        /* \"@openzeppelin/contracts/utils/Address.sol\":4134:4140  target */\n      dup6\n        /* \"@openzeppelin/contracts/utils/Address.sol\":4142:4149  success */\n      dup4\n        /* \"@openzeppelin/contracts/utils/Address.sol\":4151:4161  returndata */\n      dup4\n        /* \"@openzeppelin/contracts/utils/Address.sol\":4107:4133  verifyCallResultFromTarget */\n      tag_656\n        /* \"@openzeppelin/contracts/utils/Address.sol\":4107:4162  verifyCallResultFromTarget(target, success, returndata) */\n      jump\t// in\n    tag_655:\n        /* \"@openzeppelin/contracts/utils/Address.sol\":4100:4162  return verifyCallResultFromTarget(target, success, returndata) */\n      swap6\n        /* \"@openzeppelin/contracts/utils/Address.sol\":3916:4169  function functionDelegateCall(address target, bytes memory data) internal returns (bytes memory) {... */\n      swap5\n      pop\n      pop\n      pop\n      pop\n      pop\n      jump\t// out\n        /* \"@openzeppelin/contracts/proxy/ERC1967/ERC1967Utils.sol\":6113:6235  function _checkNonPayable() private {... */\n    tag_641:\n        /* \"@openzeppelin/contracts/proxy/ERC1967/ERC1967Utils.sol\":6163:6172  msg.value */\n      callvalue\n        /* \"@openzeppelin/contracts/proxy/ERC1967/ERC1967Utils.sol\":6163:6176  msg.value > 0 */\n      iszero\n        /* \"@openzeppelin/contracts/proxy/ERC1967/ERC1967Utils.sol\":6159:6229  if (msg.value > 0) {... */\n      tag_480\n      jumpi\n        /* \"@openzeppelin/contracts/proxy/ERC1967/ERC1967Utils.sol\":6199:6218  ERC1967NonPayable() */\n      mload(0x40)\n      shl(0xe0, 0xb398979f)\n      dup2\n      mstore\n      0x04\n      add\n      mload(0x40)\n      dup1\n      swap2\n      sub\n      swap1\n      revert\n        /* \"@openzeppelin/contracts/utils/Address.sol\":4437:5019  function verifyCallResultFromTarget(... */\n    tag_656:\n        /* \"@openzeppelin/contracts/utils/Address.sol\":4581:4593  bytes memory */\n      0x60\n        /* \"@openzeppelin/contracts/utils/Address.sol\":4610:4617  success */\n      dup3\n        /* \"@openzeppelin/contracts/utils/Address.sol\":4605:5013  if (!success) {... */\n      tag_660\n      jumpi\n        /* \"@openzeppelin/contracts/utils/Address.sol\":4633:4652  _revert(returndata) */\n      tag_661\n        /* \"@openzeppelin/contracts/utils/Address.sol\":4641:4651  returndata */\n      dup3\n        /* \"@openzeppelin/contracts/utils/Address.sol\":4633:4640  _revert */\n      tag_662\n        /* \"@openzeppelin/contracts/utils/Address.sol\":4633:4652  _revert(returndata) */\n      jump\t// in\n    tag_661:\n        /* \"@openzeppelin/contracts/utils/Address.sol\":4605:5013  if (!success) {... */\n      jump(tag_285)\n    tag_660:\n        /* \"@openzeppelin/contracts/utils/Address.sol\":4857:4874  returndata.length */\n      dup2\n      mload\n        /* \"@openzeppelin/contracts/utils/Address.sol\":4857:4879  returndata.length == 0 */\n      iszero\n        /* \"@openzeppelin/contracts/utils/Address.sol\":4857:4906  returndata.length == 0 && target.code.length == 0 */\n      dup1\n      iszero\n      tag_664\n      jumpi\n      pop\n      sub(shl(0xa0, 0x01), 0x01)\n        /* \"@openzeppelin/contracts/utils/Address.sol\":4883:4901  target.code.length */\n      dup5\n      and\n      extcodesize\n        /* \"@openzeppelin/contracts/utils/Address.sol\":4883:4906  target.code.length == 0 */\n      iszero\n        /* \"@openzeppelin/contracts/utils/Address.sol\":4857:4906  returndata.length == 0 && target.code.length == 0 */\n    tag_664:\n        /* \"@openzeppelin/contracts/utils/Address.sol\":4853:4972  if (returndata.length == 0 && target.code.length == 0) {... */\n      iszero\n      tag_665\n      jumpi\n        /* \"@openzeppelin/contracts/utils/Address.sol\":4933:4957  AddressEmptyCode(target) */\n      mload(0x40)\n      shl(0xe0, 0x9996b315)\n      dup2\n      mstore\n      sub(shl(0xa0, 0x01), 0x01)\n        /* \"#utility.yul\":14431:14463   */\n      dup6\n      and\n        /* \"@openzeppelin/contracts/utils/Address.sol\":4933:4957  AddressEmptyCode(target) */\n      0x04\n      dup3\n      add\n        /* \"#utility.yul\":14413:14464   */\n      mstore\n        /* \"#utility.yul\":14386:14404   */\n      0x24\n      add\n        /* \"@openzeppelin/contracts/utils/Address.sol\":4933:4957  AddressEmptyCode(target) */\n      tag_223\n        /* \"#utility.yul\":14267:14470   */\n      jump\n        /* \"@openzeppelin/contracts/utils/Address.sol\":4853:4972  if (returndata.length == 0 && target.code.length == 0) {... */\n    tag_665:\n      pop\n        /* \"@openzeppelin/contracts/utils/Address.sol\":4992:5002  returndata */\n      dup1\n        /* \"@openzeppelin/contracts/utils/Address.sol\":4985:5002  return returndata */\n      jump(tag_285)\n        /* \"@openzeppelin/contracts/utils/Address.sol\":5559:6046  function _revert(bytes memory returndata) private pure {... */\n    tag_662:\n        /* \"@openzeppelin/contracts/utils/Address.sol\":5690:5707  returndata.length */\n      dup1\n      mload\n        /* \"@openzeppelin/contracts/utils/Address.sol\":5690:5711  returndata.length > 0 */\n      iszero\n        /* \"@openzeppelin/contracts/utils/Address.sol\":5686:6040  if (returndata.length > 0) {... */\n      tag_668\n      jumpi\n        /* \"@openzeppelin/contracts/utils/Address.sol\":5887:5897  returndata */\n      dup1\n        /* \"@openzeppelin/contracts/utils/Address.sol\":5881:5898  mload(returndata) */\n      mload\n        /* \"@openzeppelin/contracts/utils/Address.sol\":5943:5958  returndata_size */\n      dup1\n        /* \"@openzeppelin/contracts/utils/Address.sol\":5930:5940  returndata */\n      dup3\n        /* \"@openzeppelin/contracts/utils/Address.sol\":5926:5928  32 */\n      0x20\n        /* \"@openzeppelin/contracts/utils/Address.sol\":5922:5941  add(32, returndata) */\n      add\n        /* \"@openzeppelin/contracts/utils/Address.sol\":5915:5959  revert(add(32, returndata), returndata_size) */\n      revert\n        /* \"@openzeppelin/contracts/utils/Address.sol\":5686:6040  if (returndata.length > 0) {... */\n    tag_668:\n        /* \"@openzeppelin/contracts/utils/Address.sol\":6010:6029  Errors.FailedCall() */\n      mload(0x40)\n      shl(0xe0, 0xd6bda275)\n      dup2\n      mstore\n      0x04\n      add\n      mload(0x40)\n      dup1\n      swap2\n      sub\n      swap1\n      revert\n        /* \"#utility.yul\":14:300   */\n    tag_46:\n        /* \"#utility.yul\":72:78   */\n      0x00\n        /* \"#utility.yul\":125:127   */\n      0x20\n        /* \"#utility.yul\":113:122   */\n      dup3\n        /* \"#utility.yul\":104:111   */\n      dup5\n        /* \"#utility.yul\":100:123   */\n      sub\n        /* \"#utility.yul\":96:128   */\n      slt\n        /* \"#utility.yul\":93:145   */\n      iszero\n      tag_680\n      jumpi\n        /* \"#utility.yul\":141:142   */\n      0x00\n        /* \"#utility.yul\":138:139   */\n      0x00\n        /* \"#utility.yul\":131:143   */\n      revert\n        /* \"#utility.yul\":93:145   */\n    tag_680:\n        /* \"#utility.yul\":167:190   */\n      dup2\n      calldataload\n      not(sub(shl(0xe0, 0x01), 0x01))\n        /* \"#utility.yul\":219:251   */\n      dup2\n      and\n        /* \"#utility.yul\":209:252   */\n      dup2\n      eq\n        /* \"#utility.yul\":199:270   */\n      tag_285\n      jumpi\n        /* \"#utility.yul\":266:267   */\n      0x00\n        /* \"#utility.yul\":263:264   */\n      0x00\n        /* \"#utility.yul\":256:268   */\n      revert\n        /* \"#utility.yul\":497:915   */\n    tag_54:\n        /* \"#utility.yul\":646:648   */\n      0x20\n        /* \"#utility.yul\":635:644   */\n      dup2\n        /* \"#utility.yul\":628:649   */\n      mstore\n        /* \"#utility.yul\":609:613   */\n      0x00\n        /* \"#utility.yul\":678:684   */\n      dup3\n        /* \"#utility.yul\":672:685   */\n      mload\n        /* \"#utility.yul\":721:727   */\n      dup1\n        /* \"#utility.yul\":716:718   */\n      0x20\n        /* \"#utility.yul\":705:714   */\n      dup5\n        /* \"#utility.yul\":701:719   */\n      add\n        /* \"#utility.yul\":694:728   */\n      mstore\n        /* \"#utility.yul\":780:786   */\n      dup1\n        /* \"#utility.yul\":775:777   */\n      0x20\n        /* \"#utility.yul\":767:773   */\n      dup6\n        /* \"#utility.yul\":763:778   */\n      add\n        /* \"#utility.yul\":758:760   */\n      0x40\n        /* \"#utility.yul\":747:756   */\n      dup6\n        /* \"#utility.yul\":743:761   */\n      add\n        /* \"#utility.yul\":737:787   */\n      mcopy\n        /* \"#utility.yul\":836:837   */\n      0x00\n        /* \"#utility.yul\":831:833   */\n      0x40\n        /* \"#utility.yul\":822:828   */\n      dup3\n        /* \"#utility.yul\":811:820   */\n      dup6\n        /* \"#utility.yul\":807:829   */\n      add\n        /* \"#utility.yul\":803:834   */\n      add\n        /* \"#utility.yul\":796:838   */\n      mstore\n        /* \"#utility.yul\":906:908   */\n      0x40\n        /* \"#utility.yul\":899:901   */\n      0x1f\n        /* \"#utility.yul\":895:902   */\n      not\n        /* \"#utility.yul\":890:892   */\n      0x1f\n        /* \"#utility.yul\":882:888   */\n      dup4\n        /* \"#utility.yul\":878:893   */\n      add\n        /* \"#utility.yul\":874:903   */\n      and\n        /* \"#utility.yul\":863:872   */\n      dup5\n        /* \"#utility.yul\":859:904   */\n      add\n        /* \"#utility.yul\":855:909   */\n      add\n        /* \"#utility.yul\":847:909   */\n      swap2\n      pop\n      pop\n        /* \"#utility.yul\":497:915   */\n      swap3\n      swap2\n      pop\n      pop\n      jump\t// out\n        /* \"#utility.yul\":920:1268   */\n    tag_670:\n        /* \"#utility.yul\":972:980   */\n      0x00\n        /* \"#utility.yul\":982:988   */\n      0x00\n        /* \"#utility.yul\":1036:1039   */\n      dup4\n        /* \"#utility.yul\":1029:1033   */\n      0x1f\n        /* \"#utility.yul\":1021:1027   */\n      dup5\n        /* \"#utility.yul\":1017:1034   */\n      add\n        /* \"#utility.yul\":1013:1040   */\n      slt\n        /* \"#utility.yul\":1003:1058   */\n      tag_685\n      jumpi\n        /* \"#utility.yul\":1054:1055   */\n      0x00\n        /* \"#utility.yul\":1051:1052   */\n      0x00\n        /* \"#utility.yul\":1044:1056   */\n      revert\n        /* \"#utility.yul\":1003:1058   */\n    tag_685:\n      pop\n        /* \"#utility.yul\":1077:1097   */\n      dup2\n      calldataload\n        /* \"#utility.yul\":1120:1138   */\n      0xffffffffffffffff\n        /* \"#utility.yul\":1109:1139   */\n      dup2\n      gt\n        /* \"#utility.yul\":1106:1156   */\n      iszero\n      tag_686\n      jumpi\n        /* \"#utility.yul\":1152:1153   */\n      0x00\n        /* \"#utility.yul\":1149:1150   */\n      0x00\n        /* \"#utility.yul\":1142:1154   */\n      revert\n        /* \"#utility.yul\":1106:1156   */\n    tag_686:\n        /* \"#utility.yul\":1189:1193   */\n      0x20\n        /* \"#utility.yul\":1181:1187   */\n      dup4\n        /* \"#utility.yul\":1177:1194   */\n      add\n        /* \"#utility.yul\":1165:1194   */\n      swap2\n      pop\n        /* \"#utility.yul\":1241:1244   */\n      dup4\n        /* \"#utility.yul\":1234:1238   */\n      0x20\n        /* \"#utility.yul\":1225:1231   */\n      dup3\n        /* \"#utility.yul\":1217:1223   */\n      dup6\n        /* \"#utility.yul\":1213:1232   */\n      add\n        /* \"#utility.yul\":1209:1239   */\n      add\n        /* \"#utility.yul\":1206:1245   */\n      gt\n        /* \"#utility.yul\":1203:1262   */\n      iszero\n      tag_687\n      jumpi\n        /* \"#utility.yul\":1258:1259   */\n      0x00\n        /* \"#utility.yul\":1255:1256   */\n      0x00\n        /* \"#utility.yul\":1248:1260   */\n      revert\n        /* \"#utility.yul\":1203:1262   */\n    tag_687:\n        /* \"#utility.yul\":920:1268   */\n      swap3\n      pop\n      swap3\n      swap1\n      pop\n      jump\t// out\n        /* \"#utility.yul\":1273:1446   */\n    tag_671:\n        /* \"#utility.yul\":1341:1361   */\n      dup1\n      calldataload\n      sub(shl(0xa0, 0x01), 0x01)\n        /* \"#utility.yul\":1390:1421   */\n      dup2\n      and\n        /* \"#utility.yul\":1380:1422   */\n      dup2\n      eq\n        /* \"#utility.yul\":1370:1440   */\n      tag_689\n      jumpi\n        /* \"#utility.yul\":1436:1437   */\n      0x00\n        /* \"#utility.yul\":1433:1434   */\n      0x00\n        /* \"#utility.yul\":1426:1438   */\n      revert\n        /* \"#utility.yul\":1370:1440   */\n    tag_689:\n        /* \"#utility.yul\":1273:1446   */\n      swap2\n      swap1\n      pop\n      jump\t// out\n        /* \"#utility.yul\":1451:2241   */\n    tag_58:\n        /* \"#utility.yul\":1552:1558   */\n      0x00\n        /* \"#utility.yul\":1560:1566   */\n      0x00\n        /* \"#utility.yul\":1568:1574   */\n      0x00\n        /* \"#utility.yul\":1576:1582   */\n      0x00\n        /* \"#utility.yul\":1584:1590   */\n      0x00\n        /* \"#utility.yul\":1637:1639   */\n      0x60\n        /* \"#utility.yul\":1625:1634   */\n      dup7\n        /* \"#utility.yul\":1616:1623   */\n      dup9\n        /* \"#utility.yul\":1612:1635   */\n      sub\n        /* \"#utility.yul\":1608:1640   */\n      slt\n        /* \"#utility.yul\":1605:1657   */\n      iszero\n      tag_691\n      jumpi\n        /* \"#utility.yul\":1653:1654   */\n      0x00\n        /* \"#utility.yul\":1650:1651   */\n      0x00\n        /* \"#utility.yul\":1643:1655   */\n      revert\n        /* \"#utility.yul\":1605:1657   */\n    tag_691:\n        /* \"#utility.yul\":1693:1702   */\n      dup6\n        /* \"#utility.yul\":1680:1703   */\n      calldataload\n        /* \"#utility.yul\":1726:1744   */\n      0xffffffffffffffff\n        /* \"#utility.yul\":1718:1724   */\n      dup2\n        /* \"#utility.yul\":1715:1745   */\n      gt\n        /* \"#utility.yul\":1712:1762   */\n      iszero\n      tag_692\n      jumpi\n        /* \"#utility.yul\":1758:1759   */\n      0x00\n        /* \"#utility.yul\":1755:1756   */\n      0x00\n        /* \"#utility.yul\":1748:1760   */\n      revert\n        /* \"#utility.yul\":1712:1762   */\n    tag_692:\n        /* \"#utility.yul\":1797:1856   */\n      tag_693\n        /* \"#utility.yul\":1848:1855   */\n      dup9\n        /* \"#utility.yul\":1839:1845   */\n      dup3\n        /* \"#utility.yul\":1828:1837   */\n      dup10\n        /* \"#utility.yul\":1824:1846   */\n      add\n        /* \"#utility.yul\":1797:1856   */\n      tag_670\n      jump\t// in\n    tag_693:\n        /* \"#utility.yul\":1875:1883   */\n      swap1\n      swap7\n      pop\n        /* \"#utility.yul\":1771:1856   */\n      swap5\n      pop\n      pop\n        /* \"#utility.yul\":1963:1965   */\n      0x20\n        /* \"#utility.yul\":1948:1966   */\n      dup7\n      add\n        /* \"#utility.yul\":1935:1967   */\n      calldataload\n        /* \"#utility.yul\":1992:2010   */\n      0xffffffffffffffff\n        /* \"#utility.yul\":1979:2011   */\n      dup2\n      gt\n        /* \"#utility.yul\":1976:2028   */\n      iszero\n      tag_694\n      jumpi\n        /* \"#utility.yul\":2024:2025   */\n      0x00\n        /* \"#utility.yul\":2021:2022   */\n      0x00\n        /* \"#utility.yul\":2014:2026   */\n      revert\n        /* \"#utility.yul\":1976:2028   */\n    tag_694:\n        /* \"#utility.yul\":2063:2124   */\n      tag_695\n        /* \"#utility.yul\":2116:2123   */\n      dup9\n        /* \"#utility.yul\":2105:2113   */\n      dup3\n        /* \"#utility.yul\":2094:2103   */\n      dup10\n        /* \"#utility.yul\":2090:2114   */\n      add\n        /* \"#utility.yul\":2063:2124   */\n      tag_670\n      jump\t// in\n    tag_695:\n        /* \"#utility.yul\":2143:2151   */\n      swap1\n      swap5\n      pop\n        /* \"#utility.yul\":2037:2124   */\n      swap3\n      pop\n        /* \"#utility.yul\":2197:2235   */\n      tag_696\n      swap1\n      pop\n        /* \"#utility.yul\":2231:2233   */\n      0x40\n        /* \"#utility.yul\":2216:2234   */\n      dup8\n      add\n        /* \"#utility.yul\":2197:2235   */\n      tag_671\n      jump\t// in\n    tag_696:\n        /* \"#utility.yul\":2187:2235   */\n      swap1\n      pop\n        /* \"#utility.yul\":1451:2241   */\n      swap3\n      swap6\n      pop\n      swap3\n      swap6\n      swap1\n      swap4\n      pop\n      jump\t// out\n        /* \"#utility.yul\":2246:2546   */\n    tag_63:\n        /* \"#utility.yul\":2314:2320   */\n      0x00\n        /* \"#utility.yul\":2322:2328   */\n      0x00\n        /* \"#utility.yul\":2375:2377   */\n      0x40\n        /* \"#utility.yul\":2363:2372   */\n      dup4\n        /* \"#utility.yul\":2354:2361   */\n      dup6\n        /* \"#utility.yul\":2350:2373   */\n      sub\n        /* \"#utility.yul\":2346:2378   */\n      slt\n        /* \"#utility.yul\":2343:2395   */\n      iszero\n      tag_698\n      jumpi\n        /* \"#utility.yul\":2391:2392   */\n      0x00\n        /* \"#utility.yul\":2388:2389   */\n      0x00\n        /* \"#utility.yul\":2381:2393   */\n      revert\n        /* \"#utility.yul\":2343:2395   */\n    tag_698:\n        /* \"#utility.yul\":2414:2443   */\n      tag_699\n        /* \"#utility.yul\":2433:2442   */\n      dup4\n        /* \"#utility.yul\":2414:2443   */\n      tag_671\n      jump\t// in\n    tag_699:\n        /* \"#utility.yul\":2404:2443   */\n      swap5\n        /* \"#utility.yul\":2512:2514   */\n      0x20\n        /* \"#utility.yul\":2497:2515   */\n      swap4\n      swap1\n      swap4\n      add\n        /* \"#utility.yul\":2484:2516   */\n      calldataload\n      swap4\n      pop\n      pop\n      pop\n        /* \"#utility.yul\":2246:2546   */\n      jump\t// out\n        /* \"#utility.yul\":2551:3401   */\n    tag_69:\n        /* \"#utility.yul\":2655:2661   */\n      0x00\n        /* \"#utility.yul\":2663:2669   */\n      0x00\n        /* \"#utility.yul\":2671:2677   */\n      0x00\n        /* \"#utility.yul\":2679:2685   */\n      0x00\n        /* \"#utility.yul\":2732:2734   */\n      0x60\n        /* \"#utility.yul\":2720:2729   */\n      dup6\n        /* \"#utility.yul\":2711:2718   */\n      dup8\n        /* \"#utility.yul\":2707:2730   */\n      sub\n        /* \"#utility.yul\":2703:2735   */\n      slt\n        /* \"#utility.yul\":2700:2752   */\n      iszero\n      tag_701\n      jumpi\n        /* \"#utility.yul\":2748:2749   */\n      0x00\n        /* \"#utility.yul\":2745:2746   */\n      0x00\n        /* \"#utility.yul\":2738:2750   */\n      revert\n        /* \"#utility.yul\":2700:2752   */\n    tag_701:\n        /* \"#utility.yul\":2788:2797   */\n      dup5\n        /* \"#utility.yul\":2775:2798   */\n      calldataload\n        /* \"#utility.yul\":2821:2839   */\n      0xffffffffffffffff\n        /* \"#utility.yul\":2813:2819   */\n      dup2\n        /* \"#utility.yul\":2810:2840   */\n      gt\n        /* \"#utility.yul\":2807:2857   */\n      iszero\n      tag_702\n      jumpi\n        /* \"#utility.yul\":2853:2854   */\n      0x00\n        /* \"#utility.yul\":2850:2851   */\n      0x00\n        /* \"#utility.yul\":2843:2855   */\n      revert\n        /* \"#utility.yul\":2807:2857   */\n    tag_702:\n        /* \"#utility.yul\":2876:2898   */\n      dup6\n      add\n        /* \"#utility.yul\":2929:2933   */\n      0x1f\n        /* \"#utility.yul\":2921:2934   */\n      dup2\n      add\n        /* \"#utility.yul\":2917:2944   */\n      dup8\n      sgt\n        /* \"#utility.yul\":2907:2962   */\n      tag_703\n      jumpi\n        /* \"#utility.yul\":2958:2959   */\n      0x00\n        /* \"#utility.yul\":2955:2956   */\n      0x00\n        /* \"#utility.yul\":2948:2960   */\n      revert\n        /* \"#utility.yul\":2907:2962   */\n    tag_703:\n        /* \"#utility.yul\":2998:3000   */\n      dup1\n        /* \"#utility.yul\":2985:3001   */\n      calldataload\n        /* \"#utility.yul\":3024:3042   */\n      0xffffffffffffffff\n        /* \"#utility.yul\":3016:3022   */\n      dup2\n        /* \"#utility.yul\":3013:3043   */\n      gt\n        /* \"#utility.yul\":3010:3060   */\n      iszero\n      tag_704\n      jumpi\n        /* \"#utility.yul\":3056:3057   */\n      0x00\n        /* \"#utility.yul\":3053:3054   */\n      0x00\n        /* \"#utility.yul\":3046:3058   */\n      revert\n        /* \"#utility.yul\":3010:3060   */\n    tag_704:\n        /* \"#utility.yul\":3111:3118   */\n      dup8\n        /* \"#utility.yul\":3104:3108   */\n      0x20\n        /* \"#utility.yul\":3094:3100   */\n      dup3\n        /* \"#utility.yul\":3091:3092   */\n      0x05\n        /* \"#utility.yul\":3087:3101   */\n      shl\n        /* \"#utility.yul\":3083:3085   */\n      dup5\n        /* \"#utility.yul\":3079:3102   */\n      add\n        /* \"#utility.yul\":3075:3109   */\n      add\n        /* \"#utility.yul\":3072:3119   */\n      gt\n        /* \"#utility.yul\":3069:3136   */\n      iszero\n      tag_705\n      jumpi\n        /* \"#utility.yul\":3132:3133   */\n      0x00\n        /* \"#utility.yul\":3129:3130   */\n      0x00\n        /* \"#utility.yul\":3122:3134   */\n      revert\n        /* \"#utility.yul\":3069:3136   */\n    tag_705:\n        /* \"#utility.yul\":3163:3167   */\n      0x20\n        /* \"#utility.yul\":3155:3168   */\n      swap2\n      dup3\n      add\n      swap9\n        /* \"#utility.yul\":3187:3193   */\n      swap1\n      swap8\n      pop\n        /* \"#utility.yul\":3247:3267   */\n      swap1\n      dup7\n      add\n        /* \"#utility.yul\":3234:3268   */\n      calldataload\n      swap6\n        /* \"#utility.yul\":3365:3367   */\n      0x40\n        /* \"#utility.yul\":3350:3368   */\n      add\n        /* \"#utility.yul\":3337:3369   */\n      calldataload\n      swap5\n      pop\n        /* \"#utility.yul\":2551:3401   */\n      swap3\n      pop\n      pop\n      pop\n      jump\t// out\n        /* \"#utility.yul\":3588:3962   */\n    tag_79:\n        /* \"#utility.yul\":3665:3671   */\n      0x00\n        /* \"#utility.yul\":3673:3679   */\n      0x00\n        /* \"#utility.yul\":3681:3687   */\n      0x00\n        /* \"#utility.yul\":3734:3736   */\n      0x60\n        /* \"#utility.yul\":3722:3731   */\n      dup5\n        /* \"#utility.yul\":3713:3720   */\n      dup7\n        /* \"#utility.yul\":3709:3732   */\n      sub\n        /* \"#utility.yul\":3705:3737   */\n      slt\n        /* \"#utility.yul\":3702:3754   */\n      iszero\n      tag_708\n      jumpi\n        /* \"#utility.yul\":3750:3751   */\n      0x00\n        /* \"#utility.yul\":3747:3748   */\n      0x00\n        /* \"#utility.yul\":3740:3752   */\n      revert\n        /* \"#utility.yul\":3702:3754   */\n    tag_708:\n        /* \"#utility.yul\":3773:3802   */\n      tag_709\n        /* \"#utility.yul\":3792:3801   */\n      dup5\n        /* \"#utility.yul\":3773:3802   */\n      tag_671\n      jump\t// in\n    tag_709:\n        /* \"#utility.yul\":3763:3802   */\n      swap3\n      pop\n        /* \"#utility.yul\":3821:3859   */\n      tag_710\n        /* \"#utility.yul\":3855:3857   */\n      0x20\n        /* \"#utility.yul\":3844:3853   */\n      dup6\n        /* \"#utility.yul\":3840:3858   */\n      add\n        /* \"#utility.yul\":3821:3859   */\n      tag_671\n      jump\t// in\n    tag_710:\n        /* \"#utility.yul\":3588:3962   */\n      swap3\n      swap6\n        /* \"#utility.yul\":3811:3859   */\n      swap3\n      swap5\n      pop\n      pop\n      pop\n        /* \"#utility.yul\":3928:3930   */\n      0x40\n        /* \"#utility.yul\":3913:3931   */\n      swap2\n      swap1\n      swap2\n      add\n        /* \"#utility.yul\":3900:3932   */\n      calldataload\n      swap1\n        /* \"#utility.yul\":3588:3962   */\n      jump\t// out\n        /* \"#utility.yul\":3967:4193   */\n    tag_85:\n        /* \"#utility.yul\":4026:4032   */\n      0x00\n        /* \"#utility.yul\":4079:4081   */\n      0x20\n        /* \"#utility.yul\":4067:4076   */\n      dup3\n        /* \"#utility.yul\":4058:4065   */\n      dup5\n        /* \"#utility.yul\":4054:4077   */\n      sub\n        /* \"#utility.yul\":4050:4082   */\n      slt\n        /* \"#utility.yul\":4047:4099   */\n      iszero\n      tag_712\n      jumpi\n        /* \"#utility.yul\":4095:4096   */\n      0x00\n        /* \"#utility.yul\":4092:4093   */\n      0x00\n        /* \"#utility.yul\":4085:4097   */\n      revert\n        /* \"#utility.yul\":4047:4099   */\n    tag_712:\n      pop\n        /* \"#utility.yul\":4140:4163   */\n      calldataload\n      swap2\n        /* \"#utility.yul\":3967:4193   */\n      swap1\n      pop\n      jump\t// out\n        /* \"#utility.yul\":4380:4680   */\n    tag_96:\n        /* \"#utility.yul\":4448:4454   */\n      0x00\n        /* \"#utility.yul\":4456:4462   */\n      0x00\n        /* \"#utility.yul\":4509:4511   */\n      0x40\n        /* \"#utility.yul\":4497:4506   */\n      dup4\n        /* \"#utility.yul\":4488:4495   */\n      dup6\n        /* \"#utility.yul\":4484:4507   */\n      sub\n        /* \"#utility.yul\":4480:4512   */\n      slt\n        /* \"#utility.yul\":4477:4529   */\n      iszero\n      tag_715\n      jumpi\n        /* \"#utility.yul\":4525:4526   */\n      0x00\n        /* \"#utility.yul\":4522:4523   */\n      0x00\n        /* \"#utility.yul\":4515:4527   */\n      revert\n        /* \"#utility.yul\":4477:4529   */\n    tag_715:\n        /* \"#utility.yul\":4570:4593   */\n      dup3\n      calldataload\n      swap2\n      pop\n        /* \"#utility.yul\":4636:4674   */\n      tag_716\n        /* \"#utility.yul\":4670:4672   */\n      0x20\n        /* \"#utility.yul\":4655:4673   */\n      dup5\n      add\n        /* \"#utility.yul\":4636:4674   */\n      tag_671\n      jump\t// in\n    tag_716:\n        /* \"#utility.yul\":4626:4674   */\n      swap1\n      pop\n        /* \"#utility.yul\":4380:4680   */\n      swap3\n      pop\n      swap3\n      swap1\n      pop\n      jump\t// out\n        /* \"#utility.yul\":4874:5060   */\n    tag_114:\n        /* \"#utility.yul\":4933:4939   */\n      0x00\n        /* \"#utility.yul\":4986:4988   */\n      0x20\n        /* \"#utility.yul\":4974:4983   */\n      dup3\n        /* \"#utility.yul\":4965:4972   */\n      dup5\n        /* \"#utility.yul\":4961:4984   */\n      sub\n        /* \"#utility.yul\":4957:4989   */\n      slt\n        /* \"#utility.yul\":4954:5006   */\n      iszero\n      tag_719\n      jumpi\n        /* \"#utility.yul\":5002:5003   */\n      0x00\n        /* \"#utility.yul\":4999:5000   */\n      0x00\n        /* \"#utility.yul\":4992:5004   */\n      revert\n        /* \"#utility.yul\":4954:5006   */\n    tag_719:\n        /* \"#utility.yul\":5025:5054   */\n      tag_285\n        /* \"#utility.yul\":5044:5053   */\n      dup3\n        /* \"#utility.yul\":5025:5054   */\n      tag_671\n      jump\t// in\n        /* \"#utility.yul\":5065:5192   */\n    tag_672:\n        /* \"#utility.yul\":5126:5136   */\n      0x4e487b71\n        /* \"#utility.yul\":5121:5124   */\n      0xe0\n        /* \"#utility.yul\":5117:5137   */\n      shl\n        /* \"#utility.yul\":5114:5115   */\n      0x00\n        /* \"#utility.yul\":5107:5138   */\n      mstore\n        /* \"#utility.yul\":5157:5161   */\n      0x41\n        /* \"#utility.yul\":5154:5155   */\n      0x04\n        /* \"#utility.yul\":5147:5162   */\n      mstore\n        /* \"#utility.yul\":5181:5185   */\n      0x24\n        /* \"#utility.yul\":5178:5179   */\n      0x00\n        /* \"#utility.yul\":5171:5186   */\n      revert\n        /* \"#utility.yul\":5197:6215   */\n    tag_126:\n        /* \"#utility.yul\":5274:5280   */\n      0x00\n        /* \"#utility.yul\":5282:5288   */\n      0x00\n        /* \"#utility.yul\":5335:5337   */\n      0x40\n        /* \"#utility.yul\":5323:5332   */\n      dup4\n        /* \"#utility.yul\":5314:5321   */\n      dup6\n        /* \"#utility.yul\":5310:5333   */\n      sub\n        /* \"#utility.yul\":5306:5338   */\n      slt\n        /* \"#utility.yul\":5303:5355   */\n      iszero\n      tag_723\n      jumpi\n        /* \"#utility.yul\":5351:5352   */\n      0x00\n        /* \"#utility.yul\":5348:5349   */\n      0x00\n        /* \"#utility.yul\":5341:5353   */\n      revert\n        /* \"#utility.yul\":5303:5355   */\n    tag_723:\n        /* \"#utility.yul\":5374:5403   */\n      tag_724\n        /* \"#utility.yul\":5393:5402   */\n      dup4\n        /* \"#utility.yul\":5374:5403   */\n      tag_671\n      jump\t// in\n    tag_724:\n        /* \"#utility.yul\":5364:5403   */\n      swap2\n      pop\n        /* \"#utility.yul\":5454:5456   */\n      0x20\n        /* \"#utility.yul\":5443:5452   */\n      dup4\n        /* \"#utility.yul\":5439:5457   */\n      add\n        /* \"#utility.yul\":5426:5458   */\n      calldataload\n        /* \"#utility.yul\":5481:5499   */\n      0xffffffffffffffff\n        /* \"#utility.yul\":5473:5479   */\n      dup2\n        /* \"#utility.yul\":5470:5500   */\n      gt\n        /* \"#utility.yul\":5467:5517   */\n      iszero\n      tag_725\n      jumpi\n        /* \"#utility.yul\":5513:5514   */\n      0x00\n        /* \"#utility.yul\":5510:5511   */\n      0x00\n        /* \"#utility.yul\":5503:5515   */\n      revert\n        /* \"#utility.yul\":5467:5517   */\n    tag_725:\n        /* \"#utility.yul\":5536:5558   */\n      dup4\n      add\n        /* \"#utility.yul\":5589:5593   */\n      0x1f\n        /* \"#utility.yul\":5581:5594   */\n      dup2\n      add\n        /* \"#utility.yul\":5577:5604   */\n      dup6\n      sgt\n        /* \"#utility.yul\":5567:5622   */\n      tag_726\n      jumpi\n        /* \"#utility.yul\":5618:5619   */\n      0x00\n        /* \"#utility.yul\":5615:5616   */\n      0x00\n        /* \"#utility.yul\":5608:5620   */\n      revert\n        /* \"#utility.yul\":5567:5622   */\n    tag_726:\n        /* \"#utility.yul\":5658:5660   */\n      dup1\n        /* \"#utility.yul\":5645:5661   */\n      calldataload\n        /* \"#utility.yul\":5684:5702   */\n      0xffffffffffffffff\n        /* \"#utility.yul\":5676:5682   */\n      dup2\n        /* \"#utility.yul\":5673:5703   */\n      gt\n        /* \"#utility.yul\":5670:5726   */\n      iszero\n      tag_728\n      jumpi\n        /* \"#utility.yul\":5706:5724   */\n      tag_728\n      tag_672\n      jump\t// in\n    tag_728:\n        /* \"#utility.yul\":5755:5757   */\n      0x40\n        /* \"#utility.yul\":5749:5758   */\n      mload\n        /* \"#utility.yul\":5847:5849   */\n      0x1f\n        /* \"#utility.yul\":5809:5826   */\n      dup3\n      add\n      not(0x1f)\n        /* \"#utility.yul\":5805:5836   */\n      swap1\n      dup2\n      and\n        /* \"#utility.yul\":5838:5840   */\n      0x3f\n        /* \"#utility.yul\":5801:5841   */\n      add\n        /* \"#utility.yul\":5797:5851   */\n      and\n        /* \"#utility.yul\":5785:5852   */\n      dup2\n      add\n        /* \"#utility.yul\":5882:5900   */\n      0xffffffffffffffff\n        /* \"#utility.yul\":5867:5901   */\n      dup2\n      gt\n        /* \"#utility.yul\":5903:5925   */\n      dup3\n      dup3\n      lt\n        /* \"#utility.yul\":5864:5926   */\n      or\n        /* \"#utility.yul\":5861:5949   */\n      iszero\n      tag_730\n      jumpi\n        /* \"#utility.yul\":5929:5947   */\n      tag_730\n      tag_672\n      jump\t// in\n    tag_730:\n        /* \"#utility.yul\":5965:5967   */\n      0x40\n        /* \"#utility.yul\":5958:5980   */\n      mstore\n        /* \"#utility.yul\":5989:6011   */\n      dup2\n      dup2\n      mstore\n        /* \"#utility.yul\":6030:6045   */\n      dup3\n      dup3\n      add\n        /* \"#utility.yul\":6047:6049   */\n      0x20\n        /* \"#utility.yul\":6026:6050   */\n      add\n        /* \"#utility.yul\":6023:6060   */\n      dup8\n      lt\n        /* \"#utility.yul\":6020:6077   */\n      iszero\n      tag_731\n      jumpi\n        /* \"#utility.yul\":6073:6074   */\n      0x00\n        /* \"#utility.yul\":6070:6071   */\n      0x00\n        /* \"#utility.yul\":6063:6075   */\n      revert\n        /* \"#utility.yul\":6020:6077   */\n    tag_731:\n        /* \"#utility.yul\":6129:6135   */\n      dup2\n        /* \"#utility.yul\":6124:6126   */\n      0x20\n        /* \"#utility.yul\":6120:6122   */\n      dup5\n        /* \"#utility.yul\":6116:6127   */\n      add\n        /* \"#utility.yul\":6111:6113   */\n      0x20\n        /* \"#utility.yul\":6103:6109   */\n      dup4\n        /* \"#utility.yul\":6099:6114   */\n      add\n        /* \"#utility.yul\":6086:6136   */\n      calldatacopy\n        /* \"#utility.yul\":6182:6183   */\n      0x00\n        /* \"#utility.yul\":6177:6179   */\n      0x20\n        /* \"#utility.yul\":6168:6174   */\n      dup4\n        /* \"#utility.yul\":6160:6166   */\n      dup4\n        /* \"#utility.yul\":6156:6175   */\n      add\n        /* \"#utility.yul\":6152:6180   */\n      add\n        /* \"#utility.yul\":6145:6184   */\n      mstore\n        /* \"#utility.yul\":6203:6209   */\n      dup1\n        /* \"#utility.yul\":6193:6209   */\n      swap4\n      pop\n      pop\n      pop\n      pop\n        /* \"#utility.yul\":5197:6215   */\n      swap3\n      pop\n      swap3\n      swap1\n      pop\n      jump\t// out\n        /* \"#utility.yul\":6220:6480   */\n    tag_185:\n        /* \"#utility.yul\":6288:6294   */\n      0x00\n        /* \"#utility.yul\":6296:6302   */\n      0x00\n        /* \"#utility.yul\":6349:6351   */\n      0x40\n        /* \"#utility.yul\":6337:6346   */\n      dup4\n        /* \"#utility.yul\":6328:6335   */\n      dup6\n        /* \"#utility.yul\":6324:6347   */\n      sub\n        /* \"#utility.yul\":6320:6352   */\n      slt\n        /* \"#utility.yul\":6317:6369   */\n      iszero\n      tag_733\n      jumpi\n        /* \"#utility.yul\":6365:6366   */\n      0x00\n        /* \"#utility.yul\":6362:6363   */\n      0x00\n        /* \"#utility.yul\":6355:6367   */\n      revert\n        /* \"#utility.yul\":6317:6369   */\n    tag_733:\n        /* \"#utility.yul\":6388:6417   */\n      tag_734\n        /* \"#utility.yul\":6407:6416   */\n      dup4\n        /* \"#utility.yul\":6388:6417   */\n      tag_671\n      jump\t// in\n    tag_734:\n        /* \"#utility.yul\":6378:6417   */\n      swap2\n      pop\n        /* \"#utility.yul\":6436:6474   */\n      tag_716\n        /* \"#utility.yul\":6470:6472   */\n      0x20\n        /* \"#utility.yul\":6459:6468   */\n      dup5\n        /* \"#utility.yul\":6455:6473   */\n      add\n        /* \"#utility.yul\":6436:6474   */\n      tag_671\n      jump\t// in\n        /* \"#utility.yul\":6485:6865   */\n    tag_208:\n        /* \"#utility.yul\":6564:6565   */\n      0x01\n        /* \"#utility.yul\":6560:6572   */\n      dup2\n      dup2\n      shr\n      swap1\n        /* \"#utility.yul\":6607:6619   */\n      dup3\n      and\n      dup1\n        /* \"#utility.yul\":6628:6689   */\n      tag_737\n      jumpi\n        /* \"#utility.yul\":6682:6686   */\n      0x7f\n        /* \"#utility.yul\":6674:6680   */\n      dup3\n        /* \"#utility.yul\":6670:6687   */\n      and\n        /* \"#utility.yul\":6660:6687   */\n      swap2\n      pop\n        /* \"#utility.yul\":6628:6689   */\n    tag_737:\n        /* \"#utility.yul\":6735:6737   */\n      0x20\n        /* \"#utility.yul\":6727:6733   */\n      dup3\n        /* \"#utility.yul\":6724:6738   */\n      lt\n        /* \"#utility.yul\":6704:6722   */\n      dup2\n        /* \"#utility.yul\":6701:6739   */\n      sub\n        /* \"#utility.yul\":6698:6859   */\n      tag_738\n      jumpi\n        /* \"#utility.yul\":6781:6791   */\n      0x4e487b71\n        /* \"#utility.yul\":6776:6779   */\n      0xe0\n        /* \"#utility.yul\":6772:6792   */\n      shl\n        /* \"#utility.yul\":6769:6770   */\n      0x00\n        /* \"#utility.yul\":6762:6793   */\n      mstore\n        /* \"#utility.yul\":6816:6820   */\n      0x22\n        /* \"#utility.yul\":6813:6814   */\n      0x04\n        /* \"#utility.yul\":6806:6821   */\n      mstore\n        /* \"#utility.yul\":6844:6848   */\n      0x24\n        /* \"#utility.yul\":6841:6842   */\n      0x00\n        /* \"#utility.yul\":6834:6849   */\n      revert\n        /* \"#utility.yul\":6698:6859   */\n    tag_738:\n      pop\n        /* \"#utility.yul\":6485:6865   */\n      swap2\n      swap1\n      pop\n      jump\t// out\n        /* \"#utility.yul\":7220:7487   */\n    tag_673:\n        /* \"#utility.yul\":7309:7315   */\n      dup2\n        /* \"#utility.yul\":7304:7307   */\n      dup4\n        /* \"#utility.yul\":7297:7316   */\n      mstore\n        /* \"#utility.yul\":7361:7367   */\n      dup2\n        /* \"#utility.yul\":7354:7359   */\n      dup2\n        /* \"#utility.yul\":7347:7351   */\n      0x20\n        /* \"#utility.yul\":7342:7345   */\n      dup6\n        /* \"#utility.yul\":7338:7352   */\n      add\n        /* \"#utility.yul\":7325:7368   */\n      calldatacopy\n      pop\n        /* \"#utility.yul\":7413:7414   */\n      0x00\n        /* \"#utility.yul\":7388:7404   */\n      dup3\n      dup3\n      add\n        /* \"#utility.yul\":7406:7410   */\n      0x20\n        /* \"#utility.yul\":7384:7411   */\n      swap1\n      dup2\n      add\n        /* \"#utility.yul\":7377:7415   */\n      swap2\n      swap1\n      swap2\n      mstore\n        /* \"#utility.yul\":7469:7471   */\n      0x1f\n        /* \"#utility.yul\":7448:7463   */\n      swap1\n      swap2\n      add\n      not(0x1f)\n        /* \"#utility.yul\":7444:7473   */\n      and\n        /* \"#utility.yul\":7435:7474   */\n      swap1\n      swap2\n      add\n        /* \"#utility.yul\":7431:7481   */\n      add\n      swap1\n        /* \"#utility.yul\":7220:7487   */\n      jump\t// out\n        /* \"#utility.yul\":7492:7929   */\n    tag_242:\n        /* \"#utility.yul\":7709:7711   */\n      0x40\n        /* \"#utility.yul\":7698:7707   */\n      dup2\n        /* \"#utility.yul\":7691:7712   */\n      mstore\n        /* \"#utility.yul\":7672:7676   */\n      0x00\n        /* \"#utility.yul\":7735:7797   */\n      tag_742\n        /* \"#utility.yul\":7793:7795   */\n      0x40\n        /* \"#utility.yul\":7782:7791   */\n      dup4\n        /* \"#utility.yul\":7778:7796   */\n      add\n        /* \"#utility.yul\":7770:7776   */\n      dup7\n        /* \"#utility.yul\":7762:7768   */\n      dup9\n        /* \"#utility.yul\":7735:7797   */\n      tag_673\n      jump\t// in\n    tag_742:\n        /* \"#utility.yul\":7845:7854   */\n      dup3\n        /* \"#utility.yul\":7837:7843   */\n      dup2\n        /* \"#utility.yul\":7833:7855   */\n      sub\n        /* \"#utility.yul\":7828:7830   */\n      0x20\n        /* \"#utility.yul\":7817:7826   */\n      dup5\n        /* \"#utility.yul\":7813:7831   */\n      add\n        /* \"#utility.yul\":7806:7856   */\n      mstore\n        /* \"#utility.yul\":7873:7923   */\n      tag_743\n        /* \"#utility.yul\":7916:7922   */\n      dup2\n        /* \"#utility.yul\":7908:7914   */\n      dup6\n        /* \"#utility.yul\":7900:7906   */\n      dup8\n        /* \"#utility.yul\":7873:7923   */\n      tag_673\n      jump\t// in\n    tag_743:\n        /* \"#utility.yul\":7865:7923   */\n      swap8\n        /* \"#utility.yul\":7492:7929   */\n      swap7\n      pop\n      pop\n      pop\n      pop\n      pop\n      pop\n      pop\n      jump\t// out\n        /* \"#utility.yul\":8839:8966   */\n    tag_674:\n        /* \"#utility.yul\":8900:8910   */\n      0x4e487b71\n        /* \"#utility.yul\":8895:8898   */\n      0xe0\n        /* \"#utility.yul\":8891:8911   */\n      shl\n        /* \"#utility.yul\":8888:8889   */\n      0x00\n        /* \"#utility.yul\":8881:8912   */\n      mstore\n        /* \"#utility.yul\":8931:8935   */\n      0x11\n        /* \"#utility.yul\":8928:8929   */\n      0x04\n        /* \"#utility.yul\":8921:8936   */\n      mstore\n        /* \"#utility.yul\":8955:8959   */\n      0x24\n        /* \"#utility.yul\":8952:8953   */\n      0x00\n        /* \"#utility.yul\":8945:8960   */\n      revert\n        /* \"#utility.yul\":8971:9096   */\n    tag_262:\n        /* \"#utility.yul\":9036:9045   */\n      dup1\n      dup3\n      add\n        /* \"#utility.yul\":9057:9067   */\n      dup1\n      dup3\n      gt\n        /* \"#utility.yul\":9054:9090   */\n      iszero\n      tag_202\n      jumpi\n        /* \"#utility.yul\":9070:9088   */\n      tag_202\n      tag_674\n      jump\t// in\n        /* \"#utility.yul\":9450:9577   */\n    tag_274:\n        /* \"#utility.yul\":9511:9521   */\n      0x4e487b71\n        /* \"#utility.yul\":9506:9509   */\n      0xe0\n        /* \"#utility.yul\":9502:9522   */\n      shl\n        /* \"#utility.yul\":9499:9500   */\n      0x00\n        /* \"#utility.yul\":9492:9523   */\n      mstore\n        /* \"#utility.yul\":9542:9546   */\n      0x32\n        /* \"#utility.yul\":9539:9540   */\n      0x04\n        /* \"#utility.yul\":9532:9547   */\n      mstore\n        /* \"#utility.yul\":9566:9570   */\n      0x24\n        /* \"#utility.yul\":9563:9564   */\n      0x00\n        /* \"#utility.yul\":9556:9571   */\n      revert\n        /* \"#utility.yul\":9935:10063   */\n    tag_280:\n        /* \"#utility.yul\":10002:10011   */\n      dup2\n      dup2\n      sub\n        /* \"#utility.yul\":10023:10034   */\n      dup2\n      dup2\n      gt\n        /* \"#utility.yul\":10020:10057   */\n      iszero\n      tag_202\n      jumpi\n        /* \"#utility.yul\":10037:10055   */\n      tag_202\n      tag_674\n      jump\t// in\n        /* \"#utility.yul\":10419:10768   */\n    tag_291:\n        /* \"#utility.yul\":10621:10623   */\n      0x20\n        /* \"#utility.yul\":10603:10624   */\n      dup1\n      dup3\n      mstore\n        /* \"#utility.yul\":10660:10662   */\n      0x19\n        /* \"#utility.yul\":10640:10658   */\n      swap1\n      dup3\n      add\n        /* \"#utility.yul\":10633:10663   */\n      mstore\n        /* \"#utility.yul\":10699:10726   */\n      0x496e76616c696420726563697069656e74206164647265737300000000000000\n        /* \"#utility.yul\":10694:10696   */\n      0x40\n        /* \"#utility.yul\":10679:10697   */\n      dup3\n      add\n        /* \"#utility.yul\":10672:10727   */\n      mstore\n        /* \"#utility.yul\":10759:10761   */\n      0x60\n        /* \"#utility.yul\":10744:10762   */\n      add\n      swap1\n        /* \"#utility.yul\":10419:10768   */\n      jump\t// out\n        /* \"#utility.yul\":11476:11825   */\n    tag_300:\n        /* \"#utility.yul\":11678:11680   */\n      0x20\n        /* \"#utility.yul\":11660:11681   */\n      dup1\n      dup3\n      mstore\n        /* \"#utility.yul\":11717:11719   */\n      0x19\n        /* \"#utility.yul\":11697:11715   */\n      swap1\n      dup3\n      add\n        /* \"#utility.yul\":11690:11720   */\n      mstore\n        /* \"#utility.yul\":11756:11783   */\n      0x526563697069656e74206e6f742077686974656c697374656400000000000000\n        /* \"#utility.yul\":11751:11753   */\n      0x40\n        /* \"#utility.yul\":11736:11754   */\n      dup3\n      add\n        /* \"#utility.yul\":11729:11784   */\n      mstore\n        /* \"#utility.yul\":11816:11818   */\n      0x60\n        /* \"#utility.yul\":11801:11819   */\n      add\n      swap1\n        /* \"#utility.yul\":11476:11825   */\n      jump\t// out\n        /* \"#utility.yul\":11830:12177   */\n    tag_326:\n        /* \"#utility.yul\":12032:12034   */\n      0x20\n        /* \"#utility.yul\":12014:12035   */\n      dup1\n      dup3\n      mstore\n        /* \"#utility.yul\":12071:12073   */\n      0x17\n        /* \"#utility.yul\":12051:12069   */\n      swap1\n      dup3\n      add\n        /* \"#utility.yul\":12044:12074   */\n      mstore\n        /* \"#utility.yul\":12110:12135   */\n      0x496e76616c6964206163636f756e742061646472657373000000000000000000\n        /* \"#utility.yul\":12105:12107   */\n      0x40\n        /* \"#utility.yul\":12090:12108   */\n      dup3\n      add\n        /* \"#utility.yul\":12083:12136   */\n      mstore\n        /* \"#utility.yul\":12168:12170   */\n      0x60\n        /* \"#utility.yul\":12153:12171   */\n      add\n      swap1\n        /* \"#utility.yul\":11830:12177   */\n      jump\t// out\n        /* \"#utility.yul\":14834:15018   */\n    tag_563:\n        /* \"#utility.yul\":14904:14910   */\n      0x00\n        /* \"#utility.yul\":14957:14959   */\n      0x20\n        /* \"#utility.yul\":14945:14954   */\n      dup3\n        /* \"#utility.yul\":14936:14943   */\n      dup5\n        /* \"#utility.yul\":14932:14955   */\n      sub\n        /* \"#utility.yul\":14928:14960   */\n      slt\n        /* \"#utility.yul\":14925:14977   */\n      iszero\n      tag_772\n      jumpi\n        /* \"#utility.yul\":14973:14974   */\n      0x00\n        /* \"#utility.yul\":14970:14971   */\n      0x00\n        /* \"#utility.yul\":14963:14975   */\n      revert\n        /* \"#utility.yul\":14925:14977   */\n    tag_772:\n      pop\n        /* \"#utility.yul\":14996:15012   */\n      mload\n      swap2\n        /* \"#utility.yul\":14834:15018   */\n      swap1\n      pop\n      jump\t// out\n        /* \"#utility.yul\":15149:15667   */\n    tag_676:\n        /* \"#utility.yul\":15251:15253   */\n      0x1f\n        /* \"#utility.yul\":15246:15249   */\n      dup3\n        /* \"#utility.yul\":15243:15254   */\n      gt\n        /* \"#utility.yul\":15240:15661   */\n      iszero\n      tag_321\n      jumpi\n        /* \"#utility.yul\":15287:15292   */\n      dup1\n        /* \"#utility.yul\":15284:15285   */\n      0x00\n        /* \"#utility.yul\":15277:15293   */\n      mstore\n        /* \"#utility.yul\":15331:15335   */\n      0x20\n        /* \"#utility.yul\":15328:15329   */\n      0x00\n        /* \"#utility.yul\":15318:15336   */\n      keccak256\n        /* \"#utility.yul\":15401:15403   */\n      0x1f\n        /* \"#utility.yul\":15389:15399   */\n      dup5\n        /* \"#utility.yul\":15385:15404   */\n      add\n        /* \"#utility.yul\":15382:15383   */\n      0x05\n        /* \"#utility.yul\":15378:15405   */\n      shr\n        /* \"#utility.yul\":15372:15376   */\n      dup2\n        /* \"#utility.yul\":15368:15406   */\n      add\n        /* \"#utility.yul\":15437:15441   */\n      0x20\n        /* \"#utility.yul\":15425:15435   */\n      dup6\n        /* \"#utility.yul\":15422:15442   */\n      lt\n        /* \"#utility.yul\":15419:15466   */\n      iszero\n      tag_776\n      jumpi\n      pop\n        /* \"#utility.yul\":15460:15464   */\n      dup1\n        /* \"#utility.yul\":15419:15466   */\n    tag_776:\n        /* \"#utility.yul\":15515:15517   */\n      0x1f\n        /* \"#utility.yul\":15510:15513   */\n      dup5\n        /* \"#utility.yul\":15506:15518   */\n      add\n        /* \"#utility.yul\":15503:15504   */\n      0x05\n        /* \"#utility.yul\":15499:15519   */\n      shr\n        /* \"#utility.yul\":15493:15497   */\n      dup3\n        /* \"#utility.yul\":15489:15520   */\n      add\n        /* \"#utility.yul\":15479:15520   */\n      swap2\n      pop\n        /* \"#utility.yul\":15570:15651   */\n    tag_777:\n        /* \"#utility.yul\":15588:15590   */\n      dup2\n        /* \"#utility.yul\":15581:15586   */\n      dup2\n        /* \"#utility.yul\":15578:15591   */\n      lt\n        /* \"#utility.yul\":15570:15651   */\n      iszero\n      tag_609\n      jumpi\n        /* \"#utility.yul\":15647:15648   */\n      0x00\n        /* \"#utility.yul\":15633:15649   */\n      dup2\n      sstore\n        /* \"#utility.yul\":15614:15615   */\n      0x01\n        /* \"#utility.yul\":15603:15616   */\n      add\n        /* \"#utility.yul\":15570:15651   */\n      jump(tag_777)\n        /* \"#utility.yul\":15843:17142   */\n    tag_597:\n        /* \"#utility.yul\":15969:15972   */\n      dup2\n        /* \"#utility.yul\":15963:15973   */\n      mload\n        /* \"#utility.yul\":15996:16014   */\n      0xffffffffffffffff\n        /* \"#utility.yul\":15988:15994   */\n      dup2\n        /* \"#utility.yul\":15985:16015   */\n      gt\n        /* \"#utility.yul\":15982:16038   */\n      iszero\n      tag_783\n      jumpi\n        /* \"#utility.yul\":16018:16036   */\n      tag_783\n      tag_672\n      jump\t// in\n    tag_783:\n        /* \"#utility.yul\":16047:16144   */\n      tag_784\n        /* \"#utility.yul\":16137:16143   */\n      dup2\n        /* \"#utility.yul\":16097:16135   */\n      tag_785\n        /* \"#utility.yul\":16129:16133   */\n      dup5\n        /* \"#utility.yul\":16123:16134   */\n      sload\n        /* \"#utility.yul\":16097:16135   */\n      tag_208\n      jump\t// in\n    tag_785:\n        /* \"#utility.yul\":16091:16095   */\n      dup5\n        /* \"#utility.yul\":16047:16144   */\n      tag_676\n      jump\t// in\n    tag_784:\n        /* \"#utility.yul\":16193:16197   */\n      0x20\n        /* \"#utility.yul\":16224:16226   */\n      0x1f\n        /* \"#utility.yul\":16213:16227   */\n      dup3\n      gt\n        /* \"#utility.yul\":16241:16242   */\n      0x01\n        /* \"#utility.yul\":16236:16885   */\n      dup2\n      eq\n      tag_787\n      jumpi\n        /* \"#utility.yul\":16929:16930   */\n      0x00\n        /* \"#utility.yul\":16946:16952   */\n      dup4\n        /* \"#utility.yul\":16943:17032   */\n      iszero\n      tag_788\n      jumpi\n      pop\n        /* \"#utility.yul\":16998:17017   */\n      dup5\n      dup3\n      add\n        /* \"#utility.yul\":16992:17018   */\n      mload\n        /* \"#utility.yul\":16943:17032   */\n    tag_788:\n      not(0x00)\n        /* \"#utility.yul\":15800:15801   */\n      0x03\n        /* \"#utility.yul\":15796:15807   */\n      dup6\n      swap1\n      shl\n        /* \"#utility.yul\":15792:15816   */\n      shr\n        /* \"#utility.yul\":15788:15817   */\n      not\n        /* \"#utility.yul\":15778:15818   */\n      and\n        /* \"#utility.yul\":15824:15825   */\n      0x01\n        /* \"#utility.yul\":15820:15831   */\n      dup5\n      swap1\n      shl\n        /* \"#utility.yul\":15775:15832   */\n      or\n        /* \"#utility.yul\":17045:17126   */\n      dup5\n      sstore\n        /* \"#utility.yul\":16206:17136   */\n      jump(tag_609)\n        /* \"#utility.yul\":16236:16885   */\n    tag_787:\n        /* \"#utility.yul\":15096:15097   */\n      0x00\n        /* \"#utility.yul\":15089:15103   */\n      dup5\n      dup2\n      mstore\n        /* \"#utility.yul\":15133:15137   */\n      0x20\n        /* \"#utility.yul\":15120:15138   */\n      dup2\n      keccak256\n      not(0x1f)\n        /* \"#utility.yul\":16272:16292   */\n      dup6\n      and\n      swap2\n        /* \"#utility.yul\":16390:16612   */\n    tag_791:\n        /* \"#utility.yul\":16404:16411   */\n      dup3\n        /* \"#utility.yul\":16401:16402   */\n      dup2\n        /* \"#utility.yul\":16398:16412   */\n      lt\n        /* \"#utility.yul\":16390:16612   */\n      iszero\n      tag_793\n      jumpi\n        /* \"#utility.yul\":16486:16505   */\n      dup8\n      dup6\n      add\n        /* \"#utility.yul\":16480:16506   */\n      mload\n        /* \"#utility.yul\":16465:16507   */\n      dup3\n      sstore\n        /* \"#utility.yul\":16593:16597   */\n      0x20\n        /* \"#utility.yul\":16578:16598   */\n      swap5\n      dup6\n      add\n      swap5\n        /* \"#utility.yul\":16546:16547   */\n      0x01\n        /* \"#utility.yul\":16534:16548   */\n      swap1\n      swap3\n      add\n      swap2\n        /* \"#utility.yul\":16420:16432   */\n      add\n        /* \"#utility.yul\":16390:16612   */\n      jump(tag_791)\n    tag_793:\n        /* \"#utility.yul\":16394:16397   */\n      pop\n        /* \"#utility.yul\":16640:16646   */\n      dup5\n        /* \"#utility.yul\":16631:16638   */\n      dup3\n        /* \"#utility.yul\":16628:16647   */\n      lt\n        /* \"#utility.yul\":16625:16826   */\n      iszero\n      tag_794\n      jumpi\n        /* \"#utility.yul\":16701:16720   */\n      dup7\n      dup5\n      add\n        /* \"#utility.yul\":16695:16721   */\n      mload\n      not(0x00)\n        /* \"#utility.yul\":16784:16785   */\n      0x03\n        /* \"#utility.yul\":16780:16794   */\n      dup8\n      swap1\n      shl\n        /* \"#utility.yul\":16796:16799   */\n      0xf8\n        /* \"#utility.yul\":16776:16800   */\n      and\n        /* \"#utility.yul\":16772:16809   */\n      shr\n        /* \"#utility.yul\":16768:16810   */\n      not\n        /* \"#utility.yul\":16753:16811   */\n      and\n        /* \"#utility.yul\":16738:16812   */\n      dup2\n      sstore\n        /* \"#utility.yul\":16625:16826   */\n    tag_794:\n      pop\n      pop\n      pop\n      pop\n        /* \"#utility.yul\":16872:16873   */\n      0x01\n        /* \"#utility.yul\":16856:16870   */\n      swap1\n      dup2\n      shl\n        /* \"#utility.yul\":16852:16874   */\n      add\n        /* \"#utility.yul\":16839:16875   */\n      swap1\n      sstore\n      pop\n        /* \"#utility.yul\":15843:17142   */\n      jump\t// out\n        /* \"#utility.yul\":17426:17727   */\n    tag_651:\n        /* \"#utility.yul\":17555:17558   */\n      0x00\n        /* \"#utility.yul\":17593:17599   */\n      dup3\n        /* \"#utility.yul\":17587:17600   */\n      mload\n        /* \"#utility.yul\":17639:17645   */\n      dup1\n        /* \"#utility.yul\":17632:17636   */\n      0x20\n        /* \"#utility.yul\":17624:17630   */\n      dup6\n        /* \"#utility.yul\":17620:17637   */\n      add\n        /* \"#utility.yul\":17615:17618   */\n      dup5\n        /* \"#utility.yul\":17609:17646   */\n      mcopy\n        /* \"#utility.yul\":17701:17702   */\n      0x00\n        /* \"#utility.yul\":17665:17681   */\n      swap3\n      add\n        /* \"#utility.yul\":17690:17703   */\n      swap2\n      dup3\n      mstore\n      pop\n        /* \"#utility.yul\":17665:17681   */\n      swap2\n        /* \"#utility.yul\":17426:17727   */\n      swap1\n      pop\n      jump\t// out\n    stop\n    data_3874827173e8df9f34323b12b251d1d3c53926ce129e30a0d69f1d47c277041b 52c63247e1f47db19d5ce0460030c497f067ca4cebf71ba98eeadabe20bace00\n    data_75b20eef8615de99c108b05f0dbda081c91897128caa336d75dffb97c4132b4d 360894a13ba1a3210667c828492db98dca3e2076cc3735a920a3ca505d382bbc\n    data_7e678c77cfa084e62aed03ceadb9b37aa6c80340da2f54168df7a1e5e1fdb0a3 442a94f1a1fac79af32856af2a64f63648cfa2ef3b98610a5bb7cbec4cee6985\n    data_b3da67d1b252aeab7c8063542d95e75f82a5307a82535949bc38f7cf7ba8897f 02dd7bc7dec4dceedda775e58dd541e08a116c6c53815c0bd028192f7b626800\n    data_c0c65a3718f3702d917c44106b91645b509d2e2d0979b70495c3babce192339f cd5ed15c6e187e77e9aee88184c21f4f2182ab5827cb3b7e07fbedcd63f03300\n    data_c8669cf8eaf883002b9f48e28846a8d408c9b58ea6613bace374265e43c9bc43 9b779b17422d0df92223018b32b4d1fa46e071723d6817e2486d003becc55f00\n\n    auxdata: 0xa2646970667358221220f7c2954de56edf05d76f88f580037602b591bc93ef1a94ba39479acd75e7e8a564736f6c634300081e0033\n}\n",
				"bytecode": {
					"linkReferences": {},
					"object": "60c0604081905230608052612b52388190039081908339810160408190526100269161007a565b805f0361006e5760405162461bcd60e51b8152602060048201526012602482015271125b9d985b1a590818d85c08185b5bdd5b9d60721b604482015260640160405180910390fd5b60a05260018055610091565b5f6020828403121561008a575f5ffd5b5051919050565b60805160a051612a766100dc5f395f8181610360015281816105d201528181610ff501528181611822015261185301525f8181611bd801528181611c010152611db80152612a765ff3fe6080604052600436106101f1575f3560e01c806352d1902d11610108578063a217fddf1161009d578063d547741f1161006d578063d547741f14610564578063dd62ed3e14610583578063e43252d7146105a2578063ec81b483146105c1578063f76e95e5146105f4575f5ffd5b8063a217fddf146104e3578063a9059cbb146104f6578063ad3cb1cc14610515578063bfab3b9e14610545575f5ffd5b80638ab1d681116100d85780638ab1d6811461047257806391d148541461049157806395d89b41146104b05780639dc29fac146104c4575f5ffd5b806352d1902d146104085780635c975abb1461041c57806370a082311461043f5780638456cb591461045e575f5ffd5b80632913daa01161018957806336568abe1161015957806336568abe146103845780633af32abf146103a35780633f4ba83a146103c257806340c10f19146103d65780634f1ef286146103f5575f5ffd5b80632913daa0146103055780632f2ff15d14610318578063313ce56714610337578063355274ea14610352575f5ffd5b80631663a066116101c45780631663a0661461028a57806318160ddd146102a957806323b872dd146102c7578063248a9ca3146102e6575f5ffd5b806301ffc9a7146101f557806306fdde0314610229578063077f224a1461024a578063095ea7b31461026b575b5f5ffd5b348015610200575f5ffd5b5061021461020f36600461235b565b610608565b60405190151581526020015b60405180910390f35b348015610234575f5ffd5b5061023d61063e565b6040516102209190612382565b348015610255575f5ffd5b50610269610264366004612417565b6106fe565b005b348015610276575f5ffd5b50610214610285366004612497565b610a0f565b348015610295575f5ffd5b506102696102a43660046124bf565b610a26565b3480156102b4575f5ffd5b506001545b604051908152602001610220565b3480156102d2575f5ffd5b506102146102e136600461253c565b610c1f565b3480156102f1575f5ffd5b506102b9610300366004612576565b610de5565b348015610310575f5ffd5b5060646102b9565b348015610323575f5ffd5b5061026961033236600461258d565b610e05565b348015610342575f5ffd5b5060405160128152602001610220565b34801561035d575f5ffd5b507f00000000000000000000000000000000000000000000000000000000000000006102b9565b34801561038f575f5ffd5b5061026961039e36600461258d565b610e27565b3480156103ae575f5ffd5b506102146103bd3660046125b7565b610e5f565b3480156103cd575f5ffd5b50610269610ea4565b3480156103e1575f5ffd5b506102696103f0366004612497565b610f03565b6102696104033660046125e4565b6110ba565b348015610413575f5ffd5b506102b96110d5565b348015610427575f5ffd5b505f516020612a015f395f51905f525460ff16610214565b34801561044a575f5ffd5b506102b96104593660046125b7565b6110f0565b348015610469575f5ffd5b50610269611116565b34801561047d575f5ffd5b5061026961048c3660046125b7565b611175565b34801561049c575f5ffd5b506102146104ab36600461258d565b6111ff565b3480156104bb575f5ffd5b5061023d611235565b3480156104cf575f5ffd5b506102696104de366004612497565b611273565b3480156104ee575f5ffd5b506102b95f81565b348015610501575f5ffd5b50610214610510366004612497565b611403565b348015610520575f5ffd5b5061023d604051806040016040528060058152602001640352e302e360dc1b81525081565b348015610550575f5ffd5b5061026961055f3660046124bf565b611568565b34801561056f575f5ffd5b5061026961057e36600461258d565b611727565b34801561058e575f5ffd5b506102b961059d3660046126a8565b611743565b3480156105ad575f5ffd5b506102696105bc3660046125b7565b61178c565b3480156105cc575f5ffd5b506102b97f000000000000000000000000000000000000000000000000000000000000000081565b3480156105ff575f5ffd5b506102b961181b565b5f6001600160e01b03198216637965db0b60e01b148061063857506301ffc9a760e01b6001600160e01b03198316145b92915050565b7f52c63247e1f47db19d5ce0460030c497f067ca4cebf71ba98eeadabe20bace0380546060915f5160206129815f395f51905f529161067c906126d0565b80601f01602080910402602001604051908101604052809291908181526020018280546106a8906126d0565b80156106f35780601f106106ca576101008083540402835291602001916106f3565b820191905f5260205f20905b8154815290600101906020018083116106d657829003601f168201915b505050505091505090565b5f61070761187d565b805490915060ff600160401b820416159067ffffffffffffffff165f8115801561072e5750825b90505f8267ffffffffffffffff16600114801561074a5750303b155b905081158015610758575080155b156107765760405163f92ee8a960e01b815260040160405180910390fd5b845467ffffffffffffffff1916600117855583156107a057845460ff60401b1916600160401b1785555b6001600160a01b0386166107f35760405162461bcd60e51b8152602060048201526015602482015274496e76616c69642061646d696e206164647265737360581b60448201526064015b60405180910390fd5b6108648a8a8080601f0160208091040260200160405190810160405280939291908181526020018383808284375f9201919091525050604080516020601f8e018190048102820181019092528c815292508c91508b90819084018382808284375f920191909152506118a592505050565b61086c6118b7565b6108746118b7565b61087c6118c1565b6108846118b7565b61088e5f876118d1565b506108b97f114e74f6ea3bd819998f78687bfcb11b140da08e9b7d222fa9c1f1ba1f2aa122876118d1565b506108d15f5160206129c15f395f51905f52876118d1565b506108fc7f65d7a28e3265b37a6474929f336521b332c1681b933f6cb9f3376673440d862a876118d1565b506109277f189ab7a9244df0848122154315af71fe140f3db0fe014031783b0946b8c9d2e3876118d1565b506001600160a01b0386165f81815260208190526040808220805460ff1916600190811790915590519092917ff93f9a76c1bf3444d22400a00cb9fe990e6abe9dbb333fda48859cfee864543d91a3856001600160a01b03167f2583210d6110b6d11e7775956ed0bea544d92d3760073450942661b4264863658b8b8b8b6040516109b59493929190612730565b60405180910390a28315610a0357845460ff60401b19168555604051600181527fc7f505b2f371ae2175ee4913f4499e1f2633a7b5936321eed1cdaeb6115181d29060200160405180910390a15b50505050505050505050565b5f33610a1c818585611972565b5060019392505050565b5f5160206129c15f395f51905f52610a3d8161197f565b835f819003610a855760405162461bcd60e51b8152602060048201526014602482015273456d707479206163636f756e747320617272617960601b60448201526064016107ea565b825f03610ac45760405162461bcd60e51b815260206004820152600d60248201526c125b9d985b1a59081b1a5b5a5d609a1b60448201526064016107ea565b610ad060646001612775565b8310610b155760405162461bcd60e51b815260206004820152601460248201527342617463682073697a6520746f6f206c6172676560601b60448201526064016107ea565b5f610b208486612775565b9050610b2d826001612775565b8110610b365750805b845b81811015610be1575f888883818110610b5357610b53612788565b9050602002016020810190610b6891906125b7565b90506001600160a01b038116610bbb5760405162461bcd60e51b8152602060048201526018602482015277092dcecc2d8d2c840c2c6c6deeadce840d2dc40c4c2e8c6d60431b60448201526064016107ea565b6001600160a01b03165f908152602081905260409020805460ff19169055600101610b38565b50610bec858261279c565b60405186907f3838459cd794256a3c29bb3186da72029a8036c0f596fee1bd526f8eb9493d41905f90a350505050505050565b5f610c2861198c565b6001600160a01b038416610c775760405162461bcd60e51b8152602060048201526016602482015275496e76616c69642073656e646572206164647265737360501b60448201526064016107ea565b6001600160a01b038316610c9d5760405162461bcd60e51b81526004016107ea906127af565b815f03610ce65760405162461bcd60e51b8152602060048201526017602482015276125b9d985b1a59081d1c985b9cd9995c88185b5bdd5b9d604a1b60448201526064016107ea565b6001600160a01b038085165f9081526020819052604080822054928616825290205460ff918216911681610d555760405162461bcd60e51b815260206004820152601660248201527514d95b99195c881b9bdd081dda1a5d195b1a5cdd195960521b60448201526064016107ea565b80610d725760405162461bcd60e51b81526004016107ea906127e6565b33610d7e8782876119bc565b610d89878787611a1a565b856001600160a01b0316876001600160a01b03167fd0ed88a3f042c6bbb1e3ea406079b5f2b4b198afccaa535d837f4c63abbc4de687604051610dce91815260200190565b60405180910390a3600193505050505b9392505050565b5f9081525f5160206129e15f395f51905f52602052604090206001015490565b610e0e82610de5565b610e178161197f565b610e2183836118d1565b50505050565b6001600160a01b0381163314610e505760405163334bd91960e11b815260040160405180910390fd5b610e5a8282611a77565b505050565b5f6001600160a01b038216610e865760405162461bcd60e51b81526004016107ea9061281d565b506001600160a01b03165f9081526020819052604090205460ff1690565b7f65d7a28e3265b37a6474929f336521b332c1681b933f6cb9f3376673440d862a610ece8161197f565b610ed6611af0565b60405133907f5b65b0c1363b3003db9bcc5e1fd8805a6d6bf5bf6dc9d3431ee4494cd7d11766905f90a250565b610f0b611b4f565b7f114e74f6ea3bd819998f78687bfcb11b140da08e9b7d222fa9c1f1ba1f2aa122610f358161197f565b610f3d61198c565b6001600160a01b038316610f635760405162461bcd60e51b81526004016107ea906127af565b815f03610fa85760405162461bcd60e51b8152602060048201526013602482015272125b9d985b1a59081b5a5b9d08185b5bdd5b9d606a1b60448201526064016107ea565b6001600160a01b0383165f9081526020819052604090205460ff1680610fe05760405162461bcd60e51b81526004016107ea906127e6565b6001545f610fee8583612775565b905061101b7f00000000000000000000000000000000000000000000000000000000000000006001612775565b81106110585760405162461bcd60e51b815260206004820152600c60248201526b10d85c08195e18d95959195960a21b60448201526064016107ea565b60018190556110678686611b86565b60405185906001600160a01b038816907f3f2c9d57c068687834f0de942a9babb9e5acab57d516d3480a3c16ee165a4273905f90a3505050506110b660015f516020612a215f395f51905f5255565b5050565b6110c2611bcd565b6110cb82611c71565b6110b68282611cf1565b5f6110de611dad565b505f5160206129a15f395f51905f5290565b6001600160a01b03165f9081525f5160206129815f395f51905f52602052604090205490565b7f65d7a28e3265b37a6474929f336521b332c1681b933f6cb9f3376673440d862a6111408161197f565b611148611df6565b60405133907f81990fd9a5c552b8e3677917d8a03c07678f0d2cb68f88b634aca2022e9bd19f905f90a250565b5f5160206129c15f395f51905f5261118c8161197f565b6001600160a01b0382166111b25760405162461bcd60e51b81526004016107ea9061281d565b6001600160a01b0382165f81815260208190526040808220805460ff19169055519091907ff93f9a76c1bf3444d22400a00cb9fe990e6abe9dbb333fda48859cfee864543d908390a35050565b5f9182525f5160206129e15f395f51905f52602090815260408084206001600160a01b0393909316845291905290205460ff1690565b7f52c63247e1f47db19d5ce0460030c497f067ca4cebf71ba98eeadabe20bace0480546060915f5160206129815f395f51905f529161067c906126d0565b61127b611b4f565b7f114e74f6ea3bd819998f78687bfcb11b140da08e9b7d222fa9c1f1ba1f2aa1226112a58161197f565b6112ad61198c565b6001600160a01b0383166112fa5760405162461bcd60e51b8152602060048201526014602482015273496e76616c6964206275726e206164647265737360601b60448201526064016107ea565b815f0361133f5760405162461bcd60e51b8152602060048201526013602482015272125b9d985b1a5908189d5c9b88185b5bdd5b9d606a1b60448201526064016107ea565b5f611349846110f0565b905061135660018461279c565b811161139b5760405162461bcd60e51b8152602060048201526014602482015273496e73756666696369656e742062616c616e636560601b60448201526064016107ea565b6001546113a8848261279c565b6001556113b58585611e3e565b60405184906001600160a01b038716907ffd38818f5291bf0bb3a2a48aadc06ba8757865d1dabd804585338aab3009dcb6905f90a35050506110b660015f516020612a215f395f51905f5255565b5f61140c61198c565b6001600160a01b0383166114325760405162461bcd60e51b81526004016107ea906127af565b815f0361147b5760405162461bcd60e51b8152602060048201526017602482015276125b9d985b1a59081d1c985b9cd9995c88185b5bdd5b9d604a1b60448201526064016107ea565b335f81815260208190526040808220546001600160a01b038716835291205460ff9182169116816114e75760405162461bcd60e51b815260206004820152601660248201527514d95b99195c881b9bdd081dda1a5d195b1a5cdd195960521b60448201526064016107ea565b806115045760405162461bcd60e51b81526004016107ea906127e6565b61150f838787611a1a565b856001600160a01b0316836001600160a01b03167fd0ed88a3f042c6bbb1e3ea406079b5f2b4b198afccaa535d837f4c63abbc4de68760405161155491815260200190565b60405180910390a350600195945050505050565b5f5160206129c15f395f51905f5261157f8161197f565b835f8190036115c75760405162461bcd60e51b8152602060048201526014602482015273456d707479206163636f756e747320617272617960601b60448201526064016107ea565b825f036116065760405162461bcd60e51b815260206004820152600d60248201526c125b9d985b1a59081b1a5b5a5d609a1b60448201526064016107ea565b61161260646001612775565b83106116575760405162461bcd60e51b815260206004820152601460248201527342617463682073697a6520746f6f206c6172676560601b60448201526064016107ea565b5f6116628486612775565b905061166f826001612775565b81106116785750805b845b81811015610be1575f88888381811061169557611695612788565b90506020020160208101906116aa91906125b7565b90506001600160a01b0381166116fd5760405162461bcd60e51b8152602060048201526018602482015277092dcecc2d8d2c840c2c6c6deeadce840d2dc40c4c2e8c6d60431b60448201526064016107ea565b6001600160a01b03165f908152602081905260409020805460ff191660019081179091550161167a565b61173082610de5565b6117398161197f565b610e218383611a77565b6001600160a01b039182165f9081527f52c63247e1f47db19d5ce0460030c497f067ca4cebf71ba98eeadabe20bace016020908152604080832093909416825291909152205490565b5f5160206129c15f395f51905f526117a38161197f565b6001600160a01b0382166117c95760405162461bcd60e51b81526004016107ea9061281d565b6001600160a01b0382165f81815260208190526040808220805460ff1916600190811790915590519092917ff93f9a76c1bf3444d22400a00cb9fe990e6abe9dbb333fda48859cfee864543d91a35050565b6001545f907f0000000000000000000000000000000000000000000000000000000000000000811061184d575f611877565b611877817f000000000000000000000000000000000000000000000000000000000000000061279c565b91505090565b5f807ff0c57e16840df040f15088dc2f81fe391c3923bec73e23a9662efc9c229c6a00610638565b6118ad611e72565b6110b68282611e97565b6118bf611e72565b565b6118c9611e72565b6118bf611ee7565b5f5f5160206129e15f395f51905f526118ea84846111ff565b611969575f848152602082815260408083206001600160a01b03871684529091529020805460ff1916600117905561191f3390565b6001600160a01b0316836001600160a01b0316857f2f8788117e7eff1d82e926ec794901d17c78024a50270940304540a733656f0d60405160405180910390a46001915050610638565b5f915050610638565b610e5a8383836001611eef565b6119898133611fd3565b50565b5f516020612a015f395f51905f525460ff16156118bf5760405163d93c066560e01b815260040160405180910390fd5b5f6119c78484611743565b90505f19811015610e215781811015611a0c57604051637dc7a0d960e11b81526001600160a01b038416600482015260248101829052604481018390526064016107ea565b610e2184848484035f611eef565b6001600160a01b038316611a4357604051634b637e8f60e11b81525f60048201526024016107ea565b6001600160a01b038216611a6c5760405163ec442f0560e01b81525f60048201526024016107ea565b610e5a83838361200c565b5f5f5160206129e15f395f51905f52611a9084846111ff565b15611969575f848152602082815260408083206001600160a01b0387168085529252808320805460ff1916905551339287917ff6391f5c32d9c69d2a47ea670b442974b53935d1edc7fd64eb21e047a839171b9190a46001915050610638565b611af8612145565b5f516020612a015f395f51905f52805460ff191681557f5db9ee0a495bf2e6ff9c91a7834c1ba4fdd244a5e8aa4e537bd38aeae4b073aa335b6040516001600160a01b03909116815260200160405180910390a150565b5f516020612a215f395f51905f52805460011901611b8057604051633ee5aeb560e01b815260040160405180910390fd5b60029055565b6001600160a01b038216611baf5760405163ec442f0560e01b81525f60048201526024016107ea565b6110b65f838361200c565b60015f516020612a215f395f51905f5255565b306001600160a01b037f0000000000000000000000000000000000000000000000000000000000000000161480611c5357507f00000000000000000000000000000000000000000000000000000000000000006001600160a01b0316611c475f5160206129a15f395f51905f52546001600160a01b031690565b6001600160a01b031614155b156118bf5760405163703e46dd60e11b815260040160405180910390fd5b7f189ab7a9244df0848122154315af71fe140f3db0fe014031783b0946b8c9d2e3611c9b8161197f565b6001600160a01b0382166110b65760405162461bcd60e51b815260206004820152601e60248201527f496e76616c696420696d706c656d656e746174696f6e2061646472657373000060448201526064016107ea565b816001600160a01b03166352d1902d6040518163ffffffff1660e01b8152600401602060405180830381865afa925050508015611d4b575060408051601f3d908101601f19168201909252611d4891810190612854565b60015b611d7357604051634c9c8ce360e01b81526001600160a01b03831660048201526024016107ea565b5f5160206129a15f395f51905f528114611da357604051632a87526960e21b8152600481018290526024016107ea565b610e5a8383612174565b306001600160a01b037f000000000000000000000000000000000000000000000000000000000000000016146118bf5760405163703e46dd60e11b815260040160405180910390fd5b611dfe61198c565b5f516020612a015f395f51905f52805460ff191660011781557f62e78cea01bee320cd4e420270b5ea74000d11b0c9f74754ebdbfc544b05a25833611b31565b6001600160a01b038216611e6757604051634b637e8f60e11b81525f60048201526024016107ea565b6110b6825f8361200c565b611e7a6121c9565b6118bf57604051631afcd79f60e31b815260040160405180910390fd5b611e9f611e72565b5f5160206129815f395f51905f527f52c63247e1f47db19d5ce0460030c497f067ca4cebf71ba98eeadabe20bace03611ed884826128af565b5060048101610e2183826128af565b611bba611e72565b5f5160206129815f395f51905f526001600160a01b038516611f265760405163e602df0560e01b81525f60048201526024016107ea565b6001600160a01b038416611f4f57604051634a1406b160e11b81525f60048201526024016107ea565b6001600160a01b038086165f90815260018301602090815260408083209388168352929052208390558115611fcc57836001600160a01b0316856001600160a01b03167f8c5be1e5ebec7d5bd14f71427d1e84f3dd0314c0f7b2291e5b200ac8c7c3b92585604051611fc391815260200190565b60405180910390a35b5050505050565b611fdd82826111ff565b6110b65760405163e2517d3f60e01b81526001600160a01b0382166004820152602481018390526044016107ea565b5f5160206129815f395f51905f526001600160a01b0384166120465781816002015f82825461203b9190612775565b909155506120b69050565b6001600160a01b0384165f90815260208290526040902054828110156120985760405163391434e360e21b81526001600160a01b038616600482015260248101829052604481018490526064016107ea565b6001600160a01b0385165f9081526020839052604090209083900390555b6001600160a01b0383166120d45760028101805483900390556120f2565b6001600160a01b0383165f9081526020829052604090208054830190555b826001600160a01b0316846001600160a01b03167fddf252ad1be2c89b69c2b068fc378daa952ba7f163c4a11628f55a4df523b3ef8460405161213791815260200190565b60405180910390a350505050565b5f516020612a015f395f51905f525460ff166118bf57604051638dfc202b60e01b815260040160405180910390fd5b61217d826121e2565b6040516001600160a01b038316907fbc7cd75a20ee27fd9adebab32041f755214dbc6bffa90cc0225b39da2e5c2d3b905f90a28051156121c157610e5a8282612245565b6110b66122b7565b5f6121d261187d565b54600160401b900460ff16919050565b806001600160a01b03163b5f0361221757604051634c9c8ce360e01b81526001600160a01b03821660048201526024016107ea565b5f5160206129a15f395f51905f5280546001600160a01b0319166001600160a01b0392909216919091179055565b60605f5f846001600160a01b031684604051612261919061296a565b5f60405180830381855af49150503d805f8114612299576040519150601f19603f3d011682016040523d82523d5f602084013e61229e565b606091505b50915091506122ae8583836122d6565b95945050505050565b34156118bf5760405163b398979f60e01b815260040160405180910390fd5b6060826122eb576122e682612332565b610dde565b815115801561230257506001600160a01b0384163b155b1561232b57604051639996b31560e01b81526001600160a01b03851660048201526024016107ea565b5080610dde565b8051156123425780518082602001fd5b60405163d6bda27560e01b815260040160405180910390fd5b5f6020828403121561236b575f5ffd5b81356001600160e01b031981168114610dde575f5ffd5b602081525f82518060208401528060208501604085015e5f604082850101526040601f19601f83011684010191505092915050565b5f5f83601f8401126123c7575f5ffd5b50813567ffffffffffffffff8111156123de575f5ffd5b6020830191508360208285010111156123f5575f5ffd5b9250929050565b80356001600160a01b0381168114612412575f5ffd5b919050565b5f5f5f5f5f6060868803121561242b575f5ffd5b853567ffffffffffffffff811115612441575f5ffd5b61244d888289016123b7565b909650945050602086013567ffffffffffffffff81111561246c575f5ffd5b612478888289016123b7565b909450925061248b9050604087016123fc565b90509295509295909350565b5f5f604083850312156124a8575f5ffd5b6124b1836123fc565b946020939093013593505050565b5f5f5f5f606085870312156124d2575f5ffd5b843567ffffffffffffffff8111156124e8575f5ffd5b8501601f810187136124f8575f5ffd5b803567ffffffffffffffff81111561250e575f5ffd5b8760208260051b8401011115612522575f5ffd5b602091820198909750908601359560400135945092505050565b5f5f5f6060848603121561254e575f5ffd5b612557846123fc565b9250612565602085016123fc565b929592945050506040919091013590565b5f60208284031215612586575f5ffd5b5035919050565b5f5f6040838503121561259e575f5ffd5b823591506125ae602084016123fc565b90509250929050565b5f602082840312156125c7575f5ffd5b610dde826123fc565b634e487b7160e01b5f52604160045260245ffd5b5f5f604083850312156125f5575f5ffd5b6125fe836123fc565b9150602083013567ffffffffffffffff811115612619575f5ffd5b8301601f81018513612629575f5ffd5b803567ffffffffffffffff811115612643576126436125d0565b604051601f8201601f19908116603f0116810167ffffffffffffffff81118282101715612672576126726125d0565b604052818152828201602001871015612689575f5ffd5b816020840160208301375f602083830101528093505050509250929050565b5f5f604083850312156126b9575f5ffd5b6126c2836123fc565b91506125ae602084016123fc565b600181811c908216806126e457607f821691505b60208210810361270257634e487b7160e01b5f52602260045260245ffd5b50919050565b81835281816020850137505f828201602090810191909152601f909101601f19169091010190565b604081525f612743604083018688612708565b8281036020840152612756818587612708565b979650505050505050565b634e487b7160e01b5f52601160045260245ffd5b8082018082111561063857610638612761565b634e487b7160e01b5f52603260045260245ffd5b8181038181111561063857610638612761565b60208082526019908201527f496e76616c696420726563697069656e74206164647265737300000000000000604082015260600190565b60208082526019908201527f526563697069656e74206e6f742077686974656c697374656400000000000000604082015260600190565b60208082526017908201527f496e76616c6964206163636f756e742061646472657373000000000000000000604082015260600190565b5f60208284031215612864575f5ffd5b5051919050565b601f821115610e5a57805f5260205f20601f840160051c810160208510156128905750805b601f840160051c820191505b81811015611fcc575f815560010161289c565b815167ffffffffffffffff8111156128c9576128c96125d0565b6128dd816128d784546126d0565b8461286b565b6020601f82116001811461290f575f83156128f85750848201515b5f19600385901b1c1916600184901b178455611fcc565b5f84815260208120601f198516915b8281101561293e578785015182556020948501946001909201910161291e565b508482101561295b57868401515f19600387901b60f8161c191681555b50505050600190811b01905550565b5f82518060208501845e5f92019182525091905056fe52c63247e1f47db19d5ce0460030c497f067ca4cebf71ba98eeadabe20bace00360894a13ba1a3210667c828492db98dca3e2076cc3735a920a3ca505d382bbc442a94f1a1fac79af32856af2a64f63648cfa2ef3b98610a5bb7cbec4cee698502dd7bc7dec4dceedda775e58dd541e08a116c6c53815c0bd028192f7b626800cd5ed15c6e187e77e9aee88184c21f4f2182ab5827cb3b7e07fbedcd63f033009b779b17422d0df92223018b32b4d1fa46e071723d6817e2486d003becc55f00a2646970667358221220f7c2954de56edf05d76f88f580037602b591bc93ef1a94ba39479acd75e7e8a564736f6c634300081e0033",
					"opcodes": "PUSH1 0xC0 PUSH1 0x40 DUP2 SWAP1 MSTORE ADDRESS PUSH1 0x80 MSTORE PUSH2 0x2B52 CODESIZE DUP2 SWAP1 SUB SWAP1 DUP2 SWAP1 DUP4 CODECOPY DUP2 ADD PUSH1 0x40 DUP2 SWAP1 MSTORE PUSH2 0x26 SWAP2 PUSH2 0x7A JUMP JUMPDEST DUP1 PUSH0 SUB PUSH2 0x6E JUMPI PUSH1 0x40 MLOAD PUSH3 0x461BCD PUSH1 0xE5 SHL DUP2 MSTORE PUSH1 0x20 PUSH1 0x4 DUP3 ADD MSTORE PUSH1 0x12 PUSH1 0x24 DUP3 ADD MSTORE PUSH18 0x125B9D985B1A590818D85C08185B5BDD5B9D PUSH1 0x72 SHL PUSH1 0x44 DUP3 ADD MSTORE PUSH1 0x64 ADD PUSH1 0x40 MLOAD DUP1 SWAP2 SUB SWAP1 REVERT JUMPDEST PUSH1 0xA0 MSTORE PUSH1 0x1 DUP1 SSTORE PUSH2 0x91 JUMP JUMPDEST PUSH0 PUSH1 0x20 DUP3 DUP5 SUB SLT ISZERO PUSH2 0x8A JUMPI PUSH0 PUSH0 REVERT JUMPDEST POP MLOAD SWAP2 SWAP1 POP JUMP JUMPDEST PUSH1 0x80 MLOAD PUSH1 0xA0 MLOAD PUSH2 0x2A76 PUSH2 0xDC PUSH0 CODECOPY PUSH0 DUP2 DUP2 PUSH2 0x360 ADD MSTORE DUP2 DUP2 PUSH2 0x5D2 ADD MSTORE DUP2 DUP2 PUSH2 0xFF5 ADD MSTORE DUP2 DUP2 PUSH2 0x1822 ADD MSTORE PUSH2 0x1853 ADD MSTORE PUSH0 DUP2 DUP2 PUSH2 0x1BD8 ADD MSTORE DUP2 DUP2 PUSH2 0x1C01 ADD MSTORE PUSH2 0x1DB8 ADD MSTORE PUSH2 0x2A76 PUSH0 RETURN INVALID PUSH1 0x80 PUSH1 0x40 MSTORE PUSH1 0x4 CALLDATASIZE LT PUSH2 0x1F1 JUMPI PUSH0 CALLDATALOAD PUSH1 0xE0 SHR DUP1 PUSH4 0x52D1902D GT PUSH2 0x108 JUMPI DUP1 PUSH4 0xA217FDDF GT PUSH2 0x9D JUMPI DUP1 PUSH4 0xD547741F GT PUSH2 0x6D JUMPI DUP1 PUSH4 0xD547741F EQ PUSH2 0x564 JUMPI DUP1 PUSH4 0xDD62ED3E EQ PUSH2 0x583 JUMPI DUP1 PUSH4 0xE43252D7 EQ PUSH2 0x5A2 JUMPI DUP1 PUSH4 0xEC81B483 EQ PUSH2 0x5C1 JUMPI DUP1 PUSH4 0xF76E95E5 EQ PUSH2 0x5F4 JUMPI PUSH0 PUSH0 REVERT JUMPDEST DUP1 PUSH4 0xA217FDDF EQ PUSH2 0x4E3 JUMPI DUP1 PUSH4 0xA9059CBB EQ PUSH2 0x4F6 JUMPI DUP1 PUSH4 0xAD3CB1CC EQ PUSH2 0x515 JUMPI DUP1 PUSH4 0xBFAB3B9E EQ PUSH2 0x545 JUMPI PUSH0 PUSH0 REVERT JUMPDEST DUP1 PUSH4 0x8AB1D681 GT PUSH2 0xD8 JUMPI DUP1 PUSH4 0x8AB1D681 EQ PUSH2 0x472 JUMPI DUP1 PUSH4 0x91D14854 EQ PUSH2 0x491 JUMPI DUP1 PUSH4 0x95D89B41 EQ PUSH2 0x4B0 JUMPI DUP1 PUSH4 0x9DC29FAC EQ PUSH2 0x4C4 JUMPI PUSH0 PUSH0 REVERT JUMPDEST DUP1 PUSH4 0x52D1902D EQ PUSH2 0x408 JUMPI DUP1 PUSH4 0x5C975ABB EQ PUSH2 0x41C JUMPI DUP1 PUSH4 0x70A08231 EQ PUSH2 0x43F JUMPI DUP1 PUSH4 0x8456CB59 EQ PUSH2 0x45E JUMPI PUSH0 PUSH0 REVERT JUMPDEST DUP1 PUSH4 0x2913DAA0 GT PUSH2 0x189 JUMPI DUP1 PUSH4 0x36568ABE GT PUSH2 0x159 JUMPI DUP1 PUSH4 0x36568ABE EQ PUSH2 0x384 JUMPI DUP1 PUSH4 0x3AF32ABF EQ PUSH2 0x3A3 JUMPI DUP1 PUSH4 0x3F4BA83A EQ PUSH2 0x3C2 JUMPI DUP1 PUSH4 0x40C10F19 EQ PUSH2 0x3D6 JUMPI DUP1 PUSH4 0x4F1EF286 EQ PUSH2 0x3F5 JUMPI PUSH0 PUSH0 REVERT JUMPDEST DUP1 PUSH4 0x2913DAA0 EQ PUSH2 0x305 JUMPI DUP1 PUSH4 0x2F2FF15D EQ PUSH2 0x318 JUMPI DUP1 PUSH4 0x313CE567 EQ PUSH2 0x337 JUMPI DUP1 PUSH4 0x355274EA EQ PUSH2 0x352 JUMPI PUSH0 PUSH0 REVERT JUMPDEST DUP1 PUSH4 0x1663A066 GT PUSH2 0x1C4 JUMPI DUP1 PUSH4 0x1663A066 EQ PUSH2 0x28A JUMPI DUP1 PUSH4 0x18160DDD EQ PUSH2 0x2A9 JUMPI DUP1 PUSH4 0x23B872DD EQ PUSH2 0x2C7 JUMPI DUP1 PUSH4 0x248A9CA3 EQ PUSH2 0x2E6 JUMPI PUSH0 PUSH0 REVERT JUMPDEST DUP1 PUSH4 0x1FFC9A7 EQ PUSH2 0x1F5 JUMPI DUP1 PUSH4 0x6FDDE03 EQ PUSH2 0x229 JUMPI DUP1 PUSH4 0x77F224A EQ PUSH2 0x24A JUMPI DUP1 PUSH4 0x95EA7B3 EQ PUSH2 0x26B JUMPI JUMPDEST PUSH0 PUSH0 REVERT JUMPDEST CALLVALUE DUP1 ISZERO PUSH2 0x200 JUMPI PUSH0 PUSH0 REVERT JUMPDEST POP PUSH2 0x214 PUSH2 0x20F CALLDATASIZE PUSH1 0x4 PUSH2 0x235B JUMP JUMPDEST PUSH2 0x608 JUMP JUMPDEST PUSH1 0x40 MLOAD SWAP1 ISZERO ISZERO DUP2 MSTORE PUSH1 0x20 ADD JUMPDEST PUSH1 0x40 MLOAD DUP1 SWAP2 SUB SWAP1 RETURN JUMPDEST CALLVALUE DUP1 ISZERO PUSH2 0x234 JUMPI PUSH0 PUSH0 REVERT JUMPDEST POP PUSH2 0x23D PUSH2 0x63E JUMP JUMPDEST PUSH1 0x40 MLOAD PUSH2 0x220 SWAP2 SWAP1 PUSH2 0x2382 JUMP JUMPDEST CALLVALUE DUP1 ISZERO PUSH2 0x255 JUMPI PUSH0 PUSH0 REVERT JUMPDEST POP PUSH2 0x269 PUSH2 0x264 CALLDATASIZE PUSH1 0x4 PUSH2 0x2417 JUMP JUMPDEST PUSH2 0x6FE JUMP JUMPDEST STOP JUMPDEST CALLVALUE DUP1 ISZERO PUSH2 0x276 JUMPI PUSH0 PUSH0 REVERT JUMPDEST POP PUSH2 0x214 PUSH2 0x285 CALLDATASIZE PUSH1 0x4 PUSH2 0x2497 JUMP JUMPDEST PUSH2 0xA0F JUMP JUMPDEST CALLVALUE DUP1 ISZERO PUSH2 0x295 JUMPI PUSH0 PUSH0 REVERT JUMPDEST POP PUSH2 0x269 PUSH2 0x2A4 CALLDATASIZE PUSH1 0x4 PUSH2 0x24BF JUMP JUMPDEST PUSH2 0xA26 JUMP JUMPDEST CALLVALUE DUP1 ISZERO PUSH2 0x2B4 JUMPI PUSH0 PUSH0 REVERT JUMPDEST POP PUSH1 0x1 SLOAD JUMPDEST PUSH1 0x40 MLOAD SWAP1 DUP2 MSTORE PUSH1 0x20 ADD PUSH2 0x220 JUMP JUMPDEST CALLVALUE DUP1 ISZERO PUSH2 0x2D2 JUMPI PUSH0 PUSH0 REVERT JUMPDEST POP PUSH2 0x214 PUSH2 0x2E1 CALLDATASIZE PUSH1 0x4 PUSH2 0x253C JUMP JUMPDEST PUSH2 0xC1F JUMP JUMPDEST CALLVALUE DUP1 ISZERO PUSH2 0x2F1 JUMPI PUSH0 PUSH0 REVERT JUMPDEST POP PUSH2 0x2B9 PUSH2 0x300 CALLDATASIZE PUSH1 0x4 PUSH2 0x2576 JUMP JUMPDEST PUSH2 0xDE5 JUMP JUMPDEST CALLVALUE DUP1 ISZERO PUSH2 0x310 JUMPI PUSH0 PUSH0 REVERT JUMPDEST POP PUSH1 0x64 PUSH2 0x2B9 JUMP JUMPDEST CALLVALUE DUP1 ISZERO PUSH2 0x323 JUMPI PUSH0 PUSH0 REVERT JUMPDEST POP PUSH2 0x269 PUSH2 0x332 CALLDATASIZE PUSH1 0x4 PUSH2 0x258D JUMP JUMPDEST PUSH2 0xE05 JUMP JUMPDEST CALLVALUE DUP1 ISZERO PUSH2 0x342 JUMPI PUSH0 PUSH0 REVERT JUMPDEST POP PUSH1 0x40 MLOAD PUSH1 0x12 DUP2 MSTORE PUSH1 0x20 ADD PUSH2 0x220 JUMP JUMPDEST CALLVALUE DUP1 ISZERO PUSH2 0x35D JUMPI PUSH0 PUSH0 REVERT JUMPDEST POP PUSH32 0x0 PUSH2 0x2B9 JUMP JUMPDEST CALLVALUE DUP1 ISZERO PUSH2 0x38F JUMPI PUSH0 PUSH0 REVERT JUMPDEST POP PUSH2 0x269 PUSH2 0x39E CALLDATASIZE PUSH1 0x4 PUSH2 0x258D JUMP JUMPDEST PUSH2 0xE27 JUMP JUMPDEST CALLVALUE DUP1 ISZERO PUSH2 0x3AE JUMPI PUSH0 PUSH0 REVERT JUMPDEST POP PUSH2 0x214 PUSH2 0x3BD CALLDATASIZE PUSH1 0x4 PUSH2 0x25B7 JUMP JUMPDEST PUSH2 0xE5F JUMP JUMPDEST CALLVALUE DUP1 ISZERO PUSH2 0x3CD JUMPI PUSH0 PUSH0 REVERT JUMPDEST POP PUSH2 0x269 PUSH2 0xEA4 JUMP JUMPDEST CALLVALUE DUP1 ISZERO PUSH2 0x3E1 JUMPI PUSH0 PUSH0 REVERT JUMPDEST POP PUSH2 0x269 PUSH2 0x3F0 CALLDATASIZE PUSH1 0x4 PUSH2 0x2497 JUMP JUMPDEST PUSH2 0xF03 JUMP JUMPDEST PUSH2 0x269 PUSH2 0x403 CALLDATASIZE PUSH1 0x4 PUSH2 0x25E4 JUMP JUMPDEST PUSH2 0x10BA JUMP JUMPDEST CALLVALUE DUP1 ISZERO PUSH2 0x413 JUMPI PUSH0 PUSH0 REVERT JUMPDEST POP PUSH2 0x2B9 PUSH2 0x10D5 JUMP JUMPDEST CALLVALUE DUP1 ISZERO PUSH2 0x427 JUMPI PUSH0 PUSH0 REVERT JUMPDEST POP PUSH0 MLOAD PUSH1 0x20 PUSH2 0x2A01 PUSH0 CODECOPY PUSH0 MLOAD SWAP1 PUSH0 MSTORE SLOAD PUSH1 0xFF AND PUSH2 0x214 JUMP JUMPDEST CALLVALUE DUP1 ISZERO PUSH2 0x44A JUMPI PUSH0 PUSH0 REVERT JUMPDEST POP PUSH2 0x2B9 PUSH2 0x459 CALLDATASIZE PUSH1 0x4 PUSH2 0x25B7 JUMP JUMPDEST PUSH2 0x10F0 JUMP JUMPDEST CALLVALUE DUP1 ISZERO PUSH2 0x469 JUMPI PUSH0 PUSH0 REVERT JUMPDEST POP PUSH2 0x269 PUSH2 0x1116 JUMP JUMPDEST CALLVALUE DUP1 ISZERO PUSH2 0x47D JUMPI PUSH0 PUSH0 REVERT JUMPDEST POP PUSH2 0x269 PUSH2 0x48C CALLDATASIZE PUSH1 0x4 PUSH2 0x25B7 JUMP JUMPDEST PUSH2 0x1175 JUMP JUMPDEST CALLVALUE DUP1 ISZERO PUSH2 0x49C JUMPI PUSH0 PUSH0 REVERT JUMPDEST POP PUSH2 0x214 PUSH2 0x4AB CALLDATASIZE PUSH1 0x4 PUSH2 0x258D JUMP JUMPDEST PUSH2 0x11FF JUMP JUMPDEST CALLVALUE DUP1 ISZERO PUSH2 0x4BB JUMPI PUSH0 PUSH0 REVERT JUMPDEST POP PUSH2 0x23D PUSH2 0x1235 JUMP JUMPDEST CALLVALUE DUP1 ISZERO PUSH2 0x4CF JUMPI PUSH0 PUSH0 REVERT JUMPDEST POP PUSH2 0x269 PUSH2 0x4DE CALLDATASIZE PUSH1 0x4 PUSH2 0x2497 JUMP JUMPDEST PUSH2 0x1273 JUMP JUMPDEST CALLVALUE DUP1 ISZERO PUSH2 0x4EE JUMPI PUSH0 PUSH0 REVERT JUMPDEST POP PUSH2 0x2B9 PUSH0 DUP2 JUMP JUMPDEST CALLVALUE DUP1 ISZERO PUSH2 0x501 JUMPI PUSH0 PUSH0 REVERT JUMPDEST POP PUSH2 0x214 PUSH2 0x510 CALLDATASIZE PUSH1 0x4 PUSH2 0x2497 JUMP JUMPDEST PUSH2 0x1403 JUMP JUMPDEST CALLVALUE DUP1 ISZERO PUSH2 0x520 JUMPI PUSH0 PUSH0 REVERT JUMPDEST POP PUSH2 0x23D PUSH1 0x40 MLOAD DUP1 PUSH1 0x40 ADD PUSH1 0x40 MSTORE DUP1 PUSH1 0x5 DUP2 MSTORE PUSH1 0x20 ADD PUSH5 0x352E302E3 PUSH1 0xDC SHL DUP2 MSTORE POP DUP2 JUMP JUMPDEST CALLVALUE DUP1 ISZERO PUSH2 0x550 JUMPI PUSH0 PUSH0 REVERT JUMPDEST POP PUSH2 0x269 PUSH2 0x55F CALLDATASIZE PUSH1 0x4 PUSH2 0x24BF JUMP JUMPDEST PUSH2 0x1568 JUMP JUMPDEST CALLVALUE DUP1 ISZERO PUSH2 0x56F JUMPI PUSH0 PUSH0 REVERT JUMPDEST POP PUSH2 0x269 PUSH2 0x57E CALLDATASIZE PUSH1 0x4 PUSH2 0x258D JUMP JUMPDEST PUSH2 0x1727 JUMP JUMPDEST CALLVALUE DUP1 ISZERO PUSH2 0x58E JUMPI PUSH0 PUSH0 REVERT JUMPDEST POP PUSH2 0x2B9 PUSH2 0x59D CALLDATASIZE PUSH1 0x4 PUSH2 0x26A8 JUMP JUMPDEST PUSH2 0x1743 JUMP JUMPDEST CALLVALUE DUP1 ISZERO PUSH2 0x5AD JUMPI PUSH0 PUSH0 REVERT JUMPDEST POP PUSH2 0x269 PUSH2 0x5BC CALLDATASIZE PUSH1 0x4 PUSH2 0x25B7 JUMP JUMPDEST PUSH2 0x178C JUMP JUMPDEST CALLVALUE DUP1 ISZERO PUSH2 0x5CC JUMPI PUSH0 PUSH0 REVERT JUMPDEST POP PUSH2 0x2B9 PUSH32 0x0 DUP2 JUMP JUMPDEST CALLVALUE DUP1 ISZERO PUSH2 0x5FF JUMPI PUSH0 PUSH0 REVERT JUMPDEST POP PUSH2 0x2B9 PUSH2 0x181B JUMP JUMPDEST PUSH0 PUSH1 0x1 PUSH1 0x1 PUSH1 0xE0 SHL SUB NOT DUP3 AND PUSH4 0x7965DB0B PUSH1 0xE0 SHL EQ DUP1 PUSH2 0x638 JUMPI POP PUSH4 0x1FFC9A7 PUSH1 0xE0 SHL PUSH1 0x1 PUSH1 0x1 PUSH1 0xE0 SHL SUB NOT DUP4 AND EQ JUMPDEST SWAP3 SWAP2 POP POP JUMP JUMPDEST PUSH32 0x52C63247E1F47DB19D5CE0460030C497F067CA4CEBF71BA98EEADABE20BACE03 DUP1 SLOAD PUSH1 0x60 SWAP2 PUSH0 MLOAD PUSH1 0x20 PUSH2 0x2981 PUSH0 CODECOPY PUSH0 MLOAD SWAP1 PUSH0 MSTORE SWAP2 PUSH2 0x67C SWAP1 PUSH2 0x26D0 JUMP JUMPDEST DUP1 PUSH1 0x1F ADD PUSH1 0x20 DUP1 SWAP2 DIV MUL PUSH1 0x20 ADD PUSH1 0x40 MLOAD SWAP1 DUP2 ADD PUSH1 0x40 MSTORE DUP1 SWAP3 SWAP2 SWAP1 DUP2 DUP2 MSTORE PUSH1 0x20 ADD DUP3 DUP1 SLOAD PUSH2 0x6A8 SWAP1 PUSH2 0x26D0 JUMP JUMPDEST DUP1 ISZERO PUSH2 0x6F3 JUMPI DUP1 PUSH1 0x1F LT PUSH2 0x6CA JUMPI PUSH2 0x100 DUP1 DUP4 SLOAD DIV MUL DUP4 MSTORE SWAP2 PUSH1 0x20 ADD SWAP2 PUSH2 0x6F3 JUMP JUMPDEST DUP3 ADD SWAP2 SWAP1 PUSH0 MSTORE PUSH1 0x20 PUSH0 KECCAK256 SWAP1 JUMPDEST DUP2 SLOAD DUP2 MSTORE SWAP1 PUSH1 0x1 ADD SWAP1 PUSH1 0x20 ADD DUP1 DUP4 GT PUSH2 0x6D6 JUMPI DUP3 SWAP1 SUB PUSH1 0x1F AND DUP3 ADD SWAP2 JUMPDEST POP POP POP POP POP SWAP2 POP POP SWAP1 JUMP JUMPDEST PUSH0 PUSH2 0x707 PUSH2 0x187D JUMP JUMPDEST DUP1 SLOAD SWAP1 SWAP2 POP PUSH1 0xFF PUSH1 0x1 PUSH1 0x40 SHL DUP3 DIV AND ISZERO SWAP1 PUSH8 0xFFFFFFFFFFFFFFFF AND PUSH0 DUP2 ISZERO DUP1 ISZERO PUSH2 0x72E JUMPI POP DUP3 JUMPDEST SWAP1 POP PUSH0 DUP3 PUSH8 0xFFFFFFFFFFFFFFFF AND PUSH1 0x1 EQ DUP1 ISZERO PUSH2 0x74A JUMPI POP ADDRESS EXTCODESIZE ISZERO JUMPDEST SWAP1 POP DUP2 ISZERO DUP1 ISZERO PUSH2 0x758 JUMPI POP DUP1 ISZERO JUMPDEST ISZERO PUSH2 0x776 JUMPI PUSH1 0x40 MLOAD PUSH4 0xF92EE8A9 PUSH1 0xE0 SHL DUP2 MSTORE PUSH1 0x4 ADD PUSH1 0x40 MLOAD DUP1 SWAP2 SUB SWAP1 REVERT JUMPDEST DUP5 SLOAD PUSH8 0xFFFFFFFFFFFFFFFF NOT AND PUSH1 0x1 OR DUP6 SSTORE DUP4 ISZERO PUSH2 0x7A0 JUMPI DUP5 SLOAD PUSH1 0xFF PUSH1 0x40 SHL NOT AND PUSH1 0x1 PUSH1 0x40 SHL OR DUP6 SSTORE JUMPDEST PUSH1 0x1 PUSH1 0x1 PUSH1 0xA0 SHL SUB DUP7 AND PUSH2 0x7F3 JUMPI PUSH1 0x40 MLOAD PUSH3 0x461BCD PUSH1 0xE5 SHL DUP2 MSTORE PUSH1 0x20 PUSH1 0x4 DUP3 ADD MSTORE PUSH1 0x15 PUSH1 0x24 DUP3 ADD MSTORE PUSH21 0x496E76616C69642061646D696E2061646472657373 PUSH1 0x58 SHL PUSH1 0x44 DUP3 ADD MSTORE PUSH1 0x64 ADD JUMPDEST PUSH1 0x40 MLOAD DUP1 SWAP2 SUB SWAP1 REVERT JUMPDEST PUSH2 0x864 DUP11 DUP11 DUP1 DUP1 PUSH1 0x1F ADD PUSH1 0x20 DUP1 SWAP2 DIV MUL PUSH1 0x20 ADD PUSH1 0x40 MLOAD SWAP1 DUP2 ADD PUSH1 0x40 MSTORE DUP1 SWAP4 SWAP3 SWAP2 SWAP1 DUP2 DUP2 MSTORE PUSH1 0x20 ADD DUP4 DUP4 DUP1 DUP3 DUP5 CALLDATACOPY PUSH0 SWAP3 ADD SWAP2 SWAP1 SWAP2 MSTORE POP POP PUSH1 0x40 DUP1 MLOAD PUSH1 0x20 PUSH1 0x1F DUP15 ADD DUP2 SWAP1 DIV DUP2 MUL DUP3 ADD DUP2 ADD SWAP1 SWAP3 MSTORE DUP13 DUP2 MSTORE SWAP3 POP DUP13 SWAP2 POP DUP12 SWAP1 DUP2 SWAP1 DUP5 ADD DUP4 DUP3 DUP1 DUP3 DUP5 CALLDATACOPY PUSH0 SWAP3 ADD SWAP2 SWAP1 SWAP2 MSTORE POP PUSH2 0x18A5 SWAP3 POP POP POP JUMP JUMPDEST PUSH2 0x86C PUSH2 0x18B7 JUMP JUMPDEST PUSH2 0x874 PUSH2 0x18B7 JUMP JUMPDEST PUSH2 0x87C PUSH2 0x18C1 JUMP JUMPDEST PUSH2 0x884 PUSH2 0x18B7 JUMP JUMPDEST PUSH2 0x88E PUSH0 DUP8 PUSH2 0x18D1 JUMP JUMPDEST POP PUSH2 0x8B9 PUSH32 0x114E74F6EA3BD819998F78687BFCB11B140DA08E9B7D222FA9C1F1BA1F2AA122 DUP8 PUSH2 0x18D1 JUMP JUMPDEST POP PUSH2 0x8D1 PUSH0 MLOAD PUSH1 0x20 PUSH2 0x29C1 PUSH0 CODECOPY PUSH0 MLOAD SWAP1 PUSH0 MSTORE DUP8 PUSH2 0x18D1 JUMP JUMPDEST POP PUSH2 0x8FC PUSH32 0x65D7A28E3265B37A6474929F336521B332C1681B933F6CB9F3376673440D862A DUP8 PUSH2 0x18D1 JUMP JUMPDEST POP PUSH2 0x927 PUSH32 0x189AB7A9244DF0848122154315AF71FE140F3DB0FE014031783B0946B8C9D2E3 DUP8 PUSH2 0x18D1 JUMP JUMPDEST POP PUSH1 0x1 PUSH1 0x1 PUSH1 0xA0 SHL SUB DUP7 AND PUSH0 DUP2 DUP2 MSTORE PUSH1 0x20 DUP2 SWAP1 MSTORE PUSH1 0x40 DUP1 DUP3 KECCAK256 DUP1 SLOAD PUSH1 0xFF NOT AND PUSH1 0x1 SWAP1 DUP2 OR SWAP1 SWAP2 SSTORE SWAP1 MLOAD SWAP1 SWAP3 SWAP2 PUSH32 0xF93F9A76C1BF3444D22400A00CB9FE990E6ABE9DBB333FDA48859CFEE864543D SWAP2 LOG3 DUP6 PUSH1 0x1 PUSH1 0x1 PUSH1 0xA0 SHL SUB AND PUSH32 0x2583210D6110B6D11E7775956ED0BEA544D92D3760073450942661B426486365 DUP12 DUP12 DUP12 DUP12 PUSH1 0x40 MLOAD PUSH2 0x9B5 SWAP5 SWAP4 SWAP3 SWAP2 SWAP1 PUSH2 0x2730 JUMP JUMPDEST PUSH1 0x40 MLOAD DUP1 SWAP2 SUB SWAP1 LOG2 DUP4 ISZERO PUSH2 0xA03 JUMPI DUP5 SLOAD PUSH1 0xFF PUSH1 0x40 SHL NOT AND DUP6 SSTORE PUSH1 0x40 MLOAD PUSH1 0x1 DUP2 MSTORE PUSH32 0xC7F505B2F371AE2175EE4913F4499E1F2633A7B5936321EED1CDAEB6115181D2 SWAP1 PUSH1 0x20 ADD PUSH1 0x40 MLOAD DUP1 SWAP2 SUB SWAP1 LOG1 JUMPDEST POP POP POP POP POP POP POP POP POP POP JUMP JUMPDEST PUSH0 CALLER PUSH2 0xA1C DUP2 DUP6 DUP6 PUSH2 0x1972 JUMP JUMPDEST POP PUSH1 0x1 SWAP4 SWAP3 POP POP POP JUMP JUMPDEST PUSH0 MLOAD PUSH1 0x20 PUSH2 0x29C1 PUSH0 CODECOPY PUSH0 MLOAD SWAP1 PUSH0 MSTORE PUSH2 0xA3D DUP2 PUSH2 0x197F JUMP JUMPDEST DUP4 PUSH0 DUP2 SWAP1 SUB PUSH2 0xA85 JUMPI PUSH1 0x40 MLOAD PUSH3 0x461BCD PUSH1 0xE5 SHL DUP2 MSTORE PUSH1 0x20 PUSH1 0x4 DUP3 ADD MSTORE PUSH1 0x14 PUSH1 0x24 DUP3 ADD MSTORE PUSH20 0x456D707479206163636F756E7473206172726179 PUSH1 0x60 SHL PUSH1 0x44 DUP3 ADD MSTORE PUSH1 0x64 ADD PUSH2 0x7EA JUMP JUMPDEST DUP3 PUSH0 SUB PUSH2 0xAC4 JUMPI PUSH1 0x40 MLOAD PUSH3 0x461BCD PUSH1 0xE5 SHL DUP2 MSTORE PUSH1 0x20 PUSH1 0x4 DUP3 ADD MSTORE PUSH1 0xD PUSH1 0x24 DUP3 ADD MSTORE PUSH13 0x125B9D985B1A59081B1A5B5A5D PUSH1 0x9A SHL PUSH1 0x44 DUP3 ADD MSTORE PUSH1 0x64 ADD PUSH2 0x7EA JUMP JUMPDEST PUSH2 0xAD0 PUSH1 0x64 PUSH1 0x1 PUSH2 0x2775 JUMP JUMPDEST DUP4 LT PUSH2 0xB15 JUMPI PUSH1 0x40 MLOAD PUSH3 0x461BCD PUSH1 0xE5 SHL DUP2 MSTORE PUSH1 0x20 PUSH1 0x4 DUP3 ADD MSTORE PUSH1 0x14 PUSH1 0x24 DUP3 ADD MSTORE PUSH20 0x42617463682073697A6520746F6F206C61726765 PUSH1 0x60 SHL PUSH1 0x44 DUP3 ADD MSTORE PUSH1 0x64 ADD PUSH2 0x7EA JUMP JUMPDEST PUSH0 PUSH2 0xB20 DUP5 DUP7 PUSH2 0x2775 JUMP JUMPDEST SWAP1 POP PUSH2 0xB2D DUP3 PUSH1 0x1 PUSH2 0x2775 JUMP JUMPDEST DUP2 LT PUSH2 0xB36 JUMPI POP DUP1 JUMPDEST DUP5 JUMPDEST DUP2 DUP2 LT ISZERO PUSH2 0xBE1 JUMPI PUSH0 DUP9 DUP9 DUP4 DUP2 DUP2 LT PUSH2 0xB53 JUMPI PUSH2 0xB53 PUSH2 0x2788 JUMP JUMPDEST SWAP1 POP PUSH1 0x20 MUL ADD PUSH1 0x20 DUP2 ADD SWAP1 PUSH2 0xB68 SWAP2 SWAP1 PUSH2 0x25B7 JUMP JUMPDEST SWAP1 POP PUSH1 0x1 PUSH1 0x1 PUSH1 0xA0 SHL SUB DUP2 AND PUSH2 0xBBB JUMPI PUSH1 0x40 MLOAD PUSH3 0x461BCD PUSH1 0xE5 SHL DUP2 MSTORE PUSH1 0x20 PUSH1 0x4 DUP3 ADD MSTORE PUSH1 0x18 PUSH1 0x24 DUP3 ADD MSTORE PUSH24 0x92DCECC2D8D2C840C2C6C6DEEADCE840D2DC40C4C2E8C6D PUSH1 0x43 SHL PUSH1 0x44 DUP3 ADD MSTORE PUSH1 0x64 ADD PUSH2 0x7EA JUMP JUMPDEST PUSH1 0x1 PUSH1 0x1 PUSH1 0xA0 SHL SUB AND PUSH0 SWAP1 DUP2 MSTORE PUSH1 0x20 DUP2 SWAP1 MSTORE PUSH1 0x40 SWAP1 KECCAK256 DUP1 SLOAD PUSH1 0xFF NOT AND SWAP1 SSTORE PUSH1 0x1 ADD PUSH2 0xB38 JUMP JUMPDEST POP PUSH2 0xBEC DUP6 DUP3 PUSH2 0x279C JUMP JUMPDEST PUSH1 0x40 MLOAD DUP7 SWAP1 PUSH32 0x3838459CD794256A3C29BB3186DA72029A8036C0F596FEE1BD526F8EB9493D41 SWAP1 PUSH0 SWAP1 LOG3 POP POP POP POP POP POP POP JUMP JUMPDEST PUSH0 PUSH2 0xC28 PUSH2 0x198C JUMP JUMPDEST PUSH1 0x1 PUSH1 0x1 PUSH1 0xA0 SHL SUB DUP5 AND PUSH2 0xC77 JUMPI PUSH1 0x40 MLOAD PUSH3 0x461BCD PUSH1 0xE5 SHL DUP2 MSTORE PUSH1 0x20 PUSH1 0x4 DUP3 ADD MSTORE PUSH1 0x16 PUSH1 0x24 DUP3 ADD MSTORE PUSH22 0x496E76616C69642073656E6465722061646472657373 PUSH1 0x50 SHL PUSH1 0x44 DUP3 ADD MSTORE PUSH1 0x64 ADD PUSH2 0x7EA JUMP JUMPDEST PUSH1 0x1 PUSH1 0x1 PUSH1 0xA0 SHL SUB DUP4 AND PUSH2 0xC9D JUMPI PUSH1 0x40 MLOAD PUSH3 0x461BCD PUSH1 0xE5 SHL DUP2 MSTORE PUSH1 0x4 ADD PUSH2 0x7EA SWAP1 PUSH2 0x27AF JUMP JUMPDEST DUP2 PUSH0 SUB PUSH2 0xCE6 JUMPI PUSH1 0x40 MLOAD PUSH3 0x461BCD PUSH1 0xE5 SHL DUP2 MSTORE PUSH1 0x20 PUSH1 0x4 DUP3 ADD MSTORE PUSH1 0x17 PUSH1 0x24 DUP3 ADD MSTORE PUSH23 0x125B9D985B1A59081D1C985B9CD9995C88185B5BDD5B9D PUSH1 0x4A SHL PUSH1 0x44 DUP3 ADD MSTORE PUSH1 0x64 ADD PUSH2 0x7EA JUMP JUMPDEST PUSH1 0x1 PUSH1 0x1 PUSH1 0xA0 SHL SUB DUP1 DUP6 AND PUSH0 SWAP1 DUP2 MSTORE PUSH1 0x20 DUP2 SWAP1 MSTORE PUSH1 0x40 DUP1 DUP3 KECCAK256 SLOAD SWAP3 DUP7 AND DUP3 MSTORE SWAP1 KECCAK256 SLOAD PUSH1 0xFF SWAP2 DUP3 AND SWAP2 AND DUP2 PUSH2 0xD55 JUMPI PUSH1 0x40 MLOAD PUSH3 0x461BCD PUSH1 0xE5 SHL DUP2 MSTORE PUSH1 0x20 PUSH1 0x4 DUP3 ADD MSTORE PUSH1 0x16 PUSH1 0x24 DUP3 ADD MSTORE PUSH22 0x14D95B99195C881B9BDD081DDA1A5D195B1A5CDD1959 PUSH1 0x52 SHL PUSH1 0x44 DUP3 ADD MSTORE PUSH1 0x64 ADD PUSH2 0x7EA JUMP JUMPDEST DUP1 PUSH2 0xD72 JUMPI PUSH1 0x40 MLOAD PUSH3 0x461BCD PUSH1 0xE5 SHL DUP2 MSTORE PUSH1 0x4 ADD PUSH2 0x7EA SWAP1 PUSH2 0x27E6 JUMP JUMPDEST CALLER PUSH2 0xD7E DUP8 DUP3 DUP8 PUSH2 0x19BC JUMP JUMPDEST PUSH2 0xD89 DUP8 DUP8 DUP8 PUSH2 0x1A1A JUMP JUMPDEST DUP6 PUSH1 0x1 PUSH1 0x1 PUSH1 0xA0 SHL SUB AND DUP8 PUSH1 0x1 PUSH1 0x1 PUSH1 0xA0 SHL SUB AND PUSH32 0xD0ED88A3F042C6BBB1E3EA406079B5F2B4B198AFCCAA535D837F4C63ABBC4DE6 DUP8 PUSH1 0x40 MLOAD PUSH2 0xDCE SWAP2 DUP2 MSTORE PUSH1 0x20 ADD SWAP1 JUMP JUMPDEST PUSH1 0x40 MLOAD DUP1 SWAP2 SUB SWAP1 LOG3 PUSH1 0x1 SWAP4 POP POP POP POP JUMPDEST SWAP4 SWAP3 POP POP POP JUMP JUMPDEST PUSH0 SWAP1 DUP2 MSTORE PUSH0 MLOAD PUSH1 0x20 PUSH2 0x29E1 PUSH0 CODECOPY PUSH0 MLOAD SWAP1 PUSH0 MSTORE PUSH1 0x20 MSTORE PUSH1 0x40 SWAP1 KECCAK256 PUSH1 0x1 ADD SLOAD SWAP1 JUMP JUMPDEST PUSH2 0xE0E DUP3 PUSH2 0xDE5 JUMP JUMPDEST PUSH2 0xE17 DUP2 PUSH2 0x197F JUMP JUMPDEST PUSH2 0xE21 DUP4 DUP4 PUSH2 0x18D1 JUMP JUMPDEST POP POP POP POP JUMP JUMPDEST PUSH1 0x1 PUSH1 0x1 PUSH1 0xA0 SHL SUB DUP2 AND CALLER EQ PUSH2 0xE50 JUMPI PUSH1 0x40 MLOAD PUSH4 0x334BD919 PUSH1 0xE1 SHL DUP2 MSTORE PUSH1 0x4 ADD PUSH1 0x40 MLOAD DUP1 SWAP2 SUB SWAP1 REVERT JUMPDEST PUSH2 0xE5A DUP3 DUP3 PUSH2 0x1A77 JUMP JUMPDEST POP POP POP JUMP JUMPDEST PUSH0 PUSH1 0x1 PUSH1 0x1 PUSH1 0xA0 SHL SUB DUP3 AND PUSH2 0xE86 JUMPI PUSH1 0x40 MLOAD PUSH3 0x461BCD PUSH1 0xE5 SHL DUP2 MSTORE PUSH1 0x4 ADD PUSH2 0x7EA SWAP1 PUSH2 0x281D JUMP JUMPDEST POP PUSH1 0x1 PUSH1 0x1 PUSH1 0xA0 SHL SUB AND PUSH0 SWAP1 DUP2 MSTORE PUSH1 0x20 DUP2 SWAP1 MSTORE PUSH1 0x40 SWAP1 KECCAK256 SLOAD PUSH1 0xFF AND SWAP1 JUMP JUMPDEST PUSH32 0x65D7A28E3265B37A6474929F336521B332C1681B933F6CB9F3376673440D862A PUSH2 0xECE DUP2 PUSH2 0x197F JUMP JUMPDEST PUSH2 0xED6 PUSH2 0x1AF0 JUMP JUMPDEST PUSH1 0x40 MLOAD CALLER SWAP1 PUSH32 0x5B65B0C1363B3003DB9BCC5E1FD8805A6D6BF5BF6DC9D3431EE4494CD7D11766 SWAP1 PUSH0 SWAP1 LOG2 POP JUMP JUMPDEST PUSH2 0xF0B PUSH2 0x1B4F JUMP JUMPDEST PUSH32 0x114E74F6EA3BD819998F78687BFCB11B140DA08E9B7D222FA9C1F1BA1F2AA122 PUSH2 0xF35 DUP2 PUSH2 0x197F JUMP JUMPDEST PUSH2 0xF3D PUSH2 0x198C JUMP JUMPDEST PUSH1 0x1 PUSH1 0x1 PUSH1 0xA0 SHL SUB DUP4 AND PUSH2 0xF63 JUMPI PUSH1 0x40 MLOAD PUSH3 0x461BCD PUSH1 0xE5 SHL DUP2 MSTORE PUSH1 0x4 ADD PUSH2 0x7EA SWAP1 PUSH2 0x27AF JUMP JUMPDEST DUP2 PUSH0 SUB PUSH2 0xFA8 JUMPI PUSH1 0x40 MLOAD PUSH3 0x461BCD PUSH1 0xE5 SHL DUP2 MSTORE PUSH1 0x20 PUSH1 0x4 DUP3 ADD MSTORE PUSH1 0x13 PUSH1 0x24 DUP3 ADD MSTORE PUSH19 0x125B9D985B1A59081B5A5B9D08185B5BDD5B9D PUSH1 0x6A SHL PUSH1 0x44 DUP3 ADD MSTORE PUSH1 0x64 ADD PUSH2 0x7EA JUMP JUMPDEST PUSH1 0x1 PUSH1 0x1 PUSH1 0xA0 SHL SUB DUP4 AND PUSH0 SWAP1 DUP2 MSTORE PUSH1 0x20 DUP2 SWAP1 MSTORE PUSH1 0x40 SWAP1 KECCAK256 SLOAD PUSH1 0xFF AND DUP1 PUSH2 0xFE0 JUMPI PUSH1 0x40 MLOAD PUSH3 0x461BCD PUSH1 0xE5 SHL DUP2 MSTORE PUSH1 0x4 ADD PUSH2 0x7EA SWAP1 PUSH2 0x27E6 JUMP JUMPDEST PUSH1 0x1 SLOAD PUSH0 PUSH2 0xFEE DUP6 DUP4 PUSH2 0x2775 JUMP JUMPDEST SWAP1 POP PUSH2 0x101B PUSH32 0x0 PUSH1 0x1 PUSH2 0x2775 JUMP JUMPDEST DUP2 LT PUSH2 0x1058 JUMPI PUSH1 0x40 MLOAD PUSH3 0x461BCD PUSH1 0xE5 SHL DUP2 MSTORE PUSH1 0x20 PUSH1 0x4 DUP3 ADD MSTORE PUSH1 0xC PUSH1 0x24 DUP3 ADD MSTORE PUSH12 0x10D85C08195E18D959591959 PUSH1 0xA2 SHL PUSH1 0x44 DUP3 ADD MSTORE PUSH1 0x64 ADD PUSH2 0x7EA JUMP JUMPDEST PUSH1 0x1 DUP2 SWAP1 SSTORE PUSH2 0x1067 DUP7 DUP7 PUSH2 0x1B86 JUMP JUMPDEST PUSH1 0x40 MLOAD DUP6 SWAP1 PUSH1 0x1 PUSH1 0x1 PUSH1 0xA0 SHL SUB DUP9 AND SWAP1 PUSH32 0x3F2C9D57C068687834F0DE942A9BABB9E5ACAB57D516D3480A3C16EE165A4273 SWAP1 PUSH0 SWAP1 LOG3 POP POP POP POP PUSH2 0x10B6 PUSH1 0x1 PUSH0 MLOAD PUSH1 0x20 PUSH2 0x2A21 PUSH0 CODECOPY PUSH0 MLOAD SWAP1 PUSH0 MSTORE SSTORE JUMP JUMPDEST POP POP JUMP JUMPDEST PUSH2 0x10C2 PUSH2 0x1BCD JUMP JUMPDEST PUSH2 0x10CB DUP3 PUSH2 0x1C71 JUMP JUMPDEST PUSH2 0x10B6 DUP3 DUP3 PUSH2 0x1CF1 JUMP JUMPDEST PUSH0 PUSH2 0x10DE PUSH2 0x1DAD JUMP JUMPDEST POP PUSH0 MLOAD PUSH1 0x20 PUSH2 0x29A1 PUSH0 CODECOPY PUSH0 MLOAD SWAP1 PUSH0 MSTORE SWAP1 JUMP JUMPDEST PUSH1 0x1 PUSH1 0x1 PUSH1 0xA0 SHL SUB AND PUSH0 SWAP1 DUP2 MSTORE PUSH0 MLOAD PUSH1 0x20 PUSH2 0x2981 PUSH0 CODECOPY PUSH0 MLOAD SWAP1 PUSH0 MSTORE PUSH1 0x20 MSTORE PUSH1 0x40 SWAP1 KECCAK256 SLOAD SWAP1 JUMP JUMPDEST PUSH32 0x65D7A28E3265B37A6474929F336521B332C1681B933F6CB9F3376673440D862A PUSH2 0x1140 DUP2 PUSH2 0x197F JUMP JUMPDEST PUSH2 0x1148 PUSH2 0x1DF6 JUMP JUMPDEST PUSH1 0x40 MLOAD CALLER SWAP1 PUSH32 0x81990FD9A5C552B8E3677917D8A03C07678F0D2CB68F88B634ACA2022E9BD19F SWAP1 PUSH0 SWAP1 LOG2 POP JUMP JUMPDEST PUSH0 MLOAD PUSH1 0x20 PUSH2 0x29C1 PUSH0 CODECOPY PUSH0 MLOAD SWAP1 PUSH0 MSTORE PUSH2 0x118C DUP2 PUSH2 0x197F JUMP JUMPDEST PUSH1 0x1 PUSH1 0x1 PUSH1 0xA0 SHL SUB DUP3 AND PUSH2 0x11B2 JUMPI PUSH1 0x40 MLOAD PUSH3 0x461BCD PUSH1 0xE5 SHL DUP2 MSTORE PUSH1 0x4 ADD PUSH2 0x7EA SWAP1 PUSH2 0x281D JUMP JUMPDEST PUSH1 0x1 PUSH1 0x1 PUSH1 0xA0 SHL SUB DUP3 AND PUSH0 DUP2 DUP2 MSTORE PUSH1 0x20 DUP2 SWAP1 MSTORE PUSH1 0x40 DUP1 DUP3 KECCAK256 DUP1 SLOAD PUSH1 0xFF NOT AND SWAP1 SSTORE MLOAD SWAP1 SWAP2 SWAP1 PUSH32 0xF93F9A76C1BF3444D22400A00CB9FE990E6ABE9DBB333FDA48859CFEE864543D SWAP1 DUP4 SWAP1 LOG3 POP POP JUMP JUMPDEST PUSH0 SWAP2 DUP3 MSTORE PUSH0 MLOAD PUSH1 0x20 PUSH2 0x29E1 PUSH0 CODECOPY PUSH0 MLOAD SWAP1 PUSH0 MSTORE PUSH1 0x20 SWAP1 DUP2 MSTORE PUSH1 0x40 DUP1 DUP5 KECCAK256 PUSH1 0x1 PUSH1 0x1 PUSH1 0xA0 SHL SUB SWAP4 SWAP1 SWAP4 AND DUP5 MSTORE SWAP2 SWAP1 MSTORE SWAP1 KECCAK256 SLOAD PUSH1 0xFF AND SWAP1 JUMP JUMPDEST PUSH32 0x52C63247E1F47DB19D5CE0460030C497F067CA4CEBF71BA98EEADABE20BACE04 DUP1 SLOAD PUSH1 0x60 SWAP2 PUSH0 MLOAD PUSH1 0x20 PUSH2 0x2981 PUSH0 CODECOPY PUSH0 MLOAD SWAP1 PUSH0 MSTORE SWAP2 PUSH2 0x67C SWAP1 PUSH2 0x26D0 JUMP JUMPDEST PUSH2 0x127B PUSH2 0x1B4F JUMP JUMPDEST PUSH32 0x114E74F6EA3BD819998F78687BFCB11B140DA08E9B7D222FA9C1F1BA1F2AA122 PUSH2 0x12A5 DUP2 PUSH2 0x197F JUMP JUMPDEST PUSH2 0x12AD PUSH2 0x198C JUMP JUMPDEST PUSH1 0x1 PUSH1 0x1 PUSH1 0xA0 SHL SUB DUP4 AND PUSH2 0x12FA JUMPI PUSH1 0x40 MLOAD PUSH3 0x461BCD PUSH1 0xE5 SHL DUP2 MSTORE PUSH1 0x20 PUSH1 0x4 DUP3 ADD MSTORE PUSH1 0x14 PUSH1 0x24 DUP3 ADD MSTORE PUSH20 0x496E76616C6964206275726E2061646472657373 PUSH1 0x60 SHL PUSH1 0x44 DUP3 ADD MSTORE PUSH1 0x64 ADD PUSH2 0x7EA JUMP JUMPDEST DUP2 PUSH0 SUB PUSH2 0x133F JUMPI PUSH1 0x40 MLOAD PUSH3 0x461BCD PUSH1 0xE5 SHL DUP2 MSTORE PUSH1 0x20 PUSH1 0x4 DUP3 ADD MSTORE PUSH1 0x13 PUSH1 0x24 DUP3 ADD MSTORE PUSH19 0x125B9D985B1A5908189D5C9B88185B5BDD5B9D PUSH1 0x6A SHL PUSH1 0x44 DUP3 ADD MSTORE PUSH1 0x64 ADD PUSH2 0x7EA JUMP JUMPDEST PUSH0 PUSH2 0x1349 DUP5 PUSH2 0x10F0 JUMP JUMPDEST SWAP1 POP PUSH2 0x1356 PUSH1 0x1 DUP5 PUSH2 0x279C JUMP JUMPDEST DUP2 GT PUSH2 0x139B JUMPI PUSH1 0x40 MLOAD PUSH3 0x461BCD PUSH1 0xE5 SHL DUP2 MSTORE PUSH1 0x20 PUSH1 0x4 DUP3 ADD MSTORE PUSH1 0x14 PUSH1 0x24 DUP3 ADD MSTORE PUSH20 0x496E73756666696369656E742062616C616E6365 PUSH1 0x60 SHL PUSH1 0x44 DUP3 ADD MSTORE PUSH1 0x64 ADD PUSH2 0x7EA JUMP JUMPDEST PUSH1 0x1 SLOAD PUSH2 0x13A8 DUP5 DUP3 PUSH2 0x279C JUMP JUMPDEST PUSH1 0x1 SSTORE PUSH2 0x13B5 DUP6 DUP6 PUSH2 0x1E3E JUMP JUMPDEST PUSH1 0x40 MLOAD DUP5 SWAP1 PUSH1 0x1 PUSH1 0x1 PUSH1 0xA0 SHL SUB DUP8 AND SWAP1 PUSH32 0xFD38818F5291BF0BB3A2A48AADC06BA8757865D1DABD804585338AAB3009DCB6 SWAP1 PUSH0 SWAP1 LOG3 POP POP POP PUSH2 0x10B6 PUSH1 0x1 PUSH0 MLOAD PUSH1 0x20 PUSH2 0x2A21 PUSH0 CODECOPY PUSH0 MLOAD SWAP1 PUSH0 MSTORE SSTORE JUMP JUMPDEST PUSH0 PUSH2 0x140C PUSH2 0x198C JUMP JUMPDEST PUSH1 0x1 PUSH1 0x1 PUSH1 0xA0 SHL SUB DUP4 AND PUSH2 0x1432 JUMPI PUSH1 0x40 MLOAD PUSH3 0x461BCD PUSH1 0xE5 SHL DUP2 MSTORE PUSH1 0x4 ADD PUSH2 0x7EA SWAP1 PUSH2 0x27AF JUMP JUMPDEST DUP2 PUSH0 SUB PUSH2 0x147B JUMPI PUSH1 0x40 MLOAD PUSH3 0x461BCD PUSH1 0xE5 SHL DUP2 MSTORE PUSH1 0x20 PUSH1 0x4 DUP3 ADD MSTORE PUSH1 0x17 PUSH1 0x24 DUP3 ADD MSTORE PUSH23 0x125B9D985B1A59081D1C985B9CD9995C88185B5BDD5B9D PUSH1 0x4A SHL PUSH1 0x44 DUP3 ADD MSTORE PUSH1 0x64 ADD PUSH2 0x7EA JUMP JUMPDEST CALLER PUSH0 DUP2 DUP2 MSTORE PUSH1 0x20 DUP2 SWAP1 MSTORE PUSH1 0x40 DUP1 DUP3 KECCAK256 SLOAD PUSH1 0x1 PUSH1 0x1 PUSH1 0xA0 SHL SUB DUP8 AND DUP4 MSTORE SWAP2 KECCAK256 SLOAD PUSH1 0xFF SWAP2 DUP3 AND SWAP2 AND DUP2 PUSH2 0x14E7 JUMPI PUSH1 0x40 MLOAD PUSH3 0x461BCD PUSH1 0xE5 SHL DUP2 MSTORE PUSH1 0x20 PUSH1 0x4 DUP3 ADD MSTORE PUSH1 0x16 PUSH1 0x24 DUP3 ADD MSTORE PUSH22 0x14D95B99195C881B9BDD081DDA1A5D195B1A5CDD1959 PUSH1 0x52 SHL PUSH1 0x44 DUP3 ADD MSTORE PUSH1 0x64 ADD PUSH2 0x7EA JUMP JUMPDEST DUP1 PUSH2 0x1504 JUMPI PUSH1 0x40 MLOAD PUSH3 0x461BCD PUSH1 0xE5 SHL DUP2 MSTORE PUSH1 0x4 ADD PUSH2 0x7EA SWAP1 PUSH2 0x27E6 JUMP JUMPDEST PUSH2 0x150F DUP4 DUP8 DUP8 PUSH2 0x1A1A JUMP JUMPDEST DUP6 PUSH1 0x1 PUSH1 0x1 PUSH1 0xA0 SHL SUB AND DUP4 PUSH1 0x1 PUSH1 0x1 PUSH1 0xA0 SHL SUB AND PUSH32 0xD0ED88A3F042C6BBB1E3EA406079B5F2B4B198AFCCAA535D837F4C63ABBC4DE6 DUP8 PUSH1 0x40 MLOAD PUSH2 0x1554 SWAP2 DUP2 MSTORE PUSH1 0x20 ADD SWAP1 JUMP JUMPDEST PUSH1 0x40 MLOAD DUP1 SWAP2 SUB SWAP1 LOG3 POP PUSH1 0x1 SWAP6 SWAP5 POP POP POP POP POP JUMP JUMPDEST PUSH0 MLOAD PUSH1 0x20 PUSH2 0x29C1 PUSH0 CODECOPY PUSH0 MLOAD SWAP1 PUSH0 MSTORE PUSH2 0x157F DUP2 PUSH2 0x197F JUMP JUMPDEST DUP4 PUSH0 DUP2 SWAP1 SUB PUSH2 0x15C7 JUMPI PUSH1 0x40 MLOAD PUSH3 0x461BCD PUSH1 0xE5 SHL DUP2 MSTORE PUSH1 0x20 PUSH1 0x4 DUP3 ADD MSTORE PUSH1 0x14 PUSH1 0x24 DUP3 ADD MSTORE PUSH20 0x456D707479206163636F756E7473206172726179 PUSH1 0x60 SHL PUSH1 0x44 DUP3 ADD MSTORE PUSH1 0x64 ADD PUSH2 0x7EA JUMP JUMPDEST DUP3 PUSH0 SUB PUSH2 0x1606 JUMPI PUSH1 0x40 MLOAD PUSH3 0x461BCD PUSH1 0xE5 SHL DUP2 MSTORE PUSH1 0x20 PUSH1 0x4 DUP3 ADD MSTORE PUSH1 0xD PUSH1 0x24 DUP3 ADD MSTORE PUSH13 0x125B9D985B1A59081B1A5B5A5D PUSH1 0x9A SHL PUSH1 0x44 DUP3 ADD MSTORE PUSH1 0x64 ADD PUSH2 0x7EA JUMP JUMPDEST PUSH2 0x1612 PUSH1 0x64 PUSH1 0x1 PUSH2 0x2775 JUMP JUMPDEST DUP4 LT PUSH2 0x1657 JUMPI PUSH1 0x40 MLOAD PUSH3 0x461BCD PUSH1 0xE5 SHL DUP2 MSTORE PUSH1 0x20 PUSH1 0x4 DUP3 ADD MSTORE PUSH1 0x14 PUSH1 0x24 DUP3 ADD MSTORE PUSH20 0x42617463682073697A6520746F6F206C61726765 PUSH1 0x60 SHL PUSH1 0x44 DUP3 ADD MSTORE PUSH1 0x64 ADD PUSH2 0x7EA JUMP JUMPDEST PUSH0 PUSH2 0x1662 DUP5 DUP7 PUSH2 0x2775 JUMP JUMPDEST SWAP1 POP PUSH2 0x166F DUP3 PUSH1 0x1 PUSH2 0x2775 JUMP JUMPDEST DUP2 LT PUSH2 0x1678 JUMPI POP DUP1 JUMPDEST DUP5 JUMPDEST DUP2 DUP2 LT ISZERO PUSH2 0xBE1 JUMPI PUSH0 DUP9 DUP9 DUP4 DUP2 DUP2 LT PUSH2 0x1695 JUMPI PUSH2 0x1695 PUSH2 0x2788 JUMP JUMPDEST SWAP1 POP PUSH1 0x20 MUL ADD PUSH1 0x20 DUP2 ADD SWAP1 PUSH2 0x16AA SWAP2 SWAP1 PUSH2 0x25B7 JUMP JUMPDEST SWAP1 POP PUSH1 0x1 PUSH1 0x1 PUSH1 0xA0 SHL SUB DUP2 AND PUSH2 0x16FD JUMPI PUSH1 0x40 MLOAD PUSH3 0x461BCD PUSH1 0xE5 SHL DUP2 MSTORE PUSH1 0x20 PUSH1 0x4 DUP3 ADD MSTORE PUSH1 0x18 PUSH1 0x24 DUP3 ADD MSTORE PUSH24 0x92DCECC2D8D2C840C2C6C6DEEADCE840D2DC40C4C2E8C6D PUSH1 0x43 SHL PUSH1 0x44 DUP3 ADD MSTORE PUSH1 0x64 ADD PUSH2 0x7EA JUMP JUMPDEST PUSH1 0x1 PUSH1 0x1 PUSH1 0xA0 SHL SUB AND PUSH0 SWAP1 DUP2 MSTORE PUSH1 0x20 DUP2 SWAP1 MSTORE PUSH1 0x40 SWAP1 KECCAK256 DUP1 SLOAD PUSH1 0xFF NOT AND PUSH1 0x1 SWAP1 DUP2 OR SWAP1 SWAP2 SSTORE ADD PUSH2 0x167A JUMP JUMPDEST PUSH2 0x1730 DUP3 PUSH2 0xDE5 JUMP JUMPDEST PUSH2 0x1739 DUP2 PUSH2 0x197F JUMP JUMPDEST PUSH2 0xE21 DUP4 DUP4 PUSH2 0x1A77 JUMP JUMPDEST PUSH1 0x1 PUSH1 0x1 PUSH1 0xA0 SHL SUB SWAP2 DUP3 AND PUSH0 SWAP1 DUP2 MSTORE PUSH32 0x52C63247E1F47DB19D5CE0460030C497F067CA4CEBF71BA98EEADABE20BACE01 PUSH1 0x20 SWAP1 DUP2 MSTORE PUSH1 0x40 DUP1 DUP4 KECCAK256 SWAP4 SWAP1 SWAP5 AND DUP3 MSTORE SWAP2 SWAP1 SWAP2 MSTORE KECCAK256 SLOAD SWAP1 JUMP JUMPDEST PUSH0 MLOAD PUSH1 0x20 PUSH2 0x29C1 PUSH0 CODECOPY PUSH0 MLOAD SWAP1 PUSH0 MSTORE PUSH2 0x17A3 DUP2 PUSH2 0x197F JUMP JUMPDEST PUSH1 0x1 PUSH1 0x1 PUSH1 0xA0 SHL SUB DUP3 AND PUSH2 0x17C9 JUMPI PUSH1 0x40 MLOAD PUSH3 0x461BCD PUSH1 0xE5 SHL DUP2 MSTORE PUSH1 0x4 ADD PUSH2 0x7EA SWAP1 PUSH2 0x281D JUMP JUMPDEST PUSH1 0x1 PUSH1 0x1 PUSH1 0xA0 SHL SUB DUP3 AND PUSH0 DUP2 DUP2 MSTORE PUSH1 0x20 DUP2 SWAP1 MSTORE PUSH1 0x40 DUP1 DUP3 KECCAK256 DUP1 SLOAD PUSH1 0xFF NOT AND PUSH1 0x1 SWAP1 DUP2 OR SWAP1 SWAP2 SSTORE SWAP1 MLOAD SWAP1 SWAP3 SWAP2 PUSH32 0xF93F9A76C1BF3444D22400A00CB9FE990E6ABE9DBB333FDA48859CFEE864543D SWAP2 LOG3 POP POP JUMP JUMPDEST PUSH1 0x1 SLOAD PUSH0 SWAP1 PUSH32 0x0 DUP2 LT PUSH2 0x184D JUMPI PUSH0 PUSH2 0x1877 JUMP JUMPDEST PUSH2 0x1877 DUP2 PUSH32 0x0 PUSH2 0x279C JUMP JUMPDEST SWAP2 POP POP SWAP1 JUMP JUMPDEST PUSH0 DUP1 PUSH32 0xF0C57E16840DF040F15088DC2F81FE391C3923BEC73E23A9662EFC9C229C6A00 PUSH2 0x638 JUMP JUMPDEST PUSH2 0x18AD PUSH2 0x1E72 JUMP JUMPDEST PUSH2 0x10B6 DUP3 DUP3 PUSH2 0x1E97 JUMP JUMPDEST PUSH2 0x18BF PUSH2 0x1E72 JUMP JUMPDEST JUMP JUMPDEST PUSH2 0x18C9 PUSH2 0x1E72 JUMP JUMPDEST PUSH2 0x18BF PUSH2 0x1EE7 JUMP JUMPDEST PUSH0 PUSH0 MLOAD PUSH1 0x20 PUSH2 0x29E1 PUSH0 CODECOPY PUSH0 MLOAD SWAP1 PUSH0 MSTORE PUSH2 0x18EA DUP5 DUP5 PUSH2 0x11FF JUMP JUMPDEST PUSH2 0x1969 JUMPI PUSH0 DUP5 DUP2 MSTORE PUSH1 0x20 DUP3 DUP2 MSTORE PUSH1 0x40 DUP1 DUP4 KECCAK256 PUSH1 0x1 PUSH1 0x1 PUSH1 0xA0 SHL SUB DUP8 AND DUP5 MSTORE SWAP1 SWAP2 MSTORE SWAP1 KECCAK256 DUP1 SLOAD PUSH1 0xFF NOT AND PUSH1 0x1 OR SWAP1 SSTORE PUSH2 0x191F CALLER SWAP1 JUMP JUMPDEST PUSH1 0x1 PUSH1 0x1 PUSH1 0xA0 SHL SUB AND DUP4 PUSH1 0x1 PUSH1 0x1 PUSH1 0xA0 SHL SUB AND DUP6 PUSH32 0x2F8788117E7EFF1D82E926EC794901D17C78024A50270940304540A733656F0D PUSH1 0x40 MLOAD PUSH1 0x40 MLOAD DUP1 SWAP2 SUB SWAP1 LOG4 PUSH1 0x1 SWAP2 POP POP PUSH2 0x638 JUMP JUMPDEST PUSH0 SWAP2 POP POP PUSH2 0x638 JUMP JUMPDEST PUSH2 0xE5A DUP4 DUP4 DUP4 PUSH1 0x1 PUSH2 0x1EEF JUMP JUMPDEST PUSH2 0x1989 DUP2 CALLER PUSH2 0x1FD3 JUMP JUMPDEST POP JUMP JUMPDEST PUSH0 MLOAD PUSH1 0x20 PUSH2 0x2A01 PUSH0 CODECOPY PUSH0 MLOAD SWAP1 PUSH0 MSTORE SLOAD PUSH1 0xFF AND ISZERO PUSH2 0x18BF JUMPI PUSH1 0x40 MLOAD PUSH4 0xD93C0665 PUSH1 0xE0 SHL DUP2 MSTORE PUSH1 0x4 ADD PUSH1 0x40 MLOAD DUP1 SWAP2 SUB SWAP1 REVERT JUMPDEST PUSH0 PUSH2 0x19C7 DUP5 DUP5 PUSH2 0x1743 JUMP JUMPDEST SWAP1 POP PUSH0 NOT DUP2 LT ISZERO PUSH2 0xE21 JUMPI DUP2 DUP2 LT ISZERO PUSH2 0x1A0C JUMPI PUSH1 0x40 MLOAD PUSH4 0x7DC7A0D9 PUSH1 0xE1 SHL DUP2 MSTORE PUSH1 0x1 PUSH1 0x1 PUSH1 0xA0 SHL SUB DUP5 AND PUSH1 0x4 DUP3 ADD MSTORE PUSH1 0x24 DUP2 ADD DUP3 SWAP1 MSTORE PUSH1 0x44 DUP2 ADD DUP4 SWAP1 MSTORE PUSH1 0x64 ADD PUSH2 0x7EA JUMP JUMPDEST PUSH2 0xE21 DUP5 DUP5 DUP5 DUP5 SUB PUSH0 PUSH2 0x1EEF JUMP JUMPDEST PUSH1 0x1 PUSH1 0x1 PUSH1 0xA0 SHL SUB DUP4 AND PUSH2 0x1A43 JUMPI PUSH1 0x40 MLOAD PUSH4 0x4B637E8F PUSH1 0xE1 SHL DUP2 MSTORE PUSH0 PUSH1 0x4 DUP3 ADD MSTORE PUSH1 0x24 ADD PUSH2 0x7EA JUMP JUMPDEST PUSH1 0x1 PUSH1 0x1 PUSH1 0xA0 SHL SUB DUP3 AND PUSH2 0x1A6C JUMPI PUSH1 0x40 MLOAD PUSH4 0xEC442F05 PUSH1 0xE0 SHL DUP2 MSTORE PUSH0 PUSH1 0x4 DUP3 ADD MSTORE PUSH1 0x24 ADD PUSH2 0x7EA JUMP JUMPDEST PUSH2 0xE5A DUP4 DUP4 DUP4 PUSH2 0x200C JUMP JUMPDEST PUSH0 PUSH0 MLOAD PUSH1 0x20 PUSH2 0x29E1 PUSH0 CODECOPY PUSH0 MLOAD SWAP1 PUSH0 MSTORE PUSH2 0x1A90 DUP5 DUP5 PUSH2 0x11FF JUMP JUMPDEST ISZERO PUSH2 0x1969 JUMPI PUSH0 DUP5 DUP2 MSTORE PUSH1 0x20 DUP3 DUP2 MSTORE PUSH1 0x40 DUP1 DUP4 KECCAK256 PUSH1 0x1 PUSH1 0x1 PUSH1 0xA0 SHL SUB DUP8 AND DUP1 DUP6 MSTORE SWAP3 MSTORE DUP1 DUP4 KECCAK256 DUP1 SLOAD PUSH1 0xFF NOT AND SWAP1 SSTORE MLOAD CALLER SWAP3 DUP8 SWAP2 PUSH32 0xF6391F5C32D9C69D2A47EA670B442974B53935D1EDC7FD64EB21E047A839171B SWAP2 SWAP1 LOG4 PUSH1 0x1 SWAP2 POP POP PUSH2 0x638 JUMP JUMPDEST PUSH2 0x1AF8 PUSH2 0x2145 JUMP JUMPDEST PUSH0 MLOAD PUSH1 0x20 PUSH2 0x2A01 PUSH0 CODECOPY PUSH0 MLOAD SWAP1 PUSH0 MSTORE DUP1 SLOAD PUSH1 0xFF NOT AND DUP2 SSTORE PUSH32 0x5DB9EE0A495BF2E6FF9C91A7834C1BA4FDD244A5E8AA4E537BD38AEAE4B073AA CALLER JUMPDEST PUSH1 0x40 MLOAD PUSH1 0x1 PUSH1 0x1 PUSH1 0xA0 SHL SUB SWAP1 SWAP2 AND DUP2 MSTORE PUSH1 0x20 ADD PUSH1 0x40 MLOAD DUP1 SWAP2 SUB SWAP1 LOG1 POP JUMP JUMPDEST PUSH0 MLOAD PUSH1 0x20 PUSH2 0x2A21 PUSH0 CODECOPY PUSH0 MLOAD SWAP1 PUSH0 MSTORE DUP1 SLOAD PUSH1 0x1 NOT ADD PUSH2 0x1B80 JUMPI PUSH1 0x40 MLOAD PUSH4 0x3EE5AEB5 PUSH1 0xE0 SHL DUP2 MSTORE PUSH1 0x4 ADD PUSH1 0x40 MLOAD DUP1 SWAP2 SUB SWAP1 REVERT JUMPDEST PUSH1 0x2 SWAP1 SSTORE JUMP JUMPDEST PUSH1 0x1 PUSH1 0x1 PUSH1 0xA0 SHL SUB DUP3 AND PUSH2 0x1BAF JUMPI PUSH1 0x40 MLOAD PUSH4 0xEC442F05 PUSH1 0xE0 SHL DUP2 MSTORE PUSH0 PUSH1 0x4 DUP3 ADD MSTORE PUSH1 0x24 ADD PUSH2 0x7EA JUMP JUMPDEST PUSH2 0x10B6 PUSH0 DUP4 DUP4 PUSH2 0x200C JUMP JUMPDEST PUSH1 0x1 PUSH0 MLOAD PUSH1 0x20 PUSH2 0x2A21 PUSH0 CODECOPY PUSH0 MLOAD SWAP1 PUSH0 MSTORE SSTORE JUMP JUMPDEST ADDRESS PUSH1 0x1 PUSH1 0x1 PUSH1 0xA0 SHL SUB PUSH32 0x0 AND EQ DUP1 PUSH2 0x1C53 JUMPI POP PUSH32 0x0 PUSH1 0x1 PUSH1 0x1 PUSH1 0xA0 SHL SUB AND PUSH2 0x1C47 PUSH0 MLOAD PUSH1 0x20 PUSH2 0x29A1 PUSH0 CODECOPY PUSH0 MLOAD SWAP1 PUSH0 MSTORE SLOAD PUSH1 0x1 PUSH1 0x1 PUSH1 0xA0 SHL SUB AND SWAP1 JUMP JUMPDEST PUSH1 0x1 PUSH1 0x1 PUSH1 0xA0 SHL SUB AND EQ ISZERO JUMPDEST ISZERO PUSH2 0x18BF JUMPI PUSH1 0x40 MLOAD PUSH4 0x703E46DD PUSH1 0xE1 SHL DUP2 MSTORE PUSH1 0x4 ADD PUSH1 0x40 MLOAD DUP1 SWAP2 SUB SWAP1 REVERT JUMPDEST PUSH32 0x189AB7A9244DF0848122154315AF71FE140F3DB0FE014031783B0946B8C9D2E3 PUSH2 0x1C9B DUP2 PUSH2 0x197F JUMP JUMPDEST PUSH1 0x1 PUSH1 0x1 PUSH1 0xA0 SHL SUB DUP3 AND PUSH2 0x10B6 JUMPI PUSH1 0x40 MLOAD PUSH3 0x461BCD PUSH1 0xE5 SHL DUP2 MSTORE PUSH1 0x20 PUSH1 0x4 DUP3 ADD MSTORE PUSH1 0x1E PUSH1 0x24 DUP3 ADD MSTORE PUSH32 0x496E76616C696420696D706C656D656E746174696F6E20616464726573730000 PUSH1 0x44 DUP3 ADD MSTORE PUSH1 0x64 ADD PUSH2 0x7EA JUMP JUMPDEST DUP2 PUSH1 0x1 PUSH1 0x1 PUSH1 0xA0 SHL SUB AND PUSH4 0x52D1902D PUSH1 0x40 MLOAD DUP2 PUSH4 0xFFFFFFFF AND PUSH1 0xE0 SHL DUP2 MSTORE PUSH1 0x4 ADD PUSH1 0x20 PUSH1 0x40 MLOAD DUP1 DUP4 SUB DUP2 DUP7 GAS STATICCALL SWAP3 POP POP POP DUP1 ISZERO PUSH2 0x1D4B JUMPI POP PUSH1 0x40 DUP1 MLOAD PUSH1 0x1F RETURNDATASIZE SWAP1 DUP2 ADD PUSH1 0x1F NOT AND DUP3 ADD SWAP1 SWAP3 MSTORE PUSH2 0x1D48 SWAP2 DUP2 ADD SWAP1 PUSH2 0x2854 JUMP JUMPDEST PUSH1 0x1 JUMPDEST PUSH2 0x1D73 JUMPI PUSH1 0x40 MLOAD PUSH4 0x4C9C8CE3 PUSH1 0xE0 SHL DUP2 MSTORE PUSH1 0x1 PUSH1 0x1 PUSH1 0xA0 SHL SUB DUP4 AND PUSH1 0x4 DUP3 ADD MSTORE PUSH1 0x24 ADD PUSH2 0x7EA JUMP JUMPDEST PUSH0 MLOAD PUSH1 0x20 PUSH2 0x29A1 PUSH0 CODECOPY PUSH0 MLOAD SWAP1 PUSH0 MSTORE DUP2 EQ PUSH2 0x1DA3 JUMPI PUSH1 0x40 MLOAD PUSH4 0x2A875269 PUSH1 0xE2 SHL DUP2 MSTORE PUSH1 0x4 DUP2 ADD DUP3 SWAP1 MSTORE PUSH1 0x24 ADD PUSH2 0x7EA JUMP JUMPDEST PUSH2 0xE5A DUP4 DUP4 PUSH2 0x2174 JUMP JUMPDEST ADDRESS PUSH1 0x1 PUSH1 0x1 PUSH1 0xA0 SHL SUB PUSH32 0x0 AND EQ PUSH2 0x18BF JUMPI PUSH1 0x40 MLOAD PUSH4 0x703E46DD PUSH1 0xE1 SHL DUP2 MSTORE PUSH1 0x4 ADD PUSH1 0x40 MLOAD DUP1 SWAP2 SUB SWAP1 REVERT JUMPDEST PUSH2 0x1DFE PUSH2 0x198C JUMP JUMPDEST PUSH0 MLOAD PUSH1 0x20 PUSH2 0x2A01 PUSH0 CODECOPY PUSH0 MLOAD SWAP1 PUSH0 MSTORE DUP1 SLOAD PUSH1 0xFF NOT AND PUSH1 0x1 OR DUP2 SSTORE PUSH32 0x62E78CEA01BEE320CD4E420270B5EA74000D11B0C9F74754EBDBFC544B05A258 CALLER PUSH2 0x1B31 JUMP JUMPDEST PUSH1 0x1 PUSH1 0x1 PUSH1 0xA0 SHL SUB DUP3 AND PUSH2 0x1E67 JUMPI PUSH1 0x40 MLOAD PUSH4 0x4B637E8F PUSH1 0xE1 SHL DUP2 MSTORE PUSH0 PUSH1 0x4 DUP3 ADD MSTORE PUSH1 0x24 ADD PUSH2 0x7EA JUMP JUMPDEST PUSH2 0x10B6 DUP3 PUSH0 DUP4 PUSH2 0x200C JUMP JUMPDEST PUSH2 0x1E7A PUSH2 0x21C9 JUMP JUMPDEST PUSH2 0x18BF JUMPI PUSH1 0x40 MLOAD PUSH4 0x1AFCD79F PUSH1 0xE3 SHL DUP2 MSTORE PUSH1 0x4 ADD PUSH1 0x40 MLOAD DUP1 SWAP2 SUB SWAP1 REVERT JUMPDEST PUSH2 0x1E9F PUSH2 0x1E72 JUMP JUMPDEST PUSH0 MLOAD PUSH1 0x20 PUSH2 0x2981 PUSH0 CODECOPY PUSH0 MLOAD SWAP1 PUSH0 MSTORE PUSH32 0x52C63247E1F47DB19D5CE0460030C497F067CA4CEBF71BA98EEADABE20BACE03 PUSH2 0x1ED8 DUP5 DUP3 PUSH2 0x28AF JUMP JUMPDEST POP PUSH1 0x4 DUP2 ADD PUSH2 0xE21 DUP4 DUP3 PUSH2 0x28AF JUMP JUMPDEST PUSH2 0x1BBA PUSH2 0x1E72 JUMP JUMPDEST PUSH0 MLOAD PUSH1 0x20 PUSH2 0x2981 PUSH0 CODECOPY PUSH0 MLOAD SWAP1 PUSH0 MSTORE PUSH1 0x1 PUSH1 0x1 PUSH1 0xA0 SHL SUB DUP6 AND PUSH2 0x1F26 JUMPI PUSH1 0x40 MLOAD PUSH4 0xE602DF05 PUSH1 0xE0 SHL DUP2 MSTORE PUSH0 PUSH1 0x4 DUP3 ADD MSTORE PUSH1 0x24 ADD PUSH2 0x7EA JUMP JUMPDEST PUSH1 0x1 PUSH1 0x1 PUSH1 0xA0 SHL SUB DUP5 AND PUSH2 0x1F4F JUMPI PUSH1 0x40 MLOAD PUSH4 0x4A1406B1 PUSH1 0xE1 SHL DUP2 MSTORE PUSH0 PUSH1 0x4 DUP3 ADD MSTORE PUSH1 0x24 ADD PUSH2 0x7EA JUMP JUMPDEST PUSH1 0x1 PUSH1 0x1 PUSH1 0xA0 SHL SUB DUP1 DUP7 AND PUSH0 SWAP1 DUP2 MSTORE PUSH1 0x1 DUP4 ADD PUSH1 0x20 SWAP1 DUP2 MSTORE PUSH1 0x40 DUP1 DUP4 KECCAK256 SWAP4 DUP9 AND DUP4 MSTORE SWAP3 SWAP1 MSTORE KECCAK256 DUP4 SWAP1 SSTORE DUP2 ISZERO PUSH2 0x1FCC JUMPI DUP4 PUSH1 0x1 PUSH1 0x1 PUSH1 0xA0 SHL SUB AND DUP6 PUSH1 0x1 PUSH1 0x1 PUSH1 0xA0 SHL SUB AND PUSH32 0x8C5BE1E5EBEC7D5BD14F71427D1E84F3DD0314C0F7B2291E5B200AC8C7C3B925 DUP6 PUSH1 0x40 MLOAD PUSH2 0x1FC3 SWAP2 DUP2 MSTORE PUSH1 0x20 ADD SWAP1 JUMP JUMPDEST PUSH1 0x40 MLOAD DUP1 SWAP2 SUB SWAP1 LOG3 JUMPDEST POP POP POP POP POP JUMP JUMPDEST PUSH2 0x1FDD DUP3 DUP3 PUSH2 0x11FF JUMP JUMPDEST PUSH2 0x10B6 JUMPI PUSH1 0x40 MLOAD PUSH4 0xE2517D3F PUSH1 0xE0 SHL DUP2 MSTORE PUSH1 0x1 PUSH1 0x1 PUSH1 0xA0 SHL SUB DUP3 AND PUSH1 0x4 DUP3 ADD MSTORE PUSH1 0x24 DUP2 ADD DUP4 SWAP1 MSTORE PUSH1 0x44 ADD PUSH2 0x7EA JUMP JUMPDEST PUSH0 MLOAD PUSH1 0x20 PUSH2 0x2981 PUSH0 CODECOPY PUSH0 MLOAD SWAP1 PUSH0 MSTORE PUSH1 0x1 PUSH1 0x1 PUSH1 0xA0 SHL SUB DUP5 AND PUSH2 0x2046 JUMPI DUP2 DUP2 PUSH1 0x2 ADD PUSH0 DUP3 DUP3 SLOAD PUSH2 0x203B SWAP2 SWAP1 PUSH2 0x2775 JUMP JUMPDEST SWAP1 SWAP2 SSTORE POP PUSH2 0x20B6 SWAP1 POP JUMP JUMPDEST PUSH1 0x1 PUSH1 0x1 PUSH1 0xA0 SHL SUB DUP5 AND PUSH0 SWAP1 DUP2 MSTORE PUSH1 0x20 DUP3 SWAP1 MSTORE PUSH1 0x40 SWAP1 KECCAK256 SLOAD DUP3 DUP2 LT ISZERO PUSH2 0x2098 JUMPI PUSH1 0x40 MLOAD PUSH4 0x391434E3 PUSH1 0xE2 SHL DUP2 MSTORE PUSH1 0x1 PUSH1 0x1 PUSH1 0xA0 SHL SUB DUP7 AND PUSH1 0x4 DUP3 ADD MSTORE PUSH1 0x24 DUP2 ADD DUP3 SWAP1 MSTORE PUSH1 0x44 DUP2 ADD DUP5 SWAP1 MSTORE PUSH1 0x64 ADD PUSH2 0x7EA JUMP JUMPDEST PUSH1 0x1 PUSH1 0x1 PUSH1 0xA0 SHL SUB DUP6 AND PUSH0 SWAP1 DUP2 MSTORE PUSH1 0x20 DUP4 SWAP1 MSTORE PUSH1 0x40 SWAP1 KECCAK256 SWAP1 DUP4 SWAP1 SUB SWAP1 SSTORE JUMPDEST PUSH1 0x1 PUSH1 0x1 PUSH1 0xA0 SHL SUB DUP4 AND PUSH2 0x20D4 JUMPI PUSH1 0x2 DUP2 ADD DUP1 SLOAD DUP4 SWAP1 SUB SWAP1 SSTORE PUSH2 0x20F2 JUMP JUMPDEST PUSH1 0x1 PUSH1 0x1 PUSH1 0xA0 SHL SUB DUP4 AND PUSH0 SWAP1 DUP2 MSTORE PUSH1 0x20 DUP3 SWAP1 MSTORE PUSH1 0x40 SWAP1 KECCAK256 DUP1 SLOAD DUP4 ADD SWAP1 SSTORE JUMPDEST DUP3 PUSH1 0x1 PUSH1 0x1 PUSH1 0xA0 SHL SUB AND DUP5 PUSH1 0x1 PUSH1 0x1 PUSH1 0xA0 SHL SUB AND PUSH32 0xDDF252AD1BE2C89B69C2B068FC378DAA952BA7F163C4A11628F55A4DF523B3EF DUP5 PUSH1 0x40 MLOAD PUSH2 0x2137 SWAP2 DUP2 MSTORE PUSH1 0x20 ADD SWAP1 JUMP JUMPDEST PUSH1 0x40 MLOAD DUP1 SWAP2 SUB SWAP1 LOG3 POP POP POP POP JUMP JUMPDEST PUSH0 MLOAD PUSH1 0x20 PUSH2 0x2A01 PUSH0 CODECOPY PUSH0 MLOAD SWAP1 PUSH0 MSTORE SLOAD PUSH1 0xFF AND PUSH2 0x18BF JUMPI PUSH1 0x40 MLOAD PUSH4 0x8DFC202B PUSH1 0xE0 SHL DUP2 MSTORE PUSH1 0x4 ADD PUSH1 0x40 MLOAD DUP1 SWAP2 SUB SWAP1 REVERT JUMPDEST PUSH2 0x217D DUP3 PUSH2 0x21E2 JUMP JUMPDEST PUSH1 0x40 MLOAD PUSH1 0x1 PUSH1 0x1 PUSH1 0xA0 SHL SUB DUP4 AND SWAP1 PUSH32 0xBC7CD75A20EE27FD9ADEBAB32041F755214DBC6BFFA90CC0225B39DA2E5C2D3B SWAP1 PUSH0 SWAP1 LOG2 DUP1 MLOAD ISZERO PUSH2 0x21C1 JUMPI PUSH2 0xE5A DUP3 DUP3 PUSH2 0x2245 JUMP JUMPDEST PUSH2 0x10B6 PUSH2 0x22B7 JUMP JUMPDEST PUSH0 PUSH2 0x21D2 PUSH2 0x187D JUMP JUMPDEST SLOAD PUSH1 0x1 PUSH1 0x40 SHL SWAP1 DIV PUSH1 0xFF AND SWAP2 SWAP1 POP JUMP JUMPDEST DUP1 PUSH1 0x1 PUSH1 0x1 PUSH1 0xA0 SHL SUB AND EXTCODESIZE PUSH0 SUB PUSH2 0x2217 JUMPI PUSH1 0x40 MLOAD PUSH4 0x4C9C8CE3 PUSH1 0xE0 SHL DUP2 MSTORE PUSH1 0x1 PUSH1 0x1 PUSH1 0xA0 SHL SUB DUP3 AND PUSH1 0x4 DUP3 ADD MSTORE PUSH1 0x24 ADD PUSH2 0x7EA JUMP JUMPDEST PUSH0 MLOAD PUSH1 0x20 PUSH2 0x29A1 PUSH0 CODECOPY PUSH0 MLOAD SWAP1 PUSH0 MSTORE DUP1 SLOAD PUSH1 0x1 PUSH1 0x1 PUSH1 0xA0 SHL SUB NOT AND PUSH1 0x1 PUSH1 0x1 PUSH1 0xA0 SHL SUB SWAP3 SWAP1 SWAP3 AND SWAP2 SWAP1 SWAP2 OR SWAP1 SSTORE JUMP JUMPDEST PUSH1 0x60 PUSH0 PUSH0 DUP5 PUSH1 0x1 PUSH1 0x1 PUSH1 0xA0 SHL SUB AND DUP5 PUSH1 0x40 MLOAD PUSH2 0x2261 SWAP2 SWAP1 PUSH2 0x296A JUMP JUMPDEST PUSH0 PUSH1 0x40 MLOAD DUP1 DUP4 SUB DUP2 DUP6 GAS DELEGATECALL SWAP2 POP POP RETURNDATASIZE DUP1 PUSH0 DUP2 EQ PUSH2 0x2299 JUMPI PUSH1 0x40 MLOAD SWAP2 POP PUSH1 0x1F NOT PUSH1 0x3F RETURNDATASIZE ADD AND DUP3 ADD PUSH1 0x40 MSTORE RETURNDATASIZE DUP3 MSTORE RETURNDATASIZE PUSH0 PUSH1 0x20 DUP5 ADD RETURNDATACOPY PUSH2 0x229E JUMP JUMPDEST PUSH1 0x60 SWAP2 POP JUMPDEST POP SWAP2 POP SWAP2 POP PUSH2 0x22AE DUP6 DUP4 DUP4 PUSH2 0x22D6 JUMP JUMPDEST SWAP6 SWAP5 POP POP POP POP POP JUMP JUMPDEST CALLVALUE ISZERO PUSH2 0x18BF JUMPI PUSH1 0x40 MLOAD PUSH4 0xB398979F PUSH1 0xE0 SHL DUP2 MSTORE PUSH1 0x4 ADD PUSH1 0x40 MLOAD DUP1 SWAP2 SUB SWAP1 REVERT JUMPDEST PUSH1 0x60 DUP3 PUSH2 0x22EB JUMPI PUSH2 0x22E6 DUP3 PUSH2 0x2332 JUMP JUMPDEST PUSH2 0xDDE JUMP JUMPDEST DUP2 MLOAD ISZERO DUP1 ISZERO PUSH2 0x2302 JUMPI POP PUSH1 0x1 PUSH1 0x1 PUSH1 0xA0 SHL SUB DUP5 AND EXTCODESIZE ISZERO JUMPDEST ISZERO PUSH2 0x232B JUMPI PUSH1 0x40 MLOAD PUSH4 0x9996B315 PUSH1 0xE0 SHL DUP2 MSTORE PUSH1 0x1 PUSH1 0x1 PUSH1 0xA0 SHL SUB DUP6 AND PUSH1 0x4 DUP3 ADD MSTORE PUSH1 0x24 ADD PUSH2 0x7EA JUMP JUMPDEST POP DUP1 PUSH2 0xDDE JUMP JUMPDEST DUP1 MLOAD ISZERO PUSH2 0x2342 JUMPI DUP1 MLOAD DUP1 DUP3 PUSH1 0x20 ADD REVERT JUMPDEST PUSH1 0x40 MLOAD PUSH4 0xD6BDA275 PUSH1 0xE0 SHL DUP2 MSTORE PUSH1 0x4 ADD PUSH1 0x40 MLOAD DUP1 SWAP2 SUB SWAP1 REVERT JUMPDEST PUSH0 PUSH1 0x20 DUP3 DUP5 SUB SLT ISZERO PUSH2 0x236B JUMPI PUSH0 PUSH0 REVERT JUMPDEST DUP2 CALLDATALOAD PUSH1 0x1 PUSH1 0x1 PUSH1 0xE0 SHL SUB NOT DUP2 AND DUP2 EQ PUSH2 0xDDE JUMPI PUSH0 PUSH0 REVERT JUMPDEST PUSH1 0x20 DUP2 MSTORE PUSH0 DUP3 MLOAD DUP1 PUSH1 0x20 DUP5 ADD MSTORE DUP1 PUSH1 0x20 DUP6 ADD PUSH1 0x40 DUP6 ADD MCOPY PUSH0 PUSH1 0x40 DUP3 DUP6 ADD ADD MSTORE PUSH1 0x40 PUSH1 0x1F NOT PUSH1 0x1F DUP4 ADD AND DUP5 ADD ADD SWAP2 POP POP SWAP3 SWAP2 POP POP JUMP JUMPDEST PUSH0 PUSH0 DUP4 PUSH1 0x1F DUP5 ADD SLT PUSH2 0x23C7 JUMPI PUSH0 PUSH0 REVERT JUMPDEST POP DUP2 CALLDATALOAD PUSH8 0xFFFFFFFFFFFFFFFF DUP2 GT ISZERO PUSH2 0x23DE JUMPI PUSH0 PUSH0 REVERT JUMPDEST PUSH1 0x20 DUP4 ADD SWAP2 POP DUP4 PUSH1 0x20 DUP3 DUP6 ADD ADD GT ISZERO PUSH2 0x23F5 JUMPI PUSH0 PUSH0 REVERT JUMPDEST SWAP3 POP SWAP3 SWAP1 POP JUMP JUMPDEST DUP1 CALLDATALOAD PUSH1 0x1 PUSH1 0x1 PUSH1 0xA0 SHL SUB DUP2 AND DUP2 EQ PUSH2 0x2412 JUMPI PUSH0 PUSH0 REVERT JUMPDEST SWAP2 SWAP1 POP JUMP JUMPDEST PUSH0 PUSH0 PUSH0 PUSH0 PUSH0 PUSH1 0x60 DUP7 DUP9 SUB SLT ISZERO PUSH2 0x242B JUMPI PUSH0 PUSH0 REVERT JUMPDEST DUP6 CALLDATALOAD PUSH8 0xFFFFFFFFFFFFFFFF DUP2 GT ISZERO PUSH2 0x2441 JUMPI PUSH0 PUSH0 REVERT JUMPDEST PUSH2 0x244D DUP9 DUP3 DUP10 ADD PUSH2 0x23B7 JUMP JUMPDEST SWAP1 SWAP7 POP SWAP5 POP POP PUSH1 0x20 DUP7 ADD CALLDATALOAD PUSH8 0xFFFFFFFFFFFFFFFF DUP2 GT ISZERO PUSH2 0x246C JUMPI PUSH0 PUSH0 REVERT JUMPDEST PUSH2 0x2478 DUP9 DUP3 DUP10 ADD PUSH2 0x23B7 JUMP JUMPDEST SWAP1 SWAP5 POP SWAP3 POP PUSH2 0x248B SWAP1 POP PUSH1 0x40 DUP8 ADD PUSH2 0x23FC JUMP JUMPDEST SWAP1 POP SWAP3 SWAP6 POP SWAP3 SWAP6 SWAP1 SWAP4 POP JUMP JUMPDEST PUSH0 PUSH0 PUSH1 0x40 DUP4 DUP6 SUB SLT ISZERO PUSH2 0x24A8 JUMPI PUSH0 PUSH0 REVERT JUMPDEST PUSH2 0x24B1 DUP4 PUSH2 0x23FC JUMP JUMPDEST SWAP5 PUSH1 0x20 SWAP4 SWAP1 SWAP4 ADD CALLDATALOAD SWAP4 POP POP POP JUMP JUMPDEST PUSH0 PUSH0 PUSH0 PUSH0 PUSH1 0x60 DUP6 DUP8 SUB SLT ISZERO PUSH2 0x24D2 JUMPI PUSH0 PUSH0 REVERT JUMPDEST DUP5 CALLDATALOAD PUSH8 0xFFFFFFFFFFFFFFFF DUP2 GT ISZERO PUSH2 0x24E8 JUMPI PUSH0 PUSH0 REVERT JUMPDEST DUP6 ADD PUSH1 0x1F DUP2 ADD DUP8 SGT PUSH2 0x24F8 JUMPI PUSH0 PUSH0 REVERT JUMPDEST DUP1 CALLDATALOAD PUSH8 0xFFFFFFFFFFFFFFFF DUP2 GT ISZERO PUSH2 0x250E JUMPI PUSH0 PUSH0 REVERT JUMPDEST DUP8 PUSH1 0x20 DUP3 PUSH1 0x5 SHL DUP5 ADD ADD GT ISZERO PUSH2 0x2522 JUMPI PUSH0 PUSH0 REVERT JUMPDEST PUSH1 0x20 SWAP2 DUP3 ADD SWAP9 SWAP1 SWAP8 POP SWAP1 DUP7 ADD CALLDATALOAD SWAP6 PUSH1 0x40 ADD CALLDATALOAD SWAP5 POP SWAP3 POP POP POP JUMP JUMPDEST PUSH0 PUSH0 PUSH0 PUSH1 0x60 DUP5 DUP7 SUB SLT ISZERO PUSH2 0x254E JUMPI PUSH0 PUSH0 REVERT JUMPDEST PUSH2 0x2557 DUP5 PUSH2 0x23FC JUMP JUMPDEST SWAP3 POP PUSH2 0x2565 PUSH1 0x20 DUP6 ADD PUSH2 0x23FC JUMP JUMPDEST SWAP3 SWAP6 SWAP3 SWAP5 POP POP POP PUSH1 0x40 SWAP2 SWAP1 SWAP2 ADD CALLDATALOAD SWAP1 JUMP JUMPDEST PUSH0 PUSH1 0x20 DUP3 DUP5 SUB SLT ISZERO PUSH2 0x2586 JUMPI PUSH0 PUSH0 REVERT JUMPDEST POP CALLDATALOAD SWAP2 SWAP1 POP JUMP JUMPDEST PUSH0 PUSH0 PUSH1 0x40 DUP4 DUP6 SUB SLT ISZERO PUSH2 0x259E JUMPI PUSH0 PUSH0 REVERT JUMPDEST DUP3 CALLDATALOAD SWAP2 POP PUSH2 0x25AE PUSH1 0x20 DUP5 ADD PUSH2 0x23FC JUMP JUMPDEST SWAP1 POP SWAP3 POP SWAP3 SWAP1 POP JUMP JUMPDEST PUSH0 PUSH1 0x20 DUP3 DUP5 SUB SLT ISZERO PUSH2 0x25C7 JUMPI PUSH0 PUSH0 REVERT JUMPDEST PUSH2 0xDDE DUP3 PUSH2 0x23FC JUMP JUMPDEST PUSH4 0x4E487B71 PUSH1 0xE0 SHL PUSH0 MSTORE PUSH1 0x41 PUSH1 0x4 MSTORE PUSH1 0x24 PUSH0 REVERT JUMPDEST PUSH0 PUSH0 PUSH1 0x40 DUP4 DUP6 SUB SLT ISZERO PUSH2 0x25F5 JUMPI PUSH0 PUSH0 REVERT JUMPDEST PUSH2 0x25FE DUP4 PUSH2 0x23FC JUMP JUMPDEST SWAP2 POP PUSH1 0x20 DUP4 ADD CALLDATALOAD PUSH8 0xFFFFFFFFFFFFFFFF DUP2 GT ISZERO PUSH2 0x2619 JUMPI PUSH0 PUSH0 REVERT JUMPDEST DUP4 ADD PUSH1 0x1F DUP2 ADD DUP6 SGT PUSH2 0x2629 JUMPI PUSH0 PUSH0 REVERT JUMPDEST DUP1 CALLDATALOAD PUSH8 0xFFFFFFFFFFFFFFFF DUP2 GT ISZERO PUSH2 0x2643 JUMPI PUSH2 0x2643 PUSH2 0x25D0 JUMP JUMPDEST PUSH1 0x40 MLOAD PUSH1 0x1F DUP3 ADD PUSH1 0x1F NOT SWAP1 DUP2 AND PUSH1 0x3F ADD AND DUP2 ADD PUSH8 0xFFFFFFFFFFFFFFFF DUP2 GT DUP3 DUP3 LT OR ISZERO PUSH2 0x2672 JUMPI PUSH2 0x2672 PUSH2 0x25D0 JUMP JUMPDEST PUSH1 0x40 MSTORE DUP2 DUP2 MSTORE DUP3 DUP3 ADD PUSH1 0x20 ADD DUP8 LT ISZERO PUSH2 0x2689 JUMPI PUSH0 PUSH0 REVERT JUMPDEST DUP2 PUSH1 0x20 DUP5 ADD PUSH1 0x20 DUP4 ADD CALLDATACOPY PUSH0 PUSH1 0x20 DUP4 DUP4 ADD ADD MSTORE DUP1 SWAP4 POP POP POP POP SWAP3 POP SWAP3 SWAP1 POP JUMP JUMPDEST PUSH0 PUSH0 PUSH1 0x40 DUP4 DUP6 SUB SLT ISZERO PUSH2 0x26B9 JUMPI PUSH0 PUSH0 REVERT JUMPDEST PUSH2 0x26C2 DUP4 PUSH2 0x23FC JUMP JUMPDEST SWAP2 POP PUSH2 0x25AE PUSH1 0x20 DUP5 ADD PUSH2 0x23FC JUMP JUMPDEST PUSH1 0x1 DUP2 DUP2 SHR SWAP1 DUP3 AND DUP1 PUSH2 0x26E4 JUMPI PUSH1 0x7F DUP3 AND SWAP2 POP JUMPDEST PUSH1 0x20 DUP3 LT DUP2 SUB PUSH2 0x2702 JUMPI PUSH4 0x4E487B71 PUSH1 0xE0 SHL PUSH0 MSTORE PUSH1 0x22 PUSH1 0x4 MSTORE PUSH1 0x24 PUSH0 REVERT JUMPDEST POP SWAP2 SWAP1 POP JUMP JUMPDEST DUP2 DUP4 MSTORE DUP2 DUP2 PUSH1 0x20 DUP6 ADD CALLDATACOPY POP PUSH0 DUP3 DUP3 ADD PUSH1 0x20 SWAP1 DUP2 ADD SWAP2 SWAP1 SWAP2 MSTORE PUSH1 0x1F SWAP1 SWAP2 ADD PUSH1 0x1F NOT AND SWAP1 SWAP2 ADD ADD SWAP1 JUMP JUMPDEST PUSH1 0x40 DUP2 MSTORE PUSH0 PUSH2 0x2743 PUSH1 0x40 DUP4 ADD DUP7 DUP9 PUSH2 0x2708 JUMP JUMPDEST DUP3 DUP2 SUB PUSH1 0x20 DUP5 ADD MSTORE PUSH2 0x2756 DUP2 DUP6 DUP8 PUSH2 0x2708 JUMP JUMPDEST SWAP8 SWAP7 POP POP POP POP POP POP POP JUMP JUMPDEST PUSH4 0x4E487B71 PUSH1 0xE0 SHL PUSH0 MSTORE PUSH1 0x11 PUSH1 0x4 MSTORE PUSH1 0x24 PUSH0 REVERT JUMPDEST DUP1 DUP3 ADD DUP1 DUP3 GT ISZERO PUSH2 0x638 JUMPI PUSH2 0x638 PUSH2 0x2761 JUMP JUMPDEST PUSH4 0x4E487B71 PUSH1 0xE0 SHL PUSH0 MSTORE PUSH1 0x32 PUSH1 0x4 MSTORE PUSH1 0x24 PUSH0 REVERT JUMPDEST DUP2 DUP2 SUB DUP2 DUP2 GT ISZERO PUSH2 0x638 JUMPI PUSH2 0x638 PUSH2 0x2761 JUMP JUMPDEST PUSH1 0x20 DUP1 DUP3 MSTORE PUSH1 0x19 SWAP1 DUP3 ADD MSTORE PUSH32 0x496E76616C696420726563697069656E74206164647265737300000000000000 PUSH1 0x40 DUP3 ADD MSTORE PUSH1 0x60 ADD SWAP1 JUMP JUMPDEST PUSH1 0x20 DUP1 DUP3 MSTORE PUSH1 0x19 SWAP1 DUP3 ADD MSTORE PUSH32 0x526563697069656E74206E6F742077686974656C697374656400000000000000 PUSH1 0x40 DUP3 ADD MSTORE PUSH1 0x60 ADD SWAP1 JUMP JUMPDEST PUSH1 0x20 DUP1 DUP3 MSTORE PUSH1 0x17 SWAP1 DUP3 ADD MSTORE PUSH32 0x496E76616C6964206163636F756E742061646472657373000000000000000000 PUSH1 0x40 DUP3 ADD MSTORE PUSH1 0x60 ADD SWAP1 JUMP JUMPDEST PUSH0 PUSH1 0x20 DUP3 DUP5 SUB SLT ISZERO PUSH2 0x2864 JUMPI PUSH0 PUSH0 REVERT JUMPDEST POP MLOAD SWAP2 SWAP1 POP JUMP JUMPDEST PUSH1 0x1F DUP3 GT ISZERO PUSH2 0xE5A JUMPI DUP1 PUSH0 MSTORE PUSH1 0x20 PUSH0 KECCAK256 PUSH1 0x1F DUP5 ADD PUSH1 0x5 SHR DUP2 ADD PUSH1 0x20 DUP6 LT ISZERO PUSH2 0x2890 JUMPI POP DUP1 JUMPDEST PUSH1 0x1F DUP5 ADD PUSH1 0x5 SHR DUP3 ADD SWAP2 POP JUMPDEST DUP2 DUP2 LT ISZERO PUSH2 0x1FCC JUMPI PUSH0 DUP2 SSTORE PUSH1 0x1 ADD PUSH2 0x289C JUMP JUMPDEST DUP2 MLOAD PUSH8 0xFFFFFFFFFFFFFFFF DUP2 GT ISZERO PUSH2 0x28C9 JUMPI PUSH2 0x28C9 PUSH2 0x25D0 JUMP JUMPDEST PUSH2 0x28DD DUP2 PUSH2 0x28D7 DUP5 SLOAD PUSH2 0x26D0 JUMP JUMPDEST DUP5 PUSH2 0x286B JUMP JUMPDEST PUSH1 0x20 PUSH1 0x1F DUP3 GT PUSH1 0x1 DUP2 EQ PUSH2 0x290F JUMPI PUSH0 DUP4 ISZERO PUSH2 0x28F8 JUMPI POP DUP5 DUP3 ADD MLOAD JUMPDEST PUSH0 NOT PUSH1 0x3 DUP6 SWAP1 SHL SHR NOT AND PUSH1 0x1 DUP5 SWAP1 SHL OR DUP5 SSTORE PUSH2 0x1FCC JUMP JUMPDEST PUSH0 DUP5 DUP2 MSTORE PUSH1 0x20 DUP2 KECCAK256 PUSH1 0x1F NOT DUP6 AND SWAP2 JUMPDEST DUP3 DUP2 LT ISZERO PUSH2 0x293E JUMPI DUP8 DUP6 ADD MLOAD DUP3 SSTORE PUSH1 0x20 SWAP5 DUP6 ADD SWAP5 PUSH1 0x1 SWAP1 SWAP3 ADD SWAP2 ADD PUSH2 0x291E JUMP JUMPDEST POP DUP5 DUP3 LT ISZERO PUSH2 0x295B JUMPI DUP7 DUP5 ADD MLOAD PUSH0 NOT PUSH1 0x3 DUP8 SWAP1 SHL PUSH1 0xF8 AND SHR NOT AND DUP2 SSTORE JUMPDEST POP POP POP POP PUSH1 0x1 SWAP1 DUP2 SHL ADD SWAP1 SSTORE POP JUMP JUMPDEST PUSH0 DUP3 MLOAD DUP1 PUSH1 0x20 DUP6 ADD DUP5 MCOPY PUSH0 SWAP3 ADD SWAP2 DUP3 MSTORE POP SWAP2 SWAP1 POP JUMP INVALID MSTORE 0xC6 ORIGIN SELFBALANCE RJUMPI 0xF47D 0xB1 SWAP14 TLOAD RJUMP 0x4600 ADDRESS 0xC4 SWAP8 CREATE PUSH8 0xCA4CEBF71BA98EEA 0xDA 0xBE KECCAK256 0xBA 0xCE STOP CALLDATASIZE ADDMOD SWAP5 LOG1 EXTCODESIZE LOG1 LOG3 0x21 MOD PUSH8 0xC828492DB98DCA3E KECCAK256 PUSH23 0xCC3735A920A3CA505D382BBC442A94F1A1FAC79AF32856 0xAF 0x2A PUSH5 0xF63648CFA2 0xEF EXTCODESIZE SWAP9 PUSH2 0xA5B 0xB7 0xCB EOFCREATE 0x4C RETURNCONTRACT 0x69 DUP6 MUL 0xDD PUSH28 0xC7DEC4DCEEDDA775E58DD541E08A116C6C53815C0BD028192F7B6268 STOP 0xCD MCOPY DATALOADN 0x5C6E XOR PUSH31 0x77E9AEE88184C21F4F2182AB5827CB3B7E07FBEDCD63F033009B779B17422D 0xD EXTDELEGATECALL 0x22 0x23 ADD DUP12 ORIGIN 0xB4 DATALOADN 0xFA46 RJUMP 0x7172 RETURNDATASIZE PUSH9 0x17E2486D003BECC55F STOP LOG2 PUSH5 0x6970667358 0x22 SLT KECCAK256 0xF7 0xC2 SWAP6 0x4D JUMPF 0x6EDF SDIV 0xD7 PUSH16 0x88F580037602B591BC93EF1A94BA3947 SWAP11 0xCD PUSH22 0xE7E8A564736F6C634300081E00330000000000000000 "
				},
				"gasEstimates": {
					"creation": {
						"codeDepositCost": "2174000",
						"executionCost": "infinite",
						"totalCost": "infinite"
					},
					"external": {
						"CAP()": "infinite",
						"DEFAULT_ADMIN_ROLE()": "238",
						"UPGRADE_INTERFACE_VERSION()": "infinite",
						"addToWhitelist(address)": "infinite",
						"allowance(address,address)": "infinite",
						"approve(address,uint256)": "infinite",
						"balanceOf(address)": "infinite",
						"batchRemoveFromWhitelist(address[],uint256,uint256)": "infinite",
						"burn(address,uint256)": "infinite",
						"cap()": "infinite",
						"decimals()": "266",
						"getRoleAdmin(bytes32)": "infinite",
						"grantRole(bytes32,address)": "infinite",
						"hasRole(bytes32,address)": "infinite",
						"initialize(string,string,address)": "infinite",
						"isWhitelisted(address)": "2656",
						"maxBatchSize()": "237",
						"mint(address,uint256)": "infinite",
						"name()": "infinite",
						"pause()": "infinite",
						"paused()": "infinite",
						"processBatch(address[],uint256,uint256)": "infinite",
						"proxiableUUID()": "infinite",
						"remainingMintable()": "infinite",
						"removeFromWhitelist(address)": "infinite",
						"renounceRole(bytes32,address)": "29131",
						"revokeRole(bytes32,address)": "infinite",
						"supportsInterface(bytes4)": "470",
						"symbol()": "infinite",
						"totalSupply()": "2348",
						"transfer(address,uint256)": "infinite",
						"transferFrom(address,address,uint256)": "infinite",
						"unpause()": "infinite",
						"upgradeToAndCall(address,bytes)": "infinite"
					},
					"internal": {
						"_authorizeUpgrade(address)": "infinite"
					}
				},
				"methodIdentifiers": {
					"CAP()": "ec81b483",
					"DEFAULT_ADMIN_ROLE()": "a217fddf",
					"UPGRADE_INTERFACE_VERSION()": "ad3cb1cc",
					"addToWhitelist(address)": "e43252d7",
					"allowance(address,address)": "dd62ed3e",
					"approve(address,uint256)": "095ea7b3",
					"balanceOf(address)": "70a08231",
					"batchRemoveFromWhitelist(address[],uint256,uint256)": "1663a066",
					"burn(address,uint256)": "9dc29fac",
					"cap()": "355274ea",
					"decimals()": "313ce567",
					"getRoleAdmin(bytes32)": "248a9ca3",
					"grantRole(bytes32,address)": "2f2ff15d",
					"hasRole(bytes32,address)": "91d14854",
					"initialize(string,string,address)": "077f224a",
					"isWhitelisted(address)": "3af32abf",
					"maxBatchSize()": "2913daa0",
					"mint(address,uint256)": "40c10f19",
					"name()": "06fdde03",
					"pause()": "8456cb59",
					"paused()": "5c975abb",
					"processBatch(address[],uint256,uint256)": "bfab3b9e",
					"proxiableUUID()": "52d1902d",
					"remainingMintable()": "f76e95e5",
					"removeFromWhitelist(address)": "8ab1d681",
					"renounceRole(bytes32,address)": "36568abe",
					"revokeRole(bytes32,address)": "d547741f",
					"supportsInterface(bytes4)": "01ffc9a7",
					"symbol()": "95d89b41",
					"totalSupply()": "18160ddd",
					"transfer(address,uint256)": "a9059cbb",
					"transferFrom(address,address,uint256)": "23b872dd",
					"unpause()": "3f4ba83a",
					"upgradeToAndCall(address,bytes)": "4f1ef286"
				}
			},
			"storageLayout": {
				"storage": [
					{
						"astId": 2944,
						"contract": "TOKEN ZARFIX (XZI).sol:ZarfiXToken",
						"label": "_whitelist",
						"offset": 0,
						"slot": "0",
						"type": "t_mapping(t_address,t_bool)"
					},
					{
						"astId": 2947,
						"contract": "TOKEN ZARFIX (XZI).sol:ZarfiXToken",
						"label": "_currentSupply",
						"offset": 0,
						"slot": "1",
						"type": "t_uint256"
					},
					{
						"astId": 3841,
						"contract": "TOKEN ZARFIX (XZI).sol:ZarfiXToken",
						"label": "__gap",
						"offset": 0,
						"slot": "2",
						"type": "t_array(t_uint256)47_storage"
					}
				],
				"types": {
					"t_address": {
						"encoding": "inplace",
						"label": "address",
						"numberOfBytes": "20"
					},
					"t_array(t_uint256)47_storage": {
						"base": "t_uint256",
						"encoding": "inplace",
						"label": "uint256[47]",
						"numberOfBytes": "1504"
					},
					"t_bool": {
						"encoding": "inplace",
						"label": "bool",
						"numberOfBytes": "1"
					},
					"t_mapping(t_address,t_bool)": {
						"encoding": "mapping",
						"key": "t_address",
						"label": "mapping(address => bool)",
						"numberOfBytes": "32",
						"value": "t_bool"
					},
					"t_uint256": {
						"encoding": "inplace",
						"label": "uint256",
						"numberOfBytes": "32"
					}
				}
			},
			"userdoc": {
				"errors": {
					"CapExceeded(uint256,uint256)": [
						{
							"notice": "Thrown when attempting to mint tokens exceeding the cap"
						}
					],
					"EmptyArray()": [
						{
							"notice": "Thrown when array is empty"
						}
					],
					"InsufficientBalance()": [
						{
							"notice": "Thrown when attempting to burn more tokens than available"
						}
					],
					"InvalidBatchSize(uint256)": [
						{
							"notice": "Thrown when batch size is invalid"
						}
					],
					"NotWhitelisted()": [
						{
							"notice": "Thrown when non-whitelisted address attempts token operations"
						}
					],
					"ZeroAddress()": [
						{
							"notice": "Thrown when attempting to use zero address where invalid"
						}
					],
					"ZeroAmount()": [
						{
							"notice": "Thrown when attempting to mint or transfer zero tokens"
						}
					]
				},
				"events": {
					"AdminChanged(address,address)": {
						"notice": "Emitted when admin role is transferred"
					},
					"BatchProcessed(uint256,uint256)": {
						"notice": "Emitted when a batch operation is completed"
					},
					"ContractInitialized(address,string,string)": {
						"notice": "Emitted when contract is initialized"
					},
					"ContractPaused(address)": {
						"notice": "Emitted when contract is paused"
					},
					"ContractUnpaused(address)": {
						"notice": "Emitted when contract is unpaused"
					},
					"TokenTransfer(address,address,uint256)": {
						"notice": "Emitted when transfer occurs"
					},
					"TokensBurned(address,uint256)": {
						"notice": "Emitted when tokens are burned from an address"
					},
					"TokensMinted(address,uint256)": {
						"notice": "Emitted when tokens are minted to an address"
					},
					"WhitelistUpdated(address,bool)": {
						"notice": "Emitted when whitelist status is updated for an address"
					}
				},
				"kind": "user",
				"methods": {
					"CAP()": {
						"notice": "Maximum total supply that can ever be minted (immutable cap)"
					},
					"addToWhitelist(address)": {
						"notice": "Adds an address to the whitelist"
					},
					"batchRemoveFromWhitelist(address[],uint256,uint256)": {
						"notice": "Batch processes whitelist removals with offset and limit to prevent DOS"
					},
					"burn(address,uint256)": {
						"notice": "Burns tokens from a specified address"
					},
					"cap()": {
						"notice": "Returns the maximum total supply cap"
					},
					"constructor": {
						"notice": "Constructor sets the immutable cap and initializes storage to avoid zero-to-one writes"
					},
					"initialize(string,string,address)": {
						"notice": "Initializes the upgradeable contract with token parameters and admin roles"
					},
					"isWhitelisted(address)": {
						"notice": "Checks if an address is whitelisted for token operations"
					},
					"maxBatchSize()": {
						"notice": "Returns the maximum batch size for batch operations"
					},
					"mint(address,uint256)": {
						"notice": "Mints new tokens to a specified address"
					},
					"pause()": {
						"notice": "Pauses all token transfers and minting/burning operations"
					},
					"processBatch(address[],uint256,uint256)": {
						"notice": "Batch processes whitelist additions with offset and limit to prevent DOS"
					},
					"remainingMintable()": {
						"notice": "Returns the remaining tokens that can be minted before hitting the cap"
					},
					"removeFromWhitelist(address)": {
						"notice": "Removes an address from the whitelist"
					},
					"totalSupply()": {
						"notice": "Returns the current total supply of tokens"
					},
					"transfer(address,uint256)": {
						"notice": "Transfers tokens from sender to recipient with whitelist enforcement"
					},
					"transferFrom(address,address,uint256)": {
						"notice": "Transfers tokens from one address to another with whitelist enforcement"
					},
					"unpause()": {
						"notice": "Unpauses token transfers and minting/burning operations"
					}
				},
				"notice": "A regulatory-compliant security token with whitelist enforcement, capped supply, and role-based access controls",
				"version": 1
			}
		}
	}
}